:020000040000FA
:0400000000EF7CF0A1
:04F7FC000000000009
:10F80000B3EF7FF000C0E5FF01C0E5FF00EE62F05E
:10F810000AEC7FF0006E00C0F3F000C0F4F00AECD8
:10F820007FF0006E0001E96F00500001F4270AEC40
:10F830007FF0006E0001E86F00500001F4270AEC31
:10F840007FF0006E00C0F5F000500001F4270001C9
:10F85000F551040A24E10001E951D8A4DBD0E851B4
:10F86000D8A4D8D00001F351020A01E0D3D00AECA9
:10F870007FF0006E0001EB6F00500001F4270AECEE
:10F880007FF0006E0001EA6F00500001F4270AECDF
:10F890007FF0006E0001F427F451D8A4B3D000012A
:10F8A000F551010A20E10AEC7FF0006E0001F42717
:10F8B000F451D8A4A7D00001F2B3BDEC7DF093ECD5
:10F8C0007FF00001F2A50BD0C00E0001E46FF70E2F
:10F8D000E56FE66BE76BBDEC7DF093EC7FF0590EC6
:10F8E00078EC7FF09AD00001EB510001E71914E1A8
:10F8F0000001EA510001E6190FE10001E9510001A0
:10F90000E5190AE1C00E0001E815006EC00E000105
:10F91000E415016E00180FE00001F2A302D0BDEC67
:10F920007DF093EC7FF0E8C0E4F0E9C0E5F0EAC0D8
:10F93000E6F0EBC0E7F00001F551040A01E15ED00A
:10F940000001F551D8A462D00001F351D8B456D0CB
:10F950000001EB51D8A45AD0EA51E00BD8A456D0FC
:10F960000001F2A912D00001F35152EC7EF0400EDA
:10F97000A9EC7FF00001E95152EC7EF00001E85162
:10F9800052EC7EF0200EA9EC7FF0EAC0F8FFE9C04F
:10F99000F7FFE8C0F6FF000100EE6AF028EE00F085
:10F9A000E8513F0BD926D8B0DA2ADD520AEC7FF0B5
:10F9B0000001F427DC6E0900F55C05E00001F2832C
:10F9C0002A0EA9EC7FF00001F2A906D0DF5052EC1C
:10F9D0007EF0200EA9EC7FF00001F32FE7D70AECB0
:10F9E0007FF0006E0001F427F45108E00001E469A3
:10F9F000E569E669E7690001F29304D0580E78ECF6
:10FA00007FF00BD07A0E78EC7FF007D0750E78EC93
:10FA10007FF003D06C0E78EC7FF0E4CF01F0E4CF00
:10FA200000F01200FF0E926E936E946E966EDEECF6
:10FA30007FF0970ED56E899C929C766A3F0E756E0C
:10FA40007086728A7284728C7290718C718E0001D1
:10FA5000E46BE56BE66BE76B0001E86BE96BEA6B67
:10FA6000EB6B93EC7FF00001F26B93988A88898CA2
:10FA700071984B0EA9EC7FF0BDEC7FF00001EC6BB0
:10FA8000ED6B006A89BC002A0050010A02E1BDEC5E
:10FA90007FF00001606BCAEC7EF000016051D8B4C9
:10FAA0005CD0898C71988AA802D08A9801D08A8803
:10FAB00061C000F00050520A03E169EC7FF00BD006
:10FAC0000050500A03E15AEC7FF005D00050560A6E
:10FAD00002E186EC7EF00001F2A13FD00050450A21
:10FAE00003E148EC7FF039D000503A0A03E102EC20
:10FAF0007CF033D00050720A03E1A9EC7EF02DD0E7
:10FB00000050410A03E1E1EC7FF027D00050760A73
:10FB100024E1006A00016251300A01E1002A00502C
:10FB2000D880E866D890006A00360050010BE838AB
:10FB3000E840F46E0001F251F70BF410F26F320E50
:10FB40000001625D006A00360050010BE838F46E77
:10FB50000001F251EF0BF410F26F0001F2B191D7F6
:10FB60000001ED51800F800F02E1A10EEC5DD8A0E5
:10FB700088D7E1EC7FF085D7120000C0E5FF01C017
:10FB8000E5FF02C0E5FF03C0E5FF0001E4513F0BC4
:10FB900004E0210EA9EC7FF07CD00001E75103E1E5
:10FBA000E651E00BD8A475D0E4C000F0E5C001F048
:10FBB000026A036A0350800F800F08E1000E025CA6
:10FBC00005E1F80E015C02E1000E005C01E361D08A
:10FBD000E4C000F0E5C001F0E6C002F0E7C003F0C9
:10FBE000005001100210031013E100C8E0F001C83A
:10FBF000E1F002C8E2F003C8E3F00801006BEF0E89
:10FC0000016F7C0E026FF00E036F0001F28515D0BC
:10FC10000050C00A07E10150F70A04E1025002E176
:10FC2000035001E00AD0E0C03CF8E1C03DF8E2C07A
:10FC30003EF8E3C03FF80001F2950001F2A70BD0B7
:10FC4000200EA9EC7FF00001E55152EC7EF000019E
:10FC5000E45152EC7EF0E6C0F8FFE5C0F7FFE4C0E7
:10FC6000F6FF940EC5EC7FF00A0008EE00F00001EC
:10FC7000080EEE6F080EEF6FEE50F56E0F00EF2FCF
:10FC8000FBD7840E82D9EE2FF5D7A694570E78ECC9
:10FC90007FF0E4CF03F0E4CF02F0E4CF01F0E4CF53
:10FCA00000F0120000C0E5FF01C0E5FF02C0E5FF63
:10FCB000006E00380F0B026E300E02260250016EED
:10FCC0003A0E015C06E30150026E070E0226025056
:10FCD000016E0150A9EC7FF00F0E0014006E300E83
:10FCE00000260050016E3A0E015C06E30150006EE2
:10FCF000070E00260050016E0150A9EC7FF0E4CF02
:10FD000002F0E4CF01F0E4CF00F0120000EE62F068
:10FD1000000160050001EF6FEF07010EEE6FEE517D
:10FD2000D8EC7FF004E10A0EEE6FD8EC7FF0EE5CC9
:10FD3000D8A41200EE2BEF2FF2D7EE51D8EC7FF0C3
:10FD4000D8A41200560E78EC7FF00001F281F295F3
:10FD5000120000C0E5FF00EE62F00AEC7FF0F76EE3
:10FD60000AEC7FF0F66E720EA9EC7FF0200EA9EC83
:10FD70007FF0100E006E0900F55052EC7EF0200E60
:10FD8000A9EC7FF0002EF7D70A0EA9EC7FF0E4CFA4
:10FD900000F01200D2EC7FF0000100EE60F0EAEC1F
:10FDA0007EF0E86614D07450EE6EEE6FEF6FD8B44C
:10FDB0000ED0D2EC7FF0EAEC7EF0E86608D074500A
:10FDC000EE6EEF27EE2FF5D7EF53D8B412000001F7
:10FDD000606B1200A4BA08D0F2A4FCD70001EC2B8F
:10FDE00001E3ED2BE86815D08A9871B202D071A4B6
:10FDF00004D0BDEC7FF0E8680CD071A009D074503D
:10FE000005E1D2EC7FF0EAEC7EF003D0E1EC7FF08C
:10FE1000E86A12000001EECFEEF0EECFEFF0D00E68
:10FE2000EE27EF27F60EEE25F90ED8B0EE27F60EE8
:10FE3000EF25F90ED8B0EF27EE39EF25E850120084
:10FE400000EE68F000016051F80F0001EE6F09E06C
:10FE5000F05D07E3EE50A86E87EC7FF0A92AEE2F45
:10FE6000F9D7A86A87EC7FF0120000C0E5FF01C057
:10FE7000E5FF006A00EE62F0060E016EEE5000260D
:10FE8000012EFCD70050E4CF01F0E4CF00F01200C7
:10FE900000EE61F0000160510001EE6F07E0EE0737
:10FEA00005E0EE50A9EC7FF0EE2FFBD70A0EA9EC8F
:10FEB0007FF0120035EC7FF0B80A0AE1010EA96E5E
:10FEC000080E0001F06F20EC7FF0500E78EC7FF010
:10FED000120035EC7FF0A00A0AE10A0EA96E100E9E
:10FEE0000001F06F20EC7FF0520E78EC7FF01200F2
:10FEF00000C0E5FF006E200EA9EC7FF00050A9ECD9
:10FF00007FF00A0EA9EC7FF0E4CF00F01200A69E6D
:10FF1000A69CA684550EA76EAA0EA76EA682A6B2B0
:10FF2000FED7A69412000001F2930001400EEE6F7E
:10FF300008EE00F0EE68EE2FFDD71200700ED36EC3
:10FF40009B8CFF0E9268936894689668626AF19E33
:10FF5000120000C0E5FF006EA4A8FED700C073FF2A
:10FF6000E4CF00F0120017EEFFF027EEFFF0F86A82
:10FF7000A68EA69C12EC7DF0FFD772A2FED7899CBC
:10FF800074507450719871881200A66E550EA76E49
:10FF9000AA0EA76EA6821200CEEF7FF012EC7DF0C3
:10FFA000D0EF7FF0F70ED76EF80ED66EF2941200F7
:10FFB000A96EA69CA69EA680A85012009EEC7FF07B
:06FFC0001200FEEF7BF0D1
:020000040030CA
:0E000000FF38E2E2FF6FBBFFFFFFFFFFFFFFD5
:0200000400F00A
:0400000000000000FC
:00000001FF
