:020000040000FA
:100000004FEF1EF0C96E120045EF1AF0C5EC1CF060
:1000100086EC18F0FDD712002AEF1CF0D9CFE5FFCF
:10002000E1CFD9FF00C0E5FF01C0E5FF02C0E5FF59
:1000300003C0E5FF04C0E5FF05C0E5FF06C0E5FF1E
:1000400007C0E5FF08C0E5FF09C0E5FF0AC0E5FFFE
:100050000BC0E5FF0CC0E5FF0DC0E5FF0EC0E5FFDE
:100060000FC0E5FF10C0E5FF11C0E5FF12C0E5FFBE
:1000700013C0E5FF14C0E5FF15C0E5FF16C0E5FF9E
:1000800017C0E5FF18C0E5FF19C0E5FF1AC0E5FF7E
:100090001BC0E5FF1CC0E5FF1DC0E5FF1EC0E5FF5E
:1000A000020EDBCF00F0030EDBCF01F0040EDBCF3E
:1000B00002F0050EDBCF03F0060EDBCF04F0070ED7
:1000C000DBCF05F0080EDBCF06F0090EDBCF07F023
:1000D0000A0EDBCF08F0096A0A6A02C00DF00D5063
:1000E000800A0DE102500401BF6F0150BE6F005045
:1000F000BD6F040E016EBD0E006E800E026E03C059
:10010000E9FF04C0F3FF055088EC1EF00B6E0B50A6
:10011000D8B4FCEF03F00B50250A02E0E3EF03F044
:100120000C6A0D6A0E6A0F6A106A0A0E116E126A64
:10013000136A146A200E156E1668176A2B0E186E55
:10014000032A02E3044A052A03C0E9FF04C0F3FFBF
:10015000055088EC1EF0196E250A13E11950E56E62
:100160000250E56E0150E56E0050E56E3CEC14F077
:10017000040EE126094A0A2A032A02E3044A052A50
:10018000BED71950300A06E1300E156E032A02E37D
:10019000044A052A03C0E9FF04C0F3FF055088ECB8
:1001A0001EF02D0A06E1010E146E032A02E3044A32
:1001B000052A03C0E9FF04C0F3FF055088EC1EF0D8
:1001C000200A08E1010E176E200E186E032A02E3C2
:1001D000044A052A03C0E9FF04C0F3FF055088EC78
:1001E0001EF02B0A06E1010E176E032A02E3044AF1
:1001F000052A03C0E9FF04C0F3FF055088EC1EF098
:10020000196E800F4F0F2DE31950800F460F29E212
:1002100003C019F004C01AF005C01BF019C0E9FFB3
:100220001AC0F3FF1B5088EC1EF01C6E800F500F9D
:1002300012E31C50800F460F0EE213500A0DF3CF4D
:100240001DF01D501C26D00E1C24136E192A02E32B
:100250001A4A1B2AE3D719C003F01AC004F01BC0C6
:1002600005F003C0E9FF04C0F3FF055088EC1EF061
:100270002E0A2EE1032A02E3044A052A166A03C065
:1002800019F004C01AF005C01BF019C0E9FF1AC02C
:10029000F3FF1B5088EC1EF01C6E800F500F12E312
:1002A0001C50800F460F0EE216500A0DF3CF1DF0C2
:1002B0001D501C26D00E1C24166E192A02E31A4A61
:1002C0001B2AE3D719C003F01AC004F01BC005F0C5
:1002D00003C0E9FF04C0F3FF055088EC1EF0196E5F
:1002E0006C0A07E1010E0C6E032A02E3044A052A98
:1002F00009D01950680A06E1010E0E6E032A02E3C6
:10030000044A052A03C0E9FF04C0F3FF055088EC46
:100310001EF0750A06E1010E106E032A02E3044A7C
:10032000052A03C0E9FF04C0F3FF055088EC1EF066
:10033000196E730A05E1010E0D6E200E156E3FD089
:100340001950780A03E1100E116E39D01950580A6D
:1003500005E1100E116E010E126E31D01950630AB4
:1003600002E1116A2CD019506F0A03E1080E116ED8
:1003700026D01950660A03E1010E0F6E20D01950E5
:10038000640A1DE01950690A1AE0105005E0FF0EDA
:1003900003260422052213D01950E56E0250E56EA3
:1003A0000150E56E0050E56E3CEC14F0040EE126C1
:1003B000094A0A2A032A02E3044A052AA0D60D5054
:1003C00021E00650030F0D6E000E0720196E000E7F
:1003D00008201A6E0DC006F019C007F01AC008F008
:1003E000FD0E0D26FF0E19221A220DC0E9FF19C0BD
:1003F000F3FF1A5064EC1DF00D6EF3CF19F0F4CF3B
:100400001AF032D10F50D8B43ED00650040F0F6E00
:10041000000E07201B6E000E08201C6E0FC006F099
:100420001BC007F01CC008F0FC0E0F26FF0E1B229D
:100430001C220FC0E9FF1BC0F3FF1C50EAEC1CF0AC
:100440000F6EF3CF1BF0F4CF1CF0E9CF1DF0040EBC
:10045000196E000E0D6E800E1A6E1650E56E240E8B
:10046000E56E040EE56E000EE56E1D50E56E1C5047
:10047000E56E1B50E56E0F50E56E31EC0CF0080E8A
:10048000E1261668F1D016680C5023E00650040FE0
:100490000C6E000E07200F6E000E08201B6E0CC0A5
:1004A00006F00FC007F01BC008F0FC0E0C26FF0E74
:1004B0000F221B220CC0E9FF0FC0F3FF1B50EAEC18
:1004C0001CF00C6EF3CF0FF0F4CF1BF0E9CF1CF053
:1004D0006AD00E5032E00650020F0E6E000E07205A
:1004E0001D6E000E08201E6E0EC006F01DC007F027
:1004F0001EC008F0FE0E0E26FF0E1D221E220EC08C
:10050000E9FF1DC0F3FF1E5023EC1EF00E6E0EC05F
:100510000CF0E86A0EBEFF0E0F6E1B6E1C6E1150C3
:100520000A0A03E11050D8B43ED00C500E6E0EC033
:100530000CF00F6A1B6A1C6A36D00650020F0E6E52
:10054000000E07201D6E000E08201E6E0EC006F065
:100550001DC007F01EC008F0FE0E0E26FF0E1D2265
:100560001E220EC0E9FF1DC0F3FF1E5023EC1EF03B
:100570000E6EF3CF1DF00EC00CF01DC00FF0E86A38
:100580001DBEFF0E1B6E1C6E11500A0A02E11050B8
:100590000AE00C500E6E0F501D6E0EC00CF01DC008
:1005A0000FF01B6A1C6A040E196E010E0D6E800E90
:1005B0001A6E1150D8B440D0105013E01150E56EAF
:1005C000040EE56E010EE56E1C50E56E1B50E56EE7
:1005D0000F50E56E0C50E56E4FEC0FF0070EE12664
:1005E00012D01150E56E040EE56E010EE56E1C5042
:1005F000E56E1B50E56E0F50E56E0C50E56E81EC1C
:1006000016F0070EE12617502FE00DC0E9FF19C0C4
:10061000F3FF1A5088EC1EF02D0A26E0FF0E0D267F
:1006200019221A2218C0E5FF0DC0E9FF19C0F3FF17
:100630001A5006EC1FF018D00CC0E5FF0DC0E9FF02
:1006400019C0F3FF1A5006EC1FF00D50010F0C6E8D
:10065000000E19200E6E000E1A20E56A0CC0E9FF8C
:100660000EC0F3FF06EC1FF00DC00CF019C00EF029
:100670001AC00FF013C010F0105010E00CC0E9FFCA
:100680000EC0F3FF0F5088EC1EF0176E175006E0F7
:100690000C2A02E30E4A0F2A1006EED710C013F000
:1006A00014501EE109C00CF00AC00EF010C00FF08B
:1006B0000F5010E01550E56E0250E56E0150E56EEA
:1006C0000050E56E3CEC14F0040EE1260C4A0E2AB4
:1006D0000F06EED70CC009F00EC00AF00FC013F0E1
:1006E00016C00CF00DC00DF019C00EF01AC00FF0BE
:1006F00009C010F00AC015F00DC0E9FF0EC0F3FFED
:100700000F5088EC1EF0166E1650D8B43ED00CC0B8
:1007100016F0176A161E171E1650171005E00CC0AB
:1007200016F00C06165031E00DC0E9FF0EC0F3FFC5
:100730000F5088EC1EF0116E125010E01150E56E53
:10074000E0EC1DF0166EE652165004E01150166EE5
:10075000169A02D011C016F016C011F01150E56EB5
:100760000250E56E0150E56E0050E56E3CEC14F071
:10077000040EE1260D2A02E30E4A0F2A104A152A1A
:100780001350D8B4B9D71306B7D710C009F015C0A5
:100790000AF014502BE010C00CF015C00DF013C07F
:1007A0000EF00E501FE0200EE56E0250E56E015077
:1007B000E56E0050E56E3CEC14F0040EE1260C4AA8
:1007C0000D2A0E06EED70B50E56E0250E56E015075
:1007D000E56E0050E56E3CEC14F0040EE126094A8B
:1007E0000A2A04D00CC009F00DC00AF0032A02E363
:1007F000044A052A7FEF00F00AC0F3FF0950E4CF56
:100800001EF0E4CF1DF0E4CF1CF0E4CF1BF0E4CFEA
:100810001AF0E4CF19F0E4CF18F0E4CF17F0E4CFEA
:1008200016F0E4CF15F0E4CF14F0E4CF13F0E4CFEA
:1008300012F0E4CF11F0E4CF10F0E4CF0FF0E4CFEA
:100840000EF0E4CF0DF0E4CF0CF0E4CF0BF0E4CFEA
:100850000AF0E4CF09F0E4CF08F0E4CF07F0E4CFEA
:1008600006F0E4CF05F0E4CF04F0E4CF03F0E4CFEA
:1008700002F0E4CF01F0E4CF00F0E4CFD9FF1200A2
:1008800005C0E5FF06C0E5FF07C0E5FF08C0E5FFBE
:1008900009C0E5FF0AC0E5FF0BC0E5FF0CC0E5FF9E
:1008A0000DC0E5FF0EC0E5FF0FC0E5FF10C0E5FF7E
:1008B00011C0E5FF12C0E5FF13C0E5FF14C0E5FF5E
:1008C00015C0E5FF16C0E5FF17C0E5FF18C0E5FF3E
:1008D00019C0E5FF1AC0E5FF1BC0E5FF1CC0E5FF1E
:1008E0001DC0E5FF000E00B0050F066AF60F02E31B
:1008F000062AFCD70A0F056E042E03D0FB0F01E376
:10090000062A065000B0020F00B2050F076AF60F64
:1009100002E3072AFCD70A0F066E042E03D0FB0F52
:1009200001E3072A075000B0060F00B2020F00B41F
:10093000050F086AF60F02E3082AFCD70A0F076EB4
:10094000042E03D0FB0F01E3082A085000B2010F68
:1009500000B4020F00B6050F096AF60F02E3092A78
:10096000FCD70A0F086E042E03D0FB0F01E3092AFF
:10097000095000B0090F00B2080F00B4060F00B60E
:10098000020F00B8050F0A6AF60F02E30A2AFCD725
:100990000A0F096E042E03D0FB0F01E30A2A0A5046
:1009A00000B0030F00B2070F00B4050F00B6010F2F
:1009B00000B8020F00BA050F0B6AF60F02E30B2A0C
:1009C000FCD70A0F0A6E042E03D0FB0F01E30B2A9B
:1009D0000B5000B0050F00B4010F00B6030F00B8B4
:1009E000060F00BA020F00BC050F0C6AF60F02E3F7
:1009F0000C2AFCD70A0F0B6E042E03D0FB0F01E369
:100A00000C2A0C5000B0070F00B2050F00BA010FFE
:100A100000BC020F00BE050F0D6AF60F02E30D2A9F
:100A2000FCD70A0F0C6E042E03D0FB0F01E30D2A36
:100A30000D5000B0070F00B2050F00B4010F00B653
:100A4000020F00B8040F00BA080F00BC060F00BE6A
:100A5000020F01B0050F0E6AF60F02E30E2AFCD753
:100A60000A0F0D6E042E03D0FB0F01E30E2A0E5069
:100A700000B0040F00B2090F00B4090F00B6080F50
:100A800000B8060F00BA020F00BC050F00BE010F30
:100A900001B0020F01B2050F0F6AF60F02E30F2A31
:100AA000FCD70A0F0E6E042E03D0FB0F01E30F2AB2
:100AB0000F5000B0040F00B2080F00B4070F00B6CB
:100AC000050F00B8010F00BA030F00BC060F00BEEF
:100AD000030F01B0060F01B2020F01B4050F106A37
:100AE000F60F02E3102AFCD70A0F0F6E042E03D074
:100AF000FB0F01E3102A105000B0060F00B2020FE6
:100B000000B4050F00B6010F00B8030F00BA060FBE
:100B100000BC020F00BE050F01B2010F01B4020FAD
:100B200001B6050F116AF60F02E3112AFCD70A0F6E
:100B3000106E042E03D0FB0F01E3112A115000B0F8
:100B4000040F00B2090F00B4080F00B6070F00B879
:100B5000040F00BA080F00BC070F00BE040F01B05D
:100B6000090F01B2080F01B4060F01B6020F01B858
:100B7000050F126AF60F02E3122AFCD70A0F116E54
:100B8000042E03D0FB0F01E3122A125000B4010F10
:100B900000B6030F00B8070F00BA040F00BC090F1E
:100BA00000BE090F01B0080F01B2070F01B4050F15
:100BB00001B6010F01B8020F01BA050F136AF60F53
:100BC00002E3132AFCD70A0F126E042E03D0FB0F88
:100BD00001E3132A135000B0060F00B2020F00B455
:100BE000040F00B6080F00B8060F00BA030F00BCD0
:100BF000060F00BE030F01B0070F01B2050F01B4CD
:100C0000010F01B6030F01B8060F01BA020F01BCB4
:100C1000050F146AF60F02E3142AFCD70A0F136EAD
:100C2000042E03D0FB0F01E3142A145000B0090F67
:100C300000B2090F00B4080F00B6060F00B8030F8A
:100C400000BA070F00BC040F00BE090F01B0080F67
:100C500001B2070F01B4050F01BA010F01BC020F69
:100C600001BE050F156AF60F02E3152AFCD70A0F1D
:100C7000146E042E03D0FB0F01E3152A155000B0AB
:100C8000050F00B2010F00B4030F00B6070F00B844
:100C9000050F00BC010F00BE020F01B0050F01B22D
:100CA000010F01B4030F01B6070F01B8040F01BA19
:100CB000080F01BC060F01BE020F02B0050F166A35
:100CC000F60F02E3162AFCD70A0F156E042E03D086
:100CD000FB0F01E3162A165000B2010F00B4020FF9
:100CE00000B6040F00B8090F00BA090F00BC080FC6
:100CF00000BE060F01B0020F01B2050F01B8010FCF
:100D000001BA020F01BC050F01BE010F02B0020FB4
:100D100002B2050F176AF60F02E3172AFCD70A0F73
:100D2000166E042E03D0FB0F01E3172A175000BAEA
:100D3000010F00BC030F00BE070F01B0050F01B487
:100D4000010F01B6020F01B8040F01BA080F01BC70
:100D5000060F01BE030F02B0060F02B2020F02B46B
:100D6000050F186AF60F02E3182AFCD70A0F176E50
:100D7000042E03D0FB0F01E3182A185001B0010F15
:100D800001B2030F01B4060F01B6020F01B8040F40
:100D900001BA080F01BC070F01BE050F02B2010F17
:100DA00002B4020F02B6050F196AF60F02E3192A00
:100DB000FCD70A0F186E042E03D0FB0F01E3192A8B
:100DC000195001B6010F01B8020F01BA040F01BC9E
:100DD000090F01BE090F02B0090F02B2080F02B4D9
:100DE000060F02B6020F02B8050F1A6AF60F02E3E9
:100DF0001A2AFCD70A0F196E042E03D0FB0F01E349
:100E00001A2A1A5001BE010F02B0030F02B2070FD7
:100E100002B4050F02B6010F02B8020F02BA050FA5
:100E20001B6AF60F02E31B2AFCD70A0F1A6E042E68
:100E300003D0FB0F01E31B2A1B5002B4010F02B6C3
:100E4000030F02B8060F02BA020F02BC050F1C6A9C
:100E5000F60F02E31C2AFCD70A0F1B6E042E03D0E8
:100E6000FB0F01E31C2A1C5002BA010F02BC020F47
:100E700002BE050F1D6AF60F02E31D2AFCD70A0FFA
:100E80001C6E042E03D0FB0F01E31D2A300FEE6E03
:100E90001B50300FEE6E1A50300FEE6E1950300F9F
:100EA000EE6E1850300FEE6E1750300FEE6E16507B
:100EB000300FEE6E1550300FEE6E1450300FEE6E98
:100EC0001350300FEE6E1250300FEE6E1150300F87
:100ED000EE6E1050300FEE6E0F50300FEE6E0E5063
:100EE000300FEE6E0D50300FEE6E0C50300FEE6E78
:100EF0000B50300FEE6E0A50300FEE6E0950300F6F
:100F0000EE6E0850300FEE6E0750300FEE6E06504A
:100F1000300FEE6E0550300FEE6E170EE4CF1DF061
:100F2000E4CF1CF0E4CF1BF0E4CF1AF0E4CF19F0CB
:100F3000E4CF18F0E4CF17F0E4CF16F0E4CF15F0CB
:100F4000E4CF14F0E4CF13F0E4CF12F0E4CF11F0CB
:100F5000E4CF10F0E4CF0FF0E4CF0EF0E4CF0DF0CB
:100F6000E4CF0CF0E4CF0BF0E4CF0AF0E4CF09F0CB
:100F7000E4CF08F0E4CF07F0E4CF06F0E4CF05F0CB
:100F8000120000C0E5FF01C0E5FF02C0E5FF03C09D
:100F9000E5FF04C0E5FF05C0E5FF06C0E5FF07C0AB
:100FA000E5FF08C0E5FF09C0E5FF0AC0E5FF0BC08B
:100FB000E5FF0CC0E5FF0401B4A509D0006AB4B197
:100FC000002A016AB4B3012A0050011801E056D189
:100FD0000401B495010E006E00C001F00150D8B4B8
:100FE00053D00104026E810E0224036E046A040EC3
:100FF000042203C0E9FF04C0EAFFEFCF05F005506B
:10100000020DF450076EF3CF06F0240E0626040EF0
:10101000072206C0E9FF07C0EAFFEECF06F0EFCFD8
:1010200007F0810E0124086E096A040E092208C027
:10103000E9FF09C0EAFFEFCF0AF00A50020DF450B1
:101040000C6EF3CF0BF0240E0B26040E0C220BC0FB
:10105000E9FF0CC0EAFFEECF0BF0EFCF0CF007502A
:101060000C5C02E106500B5C0FE203C0E9FF04C018
:10107000EAFF0AC0EFFF08C0E9FF09C0EAFF05C0A8
:10108000EFFF02C001F0AAD7002A080E005CD8A02A
:10109000A3D7006A0401B4B1002A005003E1006A3A
:1010A000002A01D0006A016A00BE0168C40E002651
:1010B000040E012281C402F000C0E9FF01C0EAFF72
:1010C00002C0EFFF006A0401B4B1002A005003E13E
:1010D000006A002A01D0006A0050020DF45000BEE0
:1010E0000208016EF3CF00F08A0E0026040E0122E2
:1010F00004018151020DF450036EF3CF02F0240E6F
:101100000226040E032202C0E9FF03C0EAFFEECF6D
:1011100002F0EFCF03F00250FF08026EFF0E0356FD
:1011200000C0E9FF01C0EAFF02C0EEFF03C0EFFF0D
:10113000006A810E0024016E026A040E022201C0C0
:10114000E9FF02C0EAFFEFCF05F00401B4B102D01D
:10115000080E0526230E0524016E026A0F0E0222D8
:101160000028036E810E0324046E066A040E062214
:1011700004C0E9FF06C0EAFFEFCF07F001C0E9FFB6
:1011800002C0EAFF07C0EFFF0550020DF450026EE7
:10119000F3CF01F0E00E0126000E022204C0E9FFA9
:1011A00006C0EAFFEFCF04F00450020DF450066EC3
:1011B000F3CF04F0240E0426040E062204C0E9FF37
:1011C00006C0EAFFEECF04F0EFCF06F0810E002458
:1011D000076E086A040E082207C0E9FF08C0EAFF8C
:1011E000EFCF07F00750020DF450086EF3CF07F071
:1011F000240E0726040E082207C0E9FF08C0EAFFF4
:10120000EECF07F0EFCF08F00750045E0850065A03
:101210000450FF08046EFF0E065601C0E9FF02C02D
:10122000EAFF04C0EEFF06C0EFFF03C000F0070EA8
:10123000005CD8A07ED788C405F00401B4B102D008
:10124000080E0526006A230E05260F0E002205C093
:10125000E9FF00C0EAFF080EEF6E006A0401B4B1B6
:10126000002A0050D880E866D890006A0036005006
:10127000010BF46EB451FE0BF410B46FE4CF0CF01C
:10128000E4CF0BF0E4CF0AF0E4CF09F0E4CF08F0AC
:10129000E4CF07F0E4CF06F0E4CF05F0E4CF04F0AC
:1012A000E4CF03F0E4CF02F0E4CF01F0E4CF00F0AC
:1012B000120000C0E5FF01C0E5FFF0A23DD07CC4F4
:1012C0009BF47DC49CF47EC49DF47FC49EF4F09294
:1012D0000401B493B4B1B4838A908A928A988A9AAA
:1012E000040189958995899589950401B4A303D052
:1012F000C5C400F002D0C4C400F000C0D8F404019A
:10130000B4A305D08CC400F08DC401F004D08AC40D
:1013100000F08BC401F000C0C2F401C0C3F40F019F
:101320004E910401C3510F01506F0401C2510F01CE
:101330004F6F7E920F014E817EA238D10F014E91E8
:101340007E920401D8B597D0D8B34AD0D8B124D072
:101350008A800401B4A310D02BCFD8F40401D8B7ED
:1013600025D10001F1510F01506F0001F0510F0123
:101370004F6F0F014E811AD123CFD8F40401D8B793
:1013800015D10001E1510F01506F0001E0510F0133
:101390004F6F0F014E810AD18A820401B4A310D08D
:1013A0002CCFD8F40401D8B701D10001F3510F01BB
:1013B000506F0001F2510F014F6F0F014E81F6D0B7
:1013C00024CFD8F40401D8B7F1D00001E3510F01C4
:1013D000506F0001E2510F014F6F0F014E81E6D0B7
:1013E0000401D8B124D08A880401B4A310D02DCF31
:1013F000D8F40401D8B7DAD00001F5510F01506FCD
:101400000001F4510F014F6F0F014E81CFD025CF56
:10141000D8F40401D8B7CAD00001E5510F01506FCC
:101420000001E4510F014F6F0F014E81BFD08A8A36
:101430000401B4A310D02ECFD8F40401D8B7B6D08D
:101440000001F7510F01506F0001F6510F014F6F6E
:101450000F014E81ABD026CFD8F40401D8B7A6D067
:101460000001E7510F01506F0001E6510F014F6F6E
:101470000F014E819BD00401D8B34CD0D8B125D0F8
:10148000040189850401B4A310D02FCFD8F404013E
:10149000D8B78CD00001F9510F01506F0001F851FD
:1014A0000F014F6F0F014E8181D027CFD8F4040177
:1014B000D8B77CD00001E9510F01506F0001E8510D
:1014C0000F014F6F0F014E8171D004018985040116
:1014D000B4A310D030CFD8F40401D8B767D000013E
:1014E000FB510F01506F0001FA510F014F6F0F01B7
:1014F0004E815CD028CFD8F40401D8B757D0000172
:10150000EB510F01506F0001EA510F014F6F0F01B6
:101510004E814CD00401D8B125D004018985040145
:10152000B4A310D031CFD8F40401D8B73FD0000114
:10153000FD510F01506F0001FC510F014F6F0F0162
:101540004E8134D029CFD8F40401D8B72FD0000170
:10155000ED510F01506F0001EC510F014F6F0F0162
:101560004E8124D0040189850401B4A310D032CF68
:10157000D8F40401D8B71AD00001FF510F01506F01
:101580000001FE510F014F6F0F014E810FD02ACF86
:10159000D8F40401D8B70AD00001EF510F01506F01
:1015A0000001EE510F014F6F0F014E81E4CF01F0AA
:1015B000E4CF00F0120000C0E5FF01C0E5FF02C06B
:1015C000E5FF03C0E5FF04C0E5FF05C0E5FF06C079
:1015D000E5FF07C0E5FF08C0E5FF09C0E5FF0AC059
:1015E000E5FF0BC0E5FF0CC0E5FF0DC0E5FF0EC039
:1015F000E5FF000E00B0010F00B2020F00B4040FAF
:1016000000B6080F00B8060F00BA020F00BC040FA6
:1016100000BE080F01B0060F01B2020F01B4040FA3
:1016200001B6080F01B8060F01BA020F01BC040F82
:1016300001BE080F02B0060F02B2020F02B4040F7F
:1016400002B6080F02B8060F02BA020F02BC040F5E
:1016500002BE080F056AF60F02E3052AFCD70A0F3F
:10166000046E055000B8010F00BA030F00BC060F4E
:1016700000BE020F01B0050F01B2010F01B4020F4D
:1016800001B6040F01B8090F01BA090F01BC080F18
:1016900001BE060F02B0030F02B2070F02B4040F1F
:1016A00002B6080F02B8070F02BA050F066AF60F56
:1016B00002E3062AFCD70A0F056E065000BE010F92
:1016C00001B0020F01B2050F01BA010F01BC030FF7
:1016D00001BE070F02B0050F02B4010F02B6020FE0
:1016E00002B8050F02BA010F02BC030F02BE060FBB
:1016F000076AF60F02E3072AFCD70A0F066E0750A7
:1017000001B4010F01B6020F01B8040F01BA080FAE
:1017100001BC060F01BE020F02B0050F02B2010F9D
:1017200002B4020F02B6040F02B8080F02BA070F84
:1017300002BC040F02BE080F086AF60F02E3082A73
:10174000FCD70A0F076E085001BC010F01BE030F42
:1017500002B0060F02B2030F02B4060F02B6020F68
:1017600002B8040F02BA090F02BC090F02BE080F2B
:10177000096AF60F02E3092AFCD70A0F086E09501E
:1017800002B2010F02B4020F02B6050F02BC010F34
:1017900002BE030F0A6AF60F02E30A2AFCD70A0FF9
:1017A000096E0A5002B8010F02BA020F02BC040F00
:1017B00002BE080F0B6AF60F02E30B2AFCD70A0FD2
:1017C0000A6E0B500E6A0EE10A5010E1095012E148
:1017D000085014E1075016E1065018E105501AE1CF
:1017E00004501CD00E2A300FEE6E0A500E2A300F15
:1017F000EE6E09500E2A300FEE6E08500E2A300F92
:10180000EE6E07500E2A300FEE6E06500E2A300F85
:10181000EE6E05500E2A300FEE6E04500E2A300F79
:10182000EE6E0E50E4CF0EF0E4CF0DF0E4CF0CF0EE
:10183000E4CF0BF0E4CF0AF0E4CF09F0E4CF08F0F6
:10184000E4CF07F0E4CF06F0E4CF05F0E4CF04F0F6
:10185000E4CF03F0E4CF02F0E4CF01F0E4CF00F0F6
:101860001200D9CFE5FFE1CFD9FF00C0E5FF01C0ED
:10187000E5FF02C0E5FF03C0E5FF04C0E5FF05C0CA
:10188000E5FF06C0E5FF07C0E5FF08C0E5FF09C0AA
:10189000E5FF0AC0E5FF0BC0E5FF020EDBCF00F05D
:1018A000030EDBCF01F0040EDBCF02F0050EDBCF21
:1018B00003F0060EDBCF04F0070EDBCF05F0080EB9
:1018C000DBCF06F0090EDBCF07F006C008F00606F6
:1018D00008500EE006500424086EE86A06BEE86868
:1018E0000520096E08C0E9FF09C0EAFFEF6AEDD7DD
:1018F00000500401B06F0150B16F0250B26F03503D
:10190000B36FB0C400F0B1C401F0B2C402F0B3C40C
:1019100003F0066A086A096A800E03140A6E06500C
:1019200007E1085005E1095003E10A50800A01E08F
:1019300012D0039E00500401B06F0150B16F0250ED
:10194000B26F0350B36F04C0E9FF05C0EAFF2D0E6C
:10195000EF6E044A052A0401B235B3357E08006EE5
:10196000B051016EB151026E7F0EB215036E066A60
:10197000038E086A096A0A6A0B6A005019E0D88067
:1019800000AED8900EE30850082609360A360B360A
:1019900003BE088001500126023603360636002AAF
:1019A000ECD7D89006320332023201320006E5D776
:1019B000085009100A100B1012E00550E56E045093
:1019C000E56E0B50E56E0A50E56E0950E56E085065
:1019D000E56EABEC1BF0006E060EE12608D004C0ED
:1019E000E9FF05C0EAFF300EEF6E010E006E0050F9
:1019F0000426E86A00BEE8680522075028E004C013
:101A0000E9FF05C0EAFF2E0EEF6E002A044A052A00
:101A100007501808E56E0550E56E0450E56E065057
:101A2000E56E0350E56E0250E56E0150E56EEDEC9B
:101A30001AF0016E070EE126015000260750042619
:101A4000E86A052204C0E9FF05C0EAFFEF6A00501A
:101A5000E4CF0BF0E4CF0AF0E4CF09F0E4CF08F0D4
:101A6000E4CF07F0E4CF06F0E4CF05F0E4CF04F0D4
:101A7000E4CF03F0E4CF02F0E4CF01F0E4CF00F0D4
:101A8000E4CFD9FF1200D9CFE5FFE1CFD9FF00C0E5
:101A9000E5FF01C0E5FF02C0E5FF03C0E5FF04C0AC
:101AA000E5FF05C0E5FF06C0E5FF07C0E5FF020E44
:101AB000DBCF00F0030EDBCF01F0040EDBCF02F032
:101AC000050EDBCF03F0060EDBCF04F0070EDBCFF5
:101AD00005F0080EDBCF06F0090EDBCF07F0005053
:101AE00004018E6F01508F6F0250906F0350916F01
:101AF00004500401A06F0550A16F0650A26F07505B
:101B0000A36F04018E510401A203F4CF01F0F3CFBF
:101B100000F000500401A66F0150A76F04018E5120
:101B20000401A003F4CF01F0F3CF00F00050040152
:101B3000A46F0150A56F040191510401A003F3CFDC
:101B400000F00401A75100260050A76F0401905136
:101B50000401A103F3CF00F00401A75100260050B7
:101B6000A76F040190510401A003F4CF01F0F3CF5B
:101B700000F00401A6510026A75101220050A66FD3
:101B80000150A76F04018F510401A103F4CF01F0AC
:101B9000F3CF00F00401A6510026A7510122005006
:101BA000A66F0150A76F04018F510401A203F3CF68
:101BB00000F000500401AB6F04018F510401A00339
:101BC000F4CF01F0F3CF00F000500401A96F0150F1
:101BD000AA6F04018E510401A303F3CF00F000505B
:101BE0000401AF6F04018E510401A103F4CF01F091
:101BF000F3CF00F000500401AD6F0150AE6F04014F
:101C0000A86B0401AC6B0401A8510401A425006E6B
:101C10000401A9510401A521016E0401AA51040186
:101C2000A621026E0401AB510401A721036E0050EE
:101C3000A46F0150A56F0250A66F0350A76F040157
:101C4000AC510401A425006E0401AD510401A5218D
:101C5000016E0401AE510401A621026E0401AF51D0
:101C60000401A721036E03C0E9FF02C0F4FF01C015
:101C7000F3FF0050E4CF07F0E4CF06F0E4CF05F027
:101C8000E4CF04F0E4CF03F0E4CF02F0E4CF01F0BE
:101C9000E4CF00F0E4CFD9FF120000C0E5FF01C09F
:101CA000E5FF04019851D8B4F5D09DA81DD09EA899
:101CB0001BD00401D0510401CD1905E1C7EC1EF081
:101CC0000401CD6BE7D0000E0401D025006E016A3F
:101CD0000F0E012200C0E9FF01C0EAFFEFCFC9F4F7
:101CE000D02BC9C4ADFFD6D09EAAD4D0ABA205D00C
:101CF0000401CE81C7EC1EF0CDD0ABA405D0040109
:101D0000CE83C7EC1EF0C6D0ABA03ED0AECFC9F498
:101D1000800E040199110401C91904E10401CE895E
:101D2000AB96B8D00401C95104E0C9510401991916
:101D300027E10401CE99AB960401C95103E00401E7
:101D4000CE9702D00401CE87C9C4D2F4CBC4D3F459
:101D50000401CB050401D46F600E0401D325006E8D
:101D6000016A000E012200C0E9FF01C0EAFFC9C4F8
:101D7000EFFFD32BD351800A02E10401D36B8AD049
:101D80000401CE99AB8686D0AECFC9F40401CEA9AA
:101D900019D0800E040199110401C91911E18B9029
:101DA0009D9AAB980401CD5104E1AD6AC7EC1EF0D9
:101DB00007D000CFADFF010E0401D06F9D886AD01F
:101DC000AB8668D00401C9510401D2270401D35164
:101DD0000401D4191BE10401D2510CE1D3C4CBF4AA
:101DE0000401CEB712D08B909D9AAB98AD6AC7EC28
:101DF0001EF00BD00401CE85CEB707D08B909D9AF4
:101E0000AB98010EAD6EC7EC1EF044D00401D35167
:101E10000401CC1908E10401CC510401CB1903E001
:101E2000C7EC1EF037D0CBC400F0016A004A012A8B
:101E3000E56A800EE56E0150E56E0050E56E40ECFF
:101E400015F0006E040EE12600500401CA6F040173
:101E5000D3190CE11F0E0401C9150401D46FD42B52
:101E6000D42B0401CB510401D427D49FD3C400F058
:101E70000401D32B016A600E0026000E012200C06F
:101E8000E9FF01C0EAFFC9C4EFFFD351800A02E1B4
:101E90000401D36BE4CF01F0E4CF00F01200D9CFFE
:101EA000E5FFE1CFD9FF00C0E5FF01C0E5FF02C0BB
:101EB000E5FF03C0E5FF04C0E5FF05C0E5FF06C080
:101EC000E5FF07C0E5FF08C0E5FF09C0E5FF0AC060
:101ED000E5FF0BC0E5FF0CC0E5FF0DC0E5FF0EC040
:101EE000E5FF0FC0E5FF020EDBCF00F0030EDBCFF6
:101EF00001F0040EDBCF02F0050EDBCF03F0060E7F
:101F0000DBCF04F0070EDBCF05F0080EDBCF06F0C9
:101F1000200E076E086A06C009F00A6A0B6A0C6A8E
:101F2000E56AE56AE56A0950E56E0350E56E025020
:101F3000E56E0150E56E0050E56EF2EC10F00D6EAE
:101F4000080EE126300E0D263A0E0D5C05E30D500D
:101F50000E6E270E0E240D6EFF0E072608225C0E55
:101F600007240E6E040E08200F6E0EC0E9FF0FC08E
:101F7000EAFF0DC0EFFF0C50E56E0B50E56E0A5006
:101F8000E56E0950E56E0350E56E0250E56E0150B6
:101F9000E56E0050E56E12EC12F0006EF3CF01F02A
:101FA000F4CF02F0E9CF03F0080EE1260050011053
:101FB00002100310D8A4AFD707C000F008C001F08A
:101FC00004C002F005C003F000C004F001C005F039
:101FD000004A012A5C0E0426040E052204C0E9FF13
:101FE00005C0EAFFEFCF04F002C0E9FF03C0EAFF3B
:101FF00004C0EFFF024A032A000E015C02E1200E3A
:10200000005CE2E302C0E9FF03C0EAFF000EEF6AF2
:10201000E4CF0FF0E4CF0EF0E4CF0DF0E4CF0CF0FE
:10202000E4CF0BF0E4CF0AF0E4CF09F0E4CF08F0FE
:10203000E4CF07F0E4CF06F0E4CF05F0E4CF04F0FE
:10204000E4CF03F0E4CF02F0E4CF01F0E4CF00F0FE
:10205000E4CFD9FF1200D9CFE5FFE1CFD9FF00C00F
:10206000E5FF01C0E5FF02C0E5FF03C0E5FF04C0D6
:10207000E5FF05C0E5FF06C0E5FF07C0E5FF08C0B6
:10208000E5FF020EDBCF00F0030EDBCF01F0040E04
:10209000DBCF02F00401B551B611D8B446D00050E0
:1020A000020DF450046EF3CF03F0240E0326040E49
:1020B00004220150FF08056EFF0E0254E56AE56A2E
:1020C000E56E0550E56EE56AE56A5D0EE56EC00EEB
:1020D000E56E43EC0DF0056EF3CF06F0F4CF07F09C
:1020E000E9CF08F0080EE126E56AE56AE568E568EB
:1020F0000850E56E0750E56E0650E56E0550E56E3A
:1021000012EC12F0056EF3CF06F0080EE126280E51
:102110000526230E0622000E03C0E9FF04C0EAFFD5
:1021200005C0EEFF06C0EFFF46D00050020DF45090
:10213000036EF3CF00F0240E0026040E032201509C
:10214000FF08016EFF0E0256E56AE56A0250E56E71
:102150000150E56EE56AE56A790EE56E180EE56EEA
:1021600043EC0DF0016EF3CF02F0F4CF04F0E9CFB1
:1021700005F0080EE126E56AE56AE568E5680550C0
:10218000E56E0450E56E0250E56E0150E56E12EC0E
:1021900012F0016EF3CF02F0080EE126400E012688
:1021A0001F0E0222000E00C0E9FF03C0EAFF01C0BB
:1021B000EEFF02C0EFFF0401B485E4CF08F0E4CFE6
:1021C00007F0E4CF06F0E4CF05F0E4CF04F0E4CF6D
:1021D00003F0E4CF02F0E4CF01F0E4CF00F0E4CF6D
:1021E000D9FF1200D9CFE5FFE1CFD9FF00C0E5FF4D
:1021F00001C0E5FF02C0E5FF03C0E5FF04C0E5FF45
:1022000005C0E5FF06C0E5FF07C0E5FF08C0E5FF24
:1022100009C0E5FF0AC0E5FF020EDBCF00F0030EA8
:10222000DBCF01F0040EDBCF02F0050EDBCF03F0B5
:10223000060EDBCF04F0070EDBCF05F0080EDBCF78
:1022400006F0090EDBCF07F0086A096A0750800B19
:10225000E8440A6E0A501BE104500426053606368F
:1022600007360750035C08E10650025C05E10550A3
:10227000015C02E10450005C06E2D89007320632AD
:102280000532043204D0092A09C008F0DFD707500C
:10229000035C08E10650025C05E10550015C02E1C7
:1022A0000450005C08E30450005E0550015A0650DB
:1022B000025A0750035AD8900732063205320432C8
:1022C00008C009F008060950E2E103C0E9FF02C0B6
:1022D000F4FF01C0F3FF0050E4CF0AF0E4CF09F0AF
:1022E000E4CF08F0E4CF07F0E4CF06F0E4CF05F048
:1022F000E4CF04F0E4CF03F0E4CF02F0E4CF01F048
:10230000E4CF00F0E4CFD9FF120000C0E5FF01C028
:10231000E5FF03C0E5FF04C0E5FF05C0E5FF06C01B
:10232000E5FF07C0E5FF08C0E5FF09C0E5FF0AC0FB
:10233000E5FF0BC0E5FFC0C400F0C1C401F004011B
:10234000C03F01D0C12B0050E56EB9EC1EF0E65243
:10235000076E046A056A066AC0C400F0C1C401F0D1
:102360000401C03F01D0C12B0050E56EB9EC1EF056
:10237000E6520B6A0A6E086A0850041205120A50E7
:1023800006120B500712C0C400F0C1C401F00401D2
:10239000C03F01D0C12B0050E56EB9EC1EF0E652F3
:1023A000036E006A03C001F0E86A03BEFF0E086E08
:1023B000096E00500412015005120850061209500F
:1023C0000712C0C400F0C1C401F00401C03F01D035
:1023D000C12B0050E56EB9EC1EF0E652016A041202
:1023E000015005120612071207C0E9FF06C0F4FFEC
:1023F00005C0F3FF0450E4CF0BF0E4CF0AF0E4CFC4
:1024000009F0E4CF08F0E4CF07F0E4CF06F0E4CF22
:1024100005F0E4CF04F0E4CF03F0E4CF01F0E4CF23
:1024200000F01200D9CFE5FFE1CFD9FF00C0E5FFF2
:1024300001C0E5FF02C0E5FF03C0E5FF04C0E5FF02
:1024400005C0E5FF06C0E5FF07C0E5FF08C0E5FFE2
:1024500009C0E5FF0AC0E5FF0BC0E5FF0CC0E5FFC2
:102460000DC0E5FF020EDBCF00F0030EDBCF01F065
:10247000040EDBCF02F0050EDBCF03F0060EDBCF40
:1024800004F0070EDBCF05F0080EDBCF06F0090ED7
:10249000DBCF07F0086A096A0A6A0B6A200E0C6E25
:1024A0000350800BE8440D6E0050002601360236C2
:1024B00003360850082609360A360B360D50D8A4C4
:1024C000088007500B5C08E106500A5C05E10550E6
:1024D000095C02E10450085C09E30450085E055001
:1024E000095A06500A5A07500B5A00800C2ED8D7AA
:1024F00003C0E9FF02C0F4FF01C0F3FF0050E4CFC6
:102500000DF0E4CF0CF0E4CF0BF0E4CF0AF0E4CF11
:1025100009F0E4CF08F0E4CF07F0E4CF06F0E4CF11
:1025200005F0E4CF04F0E4CF03F0E4CF02F0E4CF11
:1025300001F0E4CF00F0E4CFD9FF120000C0E5FFC6
:1025400001C0E5FF02C0E5FF03C0E5FF04C0E5FFF1
:1025500005C0E5FF0401B46B0F014E6B0F014E8BFC
:102560004E837F824E917E927D82006A016A026A6A
:10257000240E0124036E040E0220046E03C0E9FF42
:1025800004C0EAFFEE68EF68810E0024036E046A5F
:10259000040E042203C0E9FF04C0EAFF00C0EFFFFD
:1025A000020E0126D8B0022A002A080E005CE0E3E1
:1025B0009384810E006E0F0E016E0F0E036E380EA7
:1025C0000026035001220F0E036E800E005E0350A2
:1025D000015A810E026E0F0E036E0F0E056E380E3D
:1025E0000226055003220F0E056E800E025E055076
:1025F000035A02C0E9FF03C0EAFFEFCF02F00294E2
:1026000000C0E9FF01C0EAFF02C0EFFFF188F08ED1
:10261000F092F0888A908A928A988A9A0401899521
:10262000899589958995939093929398939A0401AB
:102630009295929592959295E4CF05F0E4CF04F0AF
:10264000E4CF03F0E4CF02F0E4CF01F0E4CF00F0F8
:10265000120000C0E5FF01C0E5FF02C0E5FF03C0B6
:10266000E5FF04C0E5FF0401CC510401CB1901E1F1
:102670005CD0CCC400F0002A009E600E0024016EE5
:10268000026A000E022201C0E9FF02C0EAFFEFCF9A
:10269000D6F41F0E0401D617CCC4D5F4D6510401CC
:1026A000D527D52BD52BD59F00EC1CF0016E015002
:1026B00003E1016A012A01D0016A00EC1CF0040167
:1026C000D66F800ED615026E1F0ED615036E03C090
:1026D00004F003C0D6F4045003E1CBC4CCF438D0EA
:1026E00001501BE002501FE000EC1CF0006E0401E2
:1026F000D6070050420A17E000504E0A03E1D0EC22
:1027000018F011D00050460A03E1FBEC1EF00BD08C
:102710000050490A08E1FF0006D0CCC4D7F40250AB
:10272000D8B422EC1FF0D5C4CCF4040195510401B7
:10273000961906E00401CD5103E1B3EC13F008D083
:102740008BB006D00401CD5103E1ACB2C7EC1EF052
:10275000E4CF04F0E4CF03F0E4CF02F0E4CF01F0E3
:10276000E4CF00F0120000C0E5FF01C0E5FF02C0A9
:10277000E5FF03C0E5FFACA276D00AEC1DF0006EC9
:10278000005005E10401966B0401956B6CD096C472
:1027900001F0005001260AEC1DF0026E0006025006
:1027A000230A1FE1010E005CD8A05BD00AEC1DF0EB
:1027B000026E690A03E150EC1BF053D00250720A1A
:1027C00003E1C7EC1EF04DD00250730A01E049D07E
:1027D0008B80AB869D8A9D98AE50AE50AB98AB88EF
:1027E00040D00250430A05E00250420A01E039D0CD
:1027F00001D0008E00C0CFF400500F01006F010E19
:102800000401D06F04019651011814E00AEC1DF088
:10281000026E0401CF27000E0401D025006E036A6A
:102820000F0E032200C0E9FF03C0EAFF02C0EFFF62
:10283000D02BE8D7000E0401D025006E026A0F0EDF
:1028400002220401CF1D036E032A00C0E9FF02C06B
:10285000EAFF03C0EFFF0401D02BD0C4CDF4040184
:10286000C76B01C096F4E4CF03F0E4CF02F0E4CFED
:1028700001F0E4CF00F01200D9CFE5FFE1CFD9FF9E
:1028800000C0E5FF01C0E5FF02C0E5FF03C0E5FFB2
:1028900004C0E5FF05C0E5FF06C0E5FF07C0E5FF92
:1028A000020EDBCF00F0030EDBCF01F0040EDBCF16
:1028B00002F0050EDBCF03F002C006F00650046EF6
:1028C000800A33E100C0E9FF01C0F3FF025064EC6D
:1028D0001DF0056EF3CF06F0F4CF07F003C0E5FF5F
:1028E00005C0E9FF06C0F3FF075006EC1FF000C06B
:1028F000E9FF01C0F3FF025064EC1DF0056EF3CF59
:1029000006F0F4CF07F0052A02E3064A072A05C0BD
:10291000E5FF06C0F4FF07C0F6FF00C0E9FF01C0F5
:10292000F3FF0250AAEC1EF01DD004AA1BD0047ABB
:10293000045004E1035043EC1FF014D00450010A8A
:1029400004E1035002EC00F00DD004500F0A04E142
:1029500003501FEC1BF006D004500E0A03E1035095
:102960005CEC1FF0E4CF07F0E4CF06F0E4CF05F015
:10297000E4CF04F0E4CF03F0E4CF02F0E4CF01F0C1
:10298000E4CF00F0E4CFD9FF1200D9CFE5FFE1CFCB
:10299000D9FF00C0E5FF01C0E5FF02C0E5FF03C0AD
:1029A000E5FF04C0E5FF05C0E5FF06C0E5FF07C081
:1029B000E5FF020EDBCF00F0030EDBCF01F0040ECB
:1029C000DBCF02F0050EDBCF03F096C497F40401D1
:1029D00095510401975F970703C004F0056A030E41
:1029E0000426D8B0052A97C406F0076A0750800F5E
:1029F000F36E0550800FF35C02E10450065C02E2C6
:102A0000E8682BD0020E035C02E2E86A26D00306D7
:102A10000350E56ECEEC19F0E652046A0350045CF4
:102A200014E204500024056EE86A0120066EE86A8C
:102A3000022005C0E9FF06C0F3FF88EC1EF0042A5F
:102A4000E56ECEEC19F0E652E9D796C497F404018E
:102A500095510401975F9707E86AE4CF07F0E4CF48
:102A600006F0E4CF05F0E4CF04F0E4CF03F0E4CFC8
:102A700002F0E4CF01F0E4CF00F0E4CFD9FF120080
:102A8000D9CFE5FFE1CFD9FF00C0E5FF01C0E5FFE9
:102A900002C0E5FF03C0E5FF04C0E5FF05C0E5FF98
:102AA00006C0E5FF020EDBCF00F0030EDBCF01F026
:102AB000040EDBCF02F0050EDBCF03F0D88001AEB1
:102AC000D890046A0436045007E0011C066E001C0E
:102AD000056E054A062A04D000C005F001C006F0C4
:102AE000D88003AED89007E3031C016E021C006E71
:102AF000004A012A04D002C000F003C001F00150D6
:102B0000E56E0050E56E0650E56E0550E56EE4ECAE
:102B100016F0006EF3CF01F0040EE12604500AE037
:102B2000011C036E001C026E024A032A03C0F3FF5D
:102B3000025003D001C0F3FF0050E4CF06F0E4CF11
:102B400005F0E4CF04F0E4CF03F0E4CF02F0E4CFEB
:102B500001F0E4CF00F0E4CFD9FF1200D9CFE5FFB8
:102B6000E1CFD9FF00C0E5FF01C0E5FF02C0E5FFEE
:102B700003C0E5FF04C0E5FF05C0E5FF020EDBCFA3
:102B800000F0030EDBCF01F0040EDBCF02F0050EE8
:102B9000DBCF03F0C0C404F0C1C405F00401C03FA2
:102BA00001D0C12B0350E56E0450E56E78EC1CF0AB
:102BB000E652E652C0C404F0C1C405F00401C03FAF
:102BC00001D0C12B0250056EE56E0450E56E78EC25
:102BD0001CF0E652E652C0C404F0C1C405F0040182
:102BE000C03F01D0C12B0150056EE56E0450E56E6B
:102BF00078EC1CF0E652E652C0C404F0C1C405F003
:102C00000401C03F01D0C12B0050E56E0450E56EB9
:102C100078EC1CF0E652E652E4CF05F0E4CF04F085
:102C2000E4CF03F0E4CF02F0E4CF01F0E4CF00F012
:102C3000E4CFD9FF1200D9CFE5FFE1CFD9FF00C023
:102C4000E5FF01C0E5FF02C0E5FF03C0E5FF04C0EA
:102C5000E5FF05C0E5FF06C0E5FF020EDBCF00F093
:102C6000030EDBCF01F0040EDBCF02F00401C651EE
:102C700019E185EC11F0036EF3CF04F0F4CF05F009
:102C8000E9CF06F003C0E5FF04C0F4FF05C0F6FF7E
:102C900006C0F7FF00C0E9FF01C0F3FF025099EC46
:102CA0001EF01ED00401C651010A1AE100C0E9FF5E
:102CB00001C0F3FF0250EAEC1CF0006EF3CF01F00C
:102CC000F4CF02F0E9CF03F00350E56E0250E56E59
:102CD0000150E56E0050E56EAEEC15F0040EE126F5
:102CE000E4CF06F0E4CF05F0E4CF04F0E4CF03F046
:102CF000E4CF02F0E4CF01F0E4CF00F0E4CFD9FF5D
:102D00001200D9CFE5FFE1CFD9FF00C0E5FF01C038
:102D1000E5FF02C0E5FF03C0E5FF04C0E5FF05C015
:102D2000E5FF06C0E5FF020EDBCF00F0030EDBCFB0
:102D300001F0040EDBCF02F0050EDBCF03F0060E30
:102D4000DBCF04F0070EDBCF05F0080EDBCF06F07B
:102D5000D88003AED89015E306500A0A12E104C0E9
:102D6000E9FF05C0EAFF2D0EEF6E044A052A031E97
:102D7000021E011E006C05E1012A03E1022AD8B4FB
:102D8000032A0650E56E0550E56E0450E56E0350CB
:102D9000E56E0250E56E0150E56E0050E56E4FECB9
:102DA0000FF0070EE126E4CF06F0E4CF05F0E4CF04
:102DB00004F0E4CF03F0E4CF02F0E4CF01F0E4CF7D
:102DC00000F0E4CFD9FF1200D9CFE5FFE1CFD9FF62
:102DD00000C0E5FF01C0E5FF02C0E5FF03C0E5FF5D
:102DE00004C0E5FF05C0E5FF06C0E5FF020EDBCF2E
:102DF00000F0030EDBCF01F0040EDBCF02F0050E76
:102E0000DBCF03F0046A056A0350800BE844066ECA
:102E1000065011E10250022603360350015C02E124
:102E20000250005C04E2D8900332023204D0052A3A
:102E300005C004F0E9D70350015C02E10250005CD8
:102E400004E30250005E0350015AD890033202326C
:102E500004C005F004060550EEE101C0F3FF005088
:102E6000E4CF06F0E4CF05F0E4CF04F0E4CF03F0C4
:102E7000E4CF02F0E4CF01F0E4CF00F0E4CFD9FFDB
:102E8000120000C0E5FF01C0E5FF02C0E5FF420EF1
:102E90001FEC1BF0006A810E0024016E026A040E12
:102EA000022201C0E9FF02C0EAFFEFCF01F00150AA
:102EB0001FEC1BF0002A080E005CEDE3006A230EF5
:102EC0000024016E026A0F0E022201C0E9FF02C057
:102ED000EAFFEFCF01F001501FEC1BF0002A080EB3
:102EE000005CEDE3006A080E0024016E026A230E06
:102EF00001260F0E022201C0E9FF02C0EAFFEFCF58
:102F000001F001501FEC1BF0002A080E005CEBE3FF
:102F10000401B4511FEC1BF00A0E1FEC1BF0E4CFB0
:102F200002F0E4CF01F0E4CF00F0120000C0E5FFB2
:102F300001C0E5FF02C0E5FF03C0E5FFCCC400F01F
:102F4000016AD7C402F0036A0250005E0350015ABE
:102F5000E56A800EE56E0150E56E0050E56E40ECCE
:102F600015F0006E040EE1260006D7C401F0430EF2
:102F70001FEC1BF0200E1FEC1BF00050800F7F0F8A
:102F800020E3600E0124026E036A000E032202C0D9
:102F9000E9FF03C0EAFFEFCF02F0E56A0250E56EF9
:102FA000000EE56E3D0EE56EA60EE56E12EC19F014
:102FB000050EE126012A0150800A01E1016A00069E
:102FC000DCD7E4CF03F0E4CF02F0E4CF01F0E4CFAC
:102FD00000F01200D9CFE5FFE1CFD9FF00C0E5FF37
:102FE00001C0E5FF02C0E5FF03C0E5FF04C0E5FF47
:102FF000020EDBCF00F0030EDBCF01F0040EDBCFBF
:1030000002F00401C65111E1B9EC1AF0036EF3CFDE
:1030100004F003C0E5FF04C0F4FF00C0E9FF01C0F5
:10302000F3FF0250E3EC1EF016D00401C651010A72
:1030300012E100C0E9FF01C0F3FF025023EC1EF0D3
:10304000006EF3CF01F00150E56E0050E56E91EC9B
:1030500019F0E652E652E4CF04F0E4CF03F0E4CFF7
:1030600002F0E4CF01F0E4CF00F0E4CFD9FF12008A
:103070006E0EF66E3E0EF76E000EF86E0900F550FD
:10308000056E0900F550066E04E1056702D085EF74
:1030900018F00900F550006E0900F550016E0900A6
:1030A000F550026E09000900F550E96E0900F5506F
:1030B000EA6E090009000900F550036E0900F55099
:1030C000046E09000900F6CF07F0F7CF08F0F8CF3B
:1030D00009F000C0F6FF01C0F7FF02C0F8FF03507F
:1030E00002E1045007E00900F550EE6E0306F8E235
:1030F0000406F9D707C0F6FF08C0F7FF09C0F8FFBC
:10310000050601E2060644EF18F0120000C0E5FFD4
:1031100001C0E5FF02C0E5FF03C0E5FF29EC13F0A5
:10312000C1EC07F0D6EC1BF0006EF3CF01F0F4CF4A
:1031300002F0E9CF03F004013451005E3551015A29
:103140003651025A3751035A039E3F0E035C08E181
:10315000FF0E025C05E1FF0E015C02E1FF0E005C68
:1031600016E2D6EC1BF0F3CF01F0F4CF02F0E9CF7A
:1031700003F0200F0401346F4E0E0120356F000E56
:103180000220366F000E0320376F41EC17F0E4CFBA
:1031900003F0E4CF02F0E4CF01F0E4CF00F012003E
:1031A00000C0E5FF01C0E5FF02C0E5FF00EC1CF038
:1031B000006E00EC1CF0016E0050026ED00E022476
:1031C000006E0A0E005C05E30050026EF90E022448
:1031D000006E0150026ED00E0224016E0A0E015CD8
:1031E00005E30150026EF90E0224016E080E005C28
:1031F00012E2100E015CD8B00ED00038F00B0124A2
:10320000006E7FEC1AF0016E015005E10050E56E92
:1032100099EC1DF0E652E4CF02F0E4CF01F0E4CFE8
:1032200000F01200D9CFE5FFE1CFD9FF00C0E5FFE4
:1032300001C0E5FF02C0E5FF020ED924006E000EBA
:10324000DA20016E800E026E030E0026000E0122AF
:1032500002220250E56E0150E56E0050E56E040E4C
:10326000DBCFE5FF030EDBCFE5FF020EDBCFE5FF93
:103270000401B951E56EB851E56EB751E56E0EEC3B
:1032800000F0006EF3CF01F0090EE12601C0F3FF5C
:103290000050E4CF02F0E4CF01F0E4CF00F0E4CF3F
:1032A000D9FF1200D9CFE5FFE1CFD9FF00C0E5FF7C
:1032B00001C0E5FF02C0E5FF03C0E5FF020EDBCF62
:1032C00000F0030EDBCF01F0040EDBCF02F00401AF
:1032D000C6510DE1F7EC1DF0036E03C0E5FF00C021
:1032E000E9FF01C0F3FF025006EC1FF00FD004010C
:1032F000C651010A0BE100C0E9FF01C0F3FF025013
:1033000088EC1EF0E56E9FEC1CF0E652E4CF03F073
:10331000E4CF02F0E4CF01F0E4CF00F0E4CFD9FF36
:103320001200D9CFE5FFE1CFD9FF00C0E5FF01C012
:10333000E5FF02C0E5FF03C0E5FF020EDBCF00F0B2
:10334000030EDBCF01F0C0C402F0C1C403F00401DE
:10335000C03F01D0C12B0150E56E0250E56E78EC04
:103360001CF0E652E652C0C402F0C1C403F00401EE
:10337000C03F01D0C12B0050E56E0250E56E78ECE5
:103380001CF0E652E652E4CF03F0E4CF02F0E4CFC3
:1033900001F0E4CF00F0E4CFD9FF1200D9CFE5FF70
:1033A000E1CFD9FF00C0E5FF01C0E5FF02C0E5FFA6
:1033B00003C0E5FF04C0E5FF020EDBCF00F095C4BB
:1033C00001F0026A014A022A96C403F0046A01501D
:1033D000031803E10250041801E001D00ED0000EE2
:1033E00004019525016E026A070E022201C0E9FF61
:1033F00002C0EAFF00C0EFFF952BE4CF04F0E4CF5A
:1034000003F0E4CF02F0E4CF01F0E4CF00F0E4CF2A
:10341000D9FF1200D9CFE5FFE1CFD9FF00C0E5FF0A
:1034200001C0E5FF02C0E5FF03C0E5FF020EDBCFF0
:1034300000F0016AD7C402F0036A0250002603506C
:103440000122E56A800EE56E0150E56E0050E56EE2
:1034500040EC15F0006EF3CF01F0040EE126600E93
:103460000026000E012200C0E9FF01C0EAFFEFCFF5
:1034700000F00050E4CF03F0E4CF02F0E4CF01F01D
:10348000E4CF00F0E4CFD9FF1200F3CFE5FFF4CF93
:10349000E5FFE9CFE5FFEACFE5FFFACFE5FFFBCF98
:1034A000E5FF0401935104017E6F0401945104016E
:1034B0007F6FD6507C6FD7507D6FF2A411D004017E
:1034C000933F01D0942BF2940401935104017E6F39
:1034D0000401945104017F6FD6507C6FD7507D6FEB
:1034E0004DEC1FF0E4CFFBFFE4CFFAFFE4CFEAFF9F
:1034F000E4CFE9FFE4CFF4FFE4CFF3FF110000C015
:10350000E5FF01C0E5FF02C0E5FF010E006E00EC23
:103510001CF0016E01C002F0015023E00050E56E86
:10352000B9EC1EF0016EE652015010E10A0E005C8B
:103530000BE20A0E006EE56EB9EC1EF0016EE6526B
:10354000015004E1E8680ED0E8680CD00150021880
:1035500002E0E86807D0002A1B0E005CD8E3E868A8
:1035600001D0E86AE4CF02F0E4CF01F0E4CF00F04C
:10357000120000C0E5FF01C0E5FF02C0E5FF03C087
:10358000E5FFC0C400F0C1C401F00401C03F01D098
:10359000C12B0050E56EB9EC1EF0E652036E026AD4
:1035A000C0C400F0C1C401F00401C03F01D0C12B70
:1035B0000050E56EB9EC1EF0E652016A02120150AD
:1035C000031203C0F3FF0250E4CF03F0E4CF02F094
:1035D000E4CF01F0E4CF00F01200D9CFE5FFE1CF56
:1035E000D9FF00C0E5FF01C0E5FF02C0E5FF03C051
:1035F000E5FF04C0E5FF020EDBCF00F0030EDBCFDA
:1036000001F0040EDBCF02F0050EDBCF03F0060E57
:10361000DBCFE9FF070EDBCFEAFF080EDBCF04F0BC
:1036200040EC04F0E4CF04F0E4CF03F0E4CF02F088
:10363000E4CF01F0E4CF00F0E4CFD9FF120000C0E6
:10364000E5FF01C0E5FF02C0E5FF006E390E040191
:103650009A25016E026A040E022201C0E9FF02C02F
:10366000EAFF00C0EFFF220E9A5D01E29A2B0050A4
:103670000A0A0FE104019A51E56E800EE56E040E10
:10368000E56E390EE56EC5EC14F0040EE12604017A
:103690009A6BE4CF02F0E4CF01F0E4CF00F0120027
:1036A0000401956B0401966B040197698B809490DB
:1036B000B06A3F0EAF6EB886AC8AAC84AC8CAC906E
:1036C000AB8CAB8E0401CE6B0401C86B0401CB6BD9
:1036D0000401CC6B0401CD6B000EE56AB9EC1EF061
:1036E0000401996FE6529F989F9A010E0401986F0A
:1036F0000401B76BB86B2F0EB96FC7EC1EF0120048
:1037000000C0E5FF01C0E5FF02C0E5FF04C0E5FF22
:1037100000EC1CF0006E080E005C14E200EC1CF0E3
:10372000016A026E00EC1CF0046A012604500222B9
:103730000250E56E0150E56E0050E56E2BEC10F086
:10374000030EE126E4CF04F0E4CF02F0E4CF01F071
:10375000E4CF00F01200D9CFE5FFE1CFD9FF00C0E0
:10376000E5FF01C0E5FF02C0E5FF03C0E5FF020E73
:10377000DBCF00F0030EDBCF01F0040EDBCF02F055
:10378000050EDBCF03F0060EDBCFE9FF070EDBCF24
:10379000EAFFDBEC0AF0E4CF03F0E4CF02F0E4CF81
:1037A00001F0E4CF00F0E4CFD9FF120004019351FF
:1037B0000F01356F040194510F01366FD650336FEE
:1037C000D750346F35510401931905E10F0136517B
:1037D000040194190CE0040193510F01356F0401A9
:1037E00094510F01366FD650336FD750346F36CFA8
:1037F000E9FF35CFF4FF34CFF3FF0F01335112004F
:1038000000C0E5FF01C0E5FF0401CC510401D5195A
:1038100005E00401CC510401CB1902E1E86A15D09E
:10382000CCC400F00401CC2B016A600E0026000E0F
:10383000012200C0E9FF01C0EAFFEFCF00F0CC5148
:10384000800A02E10401CC6B0050E4CF01F0E4CF28
:1038500000F01200D8CFE5FFE0CFE5FFE56EF3CF33
:10386000E5FFF4CFE5FFE9CFE5FFEACFE5FFFACFCB
:10387000E5FFFBCFE5FF4DEC0EF04AEC1FF0E4CF87
:10388000FBFFE4CFFAFFE4CFEAFFE4CFE9FFE4CFA8
:10389000F4FFE4CFF3FFE450E4CFE0FFE4CFD8FF40
:1038A000100000C0E5FF47EC1FF00401896B806B3E
:1038B0008983006A89B3002A0050010BE844F46E42
:1038C0008051FD0BF410806FD58ED59CD59AD5888C
:1038D000D596D594D582D580F28AF184D08EF28E99
:1038E000F28CBA80FF0EBB68BA84E4CF00F01200FD
:1038F000D9CFE5FFE1CFD9FF00C0E5FF020EDBCF56
:1039000000F0030EDBCFA8FF00C0A9FFA69EA69C77
:10391000A684F29EF29C550EA76EAA0EA76EA682F2
:10392000A6A202D00000FCD7E86AA6B6E82AA694B0
:10393000F28EF28CE4CF00F0E4CFD9FF1200D9CFA1
:10394000E5FFE1CFD9FF00C0E5FF01C0E5FF02C000
:10395000E5FF020EDBCF00F0C0C401F0C1C402F0ED
:103960000401C03F01D0C12B0050E56E0150E56E4F
:1039700078EC1CF0E652E652E4CF02F0E4CF01F01E
:10398000E4CF00F0E4CFD9FF120001C0E5FF02C090
:10399000E5FF03C0E5FF3EEC1FF09EEC12F0D6EC15
:1039A0001BF0F3CF01F0F4CF02F0E9CF03F0200FCA
:1039B0000401346F4E0E0120356F000E0220366F69
:1039C000000E0320376FE4CF03F0E4CF02F0E4CF22
:1039D00001F01200E8AE0AD0F3CFEAFFEE50EECFCE
:1039E000F3FFEECFF4FFEECFE9FF1200E8BC69EF82
:1039F0001FF0E9CFF6FFF3CFF7FFF86E0900F5509F
:103A00000900F5CFF3FF0900F5CFF4FF0900F5CF6A
:103A1000E9FF120000C0E5FF01C0E5FF0401955178
:103A20000401961902E1E86A0FD0000E0401962500
:103A3000006E016A070E012200C0E9FF01C0EAFF23
:103A4000EFCF00F0962B0050E4CF01F0E4CF00F070
:103A50001200F2CFEAFFF29EA69EA69CA684E9CFB2
:103A6000A9FFF3CFAAFFE4CFA8FF11EC1FF0F4CF1A
:103A7000A8FF11EC1FF0F6CFA8FF11EC1FF0F7CF55
:103A8000A8FF11EC1FF0A694EABEF28E1200F2CF4E
:103A9000F6FFF29EA69EA69CE9CFA9FFF3CFAAFF50
:103AA000A680A850A94AAA2AA680A8CFF3FFA94AAF
:103AB000AA2AA680A8CFF4FFA94AAA2AA680A8CF3E
:103AC000EAFFF6BEF28E1200E8AE08D0F3CFEAFFAE
:103AD000EE50EECFF3FFEECFF4FF1200E8BC6BEF39
:103AE0001FF0E9CFF6FFF3CFF7FFF86E0900F550AE
:103AF0000900F5CFF3FF0900F5CFF4FF1200F2CF74
:103B0000EAFFF29EA69EA69CA684E9CFA9FFF3CF6A
:103B1000AAFFE4CFA8FF11EC1FF0F4CFA8FF11EC2F
:103B20001FF0F6CFA8FF11EC1FF0A694EABEF28EAC
:103B30001200D9CFE5FFE1CFD9FF00C0E5FF020EAB
:103B4000DBCF00F000C099F40050E56E000EE56A8E
:103B500078EC1CF0E652E652E4CF00F0E4CFD9FF57
:103B60001200F2CFF6FFF29EA69EA69CE9CFA9FF17
:103B7000F3CFAAFFA680A850A94AAA2AA680A8CF58
:103B8000F3FFA94AAA2AA680A8CFF4FFF6BEF28EB8
:103B9000120000C0E5FF01C0E5FF600E0401CC2566
:103BA000006E016A000E012200C0E9FF01C0EAFFB9
:103BB000EFCF00F00050E4CF01F0E4CF00F01200AE
:103BC000D9CFE5FFE1CFD9FF00C0E5FF020EDBCF83
:103BD00000F0610E005C05E37B0E005C02E2010E6A
:103BE00001D0E86AE4CF00F0E4CFD9FF120000C0B2
:103BF000E5FF01C0E5FFC0C400F0C1C401F004014D
:103C0000C03F01D0C12B0050E56EB9EC1EF0E6526A
:103C1000E4CF01F0E4CF00F01200D9CFE5FFE1CF0F
:103C2000D9FF00C0E5FF020EDBCF00F000C098F422
:103C3000005004E1C7EC1EF09D9A9D98E4CF00F07F
:103C4000E4CFD9FF1200E8AE06D0F3CFEAFFEE5082
:103C5000EECFF3FF1200E8BC67EF1FF0E9CFF6FFED
:103C6000F3CFF7FFF86E0900F5500900F5CFF3FF29
:103C70001200F2CFEAFFF29EA69EA69CA684E9CF90
:103C8000A9FFF3CFAAFFE4CFA8FF11EC1FF0F4CFF8
:103C9000A8FF11EC1FF0A694EABEF28E120018EEF7
:103CA000FFF028EEFFF0F86AA68EA69CE9680E0EDB
:103CB000EA6E0068000EED6A0050FDE138EC18F085
:103CC00006EC00F0FFD7F2CFF6FFF29EA69EA69C70
:103CD000E9CFA9FFF3CFAAFFA680A850A94AAA2A34
:103CE000A680A8CFF3FFF6BEF28E1200F2CFEAFF55
:103CF000F29EA69EA69CA684E9CFA9FFF3CFAAFFB9
:103D0000E4CFA8FF11EC1FF0A694EABEF28E1200D9
:103D1000E8AE04D0F3CFEAFFEE501200E8BC65EF46
:103D20001FF0E9CFF6FFF3CFF7FFF86E0900F5506B
:103D30001200E8AE0BD0F3CFEAFFE4CFEEFFF4CFF2
:103D4000EEFFF6CFEEFFF7CFEEFF1200E8BC63EF19
:103D50001FF01200E8AE09D0F3CFEAFFE4CFEEFF88
:103D6000F4CFEEFFF6CFEEFF1200E8BC6DEF1FF0D0
:103D70001200D9CFE5FFE1CFD9FF020EDBCFA9FFBB
:103D8000A69CA69EA680A850E4CFD9FF1200ACA2A4
:103D9000FED78B80AE500000AE50AB98AB88AB86A0
:103DA0009D8A9D98120025642000F2CFF6FFF29EB6
:103DB000A69EA69CE9CFA9FFF3CFAAFFA680A85094
:103DC000F6BEF28E1200E8AE07D0F3CFEAFFE4CFE2
:103DD000EEFFF4CFEEFF1200E8BC61EF1FF012001F
:103DE000700ED36E9B8CFF0E9268936894689668F1
:103DF000626AF19E120000C0E5FF7FEC1AF0006ECF
:103E0000005001E1FF00E4CF00F01200E8AE05D061
:103E1000F3CFEAFFE4CFEEFF1200E8BC5FEF1FF044
:103E20001200550EA76EAA0EA76EA682A6B2FED7E6
:103E3000A94AAA2A010E0401C66F1C0E0401C06F14
:103E4000C16B120000EC1CF0280A02E180EC1BF0B0
:103E500012000401C66B1C0E0401C06FC16B12007E
:103E600000000000FF000000000000000000010052
:103E7000603E0000930400000D00000051EC1CF0B7
:103E800050EC1BF01200ACA2FED7AD6E1200F0ECAD
:103E90001EF012006FEC1FF0120059EC1FF0120020
:103EA0000401CC5112000401D651120004019851B2
:103EB000120059EC09F01200E8CF7FFF120076EFF4
:103EC0001EF039EF1EF029EF1DF0D5EF1EF063EF65
:103ED0001EF047EF1DF0B1EF1DF07FEF1DF0120057
:00000001FF
