:020000040000FA
:1000000095EF15F0C69A120001EF12F00DEC10F00A
:100010003AEC0BF0FDD71200CFEF13F0D9CFE5FF8C
:10002000E1CFD9FF00C0E5FF01C0E5FF02C0E5FF59
:1000300003C0E5FF04C0E5FF05C0E5FF06C0E5FF1E
:1000400007C0E5FF08C0E5FF09C0E5FF0AC0E5FFFE
:100050000BC0E5FF0CC0E5FF0DC0E5FF0EC0E5FFDE
:100060000FC0E5FF10C0E5FF11C0E5FF12C0E5FFBE
:1000700013C0E5FF14C0E5FF15C0E5FF16C0E5FF9E
:1000800017C0E5FF18C0E5FF19C0E5FF1AC0E5FF7E
:100090001BC0E5FF1CC0E5FF1DC0E5FF1EC0E5FF5E
:1000A000020EDBCF00F0030EDBCF01F0040EDBCF3E
:1000B00002F0050EDBCF03F0060EDBCF04F0070ED7
:1000C000DBCF05F0080EDBCF06F0090EDBCF07F023
:1000D0000A0EDBCF08F0096A0A6A02C00DF00D5063
:1000E000800A0DE102500401456F0150446F005039
:1000F000436F040E016E430E006E800E026E03C04D
:10010000E9FF04C0F3FF0550E1EC15F00B6E0B5056
:10011000D8B4C4EF03F00B50250A02E0ABEF03F0B4
:100120000C6A0D6A0E6A0F6A106A0A0E116E126A64
:10013000136A146A200E156E1668176A2B0E186E55
:10014000032A02E3044A052A03C0E9FF04C0F3FFBF
:100150000550E1EC15F0196E250A13E11950E56E12
:100160000250E56E0150E56E0050E56EB1EC0AF00C
:10017000040EE126094A0A2A032A02E3044A052A50
:10018000BED71950300A06E1300E156E032A02E37D
:10019000044A052A03C0E9FF04C0F3FF0550E1EC5F
:1001A00015F02D0A06E1010E146E032A02E3044A3B
:1001B000052A03C0E9FF04C0F3FF0550E1EC15F088
:1001C000200A08E1010E176E200E186E032A02E3C2
:1001D000044A052A03C0E9FF04C0F3FF0550E1EC1F
:1001E00015F02B0A06E1010E176E032A02E3044AFA
:1001F000052A03C0E9FF04C0F3FF0550E1EC15F048
:10020000196E310E195C2BE33A0E195C28E203C01B
:1002100019F004C01AF005C01BF019C0E9FF1AC09C
:10022000F3FF1B50E1EC15F01C6E300E1C5C11E36B
:100230003A0E1C5C0EE213500A0DF3CF1DF01D5058
:100240001C26D00E1C24136E192A02E31A4A1B2AFC
:10025000E4D719C003F01AC004F01BC005F003C0B6
:10026000E9FF04C0F3FF0550E1EC15F02E0A2DE183
:10027000032A02E3044A052A166A03C019F004C0DF
:100280001AF005C01BF019C0E9FF1AC0F3FF1B509C
:10029000E1EC15F01C6E300E1C5C11E33A0E1C5C98
:1002A0000EE216500A0DF3CF1DF01D501C26D00E85
:1002B0001C24166E192A02E31A4A1B2AE4D719C015
:1002C00003F01AC004F01BC005F003C0E9FF04C02E
:1002D000F3FF0550E1EC15F0196E6C0A07E1010E11
:1002E0000C6E032A02E3044A052A09D01950680A51
:1002F00006E1010E0E6E032A02E3044A052A03C03A
:10030000E9FF04C0F3FF0550E1EC15F0750A06E1C2
:10031000010E106E032A02E3044A052A03C0E9FF16
:1003200004C0F3FF0550E1EC15F0196E730A05E106
:10033000010E0D6E200E156E3FD01950780A03E1A4
:10034000100E116E39D01950580A05E1100E116EB9
:10035000010E126E31D01950630A02E1116A2CD0DD
:1003600019506F0A03E1080E116E26D01950660A63
:1003700003E1010E0F6E20D01950640A1DE01950E0
:10038000690A1AE0105005E0FF0E03260422052238
:1003900013D01950E56E0250E56E0150E56E005025
:1003A000E56EB1EC0AF0040EE126094A0A2A032A96
:1003B00002E3044A052AA3D60D5021E00650030F9C
:1003C0000D6E000E0720196E000E08201A6E0DC06B
:1003D00006F019C007F01AC008F0FD0E0D26FF0E3A
:1003E00019221A220DC0E9FF19C0F3FF1A5092EC2E
:1003F00014F00D6EF3CF19F0F4CF1AF0FDD00F50BA
:100400000DE0000E1A6E080E196E100E0D6E040E21
:100410000626000E072208221668EED016680C5039
:1004200023E00650040F0C6E000E07200F6E000E26
:1004300008201B6E0CC006F00FC007F01BC008F0B0
:10044000FC0E0C26FF0E0F221B220CC0E9FF0FC072
:10045000F3FF1B5018EC14F00C6EF3CF0FF0F4CF39
:100460001BF0E9CF1CF067D00E502FE00650020FB2
:100470000E6E000E07201D6E000E08201E6E0EC0B0
:1004800006F01DC007F01EC008F0FE0E0E26FF0E7F
:100490001D221E220EC0E9FF1DC0F3FF1E5069EC95
:1004A00015F00E6E0EC00CF00F6A1B6A1C6A11501C
:1004B0000A0A03E11050D8B43ED00C500E6E0EC0A4
:1004C0000CF00F6A1B6A1C6A36D00650020F0E6EC3
:1004D000000E07201D6E000E08201E6E0EC006F0D6
:1004E0001DC007F01EC008F0FE0E0E26FF0E1D22D6
:1004F0001E220EC0E9FF1DC0F3FF1E5069EC15F06F
:100500000E6EF3CF1DF00EC00CF01DC00FF0E86AA8
:100510001DBEFF0E1B6E1C6E11500A0A02E1105028
:100520000AE00C500E6E0F501D6E0EC00CF01DC078
:100530000FF01B6A1C6A040E196E240E0D6E800EDD
:100540001A6E1150D8B440D0105013E01150E56E1F
:10055000040EE56E240EE56E1C50E56E1B50E56E34
:100560000F50E56E0C50E56E10EC05F0070EE1261D
:1005700012D01150E56E040EE56E240EE56E1C508F
:10058000E56E1B50E56E0F50E56E0C50E56E73EC9A
:100590000DF0070EE12617502FE00DC0E9FF19C03E
:1005A000F3FF1A50E1EC15F02D0A26E0FF0E0D26A0
:1005B00019221A2218C0E5FF0DC0E9FF19C0F3FF88
:1005C0001A5079EC16F018D00CC0E5FF0DC0E9FF09
:1005D00019C0F3FF1A5079EC16F00D50010F0C6E94
:1005E000000E19200E6E000E1A20E56A0CC0E9FFFD
:1005F0000EC0F3FF79EC16F00DC00CF019C00EF030
:100600001AC00FF013C010F0105010E00CC0E9FF3A
:100610000EC0F3FF0F50E1EC15F0176E175006E017
:100620000C2A02E30E4A0F2A1006EED710C013F070
:1006300014501EE109C00CF00AC00EF010C00FF0FB
:100640000F5010E01550E56E0250E56E0150E56E5A
:100650000050E56EB1EC0AF0040EE1260C4A0E2AB9
:100660000F06EED70CC009F00EC00AF00FC013F051
:1006700016C00CF00DC00DF019C00EF01AC00FF02E
:1006800009C010F00AC015F00DC0E9FF0EC0F3FF5D
:100690000F50E1EC15F0166E1650D8B43ED00CC0D9
:1006A00016F0176A161E171E1650171005E00CC01C
:1006B00016F00C06165031E00DC0E9FF0EC0F3FF36
:1006C0000F50E1EC15F0116E125010E01150E56E74
:1006D00026EC15F0166EE652165004E0DF0E1114EB
:1006E000166E02D011C016F016C011F01150E56E52
:1006F0000250E56E0150E56E0050E56EB1EC0AF077
:10070000040EE1260D2A02E30E4A0F2A104A152A8A
:100710001350D8B4B9D71306B7D710C009F015C015
:100720000AF014502BE010C00CF015C00DF013C0EF
:100730000EF00E501FE0200EE56E0250E56E0150E7
:10074000E56E0050E56EB1EC0AF0040EE1260C4AAD
:100750000D2A0E06EED70B50E56E0250E56E0150E5
:10076000E56E0050E56EB1EC0AF0040EE126094A90
:100770000A2A04D00CC009F00DC00AF0032A02E3D3
:10078000044A052A7FEF00F00AC0F3FF0950E4CFC6
:100790001EF0E4CF1DF0E4CF1CF0E4CF1BF0E4CF5B
:1007A0001AF0E4CF19F0E4CF18F0E4CF17F0E4CF5B
:1007B00016F0E4CF15F0E4CF14F0E4CF13F0E4CF5B
:1007C00012F0E4CF11F0E4CF10F0E4CF0FF0E4CF5B
:1007D0000EF0E4CF0DF0E4CF0CF0E4CF0BF0E4CF5B
:1007E0000AF0E4CF09F0E4CF08F0E4CF07F0E4CF5B
:1007F00006F0E4CF05F0E4CF04F0E4CF03F0E4CF5B
:1008000002F0E4CF01F0E4CF00F0E4CFD9FF120012
:100810003C4E4F20464C4F41543E000000C0E5FF87
:1008200001C0E5FF0F012951D8B4F5D09DA81DD016
:100830009EA81BD004014E5104014B1905E120EC88
:1008400016F004014B6BE7D0000E04014E25006E3C
:10085000016A040E012200C0E9FF01C0EAFFEFCFE8
:1008600047F44E2B47C4ADFFD6D09EAAD4D0ABA23E
:1008700005D004014C8120EC16F0CDD0ABA405D0FE
:1008800004014C8320EC16F0C6D0ABA03ED0AECF16
:1008900047F4800E0F012A110401471904E10401F5
:1008A0004C89AB96B8D00401475104E047510F0181
:1008B0002A1927E104014C99AB960401475103E042
:1008C00004014C9702D004014C8747C450F449C43A
:1008D00051F4040149050401526F600E04015125D1
:1008E000006E016A000E012200C0E9FF01C0EAFFAC
:1008F00047C4EFFF512B5151800A02E10401516BB3
:100900008AD004014C99AB8686D0AECF47F404015F
:100910004CA919D0800E0F012A110401471911E1C9
:100920008B909D9AAB9804014B5104E1AD6A20EC89
:1009300016F007D000C4ADFF010E04014E6F9D8874
:100940006AD0AB8668D004014751040150270401E6
:100950005151040152191BE1040150510CE151C4E1
:1009600049F404014CB712D08B909D9AAB98AD6AB4
:1009700020EC16F00BD004014C854CB707D08B90BF
:100980009D9AAB98010EAD6E20EC16F044D0040198
:10099000515104014A1908E104014A51040149195D
:1009A00003E020EC16F037D049C400F0016A004A99
:1009B000012AE56A800EE56E0150E56E0050E56E95
:1009C00032EC0CF0006E040EE12600500401486F7A
:1009D000040151190CE11F0E040147150401526F67
:1009E000522B522B0401495104015227529F51C4EA
:1009F00000F00401512B016A600E0026000E012256
:100A000000C0E9FF01C0EAFF47C4EFFF5151800A6F
:100A100002E10401516BE4CF01F0E4CF00F01200D9
:100A2000D9CFE5FFE1CFD9FF00C0E5FF01C0E5FF69
:100A300002C0E5FF03C0E5FF04C0E5FF05C0E5FF18
:100A400006C0E5FF07C0E5FF08C0E5FF09C0E5FFF8
:100A50000AC0E5FF0BC0E5FF0CC0E5FF0DC0E5FFD8
:100A60000EC0E5FF0FC0E5FF020EDBCF00F0030E66
:100A7000DBCF01F0040EDBCF02F0050EDBCF03F07D
:100A8000060EDBCF04F0070EDBCF05F0080EDBCF40
:100A900006F0200E076E086A06C009F00A6A0B6AA3
:100AA0000C6AE56AE56AE56A0950E56E0350E56E91
:100AB0000250E56E0150E56E0050E56EBBEC06F0AD
:100AC0000D6E080EE126300E0D263A0E0D5C05E384
:100AD0000D500E6E270E0E240D6EFF0E07260822F7
:100AE000E00E07240E6E000E08200F6E0EC0E9FF08
:100AF0000FC0EAFF0DC0EFFF0C50E56E0B50E56E26
:100B00000A50E56E0950E56E0350E56E0250E56E41
:100B10000150E56E0050E56E81EC08F0006EF3CFF9
:100B200001F0F4CF02F0E9CF03F0080EE126005007
:100B3000011002100310D8A4AFD707C000F008C0FE
:100B400001F004C002F005C003F000C004F001C0D1
:100B500005F0004A012AE00E0426000E052204C01A
:100B6000E9FF05C0EAFFEFCF04F002C0E9FF03C0D0
:100B7000EAFF04C0EFFF024A032A000E015C02E113
:100B8000200E005CE2E302C0E9FF03C0EAFF000EB2
:100B9000EF6AE4CF0FF0E4CF0EF0E4CF0DF0E4CF36
:100BA0000CF0E4CF0BF0E4CF0AF0E4CF09F0E4CF8F
:100BB00008F0E4CF07F0E4CF06F0E4CF05F0E4CF8F
:100BC00004F0E4CF03F0E4CF02F0E4CF01F0E4CF8F
:100BD00000F0E4CFD9FF1200D9CFE5FFE1CFD9FF74
:100BE00000C0E5FF01C0E5FF02C0E5FF03C0E5FF6F
:100BF00004C0E5FF05C0E5FF06C0E5FF020EDBCF40
:100C000000F0030EDBCF01F0040EDBCF02F000C0DA
:100C1000E9FF01C0F3FF0250E1EC15F0036EE56A55
:100C2000E56E9EEC12F0E652E652320EE56EDFEC17
:100C300014F0E652B3EC16F0010EE56E0350E56ECB
:100C40009EEC12F0E652E6520050010F036E000EC9
:100C50000120046E000E0220056E2EEC16F0066ECA
:100C600006C0E5FF03C0E9FF04C0F3FF055079ECBF
:100C700016F09DEC16F00050020F036E000E0120DE
:100C8000046E000E0220056E2EEC16F0066E06C0F5
:100C9000E5FF03C0E9FF04C0F3FF055079EC16F04F
:100CA0009DEC16F00050030F036E000E0120046E41
:100CB000000E0220056E2EEC16F0066E06C0E5FF53
:100CC00003C0E9FF04C0F3FF055079EC16F09DEC7A
:100CD00016F00050040F036E000E0120046E000E8B
:100CE0000220056E2EEC16F0066E06C0E5FF03C06E
:100CF000E9FF04C0F3FF055079EC16F09DEC16F007
:100D00000050050F036E000E0120046E000E02203D
:100D1000056E2EEC16F0066E06C0E5FF03C0E9FF77
:100D200004C0F3FF055079EC16F09DEC16F0060EAA
:100D30000026000E012202222EEC16F0036E03C0E4
:100D4000E5FF00C0E9FF01C0F3FF025079EC16F0A7
:100D5000B3EC16F0E4CF06F0E4CF05F0E4CF04F0F6
:100D6000E4CF03F0E4CF02F0E4CF01F0E4CF00F0F1
:100D7000E4CFD9FF1200D9CFE5FFE1CFD9FF00C002
:100D8000E5FF01C0E5FF02C0E5FF03C0E5FF04C0C9
:100D9000E5FF05C0E5FF06C0E5FF07C0E5FF08C0A9
:100DA000E5FF09C0E5FF0AC0E5FF020EDBCF00F05A
:100DB000030EDBCF01F0040EDBCF02F0050EDBCF1C
:100DC00003F0060EDBCF04F0070EDBCF05F0080EB4
:100DD000DBCF06F0090EDBCF07F0086A04500510E0
:100DE0000610071005E1E968F468F368E86847D081
:100DF000096A0750800BE8440A6E0A501BE1045050
:100E000004260536063607360750035C08E106500F
:100E1000025C05E10550015C02E10450005C06E261
:100E2000D890073206320532043204D0092A09C0AC
:100E300008F0DFD70750035C08E10650025C05E1CB
:100E40000550015C02E10450005C08E30450005EC0
:100E50000550015A0650025A0750035AD8900732DB
:100E600006320532043208C009F008060950E2E1F2
:100E700003C0E9FF02C0F4FF01C0F3FF0050E4CF5C
:100E80000AF0E4CF09F0E4CF08F0E4CF07F0E4CFB4
:100E900006F0E4CF05F0E4CF04F0E4CF03F0E4CFB4
:100EA00002F0E4CF01F0E4CF00F0E4CFD9FF12006C
:100EB000D9CFE5FFE1CFD9FF00C0E5FF01C0E5FFD5
:100EC00002C0E5FF03C0E5FF04C0E5FF020EDBCF73
:100ED00000F0030EDBCF01F0040EDBCF02F0050EB5
:100EE000DBCF03F0420E0F012D6F03502E6F005029
:100EF000010F036E000E0120046E000E022003C0DD
:100F0000E9FF04C0F3FFE1EC15F00F012F6F005073
:100F1000020F036E000E0120046E000E022003C0BB
:100F2000E9FF04C0F3FFE1EC15F00F01306F005052
:100F3000030F036E000E0120046E000E022003C09A
:100F4000E9FF04C0F3FFE1EC15F00F01316F005031
:100F5000040F036E000E0120046E000E022003C079
:100F6000E9FF04C0F3FFE1EC15F00F01326F005010
:100F7000050F036E000E0120046E000E022003C058
:100F8000E9FF04C0F3FFE1EC15F00F01336F060E2B
:100F90000026000E0122022200C0E9FF01C0F3FF7B
:100FA0000250E1EC15F00F01346F0A0E356F090E97
:100FB000E56E800EE56E0F0EE56E2D0EE56EB7EC5C
:100FC0000BF0040EE126E4CF04F0E4CF03F0E4CF0D
:100FD00002F0E4CF01F0E4CF00F0E4CFD9FF12003B
:100FE000D9CFE5FFE1CFD9FF00C0E5FF01C0E5FFA4
:100FF00002C0E5FF03C0E5FF04C0E5FF05C0E5FF53
:10100000020EDBCF00F0030EDBCF01F0040EDBCFCE
:1010100002F03F0EC716C66AC56A0050C6120150DC
:10102000C7129488820E006E0F0E016E0F0E046EB2
:10103000380E0026045001220F0E046E800E005E52
:101040000450015A820E036E0F0E046E0F0E056ED1
:10105000380E0326055004220F0E056E800E035E27
:101060000550045A03C0E9FF04C0EAFFEFCF03F0C4
:10107000039800C0E9FF01C0EAFF03C0EFFF9486B8
:10108000820E006E0F0E016E0F0E046E380E0026DB
:10109000045001220F0E046E800E005E0450015AAF
:1010A000820E036E0F0E046E0F0E056E380E0326B1
:1010B000055004220F0E056E800E035E0550045A83
:1010C00003C0E9FF04C0EAFFEFCF03F0039600C0BE
:1010D000E9FF01C0EAFF03C0EFFF02C0C8FFC68AF4
:1010E0009E96A196E4CF05F0E4CF04F0E4CF03F0A0
:1010F000E4CF02F0E4CF01F0E4CF00F0E4CFD9FF79
:101100001200D9CFE5FFE1CFD9FF00C0E5FF01C054
:10111000E5FF02C0E5FF03C0E5FF04C0E5FF05C031
:10112000E5FF06C0E5FF07C0E5FF08C0E5FF09C011
:10113000E5FF0AC0E5FF0BC0E5FF0CC0E5FF0DC0F1
:10114000E5FF020EDBCF00F0030EDBCF01F0040E53
:10115000DBCF02F0050EDBCF03F0060EDBCF04F091
:10116000070EDBCF05F0080EDBCF06F0090EDBCF54
:1011700007F0086A096A0A6A0B6A200E0C6E0350AF
:10118000800BE8440D6E005000260136023603360F
:101190000850082609360A360B360D50D8A40880A8
:1011A00007500B5C08E106500A5C05E10550095C3C
:1011B00002E10450085C09E30450085E0550095A36
:1011C00006500A5A07500B5A00800C040D6E0DC0D1
:1011D0000CF00D50D4E103C0E9FF02C0F4FF01C0E0
:1011E000F3FF0050E4CF0DF0E4CF0CF0E4CF0BF0B0
:1011F000E4CF0AF0E4CF09F0E4CF08F0E4CF07F041
:10120000E4CF06F0E4CF05F0E4CF04F0E4CF03F040
:10121000E4CF02F0E4CF01F0E4CF00F0E4CFD9FF57
:10122000120000C0E5FF01C0E5FF03C0E5FF04C0F8
:10123000E5FF05C0E5FF06C0E5FF07C0E5FF08C004
:10124000E5FF09C0E5FF0AC0E5FF0BC0E5FF36CFAB
:1012500000F037CF01F00F01363F01D0372B00509F
:10126000E56E12EC16F0E652076E046A056A066A2D
:1012700036CF00F037CF01F00F01363F01D0372BCA
:101280000050E56E12EC16F0E6520B6A0A6E086A20
:101290000850041205120A5006120B50071236CFDE
:1012A00000F037CF01F00F01363F01D0372B00504F
:1012B000E56E12EC16F0E652036E006A03C001F010
:1012C000E86A03BEFF0E086E096E0050041201505A
:1012D0000512085006120950071236CF00F037CF1A
:1012E00001F00F01363F01D0372B0050E56E12ECB4
:1012F00016F0E652016A0412015005120612071296
:1013000007C0E9FF06C0F4FF05C0F3FF0450E4CFB7
:101310000BF0E4CF0AF0E4CF09F0E4CF08F0E4CF1B
:1013200007F0E4CF06F0E4CF05F0E4CF04F0E4CF1B
:1013300003F0E4CF01F0E4CF00F0120000C0E5FFBD
:1013400001C0E5FF02C0E5FF03C0E5FF04C0E5FF03
:1013500004014A510401491901E15CD04AC400F07A
:10136000002A009E600E0024016E026A000E022216
:1013700001C0E9FF02C0EAFFEFCF54F41F0E0401E1
:1013800054174AC453F4545104015327532B532B7D
:10139000539F58EC13F0016E015003E1016A012ADA
:1013A00001D0016A58EC13F00401546F800E5415FB
:1013B000026E1F0E5415036E03C004F003C054F4F4
:1013C000045003E149C44AF438D001501BE00250F4
:1013D0001FE058EC13F0006E040154070050420A5D
:1013E00017E000504E0A03E152EC10F011D000500B
:1013F000460A03E16EEC16F00BD00050490A08E1F2
:10140000FF0006D04AC455F40250D8A457EC16F099
:1014100053C44AF40F0126510F01271906E00401B5
:101420004B5103E128EC0AF008D08BB006D0040140
:101430004B5103E1ACB220EC16F0E4CF04F0E4CF62
:1014400003F0E4CF02F0E4CF01F0E4CF00F01200AB
:1014500000C0E5FF01C0E5FF02C0E5FF03C0E5FFF6
:10146000ACA276D038EC14F0006E005005E10F010C
:10147000276B0F01266B6CD027CF01F0005001269F
:1014800038EC14F0026E00060250230A1FE1010E30
:10149000005CD8A05BD038EC14F0026E690A03E15E
:1014A000CFEC12F053D00250720A03E120EC16F098
:1014B0004DD00250730A01E049D08B80AB869D8AE3
:1014C0009D98AE50AE50AB98AB8840D00250430AC6
:1014D00005E00250420A01E039D001D0008E00C080
:1014E0004DF400500401006F010E04014E6F0F0116
:1014F0002751011814E038EC14F0026E04014D2756
:10150000000E04014E25006E036A040E032200C083
:10151000E9FF03C0EAFF02C0EFFF4E2BE8D7000E41
:1015200004014E25006E026A040E022204014D1DC4
:10153000036E032A00C0E9FF02C0EAFF03C0EFFF09
:1015400004014E2B4EC44BF40401886B01C027FFED
:10155000E4CF03F0E4CF02F0E4CF01F0E4CF00F0F9
:101560001200D9CFE5FFE1CFD9FF00C0E5FF01C0F0
:10157000E5FF02C0E5FF03C0E5FF04C0E5FF05C0CD
:10158000E5FF06C0E5FF07C0E5FF020EDBCF00F078
:10159000030EDBCF01F0040EDBCF02F0050EDBCF34
:1015A00003F002C006F00650046E800A33E100C06A
:1015B000E9FF01C0F3FF025092EC14F0056EF3CF87
:1015C00006F0F4CF07F003C0E5FF05C0E9FF06C051
:1015D000F3FF075079EC16F000C0E9FF01C0F3FFFC
:1015E000025092EC14F0056EF3CF06F0F4CF07F042
:1015F000052A02E3064A072A05C0E5FF06C0F4FFF4
:1016000007C0F6FF00C0E9FF01C0F3FF025003EC82
:1016100016F01DD004AA1BD0047A045004E1035034
:10162000D5EC16F014D00450010A04E10350E8ECA4
:1016300016F00DD004500F0A04E103506DEC12F0C7
:1016400006D004500E0A03E10350E5EC16F0E4CF97
:1016500007F0E4CF06F0E4CF05F0E4CF04F0E4CFE8
:1016600003F0E4CF02F0E4CF01F0E4CF00F0E4CFE8
:10167000D9FF120000C0E5FF01C0E5FF02C0E5FF91
:1016800003C0E5FF9EEC09F0800EE56E040EE56EEA
:10169000300EE56EECEC05F0030EE1269EEC09F051
:1016A000800EE56E040EE56E810EE56EECEC05F045
:1016B000030EE1262EEC13F0006EF3CF01F0F4CF11
:1016C00002F0E9CF03F004018A51005E8B51015A08
:1016D0008C51025A8D51035A039E3F0E035C08E160
:1016E000FF0E025C05E1FF0E015C02E1FF0E005CF3
:1016F00035E22EEC13F0F3CF01F0F4CF02F0E9CF96
:1017000003F0880F04018A6F130E01208B6F000E07
:1017100002208C6F000E03208D6F0F01235110E10A
:10172000010EE56E800EE56E040EE56E300EE56E80
:1017300058EC07F0040EE126010E0F01236F0ED0C6
:10174000020EE56E800EE56E040EE56E810EE56E0E
:1017500058EC07F0040EE1260F01236BE4CF03F0F1
:10176000E4CF02F0E4CF01F0E4CF00F01200D9CFD3
:10177000E5FFE1CFD9FF00C0E5FF01C0E5FF02C0F2
:10178000E5FF03C0E5FF04C0E5FF05C0E5FF06C0B7
:10179000E5FF07C0E5FF020EDBCF00F0030EDBCF55
:1017A00001F0040EDBCF02F0050EDBCF03F027CFF4
:1017B00028FF0F0126510F01285F280703C004F0FE
:1017C000056A030E0426D8B0052A28CF06F0076A5A
:1017D0000750800FF36E0550800FF35C02E1045058
:1017E000065C02E2E8682BD0020E035C02E2E86AC3
:1017F00026D003060350E56E50EC11F0E652046A61
:101800000350045C14E204500024056EE86A0120D1
:10181000066EE86A022005C0E9FF06C0F3FFE1ECAE
:1018200015F0042AE56E50EC11F0E652E9D727CF07
:1018300028FF0F0126510F01285F2807E86AE4CF2F
:1018400007F0E4CF06F0E4CF05F0E4CF04F0E4CFF6
:1018500003F0E4CF02F0E4CF01F0E4CF00F0E4CFF6
:10186000D9FF1200D9CFE5FFE1CFD9FF00C0E5FFD6
:1018700001C0E5FF02C0E5FF03C0E5FF04C0E5FFCE
:1018800005C0E5FF06C0E5FF020EDBCF00F0030E4A
:10189000DBCF01F0040EDBCF02F0050EDBCF03F04F
:1018A000D88001AED890046A0436045007E0011CC9
:1018B000066E001C056E054A062A04D000C005F01D
:1018C00001C006F0D88003AED89007E3031C016E78
:1018D000021C006E004A012A04D002C000F003C0BE
:1018E00001F00150E56E0050E56E0650E56E0550C2
:1018F000E56ED6EC0DF0006EF3CF01F0040EE1269C
:1019000004500AE0011C036E001C026E024A032A06
:1019100003C0F3FF025003D001C0F3FF0050E4CF37
:1019200006F0E4CF05F0E4CF04F0E4CF03F0E4CF19
:1019300002F0E4CF01F0E4CF00F0E4CFD9FF1200D1
:10194000D9CFE5FFE1CFD9FF00C0E5FF01C0E5FF3A
:1019500002C0E5FF03C0E5FF04C0E5FF05C0E5FFE9
:10196000020EDBCF00F0030EDBCF01F0040EDBCF65
:1019700002F0050EDBCF03F036CF04F037CF05F0D1
:101980000F01363F01D0372B0350E56E0450E56E52
:10199000F4EC13F0E652E65236CF04F037CF05F000
:1019A0000F01363F01D0372B0250056EE56E045013
:1019B000E56EF4EC13F0E652E65236CF04F037CF82
:1019C00005F00F01363F01D0372B0150056EE56E53
:1019D0000450E56EF4EC13F0E652E65236CF04F014
:1019E00037CF05F00F01363F01D0372B0050E56EA1
:1019F0000450E56EF4EC13F0E652E652E4CF05F045
:101A0000E4CF04F0E4CF03F0E4CF02F0E4CF01F040
:101A1000E4CF00F0E4CFD9FF1200D9CFE5FFE1CF4A
:101A2000D9FF00C0E5FF01C0E5FF02C0E5FF03C02C
:101A3000E5FF04C0E5FF05C0E5FF06C0E5FF020EB7
:101A4000DBCF00F0030EDBCF01F0040EDBCF02F0A2
:101A50000401375119E111EC09F0036EF3CF04F0E2
:101A6000F4CF05F0E9CF06F003C0E5FF04C0F4FFB2
:101A700005C0F6FF06C0F7FF00C0E9FF01C0F3FF95
:101A80000250F2EC15F01ED004013751010A1AE1A0
:101A900000C0E9FF01C0F3FF025018EC14F0006E23
:101AA000F3CF01F0F4CF02F0E9CF03F00350E56E7D
:101AB0000250E56E0150E56E0050E56EA0EC0CF0B2
:101AC000040EE126E4CF06F0E4CF05F0E4CF04F005
:101AD000E4CF03F0E4CF02F0E4CF01F0E4CF00F074
:101AE000E4CFD9FF1200D9CFE5FFE1CFD9FF00C085
:101AF000E5FF01C0E5FF02C0E5FF03C0E5FF04C04C
:101B0000E5FF05C0E5FF06C0E5FF020EDBCF00F0F4
:101B1000030EDBCF01F0040EDBCF02F0050EDBCFAE
:101B200003F0060EDBCF04F0070EDBCF05F0080E46
:101B3000DBCF06F0D88003AED89015E306500A0A32
:101B400012E104C0E9FF05C0EAFF2D0EEF6E044A62
:101B5000052A031E021E011E006C05E1012A03E195
:101B6000022AD8B4032A0650E56E0550E56E0450EB
:101B7000E56E0350E56E0250E56E0150E56E0050D3
:101B8000E56E10EC05F0070EE126E4CF06F0E4CF99
:101B900005F0E4CF04F0E4CF03F0E4CF02F0E4CFAB
:101BA00001F0E4CF00F0E4CFD9FF1200D9CFE5FF78
:101BB000E1CFD9FF00C0E5FF01C0E5FF02C0E5FFAE
:101BC00003C0E5FF04C0E5FF05C0E5FF06C0E5FF73
:101BD000020EDBCF00F0030EDBCF01F0040EDBCFF3
:101BE00002F0050EDBCF03F0046A056A0350800B98
:101BF000E844066E065011E10250022603360350F7
:101C0000015C02E10250005C04E2D890033202322F
:101C100004D0052A05C004F0E9D70350015C02E1B5
:101C20000250005C04E30250005E0350015AD89059
:101C30000332023204C005F004060550EEE101C093
:101C4000F3FF0050E4CF06F0E4CF05F0E4CF04F05A
:101C5000E4CF03F0E4CF02F0E4CF01F0E4CF00F0F2
:101C6000E4CFD9FF1200D9CFE5FFE1CFD9FF00C003
:101C7000E5FF01C0E5FF02C0E5FF03C0E5FF020E7E
:101C8000DBCF00F0030EDBCF01F0040EDBCF02F060
:101C900000C0E9FF01C0F3FF0250E1EC15F0036E54
:101CA000035029E0C6A610D00350E56EDFEC14F017
:101CB000036EE652035002E0FD0E1ED0A9EC15F0B3
:101CC000C5AC14D0FE0E18D09E9600C0E9FF01C02E
:101CD000F3FF0250E1EC15F0C96EC6889EA6FED750
:101CE000C7B404D0C7B002D0FE0E06D0002AD0E39D
:101CF000014A022ACDD7E86AE4CF03F0E4CF02F02C
:101D0000E4CF01F0E4CF00F0E4CFD9FF120000C02F
:101D1000E5FF01C0E5FF02C0E5FF03C0E5FF4AC4DF
:101D200000F0016A55C402F0036A0250005E0350DD
:101D3000015AE56A800EE56E0150E56E0050E56ED1
:101D400032EC0CF0006E040EE126000655C401F0E2
:101D5000430E6DEC12F0200E6DEC12F0005020E0FE
:101D6000600E0124026E036A000E032202C0E9FF26
:101D700003C0EAFFEFCF02F0E56A0250E56E000E05
:101D8000E56E2C0EE56E580EE56E94EC10F0050E27
:101D9000E126012A0150800A01E1016A0006DED72E
:101DA000E4CF03F0E4CF02F0E4CF01F0E4CF00F0A1
:101DB0001200D9CFE5FFE1CFD9FF00C0E5FF01C098
:101DC000E5FF02C0E5FF03C0E5FF020EDBCF00F038
:101DD000030EDBCF01F0040EDBCF02F0050EDBCFEC
:101DE00003F0035003E11D0E036E02D0530E036E89
:101DF00003C0E5FF00C0E9FF01C0F3FF025079EC2A
:101E000016F0E56A2D0EE56E0350E56EFFEC12F05C
:101E1000030EE126100EE56E2D0EE56E0350E56E05
:101E2000FFEC12F0030EE126080EE56E2D0EE56EB6
:101E30000350E56EFFEC12F0030EE126E4CF03F051
:101E4000E4CF02F0E4CF01F0E4CF00F0E4CFD9FF1B
:101E50001200D9CFE5FFE1CFD9FF00C0E5FF01C0F7
:101E6000E5FF02C0E5FF03C0E5FF04C0E5FF020E89
:101E7000DBCF00F0030EDBCF01F0040EDBCF02F06E
:101E80000401375111E139EC12F0036EF3CF04F085
:101E900003C0E5FF04C0F4FF00C0E9FF01C0F3FF89
:101EA00002504AEC16F016D004013751010A12E133
:101EB00000C0E9FF01C0F3FF025069EC15F0006EAD
:101EC000F3CF01F00150E56E0050E56E13EC11F018
:101ED000E652E652E4CF04F0E4CF03F0E4CF02F0A0
:101EE000E4CF01F0E4CF00F0E4CFD9FF1200580EA8
:101EF000F66E2D0EF76E000EF86E0900F550056EA9
:101F00000900F550066E04E1056702D0C4EF0FF03A
:101F10000900F550006E0900F550016E0900F550FA
:101F2000026E09000900F550E96E0900F550EA6EED
:101F3000090009000900F550036E0900F550046E10
:101F400009000900F6CF07F0F7CF08F0F8CF09F045
:101F500000C0F6FF01C0F7FF02C0F8FF035002E126
:101F6000045007E00900F550EE6E0306F8E204069F
:101F7000F9D707C0F6FF08C0F7FF09C0F8FF05064C
:101F800001E2060683EF0FF01200D9CFE5FFE1CFA3
:101F9000D9FF00C0E5FF01C0E5FF02C0E5FF03C0B7
:101FA000E5FF04C0E5FF020EDBCF00F0030EDBCF40
:101FB00001F0040EDBCF02F0036A02C004F0020657
:101FC00004501DE02EEC16F0046E00C0E9FF01C0C5
:101FD000EAFF04C0EFFF004A012A03C004F0C5A6CF
:101FE000ECD7A1A602D0E8680BD0042A04C003F005
:101FF0000250F5E09DEC16F0C5B8FED7F0D70350BF
:10200000E4CF04F0E4CF03F0E4CF02F0E4CF01F03A
:10201000E4CF00F0E4CFD9FF120001C0E5FF02C019
:10202000E5FF03C0E5FFD0EC16F094928B922EEC06
:1020300013F0F3CF01F0F4CF02F0E9CF03F0880FF3
:1020400004018A6F130E01208B6F000E02208C6F2B
:10205000000E03208D6F270EE56EE56A080EE56E13
:10206000F0EC07F0030EE126E56A800EE56E040E43
:10207000E56E300EE56ED9EC0EF0040EE126010E91
:10208000E56E800EE56E040EE56E810EE56ED9EC10
:102090000EF0040EE126E4CF03F0E4CF02F0E4CF2B
:1020A00001F0120000C0E5FF01C0E5FF02C0E5FF3E
:1020B00058EC13F0006E58EC13F0016E0050026EF5
:1020C000D00E0224006E0A0E005C05E30050026E82
:1020D000F90E0224006E0150026ED00E0224016E31
:1020E0000A0E015C05E30150026EF90E0224016E36
:1020F000080E005C12E2100E015CD8B00ED0003861
:10210000F00B0124006EC7EC11F0016E015005E1E7
:102110000050E56EC7EC14F0E652E4CF02F0E4CFD5
:1021200001F0E4CF00F01200D9CFE5FFE1CFD9FFF5
:1021300000C0E5FF01C0E5FF02C0E5FF020ED924A3
:10214000006E000EDA20016E800E026E030E002675
:10215000000E012202220250E56E0150E56E005091
:10216000E56E040EDBCFE5FF030EDBCFE5FF020ECD
:10217000DBCFE5FF04013F51E56E3E51E56E3D5179
:10218000E56E0EEC00F0006EF3CF01F0090EE126D3
:1021900001C0F3FF0050E4CF02F0E4CF01F0E4CF40
:1021A00000F0E4CFD9FF1200D9CFE5FFE1CFD9FF8E
:1021B00000C0E5FF01C0E5FF02C0E5FF03C0E5FF89
:1021C000020EDBCF00F0030EDBCF01F0040EDBCFFD
:1021D00002F0040137510DE13DEC15F0036E03C030
:1021E000E5FF00C0E9FF01C0F3FF025079EC16F0F3
:1021F0000FD004013751010A0BE100C0E9FF01C013
:10220000F3FF0250E1EC15F0E56EA9EC13F0E65295
:10221000E4CF03F0E4CF02F0E4CF01F0E4CF00F02C
:10222000E4CFD9FF1200D9CFE5FFE1CFD9FF00C03D
:10223000E5FF01C0E5FF02C0E5FF03C0E5FF020EB8
:10224000DBCF00F0030EDBCF01F036CF02F037CF4B
:1022500003F00F01363F01D0372B0150E56E0250DD
:10226000E56EF4EC13F0E652E65236CF02F037CFCB
:1022700003F00F01363F01D0372B0050E56E0250BE
:10228000E56EF4EC13F0E652E652E4CF03F0E4CF4F
:1022900002F0E4CF01F0E4CF00F0E4CFD9FF120068
:1022A000D9CFE5FFE1CFD9FF00C0E5FF01C0E5FFD1
:1022B00002C0E5FF03C0E5FF04C0E5FF020EDBCF6F
:1022C00000F026CF01F0026A014A022A27CF03F06C
:1022D000046A0150031803E10250041801E001D020
:1022E0000ED0000E0F012625016E026A070E022293
:1022F00001C0E9FF02C0EAFF00C0EFFF262BE4CFD8
:1023000004F0E4CF03F0E4CF02F0E4CF01F0E4CF37
:1023100000F0E4CFD9FF1200D9CFE5FFE1CFD9FF1C
:1023200000C0E5FF01C0E5FF02C0E5FF03C0E5FF17
:10233000020EDBCF00F0016A55C402F0036A0250BE
:10234000002603500122E56A800EE56E0150E56E1D
:102350000050E56E32EC0CF0006EF3CF01F0040E8D
:10236000E126600E0026000E012200C0E9FF01C038
:10237000EAFFEFCF00F00050E4CF03F0E4CF02F02B
:10238000E4CF01F0E4CF00F0E4CFD9FF120000C0A9
:10239000E5FF01C0E5FF02C0E5FF010E006E58EC4D
:1023A00013F0016E01C002F0015023E00050E56E11
:1023B00012EC16F0016EE652015010E10A0E005CBC
:1023C0000BE20A0E006EE56E12EC16F0016EE6529C
:1023D000015004E1E8680ED0E8680CD00150021802
:1023E00002E0E86807D0002A1B0E005CD8E3E8682A
:1023F00001D0E86AE4CF02F0E4CF01F0E4CF00F0CE
:102400001200F3CFE5FFF4CFE5FFE9CFE5FFEACF18
:10241000E5FFFACFE5FFFBCFE5FF0F0124510401F3
:10242000906F0F0125510401916FD6508E6FD750D8
:102430008F6FF2A411D00F01243F01D0252BF2940D
:102440000F0124510401906F0F0125510401916F78
:10245000D6508E6FD7508F6FE4CFFBFFE4CFFAFFDB
:10246000E4CFEAFFE4CFE9FFE4CFF4FFE4CFF3FFEA
:10247000110000C0E5FF01C0E5FF02C0E5FF03C099
:10248000E5FF36CF00F037CF01F00F01363F01D026
:10249000372B0050E56E12EC16F0E652036E026A1E
:1024A00036CF00F037CF01F00F01363F01D0372B88
:1024B0000050E56E12EC16F0E652016A021201506D
:1024C000031203C0F3FF0250E4CF03F0E4CF02F0A5
:1024D000E4CF01F0E4CF00F0120000C0E5FF01C03E
:1024E000E5FF02C0E5FF006E000E0F012B25016E17
:1024F000026A0F0E022201C0E9FF02C0EAFF00C01B
:10250000EFFF220E2B5D01E22B2B00500A0A0FE198
:102510000F012B51E56E800EE56E0F0EE56E000E7D
:10252000E56EB7EC0BF0040EE1260F012B6BE4CF48
:1025300002F0E4CF01F0E4CF00F01200D9CFE5FFC4
:10254000E1CFD9FF00C0E5FF01C0E5FF02C0E5FF14
:10255000020EDBCF00F0030EDBCF01F0BFEC16F074
:102560000044FE0B026E0150D880E866D890006AE5
:1025700000360050D880E866D890006A00360050D7
:1025800002120250E56EDFEC14F0E652E4CF02F0E6
:10259000E4CF01F0E4CF00F0E4CFD9FF12000F0147
:1025A000266B0F01276B0F0128698B809490B06A0E
:1025B0003F0EAF6EB886AC8AAC84AC8CAC90AB8C62
:1025C000AB8E04014C6B0401466B0401496B0401A2
:1025D0004A6B04014B6B000EE56A12EC16F00F011A
:1025E0002A6FE6529F989F9A010E0F01296F0401EE
:1025F0003D6B3E6B2F0E3F6F20EC16F01200D9CFD3
:10260000E5FFE1CFD9FF00C0E5FF01C0E5FF02C053
:10261000E5FF020EDBCF00F0030EDBCF01F0040E6E
:10262000DBCF02F0E56A0050E56E9EEC12F0E65258
:10263000E6520150E56EDFEC14F0E6520250E56E12
:10264000DFEC14F0E652B3EC16F0E4CF02F0E4CF86
:1026500001F0E4CF00F0E4CFD9FF12000F012451C4
:1026600004013B6F0F01255104013C6FD650396FB7
:10267000D7503A6F3B510F01241905E104013C5139
:102680000F0125190CE00F01245104013B6F0F01CC
:10269000255104013C6FD650396FD7503A6F3CC476
:1026A000E9FF3BC4F4FF3AC4F3FF040139511200BF
:1026B00000C0E5FF01C0E5FF04014A5104015319C0
:1026C00005E004014A510401491902E1E86A15D004
:1026D0004AC400F004014A2B016A600E0026000E75
:1026E000012200C0E9FF01C0EAFFEFCF00F04A512C
:1026F000800A02E104014A6B0050E4CF01F0E4CF0C
:1027000000F0120000C0E5FFD9EC16F00401896B5F
:10271000806B8983006A89B3002A0050010BE8446A
:10272000F46E8051FD0BF410806FD58ED59CD59A38
:10273000D588D596D594D582D580F28AF184D08E6D
:10274000F28EF28CBA80FF0EBB68BA84E4CF00F040
:102750001200D9CFE5FFE1CFD9FF00C0E5FF01C0EE
:10276000E5FF02C0E5FF020EDBCF00F036CF01F03F
:1027700037CF02F00F01363F01D0372B0050E56E06
:102780000150E56EF4EC13F0E652E652E4CF02F0AD
:10279000E4CF01F0E4CF00F0E4CFD9FF1200D8CFAE
:1027A000E5FFE0CFE5FFE56EF3CFE5FFF4CFE5FF12
:1027B000E9CFE5FFEACFE5FFFACFE5FFFBCFE5FF85
:1027C0000EEC04F0E4CFFBFFE4CFFAFFE4CFEAFF26
:1027D000E4CFE9FFE4CFF4FFE4CFF3FFE450E4CF2C
:1027E000E0FFE4CFD8FF1000D9CFE5FFE1CFD9FF5C
:1027F00000C0E5FF020EDBCF00F0030EDBCFA8FF29
:1028000000C0A9FFA69EA69CA684F29EF29C550E2F
:10281000A76EAA0EA76EA682A6A202D00000FCD7C1
:10282000A694F28EF28CE4CF00F0E4CFD9FF120030
:10283000E8AE0AD0F3CFEAFFEE50EECFF3FFEECFD3
:10284000F4FFEECFE9FF1200E8BCF4EF16F0E9CF99
:10285000F6FFF3CFF7FFF86E0900F5500900F5CF4A
:10286000F3FF0900F5CFF4FF0900F5CFE9FF1200EF
:1028700000C0E5FF01C0E5FF0F0126510F01271938
:1028800002E1E86A0FD0000E0F012725006E016AF1
:10289000070E012200C0E9FF01C0EAFFEFCF00F000
:1028A000272B0050E4CF01F0E4CF00F01200F2CF6C
:1028B000EAFFF29EA69EA69CA684E9CFA9FFF3CFCD
:1028C000AAFFE4CFA8FF84EC16F0F4CFA8FF84ECB5
:1028D00016F0F6CFA8FF84EC16F0F7CFA8FF84EC33
:1028E00016F0A694EABEF28E1200F2CFF6FFF29E28
:1028F000A69EA69CE9CFA9FFF3CFAAFFA680A85069
:10290000A94AAA2AA680A8CFF3FFA94AAA2AA68084
:10291000A8CFF4FFA94AAA2AA680A8CFEAFFF6BE4C
:10292000F28E1200E8AE08D0F3CFEAFFEE50EECF01
:10293000F3FFEECFF4FF1200E8BCF6EF16F0E9CF9C
:10294000F6FFF3CFF7FFF86E0900F5500900F5CF59
:10295000F3FF0900F5CFF4FF1200F2CFEAFFF29E79
:10296000A69EA69CA684E9CFA9FFF3CFAAFFE4CF39
:10297000A8FF84EC16F0F4CFA8FF84EC16F0F6CF95
:10298000A8FF84EC16F0A694EABEF28E1200D9CF0E
:10299000E5FFE1CFD9FF00C0E5FF020EDBCF00F07D
:1029A00000C02AFF0050E56E000EE56AF4EC13F05B
:1029B000E652E652E4CF00F0E4CFD9FF1200D9CFBF
:1029C000E5FFE1CFD9FF00C0E5FF020EDBCF00F04D
:1029D000C69E00C0C9FFC6AE02D0E86803D0A9EC0D
:1029E00015F0E86AE4CF00F0E4CFD9FF1200F2CF8F
:1029F000F6FFF29EA69EA69CE9CFA9FFF3CFAAFF01
:102A0000A680A850A94AAA2AA680A8CFF3FFA94A5F
:102A1000AA2AA680A8CFF4FFF6BEF28E120000C04C
:102A2000E5FF01C0E5FF600E04014A25006E016A62
:102A3000000E012200C0E9FF01C0EAFFEFCF00F065
:102A40000050E4CF01F0E4CF00F01200D9CFE5FF51
:102A5000E1CFD9FF00C0E5FF020EDBCF00F0610E31
:102A6000005C05E37B0E005C02E2010E01D0E86A27
:102A7000E4CF00F0E4CFD9FF120000C0E5FF01C0B1
:102A8000E5FF36CF00F037CF01F00F01363F01D020
:102A9000372B0050E56E12EC16F0E652E4CF01F051
:102AA000E4CF00F01200D9CFE5FFE1CFD9FF00C09D
:102AB000E5FF020EDBCF00F000C029FF005004E16B
:102AC00020EC16F09D9A9D98E4CF00F0E4CFD9FF5A
:102AD0001200E8AE06D0F3CFEAFFEE50EECFF3FFE0
:102AE0001200E8BCF2EF16F0E9CFF6FFF3CFF7FFE4
:102AF000F86E0900F5500900F5CFF3FF1200F2CF90
:102B0000EAFFF29EA69EA69CA684E9CFA9FFF3CF7A
:102B1000AAFFE4CFA8FF84EC16F0F4CFA8FF84EC62
:102B200016F0A694EABEF28E120018EEFFF028EE20
:102B3000FFF0F86AA68EA69CE9680E0EEA6E0068A1
:102B4000000EED6A0050FDE177EC0FF006EC00F0AE
:102B5000FFD700C0E5FF01C0E5FF1F0EC514006EE2
:102B6000016AC7B4012A015000120050F6E1E4CF17
:102B700001F0E4CF00F01200F2CFF6FFF29EA69E25
:102B8000A69CE9CFA9FFF3CFAAFFA680A850A94A27
:102B9000AA2AA680A8CFF3FFF6BEF28E1200F2CFCB
:102BA000EAFFF29EA69EA69CA684E9CFA9FFF3CFDA
:102BB000AAFFE4CFA8FF84EC16F0A694EABEF28E3A
:102BC0001200E8AE04D0F3CFEAFFEE501200E8BCEA
:102BD000F0EF16F0E9CFF6FFF3CFF7FFF86E09003C
:102BE000F5501200E8AE0BD0F3CFEAFFE4CFEEFFD2
:102BF000F4CFEEFFF6CFEEFFF7CFEEFF1200E8BC0A
:102C0000EEEF16F01200E8AE09D0F3CFEAFFE4CF02
:102C1000EEFFF4CFEEFFF6CFEEFF1200E8BCF8EFC8
:102C200016F01200D9CFE5FFE1CFD9FF020EDBCFBE
:102C3000A9FFA69CA69EA680A850E4CFD9FF1200AB
:102C4000ACA2FED78B80AE500000AE50AB98AB88E4
:102C5000AB869D8A9D9812002564200000C0E5FF88
:102C6000A9EC15F0C586C5EC16F0006E0050FBE02F
:102C7000C950E4CF00F01200F2CFF6FFF29EA69EFC
:102C8000A69CE9CFA9FFF3CFAAFFA680A850F6BE65
:102C9000F28E1200E8AE07D0F3CFEAFFE4CFEEFFEA
:102CA000F4CFEEFF1200E8BCECEF16F0120058EC87
:102CB00013F04C0A07E158EC13F0300A02E08B8263
:102CC00001D08B921200700ED36E9B8CFF0E926817
:102CD000936894689668626AF19E120000C0E5FFEE
:102CE000C7EC11F0006E005001E1FF00E4CF00F0EE
:102CF0001200E8AE05D0F3CFEAFFE4CFEEFF1200FA
:102D0000E8BCEAEF16F01200550EA76EAA0EA76EE9
:102D1000A682A6B2FED7A94AAA2A010E0401376FDD
:102D20001C0E0F01366F376B1200A9EC15F09E9642
:102D3000C58AC5889EA6FED71200A9EC15F09E96FE
:102D4000C59AC5889EA6FED712000401376B1C0EDB
:102D50000F01366F376B12000100962D0000230F14
:102D600000000A000000A9EC15F0C584C5B4FED728
:102D70001200A9EC15F0C582C5B2FED71200A9EC6D
:102D800015F0C580C5B0FED71200C7A002D0010E55
:102D900001D0E86A12000000000000FF00000000FF
:102DA00082EC13F0CFEC12F01200ACA2FED7AD6EA5
:102DB000120063EC16F0120004014A5112000401E3
:102DC000545112000F0129511200E8CF7FFF120069
:102DD000C96E1200CFEF15F07FEF15F057EF14F02A
:102DE0003CEF16F0BCEF15F075EF14F0F7EF14F0B0
:042DF000ADEF14F03F
:00000001FF
