:020000040000FA
:10000000D7EF22F0C96E12000DEF1FF0F6EC11F0E1
:1000100097EC1CF0FDD712004DEF21F0D9CFE5FF92
:10002000E1CFD9FF00C0E5FF01C0E5FF02C0E5FF59
:1000300003C0E5FF04C0E5FF05C0E5FF06C0E5FF1E
:1000400007C0E5FF08C0E5FF09C0E5FF0AC0E5FFFE
:100050000BC0E5FF0CC0E5FF0DC0E5FF0EC0E5FFDE
:100060000FC0E5FF10C0E5FF11C0E5FF12C0E5FFBE
:1000700013C0E5FF14C0E5FF15C0E5FF16C0E5FF9E
:1000800017C0E5FF18C0E5FF19C0E5FF1AC0E5FF7E
:100090001BC0E5FF1CC0E5FF1DC0E5FF1EC0E5FF5E
:1000A000020EDBCF00F0030EDBCF01F0040EDBCF3E
:1000B00002F0050EDBCF03F0060EDBCF04F0070ED7
:1000C000DBCF05F0080EDBCF06F0090EDBCF07F023
:1000D0000A0EDBCF08F0096A0A6A02C00DF00D5063
:1000E000800A0DE102500A01626F0150616F0050F9
:1000F000606F0A0E016E600E006E800E026E03C00D
:10010000E9FF04C0F3FF055010EC23F00B6E0B5019
:10011000D8B4FCEF03F00B50250A02E0E3EF03F044
:100120000C6A0D6A0E6A0F6A106A0A0E116E126A64
:10013000136A146A200E156E1668176A2B0E186E55
:10014000032A02E3044A052A03C0E9FF04C0F3FFBF
:10015000055010EC23F0196E250A13E11950E56ED5
:100160000250E56E0150E56E0050E56EF8EC16F0B9
:10017000040EE126094A0A2A032A02E3044A052A50
:10018000BED71950300A06E1300E156E032A02E37D
:10019000044A052A03C0E9FF04C0F3FF055010EC30
:1001A00023F02D0A06E1010E146E032A02E3044A2D
:1001B000052A03C0E9FF04C0F3FF055010EC23F04B
:1001C000200A08E1010E176E200E186E032A02E3C2
:1001D000044A052A03C0E9FF04C0F3FF055010ECF0
:1001E00023F02B0A06E1010E176E032A02E3044AEC
:1001F000052A03C0E9FF04C0F3FF055010EC23F00B
:10020000196E800F4F0F2DE31950800F460F29E212
:1002100003C019F004C01AF005C01BF019C0E9FFB3
:100220001AC0F3FF1B5010EC23F01C6E800F500F10
:1002300012E31C50800F460F0EE213500A0DF3CF4D
:100240001DF01D501C26D00E1C24136E192A02E32B
:100250001A4A1B2AE3D719C003F01AC004F01BC0C6
:1002600005F003C0E9FF04C0F3FF055010EC23F0D4
:100270002E0A2EE1032A02E3044A052A166A03C065
:1002800019F004C01AF005C01BF019C0E9FF1AC02C
:10029000F3FF1B5010EC23F01C6E800F500F12E385
:1002A0001C50800F460F0EE216500A0DF3CF1DF0C2
:1002B0001D501C26D00E1C24166E192A02E31A4A61
:1002C0001B2AE3D719C003F01AC004F01BC005F0C5
:1002D00003C0E9FF04C0F3FF055010EC23F0196ED2
:1002E0006C0A07E1010E0C6E032A02E3044A052A98
:1002F00009D01950680A06E1010E0E6E032A02E3C6
:10030000044A052A03C0E9FF04C0F3FF055010ECBE
:1003100023F0750A06E1010E106E032A02E3044A77
:10032000052A03C0E9FF04C0F3FF055010EC23F0D9
:10033000196E730A05E1010E0D6E200E156E3FD089
:100340001950780A03E1100E116E39D01950580A6D
:1003500005E1100E116E010E126E31D01950630AB4
:1003600002E1116A2CD019506F0A03E1080E116ED8
:1003700026D01950660A03E1010E0F6E20D01950E5
:10038000640A1DE01950690A1AE0105005E0FF0EDA
:1003900003260422052213D01950E56E0250E56EA3
:1003A0000150E56E0050E56EF8EC16F0040EE12603
:1003B000094A0A2A032A02E3044A052AA0D60D5054
:1003C00021E00650030F0D6E000E0720196E000E7F
:1003D00008201A6E0DC006F019C007F01AC008F008
:1003E000FD0E0D26FF0E19221A220DC0E9FF19C0BD
:1003F000F3FF1A50ECEC21F00D6EF3CF19F0F4CFAF
:100400001AF032D10F50D8B43ED00650040F0F6E00
:10041000000E07201B6E000E08201C6E0FC006F099
:100420001BC007F01CC008F0FC0E0F26FF0E1B229D
:100430001C220FC0E9FF1BC0F3FF1C5072EC21F01F
:100440000F6EF3CF1BF0F4CF1CF0E9CF1DF0040EBC
:10045000196E000E0D6E800E1A6E1650E56E240E8B
:10046000E56E040EE56E000EE56E1D50E56E1C5047
:10047000E56E1B50E56E0F50E56ED8EC0EF0080EE1
:10048000E1261668F1D016680C5023E00650040FE0
:100490000C6E000E07200F6E000E08201B6E0CC0A5
:1004A00006F00FC007F01BC008F0FC0E0C26FF0E74
:1004B0000F221B220CC0E9FF0FC0F3FF1B5072EC90
:1004C00021F00C6EF3CF0FF0F4CF1BF0E9CF1CF04E
:1004D0006AD00E5032E00650020F0E6E000E07205A
:1004E0001D6E000E08201E6E0EC006F01DC007F027
:1004F0001EC008F0FE0E0E26FF0E1D221E220EC08C
:10050000E9FF1DC0F3FF1E50ABEC22F00E6E0EC0D3
:100510000CF0E86A0EBEFF0E0F6E1B6E1C6E1150C3
:100520000A0A03E11050D8B43ED00C500E6E0EC033
:100530000CF00F6A1B6A1C6A36D00650020F0E6E52
:10054000000E07201D6E000E08201E6E0EC006F065
:100550001DC007F01EC008F0FE0E0E26FF0E1D2265
:100560001E220EC0E9FF1DC0F3FF1E50ABEC22F0AF
:100570000E6EF3CF1DF00EC00CF01DC00FF0E86A38
:100580001DBEFF0E1B6E1C6E11500A0A02E11050B8
:100590000AE00C500E6E0F501D6E0EC00CF01DC008
:1005A0000FF01B6A1C6A040E196E010E0D6E800E90
:1005B0001A6E1150D8B440D0105013E01150E56EAF
:1005C000040EE56E010EE56E1C50E56E1B50E56EE7
:1005D0000F50E56E0C50E56ED3EC12F0070EE126DD
:1005E00012D01150E56E040EE56E010EE56E1C5042
:1005F000E56E1B50E56E0F50E56E0C50E56E9CEC01
:100600001AF0070EE12617502FE00DC0E9FF19C0C0
:10061000F3FF1A5010EC23F02D0A26E0FF0E0D26F2
:1006200019221A2218C0E5FF0DC0E9FF19C0F3FF17
:100630001A50A8EC23F018D00CC0E5FF0DC0E9FF5C
:1006400019C0F3FF1A50A8EC23F00D50010F0C6EE7
:10065000000E19200E6E000E1A20E56A0CC0E9FF8C
:100660000EC0F3FFA8EC23F00DC00CF019C00EF083
:100670001AC00FF013C010F0105010E00CC0E9FFCA
:100680000EC0F3FF0F5010EC23F0176E175006E06A
:100690000C2A02E30E4A0F2A1006EED710C013F000
:1006A00014501EE109C00CF00AC00EF010C00FF08B
:1006B0000F5010E01550E56E0250E56E0150E56EEA
:1006C0000050E56EF8EC16F0040EE1260C4A0E2AF6
:1006D0000F06EED70CC009F00EC00AF00FC013F0E1
:1006E00016C00CF00DC00DF019C00EF01AC00FF0BE
:1006F00009C010F00AC015F00DC0E9FF0EC0F3FFED
:100700000F5010EC23F0166E1650D8B43ED00CC02B
:1007100016F0176A161E171E1650171005E00CC0AB
:1007200016F00C06165031E00DC0E9FF0EC0F3FFC5
:100730000F5010EC23F0116E125010E01150E56EC6
:1007400068EC22F0166EE652165004E01150166E58
:10075000169A02D011C016F016C011F01150E56EB5
:100760000250E56E0150E56E0050E56EF8EC16F0B3
:10077000040EE1260D2A02E30E4A0F2A104A152A1A
:100780001350D8B4B9D71306B7D710C009F015C0A5
:100790000AF014502BE010C00CF015C00DF013C07F
:1007A0000EF00E501FE0200EE56E0250E56E015077
:1007B000E56E0050E56EF8EC16F0040EE1260C4AEA
:1007C0000D2A0E06EED70B50E56E0250E56E015075
:1007D000E56E0050E56EF8EC16F0040EE126094ACD
:1007E0000A2A04D00CC009F00DC00AF0032A02E363
:1007F000044A052A7FEF00F00AC0F3FF0950E4CF56
:100800001EF0E4CF1DF0E4CF1CF0E4CF1BF0E4CFEA
:100810001AF0E4CF19F0E4CF18F0E4CF17F0E4CFEA
:1008200016F0E4CF15F0E4CF14F0E4CF13F0E4CFEA
:1008300012F0E4CF11F0E4CF10F0E4CF0FF0E4CFEA
:100840000EF0E4CF0DF0E4CF0CF0E4CF0BF0E4CFEA
:100850000AF0E4CF09F0E4CF08F0E4CF07F0E4CFEA
:1008600006F0E4CF05F0E4CF04F0E4CF03F0E4CFEA
:1008700002F0E4CF01F0E4CF00F0E4CFD9FF1200A2
:1008800005C0E5FF06C0E5FF07C0E5FF08C0E5FFBE
:1008900009C0E5FF0AC0E5FF0BC0E5FF0CC0E5FF9E
:1008A0000DC0E5FF0EC0E5FF0FC0E5FF10C0E5FF7E
:1008B00011C0E5FF12C0E5FF13C0E5FF14C0E5FF5E
:1008C00015C0E5FF16C0E5FF17C0E5FF18C0E5FF3E
:1008D00019C0E5FF1AC0E5FF1BC0E5FF1CC0E5FF1E
:1008E0001DC0E5FF000E00B0050F066AF60F02E31B
:1008F000062AFCD70A0F056E042E03D0FB0F01E376
:10090000062A065000B0020F00B2050F076AF60F64
:1009100002E3072AFCD70A0F066E042E03D0FB0F52
:1009200001E3072A075000B0060F00B2020F00B41F
:10093000050F086AF60F02E3082AFCD70A0F076EB4
:10094000042E03D0FB0F01E3082A085000B2010F68
:1009500000B4020F00B6050F096AF60F02E3092A78
:10096000FCD70A0F086E042E03D0FB0F01E3092AFF
:10097000095000B0090F00B2080F00B4060F00B60E
:10098000020F00B8050F0A6AF60F02E30A2AFCD725
:100990000A0F096E042E03D0FB0F01E30A2A0A5046
:1009A00000B0030F00B2070F00B4050F00B6010F2F
:1009B00000B8020F00BA050F0B6AF60F02E30B2A0C
:1009C000FCD70A0F0A6E042E03D0FB0F01E30B2A9B
:1009D0000B5000B0050F00B4010F00B6030F00B8B4
:1009E000060F00BA020F00BC050F0C6AF60F02E3F7
:1009F0000C2AFCD70A0F0B6E042E03D0FB0F01E369
:100A00000C2A0C5000B0070F00B2050F00BA010FFE
:100A100000BC020F00BE050F0D6AF60F02E30D2A9F
:100A2000FCD70A0F0C6E042E03D0FB0F01E30D2A36
:100A30000D5000B0070F00B2050F00B4010F00B653
:100A4000020F00B8040F00BA080F00BC060F00BE6A
:100A5000020F01B0050F0E6AF60F02E30E2AFCD753
:100A60000A0F0D6E042E03D0FB0F01E30E2A0E5069
:100A700000B0040F00B2090F00B4090F00B6080F50
:100A800000B8060F00BA020F00BC050F00BE010F30
:100A900001B0020F01B2050F0F6AF60F02E30F2A31
:100AA000FCD70A0F0E6E042E03D0FB0F01E30F2AB2
:100AB0000F5000B0040F00B2080F00B4070F00B6CB
:100AC000050F00B8010F00BA030F00BC060F00BEEF
:100AD000030F01B0060F01B2020F01B4050F106A37
:100AE000F60F02E3102AFCD70A0F0F6E042E03D074
:100AF000FB0F01E3102A105000B0060F00B2020FE6
:100B000000B4050F00B6010F00B8030F00BA060FBE
:100B100000BC020F00BE050F01B2010F01B4020FAD
:100B200001B6050F116AF60F02E3112AFCD70A0F6E
:100B3000106E042E03D0FB0F01E3112A115000B0F8
:100B4000040F00B2090F00B4080F00B6070F00B879
:100B5000040F00BA080F00BC070F00BE040F01B05D
:100B6000090F01B2080F01B4060F01B6020F01B858
:100B7000050F126AF60F02E3122AFCD70A0F116E54
:100B8000042E03D0FB0F01E3122A125000B4010F10
:100B900000B6030F00B8070F00BA040F00BC090F1E
:100BA00000BE090F01B0080F01B2070F01B4050F15
:100BB00001B6010F01B8020F01BA050F136AF60F53
:100BC00002E3132AFCD70A0F126E042E03D0FB0F88
:100BD00001E3132A135000B0060F00B2020F00B455
:100BE000040F00B6080F00B8060F00BA030F00BCD0
:100BF000060F00BE030F01B0070F01B2050F01B4CD
:100C0000010F01B6030F01B8060F01BA020F01BCB4
:100C1000050F146AF60F02E3142AFCD70A0F136EAD
:100C2000042E03D0FB0F01E3142A145000B0090F67
:100C300000B2090F00B4080F00B6060F00B8030F8A
:100C400000BA070F00BC040F00BE090F01B0080F67
:100C500001B2070F01B4050F01BA010F01BC020F69
:100C600001BE050F156AF60F02E3152AFCD70A0F1D
:100C7000146E042E03D0FB0F01E3152A155000B0AB
:100C8000050F00B2010F00B4030F00B6070F00B844
:100C9000050F00BC010F00BE020F01B0050F01B22D
:100CA000010F01B4030F01B6070F01B8040F01BA19
:100CB000080F01BC060F01BE020F02B0050F166A35
:100CC000F60F02E3162AFCD70A0F156E042E03D086
:100CD000FB0F01E3162A165000B2010F00B4020FF9
:100CE00000B6040F00B8090F00BA090F00BC080FC6
:100CF00000BE060F01B0020F01B2050F01B8010FCF
:100D000001BA020F01BC050F01BE010F02B0020FB4
:100D100002B2050F176AF60F02E3172AFCD70A0F73
:100D2000166E042E03D0FB0F01E3172A175000BAEA
:100D3000010F00BC030F00BE070F01B0050F01B487
:100D4000010F01B6020F01B8040F01BA080F01BC70
:100D5000060F01BE030F02B0060F02B2020F02B46B
:100D6000050F186AF60F02E3182AFCD70A0F176E50
:100D7000042E03D0FB0F01E3182A185001B0010F15
:100D800001B2030F01B4060F01B6020F01B8040F40
:100D900001BA080F01BC070F01BE050F02B2010F17
:100DA00002B4020F02B6050F196AF60F02E3192A00
:100DB000FCD70A0F186E042E03D0FB0F01E3192A8B
:100DC000195001B6010F01B8020F01BA040F01BC9E
:100DD000090F01BE090F02B0090F02B2080F02B4D9
:100DE000060F02B6020F02B8050F1A6AF60F02E3E9
:100DF0001A2AFCD70A0F196E042E03D0FB0F01E349
:100E00001A2A1A5001BE010F02B0030F02B2070FD7
:100E100002B4050F02B6010F02B8020F02BA050FA5
:100E20001B6AF60F02E31B2AFCD70A0F1A6E042E68
:100E300003D0FB0F01E31B2A1B5002B4010F02B6C3
:100E4000030F02B8060F02BA020F02BC050F1C6A9C
:100E5000F60F02E31C2AFCD70A0F1B6E042E03D0E8
:100E6000FB0F01E31C2A1C5002BA010F02BC020F47
:100E700002BE050F1D6AF60F02E31D2AFCD70A0FFA
:100E80001C6E042E03D0FB0F01E31D2A300FEE6E03
:100E90001B50300FEE6E1A50300FEE6E1950300F9F
:100EA000EE6E1850300FEE6E1750300FEE6E16507B
:100EB000300FEE6E1550300FEE6E1450300FEE6E98
:100EC0001350300FEE6E1250300FEE6E1150300F87
:100ED000EE6E1050300FEE6E0F50300FEE6E0E5063
:100EE000300FEE6E0D50300FEE6E0C50300FEE6E78
:100EF0000B50300FEE6E0A50300FEE6E0950300F6F
:100F0000EE6E0850300FEE6E0750300FEE6E06504A
:100F1000300FEE6E0550300FEE6E170EE4CF1DF061
:100F2000E4CF1CF0E4CF1BF0E4CF1AF0E4CF19F0CB
:100F3000E4CF18F0E4CF17F0E4CF16F0E4CF15F0CB
:100F4000E4CF14F0E4CF13F0E4CF12F0E4CF11F0CB
:100F5000E4CF10F0E4CF0FF0E4CF0EF0E4CF0DF0CB
:100F6000E4CF0CF0E4CF0BF0E4CF0AF0E4CF09F0CB
:100F7000E4CF08F0E4CF07F0E4CF06F0E4CF05F0CB
:100F8000120000C0E5FF01C0E5FF02C0E5FF03C09D
:100F9000E5FF04C0E5FF05C0E5FF06C0E5FF07C0AB
:100FA000E5FF08C0E5FF09C0E5FF0AC0E5FF0BC08B
:100FB000E5FF0CC0E5FF006A016A026A040E025CEC
:100FC000D8B0D3EF09F001C003F0012A100E035C82
:100FD000D8B0E9D10A014E2B100E4E5D01E34E6BE5
:100FE0000A014E39E8441F0B036E046A630E0326A0
:100FF0000A0E042203C0E9FF04C0EAFFEFCF03F0AA
:10100000070E4E15046E010E056E000E066E04509E
:1010100006E0E86CD89005360636010FFCE3076A57
:101020000350051607500616055005E1065003E16A
:10103000056A052A01D0056A0550D880E866D8906F
:10104000056A05360550D8B4B9D70A014E51020DCC
:10105000F450046EF3CF03F0E00E0324056E000E8F
:101060000420066E05C0E9FF06C0EAFFEECF05F0DA
:10107000EFCF06F00A014BA19DD0B30E0324076EFB
:10108000040E0420086E07C0E9FF08C0EAFFEECF97
:1010900007F0EFCF08F00650800FF36E0850800F76
:1010A000F35C02E10750055C03E2056A066A60D062
:1010B000D30E0326040E042203C0E9FF04C0EAFF96
:1010C000EECF03F0EFCF04F00450800FF36E065024
:1010D000800FF35C02E10550035C04E205683F0EFB
:1010E000066E46D00750055C096E085006580A6E19
:1010F000E86A0ABEFF0E0B6EE56E0B50E56E0A50F5
:10110000E56E0950E56EE56AE56A400EE56E000E93
:10111000E56AEAEC0FF0096EF3CF0AF0F4CF0BF0BA
:10112000E9CF0CF0080EE1260750035C076E08506B
:101130000458086EE86A08BEFF0E036EE56E0350A1
:10114000E56E0850E56E0750E56E0C50E56E0B50ED
:10115000E56E0A50E56E0950E56ECFEC14F0036EB3
:10116000F3CF04F0080EE1260350056E0450066E1E
:101170000A014A51800FF36E0650800FF35C02E1C2
:101180000550495D03E3056A066A14D00A01495116
:10119000FF08036E3F0E4A55046E0650800FF36E33
:1011A0000450800FF35C02E10350055C03E3056823
:1011B0003F0E066E0A014E51020DF450046EF3CF3D
:1011C00003F0930E0326040E042203C0E9FF04C0BB
:1011D000EAFFEECF03F0EFCF04F00350055C036E9F
:1011E00004500658046ED88004AED89004E3041E60
:1011F000036CD8B4042A022A0A014A51800FF36E04
:101200000450800FF35C02E10350495DD8B0D6D69C
:101210000A014E51020DF450086EF3CF07F0930E01
:101220000726040E082207C0E9FF08C0EAFF05C030
:10123000EEFF06C0EFFF0A014BA55AD00A014E513E
:10124000020DF450086EF3CF07F0000E0724096E6C
:101250000A0E08200A6E09C0E9FF0AC0EAFFEECFB5
:101260000BF0EFCF0CF00B500C10D8B441D05C0E4B
:101270000726040E082207C0E9FF08C0EAFFEECFE8
:1012800007F0EFCF08F00750055C036E08500658D2
:10129000046E03101CE00450800F800F02E1010E69
:1012A000035C076A07360C50800F800F02E1010EC5
:1012B0000B5C0B6A0B3607500B1809E109C0E9FFFC
:1012C0000AC0EAFF03C0EEFF04C0EFFF77D60A01B1
:1012D0004E51020DF450046EF3CF03F0000E0326BE
:1012E0000A0E042203C0E9FF04C0EAFFEE6AEF6AB7
:1012F0000A014BA343D000500EE100C003F0002AC6
:10130000046A4F0E03260A0E042203C0E9FF04C03C
:10131000EAFF420EEF6E00C003F0002A046A4F0E8F
:1013200003260A0E0422640E0A014E25076E03C02E
:10133000E9FF04C0EAFF07C0EFFF00C003F0002A86
:10134000046A4F0E03260A0E04220650076E03C0DD
:10135000E9FF04C0EAFF07C0EFFF00C003F0002A66
:10136000046A4F0E03260A0E04220550076E03C0BE
:10137000E9FF04C0EAFF07C0EFFF20D64ECA03F022
:101380000650E56E0550E56EE56A0350E56E000E09
:10139000E56E300EE56E000EE56E63EC1DF0070E97
:1013A000E126DEEF07F002C001F000501DE00A0167
:1013B0004BA31AD000C002F0002A036A4F0E022687
:1013C0000A0E032202C0E9FF03C0EAFF0A0EEF6E15
:1013D0000050E56E800EE56E0A0EE56E4F0EE56E6E
:1013E00006EC18F0040EE1260150E4CF0CF0E4CF37
:1013F0000BF0E4CF0AF0E4CF09F0E4CF08F0E4CF3B
:1014000007F0E4CF06F0E4CF05F0E4CF04F0E4CF3A
:1014100003F0E4CF02F0E4CF01F0E4CF00F01200DB
:1014200000C0E5FF01C0E5FF02C0E5FF03C0E5FF26
:1014300004C0E5FF05C0E5FF06C0E5FF07C0E5FF06
:1014400008C0E5FF09C0E5FF0AC0E5FFC2A204D05D
:101450000A014C512AEF0CF00A014D51D8B41BD1AE
:101460000A014C51020DF450016EF3CF00F0E00E72
:101470000026000E012200C0E9FF01C0EAFFEECF06
:1014800000F0EFCF01F0240E4C25026E036A040E2B
:10149000032202C0E9FF03C0EAFFEFCF02F00250CF
:1014A000FF0A01E152D002380F0B036E920E0324A3
:1014B000046E056A0F0E0522066A920E03260F0EB1
:1014C000062203C0E9FF06C0EAFFEFCF03F0070ED4
:1014D0000214066E010E076E065005E0E86CD89007
:1014E0000736010FFDE3071C066E031604C0E9FF73
:1014F00005C0EAFF03C0EFFF02380F0B036E890E31
:101500000324046E056A0F0E0522066A890E03265F
:101510000F0E062203C0E9FF06C0EAFFEFCF03F07B
:10152000070E0214066E010E076E065005E0E86C09
:10153000D8900736010FFDE3071C066E031604C0A2
:10154000E9FF05C0EAFF03C0EFFF0A014C51020D9D
:10155000F450046EF3CF03F0E00E0326000E0422D5
:1015600001340130066E0030056E06340632053255
:101570000634063205320550005C056E06500158EF
:10158000066EC3CF07F0086A0750052608500622EA
:10159000C4CF07F0086A07500A6E096A0950052689
:1015A0000A50062203C0E9FF04C0EAFF05C0EEFFAF
:1015B00006C0EFFF0A014851010A01E06AD00A01A2
:1015C0004C51020DF450046EF3CF03F0E00E0324EF
:1015D000056E000E0420066E05C0E9FF06C0EAFF96
:1015E000EECF00F0EFCF01F0B30E0326040E04227D
:1015F00003C0E9FF04C0EAFFEECF05F0EFCF06F02D
:101600009C0E0526D8A006060150800FF36E0650EA
:10161000800FF35C02E10550005C0EE20050640FA5
:10162000056E000E0120066E03C0E9FF04C0EAFF4C
:1016300005C0EEFF06C0EFFF0A014C51020DF45049
:10164000046EF3CF03F0D30E0326040E042203C06E
:10165000E9FF04C0EAFFEECF05F0EFCF06F0640E1D
:101660000526D8B0062A0650800FF36E0150800F71
:10167000F35C02E10050055C0CE29C0E0026D8A051
:10168000010603C0E9FF04C0EAFF00C0EEFF01C08D
:10169000EFFF0A014D6B0A014C2B100E4C5D01E36C
:1016A0004C6B0A014C39E8441F0B006E016A630E53
:1016B00000260A0E012200C0E9FF01C0EAFFEFCFB9
:1016C00000F0070E4C15016E010E036E000E046E45
:1016D000015006E0E86CD89003360436010FFCE3B5
:1016E000056A0050031605500416035005E1045026
:1016F00003E1036A032A01D0036A0350D880E86635
:10170000D890036A03360350D8B4A2D0230E0A013E
:101710004C25006E016A0F0E012200C0E9FF01C0D6
:10172000EAFFEFCF00F00044E844FC0B016E012813
:10173000C26E240E4C25006E016A040E012200C008
:10174000E9FF01C0EAFFEFCF02F00250FF0A01E11A
:101750007BD002380F0B006E920E0024016E036ADC
:101760000F0E0322046A920E00260F0E042200C000
:10177000E9FF04C0EAFFEFCF00F0070E0214046E89
:10178000010E056E045005E0E86CD8900536010F97
:10179000FDE30550001201C0E9FF03C0EAFF00C0ED
:1017A000EFFF380E006E0F0E016E02380F0B036E46
:1017B000046A0350002604500122380E056E0F0EF5
:1017C000066E055003260650042203C0E9FF04C03C
:1017D000EAFFEFCF03F0070E0216010E046E02506F
:1017E00005E0E86CD8900436010FFDE304500312C5
:1017F00000C0E9FF01C0EAFF03C0EFFF0F0145830E
:101800000000000045930F0144930BC0E5FFF2CFA9
:101810000BF0F29E44810000000000000000000078
:1018200000000000000000000000000000000000B8
:1018300000000000000000000000000000004491D3
:101840000BBEF28EE4CF0BF0C282010E0A014D6F87
:101850000A014C51E4CF0AF0E4CF09F0E4CF08F0DC
:10186000E4CF07F0E4CF06F0E4CF05F0E4CF04F0D6
:10187000E4CF03F0E4CF02F0E4CF01F0E4CF00F0D6
:10188000120000C0E5FF01C0E5FF02C0E5FF03C094
:10189000E5FF04C0E5FF05C0E5FF06C0E5FF07C0A2
:1018A000E5FF08C0E5FF09C0E5FF0AC0E5FF0BC082
:1018B000E5FF0CC0E5FF0DC0E5FF0EC0E5FF000E23
:1018C00000B0010F00B2020F00B4040F00B6080F01
:1018D00000B8060F00BA020F00BC040F00BE080FCC
:1018E00001B0060F01B2020F01B4040F01B6080FD8
:1018F00001B8060F01BA020F01BC040F01BE080FA8
:1019000002B0060F02B2020F02B4040F02B6080FB3
:1019100002B8060F02BA020F02BC040F02BE080F83
:10192000056AF60F02E3052AFCD70A0F046E05507C
:1019300000B8010F00BA030F00BC060F00BE020F73
:1019400001B0050F01B2010F01B4020F01B6040F7F
:1019500001B8090F01BA090F01BC080F01BE060F3B
:1019600002B0030F02B2070F02B4040F02B6080F51
:1019700002B8070F02BA050F066AF60F02E3062A3D
:10198000FCD70A0F056E065000BE010F01B0020F12
:1019900001B2050F01BA010F01BC030F01BE070F11
:1019A00002B0050F02B4010F02B6020F02B8050F14
:1019B00002BA010F02BC030F02BE060F076AF60F40
:1019C00002E3072AFCD70A0F066E075001B4010F85
:1019D00001B6020F01B8040F01BA080F01BC060FCF
:1019E00001BE020F02B0050F02B2010F02B4020FD6
:1019F00002B6040F02B8080F02BA070F02BC040FA8
:101A000002BE080F086AF60F02E3082AFCD70A0F85
:101A1000076E085001BC010F01BE030F02B0060F94
:101A200002B2030F02B4060F02B6020F02B8040F8F
:101A300002BA090F02BC090F02BE080F096AF60FAD
:101A400002E3092AFCD70A0F086E095002B2010FFF
:101A500002B4020F02B6050F02BC010F02BE030F53
:101A60000A6AF60F02E30A2AFCD70A0F096E0A5027
:101A700002B8010F02BA020F02BC040F02BE080F27
:101A80000B6AF60F02E30B2AFCD70A0F0A6E0B5003
:101A90000E6A0EE10A5010E1095012E1085014E1FB
:101AA000075016E1065018E105501AE104501CD009
:101AB0000E2A300FEE6E0A500E2A300FEE6E0950CD
:101AC0000E2A300FEE6E08500E2A300FEE6E0750C1
:101AD0000E2A300FEE6E06500E2A300FEE6E0550B5
:101AE0000E2A300FEE6E04500E2A300FEE6E0E509E
:101AF000E4CF0EF0E4CF0DF0E4CF0CF0E4CF0BF028
:101B0000E4CF0AF0E4CF09F0E4CF08F0E4CF07F027
:101B1000E4CF06F0E4CF05F0E4CF04F0E4CF03F027
:101B2000E4CF02F0E4CF01F0E4CF00F01200800E29
:101B3000E56E040EE56ED30EE56EB0EC1BF0030E01
:101B4000E126800EE56E040EE56EB30EE56EB0EC98
:101B50001BF0030EE126800EE56E040EE56ED50E39
:101B6000E56EB0EC1BF0030EE126800EE56E040E70
:101B7000E56EB50EE56EB0EC1BF0030EE126800EAF
:101B8000E56E040EE56ED70EE56EB0EC1BF0030EAD
:101B9000E126800EE56E040EE56EB70EE56EB0EC44
:101BA0001BF0030EE126800EE56E040EE56ED90EE5
:101BB000E56EB0EC1BF0030EE126800EE56E040E20
:101BC000E56EB90EE56EB0EC1BF0030EE126800E5B
:101BD000E56E040EE56EDB0EE56EB0EC1BF0030E59
:101BE000E126800EE56E040EE56EBB0EE56EB0ECF0
:101BF0001BF0030EE126800EE56E040EE56EDD0E91
:101C0000E56EB0EC1BF0030EE126800EE56E040ECF
:101C1000E56EBD0EE56EB0EC1BF0030EE126800E06
:101C2000E56E040EE56EDF0EE56EB0EC1BF0030E04
:101C3000E126800EE56E040EE56EBF0EE56EB0EC9B
:101C40001BF0030EE126800EE56E040EE56EE10E3C
:101C5000E56EB0EC1BF0030EE126800EE56E040E7F
:101C6000E56EC10EE56EB0EC1BF0030EE126800EB2
:101C7000E56E040EE56EE30EE56EB0EC1BF0030EB0
:101C8000E126800EE56E040EE56EC30EE56EB0EC47
:101C90001BF0030EE126800EE56E040EE56EE50EE8
:101CA000E56EB0EC1BF0030EE126800EE56E040E2F
:101CB000E56EC50EE56EB0EC1BF0030EE126800E5E
:101CC000E56E040EE56EE70EE56EB0EC1BF0030E5C
:101CD000E126800EE56E040EE56EC70EE56EB0ECF3
:101CE0001BF0030EE126800EE56E040EE56EE90E94
:101CF000E56EB0EC1BF0030EE126800EE56E040EDF
:101D0000E56EC90EE56EB0EC1BF0030EE126800E09
:101D1000E56E040EE56EEB0EE56EB0EC1BF0030E07
:101D2000E126800EE56E040EE56ECB0EE56EB0EC9E
:101D30001BF0030EE126800EE56E040EE56EED0E3F
:101D4000E56EB0EC1BF0030EE126800EE56E040E8E
:101D5000E56ECD0EE56EB0EC1BF0030EE126800EB5
:101D6000E56E040EE56EEF0EE56EB0EC1BF0030EB3
:101D7000E126800EE56E040EE56ECF0EE56EB0EC4A
:101D80001BF0030EE126800EE56E040EE56EF10EEB
:101D9000E56EB0EC1BF0030EE126800EE56E040E3E
:101DA000E56ED10EE56EB0EC1BF0030EE1261200DD
:101DB000D9CFE5FFE1CFD9FF00C0E5FF01C0E5FFC6
:101DC00002C0E5FF03C0E5FF04C0E5FF05C0E5FF75
:101DD00006C0E5FF07C0E5FF08C0E5FF09C0E5FF55
:101DE0000AC0E5FF0BC0E5FF020EDBCF00F0030EDB
:101DF000DBCF01F0040EDBCF02F0050EDBCF03F0EA
:101E0000060EDBCF04F0070EDBCF05F0080EDBCFAC
:101E100006F0090EDBCF07F006C008F006060850F2
:101E20000EE006500424086EE86A06BEE868052045
:101E3000096E08C0E9FF09C0EAFFEF6AEDD700505C
:101E40000401F76F0150F86F0250F96F0350FA6FF9
:101E5000F7C400F0F8C401F0F9C402F0FAC403F0CA
:101E6000066A086A096A800E03140A6E065007E1C2
:101E7000085005E1095003E10A50800A01E012D040
:101E8000039E00500401F76F0150F86F0250F96F84
:101E90000350FA6F04C0E9FF05C0EAFF2D0EEF6E94
:101EA000044A052A0401F935FA357E08006EF75117
:101EB000016EF851026E7F0EF915036E066A038EED
:101EC000086A096A0A6A0B6A005019E0D88000AEF5
:101ED000D8900EE30850082609360A360B3603BEA2
:101EE000088001500126023603360636002AECD758
:101EF000D89006320332023201320006E5D708508C
:101F000009100A100B1012E00550E56E0450E56E42
:101F10000B50E56E0A50E56E0950E56E0850E56E0F
:101F20000CEC20F0006E060EE12608D004C0E9FF9C
:101F300005C0EAFF300EEF6E010E006E0050042661
:101F4000E86A00BEE8680522075028E004C0E9FFFF
:101F500005C0EAFF2E0EEF6E002A044A052A07503C
:101F60001808E56E0550E56E0450E56E0650E56E06
:101F70000350E56E0250E56E0150E56E79EC1FF0FE
:101F8000016E070EE1260150002607500426E86A7C
:101F9000052204C0E9FF05C0EAFFEF6A0050E4CF64
:101FA0000BF0E4CF0AF0E4CF09F0E4CF08F0E4CF7F
:101FB00007F0E4CF06F0E4CF05F0E4CF04F0E4CF7F
:101FC00003F0E4CF02F0E4CF01F0E4CF00F0E4CF7F
:101FD000D9FF1200D9CFE5FFE1CFD9FF00C0E5FF5F
:101FE00001C0E5FF02C0E5FF03C0E5FF04C0E5FF57
:101FF00005C0E5FF06C0E5FF07C0E5FF020EDBCF29
:1020000000F0030EDBCF01F0040EDBCF02F0050E73
:10201000DBCF03F0060EDBCF04F0070EDBCF05F0BD
:10202000080EDBCF06F0090EDBCF07F000500401ED
:10203000816F0150826F0250836F0350846F045090
:102040000401856F0550866F0650876F0750886FB3
:102050000401815104018703F4CF01F0F3CF00F0B4
:10206000005004018C6F01508D6F040181510401F7
:102070008503F4CF01F0F3CF00F0005004018A6F24
:1020800001508B6F0401845104018503F3CF00F0EC
:1020900004018D51002600508D6F0401835104010D
:1020A0008603F3CF00F004018D51002600508D6FA0
:1020B0000401835104018503F4CF01F0F3CF00F054
:1020C00004018C5100268D51012200508C6F01506B
:1020D0008D6F0401825104018603F4CF01F0F3CF28
:1020E00000F004018C5100268D51012200508C6FAC
:1020F00001508D6F0401825104018703F3CF00F07A
:1021000000500401916F0401825104018503F4CF52
:1021100001F0F3CF00F0005004018F6F0150906F79
:102120000401815104018803F3CF00F00050040141
:10213000F66F0401815104018603F4CF01F0F3CF5F
:1021400000F000500401F46F0150F56F04018E6B34
:102150000401F36B04018E5104018A25006E040111
:102160008F5104018B21016E0401905104018C21D7
:10217000026E0401915104018D21036E00508A6F9B
:1021800001508B6F02508C6F03508D6F0401F3511F
:1021900004018A25006E0401F45104018B21016EB3
:1021A0000401F55104018C21026E0401F651040171
:1021B0008D21036E03C0E9FF02C0F4FF01C0F3FFED
:1021C0000050E4CF07F0E4CF06F0E4CF05F0E4CF11
:1021D00004F0E4CF03F0E4CF02F0E4CF01F0E4CF69
:1021E00000F0E4CFD9FF120000C0E5FF01C0E5FF19
:1021F0000A014551D8B4F5D09DA81DD09EA81BD08A
:102200000A016F510A016C1905E15EEC23F00A0125
:102210006C6BE7D0000E0A016F25006E016A0F0E8D
:10222000012200C0E9FF01C0EAFFEFCF68FA6F2B7F
:1022300068CAADFFD6D09EAAD4D0ABA205D00A0101
:102240006D815EEC23F0CDD0ABA405D00A016D8387
:102250005EEC23F0C6D0ABA03ED0AECF68FA800EC5
:102260000A0146110A01681904E10A016D89AB9659
:10227000B8D00A01685104E068510A01461927E103
:102280000A016D99AB960A01685103E00A016D9746
:1022900002D00A016D8768CA71FA6ACA72FA0A0125
:1022A0006A050A01736F600E0A017225006E016AE9
:1022B000000E012200C0E9FF01C0EAFF68CAEFFF7B
:1022C000722B7251800A02E10A01726B8AD00A01F4
:1022D0006D99AB8686D0AECF68FA0A016DA919D088
:1022E000800E0A0146110A01681911E18B909D9A2E
:1022F000AB980A016C5104E1AD6A5EEC23F007D0A3
:1023000000CFADFF010E0A016F6F9D886AD0AB86CA
:1023100068D00A0168510A0171270A0172510A0145
:1023200073191BE10A0171510CE172CA6AFA0A01C0
:102330006DB712D08B909D9AAB98AD6A5EEC23F08E
:102340000BD00A016D856DB707D08B909D9AAB9825
:10235000010EAD6E5EEC23F044D00A0172510A0109
:102360006B1908E10A016B510A016A1903E05EEC7E
:1023700023F037D06ACA00F0016A004A012AE56AF0
:10238000800EE56E0150E56E0050E56EF8EC18F039
:10239000006E040EE12600500A01696F0A017219ED
:1023A0000CE11F0E0A0168150A01736F732B732B62
:1023B0000A016A510A017327739F72CA00F00A0169
:1023C000722B016A600E0026000E012200C0E9FF98
:1023D00001C0EAFF68CAEFFF7251800A02E10A01F8
:1023E000726BE4CF01F0E4CF00F0120000C0E5FF13
:1023F00001C0E5FF02C0E5FF03C0E5FF04C0E5FF43
:10240000DCEC23F094928B9237EC20F0F3CF01F0C8
:10241000F4CF02F0E9CF03F0880F0401346F130EFC
:102420000120356F000E0220366F000E0320376F3B
:1024300081EC17F09DEC23F09280800E006E0F0E61
:10244000016E0F0E036E380E002603500122800E1F
:10245000026E0F0E036E800E005E0350015A0F0EC7
:10246000046E380E0226045003220F0E046E800EF6
:10247000025E0450035A02C0E9FF03C0EAFFEFCF37
:1024800002F0028000C0E9FF01C0EAFF02C0EFFFD6
:10249000000EE56AE56A39EC1AF0E652E6529282DD
:1024A000800E006E0F0E016E0F0E036E380E0026AA
:1024B00003500122800E026E0F0E036E800E005E2E
:1024C0000350015A0F0E046E380E022604500322E8
:1024D0000F0E046E800E025E0450035A02C0E9FF24
:1024E00003C0EAFFEFCF02F0028200C0E9FF01C0A3
:1024F000EAFF02C0EFFF010EE56EE56E39EC1AF05F
:10250000E652E6529284800E006E0F0E016E0F0EA0
:10251000036E380E002603500122800E026E0F0E4D
:10252000036E800E005E0350015A0F0E046E380ECB
:102530000226045003220F0E046E800E025E045029
:10254000035A02C0E9FF03C0EAFFEFCF02F00284A2
:1025500000C0E9FF01C0EAFF02C0EFFF020EE56E16
:10256000E56E39EC1AF0E652E652030EE56E800E87
:10257000E56E0F0EE56E820EE56E0F0EE56E030E34
:10258000E56EE5EC15F0060EE126E4CF04F0E4CFAD
:1025900003F0E4CF02F0E4CF01F0E4CF00F012004A
:1025A000430025630000D9CFE5FFE1CFD9FF00C08C
:1025B000E5FF01C0E5FF02C0E5FF03C0E5FF04C081
:1025C000E5FF05C0E5FF06C0E5FF07C0E5FF08C061
:1025D000E5FF09C0E5FF0AC0E5FF0BC0E5FF0CC041
:1025E000E5FF0DC0E5FF0EC0E5FF0FC0E5FF020EE1
:1025F000DBCF00F0030EDBCF01F0040EDBCF02F0E7
:10260000050EDBCF03F0060EDBCF04F0070EDBCFA9
:1026100005F0080EDBCF06F0200E076E086A06C034
:1026200009F00A6A0B6A0C6AE56AE56AE56A09500C
:10263000E56E0350E56E0250E56E0150E56E005008
:10264000E56EAFEC13F00D6E080EE126300E0D2690
:102650003A0E0D5C05E30D500E6E270E0E240D6E26
:10266000FF0E07260822200E07240E6E0A0E0820F1
:102670000F6E0EC0E9FF0FC0EAFF0DC0EFFF0C5058
:10268000E56E0B50E56E0A50E56E0950E56E03509D
:10269000E56E0250E56E0150E56E0050E56ECFEC40
:1026A00014F0006EF3CF01F0F4CF02F0E9CF03F0A5
:1026B000080EE1260050011002100310D8A4AFD775
:1026C00007C000F008C001F004C002F005C003F02C
:1026D00000C004F001C005F0004A012A200E0426C3
:1026E0000A0E052204C0E9FF05C0EAFFEFCF04F09F
:1026F00002C0E9FF03C0EAFF04C0EFFF024A032A59
:10270000000E015C02E1200E005CE2E302C0E9FF82
:1027100003C0EAFF000EEF6AE4CF0FF0E4CF0EF043
:10272000E4CF0DF0E4CF0CF0E4CF0BF0E4CF0AF0EF
:10273000E4CF09F0E4CF08F0E4CF07F0E4CF06F0EF
:10274000E4CF05F0E4CF04F0E4CF03F0E4CF02F0EF
:10275000E4CF01F0E4CF00F0E4CFD9FF1200D9CFED
:10276000E5FFE1CFD9FF00C0E5FF01C0E5FF02C0F2
:10277000E5FF03C0E5FF04C0E5FF05C0E5FF06C0B7
:10278000E5FF07C0E5FF08C0E5FF09C0E5FF0AC097
:10279000E5FF020EDBCF00F0030EDBCF01F0040EED
:1027A000DBCF02F0050EDBCF03F0060EDBCF04F02B
:1027B000070EDBCF05F0080EDBCF06F0090EDBCFEE
:1027C00007F0086A096A0750800BE8440A6E0A504D
:1027D0001BE1045004260536063607360750035C15
:1027E00008E10650025C05E10550015C02E104507D
:1027F000005C06E2D890073206320532043204D07B
:10280000092A09C008F0DFD70750035C08E1065029
:10281000025C05E10550015C02E10450005C08E344
:102820000450005E0550015A0650025A0750035AE0
:10283000D890073206320532043208C009F0080683
:102840000950E2E103C0E9FF02C0F4FF01C0F3FF59
:102850000050E4CF0AF0E4CF09F0E4CF08F0E4CF71
:1028600007F0E4CF06F0E4CF05F0E4CF04F0E4CFC6
:1028700003F0E4CF02F0E4CF01F0E4CF00F0E4CFC6
:10288000D9FF120000C0E5FF01C0E5FF03C0E5FF6E
:1028900004C0E5FF05C0E5FF06C0E5FF07C0E5FF92
:1028A00008C0E5FF09C0E5FF0AC0E5FF0BC0E5FF72
:1028B000FEC400F0FFC401F00401FE3F01D0FF2B75
:1028C0000050E56E50EC23F0E652076E046A056A8C
:1028D000066AFEC400F0FFC401F00401FE3F01D00F
:1028E000FF2B0050E56E50EC23F0E6520B6A0A6EA7
:1028F000086A0850041205120A5006120B500712FB
:10290000FEC400F0FFC401F00401FE3F01D0FF2B24
:102910000050E56E50EC23F0E652036E006A03C0EF
:1029200001F0E86A03BEFF0E086E096E0050041243
:10293000015005120850061209500712FEC400F09B
:10294000FFC401F00401FE3F01D0FF2B0050E56EF3
:1029500050EC23F0E652016A0412015005120612EF
:10296000071207C0E9FF06C0F4FF05C0F3FF0450DB
:10297000E4CF0BF0E4CF0AF0E4CF09F0E4CF08F0A5
:10298000E4CF07F0E4CF06F0E4CF05F0E4CF04F0A5
:10299000E4CF03F0E4CF01F0E4CF00F01200D9CF90
:1029A000E5FFE1CFD9FF00C0E5FF01C0E5FF02C0B0
:1029B000E5FF03C0E5FF04C0E5FF05C0E5FF06C075
:1029C000E5FF07C0E5FF08C0E5FF09C0E5FF0AC055
:1029D000E5FF0BC0E5FF0CC0E5FF0DC0E5FF020EF3
:1029E000DBCF00F0030EDBCF01F0040EDBCF02F0F3
:1029F000050EDBCF03F0060EDBCF04F0070EDBCFB6
:102A000005F0080EDBCF06F0090EDBCF07F0086AF1
:102A1000096A0A6A0B6A200E0C6E0350800BE844A8
:102A20000D6E005000260136023603360850082687
:102A300009360A360B360D50D8A4088007500B5CB7
:102A400008E106500A5C05E10550095C02E104500A
:102A5000085C09E30450085E0550095A06500A5AFA
:102A600007500B5A00800C2ED8D703C0E9FF02C0D4
:102A7000F4FF01C0F3FF0050E4CF0DF0E4CF0CF001
:102A8000E4CF0BF0E4CF0AF0E4CF09F0E4CF08F094
:102A9000E4CF07F0E4CF06F0E4CF05F0E4CF04F094
:102AA000E4CF03F0E4CF02F0E4CF01F0E4CF00F094
:102AB000E4CFD9FF120000C0E5FF01C0E5FF02C06E
:102AC000E5FF03C0E5FF04C0E5FF0A016B510A0101
:102AD0006A1901E15CD06BCA00F0002A009E600E0A
:102AE0000024016E026A000E022201C0E9FF02C04A
:102AF000EAFFEFCF75FA1F0E0A0175176BCA74FA59
:102B000075510A017427742B742B749F61EC20F0AB
:102B1000016E015003E1016A012A01D0016A61ECF2
:102B200020F00A01756F800E7515026E1F0E751567
:102B3000036E03C004F003C075FA045003E16ACACF
:102B40006BFA38D001501BE002501FE061EC20F01E
:102B5000006E0A0175070050420A17E000504E0A45
:102B600003E1E1EC1CF011D00050460A03E192ECC5
:102B700023F00BD00050490A08E1FF0006D06BCAD1
:102B800076FA0250D8A4E2EC1DF074CA6BFA0A017E
:102B900042510A01431906E00A016C5103E16FEC4E
:102BA00016F008D08BB006D00A016C5103E1ACB22C
:102BB0005EEC23F0E4CF04F0E4CF03F0E4CF02F0C6
:102BC000E4CF01F0E4CF00F01200D9CFE5FFE1CF70
:102BD000D9FF00C0E5FF01C0E5FF02C0E5FF03C06B
:102BE000E5FF04C0E5FF05C0E5FF06C0E5FF07C03F
:102BF000E5FF08C0E5FF09C0E5FF0AC0E5FF020EDA
:102C0000DBCF00F0030EDBCF01F0040EDBCF02F0D0
:102C1000050EDBCF03F0060EDBCF04F0070EDBCF93
:102C200005F00038E8441F0B066E076A630E06269F
:102C30000A0E072206C0E9FF07C0EAFFEFCF08F03F
:102C4000070E0014096E010E0A6E095005E0E86CCB
:102C5000D8900A36010FFDE30A50081206C0E9FFBA
:102C600007C0EAFF08C0EFFF230E0024066E076AC4
:102C70000F0E072206C0E9FF07C0EAFF01C0EFFF01
:102C8000016A240E0026040E0122800E025E070E49
:102C900002160238F00B036E070E051605500326C8
:102CA00000C0E9FF01C0EAFF03C0EFFFE4CF0AF074
:102CB000E4CF09F0E4CF08F0E4CF07F0E4CF06F06A
:102CC000E4CF05F0E4CF04F0E4CF03F0E4CF02F06A
:102CD000E4CF01F0E4CF00F0E4CFD9FF120000C050
:102CE000E5FF01C0E5FF02C0E5FF03C0E5FFACA2C0
:102CF00076D092EC21F0006E005005E10A01436BA2
:102D00000A01426B6CD043CA01F00050012692ECDC
:102D100021F0026E00060250230A1FE1010E005C42
:102D2000D8A05BD092EC21F0026E690A03E1DCECE2
:102D30001FF053D00250720A03E15EEC23F04DD035
:102D40000250730A01E049D08B80AB869D8A9D9822
:102D5000AE50AE50AB98AB8840D00250430A05E06D
:102D60000250420A01E039D001D0008E00C06EFA54
:102D700000500F01006F010E0A016F6F0A014351ED
:102D8000011814E092EC21F0026E0A016E27000E89
:102D90000A016F25006E036A0F0E032200C0E9FFCF
:102DA00003C0EAFF02C0EFFF6F2BE8D7000E0A0155
:102DB0006F25006E026A0F0E02220A016E1D036E5D
:102DC000032A00C0E9FF02C0EAFF03C0EFFF0A01C7
:102DD0006F2B6FCA6CFA0A01666B01C043FAE4CF2D
:102DE00003F0E4CF02F0E4CF01F0E4CF00F01200F2
:102DF000D9CFE5FFE1CFD9FF00C0E5FF01C0E5FF76
:102E000002C0E5FF03C0E5FF04C0E5FF05C0E5FF24
:102E100006C0E5FF07C0E5FF020EDBCF00F0030EA2
:102E2000DBCF01F0040EDBCF02F0050EDBCF03F0A9
:102E300002C006F00650046E800A33E100C0E9FFCC
:102E400001C0F3FF0250ECEC21F0056EF3CF06F069
:102E5000F4CF07F003C0E5FF05C0E9FF06C0F3FFAC
:102E60000750A8EC23F000C0E9FF01C0F3FF0250B7
:102E7000ECEC21F0056EF3CF06F0F4CF07F0052A55
:102E800002E3064A072A05C0E5FF06C0F4FF07C0B3
:102E9000F6FF00C0E9FF01C0F3FF025041EC23F050
:102EA0001DD004AA1BD0047A045004E10350E1ECC5
:102EB00023F014D00450010A04E1035002EC00F0A6
:102EC0000DD004500F0A04E10350ABEC1FF006D004
:102ED00004500E0A03E10350F1EC23F0E4CF07F0B5
:102EE000E4CF06F0E4CF05F0E4CF04F0E4CF03F044
:102EF000E4CF02F0E4CF01F0E4CF00F0E4CFD9FF5B
:102F0000120000C0E5FF01C0E5FF02C0E5FF03C0FD
:102F1000E5FF04C0E5FF006A630E0024016E026A4B
:102F20000A0E022201C0E9FF02C0EAFFEF6A002A8E
:102F3000020E005CF1E3006A016A026AE00E0124FD
:102F4000036E000E0220046E03C0E9FF04C0EAFF16
:102F5000EE6AEF6A5C0E0124036E040E0220046E1A
:102F600003C0E9FF04C0EAFFEE6AEF6A930E012492
:102F7000036E040E0220046E03C0E9FF04C0EAFFE2
:102F8000EE6AEF6AB30E0124036E040E0220046E93
:102F900003C0E9FF04C0EAFFEE6AEF6AD30E012422
:102FA000036E040E0220046E03C0E9FF04C0EAFFB2
:102FB000EE687F0EEF6E240E0024036E046A040E8A
:102FC000042203C0E9FF04C0EAFFEF68020E0126F5
:102FD000D8B0022A002A100E005CD8A0AFD7AF0EDE
:102FE000C06EC16A010EC26EC282E4CF04F0E4CFAB
:102FF00003F0E4CF02F0E4CF01F0E4CF00F01200E0
:103000004320412025642025640A0000D9CFE5FF34
:10301000E1CFD9FF00C0E5FF01C0E5FF02C0E5FF39
:1030200003C0E5FF04C0E5FF05C0E5FF06C0E5FFFE
:1030300007C0E5FF020EDBCF00F0030EDBCF01F08F
:10304000040EDBCF02F0050EDBCF03F043CA44FAD7
:103050000A0142510A01445F440703C004F0056AB3
:10306000030E0426D8B0052A44CA06F0076A0750A2
:10307000800FF36E0550800FF35C02E10450065C94
:1030800002E2E8682BD0020E035C02E2E86A26D076
:1030900003060350E56E5CEC1EF0E652046A035032
:1030A000045C14E204500024056EE86A0120066EF8
:1030B000E86A022005C0E9FF06C0F3FF10EC23F028
:1030C000042AE56E5CEC1EF0E652E9D743CA44FAE6
:1030D0000A0142510A01445F4407E86AE4CF07F05D
:1030E000E4CF06F0E4CF05F0E4CF04F0E4CF03F042
:1030F000E4CF02F0E4CF01F0E4CF00F0E4CFD9FF59
:103100001200D9CFE5FFE1CFD9FF00C0E5FF01C034
:10311000E5FF02C0E5FF03C0E5FF04C0E5FF05C011
:10312000E5FF020EDBCF00F0030EDBCF01F0040E53
:10313000DBCF02F00050020DF450036EF3CF00F02D
:103140005C0E0024046E040E0320056E04C0E9FF2B
:1031500005C0EAFF01C0EEFF02C0EFFF930E00249E
:10316000046E040E0320056E04C0E9FF05C0EAFFEB
:10317000EECF04F0EFCF05F00150045C016E025079
:103180000558026E000E00260A0E032200C0E9FF59
:1031900003C0EAFF01C0EEFF02C0EFFFD88002AE1D
:1031A000D89004E3021E016CD8B4022A0250800FAA
:1031B000800F02E1030E015C02E2016A026A015023
:1031C000021007E100C0E9FF03C0EAFF000EEE6A4B
:1031D000EF6AE4CF05F0E4CF04F0E4CF03F0E4CFEE
:1031E00002F0E4CF01F0E4CF00F0E4CFD9FF120009
:1031F000D9CFE5FFE1CFD9FF00C0E5FF01C0E5FF72
:1032000002C0E5FF03C0E5FF04C0E5FF05C0E5FF20
:1032100006C0E5FF020EDBCF00F0030EDBCF01F0AE
:10322000040EDBCF02F0050EDBCF03F0D88001AE39
:10323000D890046A0436045007E0011C066E001C96
:10324000056E054A062A04D000C005F001C006F04C
:10325000D88003AED89007E3031C016E021C006EF9
:10326000004A012A04D002C000F003C001F001505E
:10327000E56E0050E56E0650E56E0550E56EFFEC1C
:103280001AF0006EF3CF01F0040EE12604500AE0BC
:10329000011C036E001C026E024A032A03C0F3FFE6
:1032A000025003D001C0F3FF0050E4CF06F0E4CF9A
:1032B00005F0E4CF04F0E4CF03F0E4CF02F0E4CF74
:1032C00001F0E4CF00F0E4CFD9FF1200D9CFE5FF41
:1032D000E1CFD9FF00C0E5FF01C0E5FF02C0E5FF77
:1032E00003C0E5FF04C0E5FF05C0E5FF020EDBCF2C
:1032F00000F0030EDBCF01F0040EDBCF02F0050E71
:10330000DBCF03F0FEC404F0FFC405F00401FE3F70
:1033100001D0FF2B0350E56E0450E56EB2EC20F0B7
:10332000E652E652FEC404F0FFC405F00401FE3F7D
:1033300001D0FF2B0250056EE56E0450E56EB2EC35
:1033400020F0E652E652FEC404F0FFC405F004018A
:10335000FE3F01D0FF2B0150056EE56E0450E56E77
:10336000B2EC20F0E652E652FEC404F0FFC405F0D1
:103370000401FE3F01D0FF2B0050E56E0450E56EC6
:10338000B2EC20F0E652E652E4CF05F0E4CF04F0D0
:10339000E4CF03F0E4CF02F0E4CF01F0E4CF00F09B
:1033A000E4CFD9FF1200D9CFE5FFE1CFD9FF00C0AC
:1033B000E5FF01C0E5FF02C0E5FF03C0E5FF04C073
:1033C000E5FF05C0E5FF06C0E5FF020EDBCF00F01C
:1033D000030EDBCF01F0040EDBCF02F00A016551D2
:1033E00019E142EC14F0036EF3CF04F0F4CF05F0D2
:1033F000E9CF06F003C0E5FF04C0F4FF05C0F6FF07
:1034000006C0F7FF00C0E9FF01C0F3FF025021EC46
:1034100023F01ED00A016551010A1AE100C0E9FF3C
:1034200001C0F3FF025072EC21F0006EF3CF01F007
:10343000F4CF02F0E9CF03F00350E56E0250E56EE1
:103440000150E56E0050E56E66EC19F0040EE126C1
:10345000E4CF06F0E4CF05F0E4CF04F0E4CF03F0CE
:10346000E4CF02F0E4CF01F0E4CF00F0E4CFD9FFE5
:103470001200D9CFE5FFE1CFD9FF00C0E5FF01C0C1
:10348000E5FF02C0E5FF03C0E5FF04C0E5FF05C09E
:10349000E5FF06C0E5FF020EDBCF00F0030EDBCF39
:1034A00001F00038E8441F0B026E036A630E022627
:1034B0000A0E032202C0E9FF03C0EAFFEFCF04F0C7
:1034C000070E0014056E010E066E055005E0E86C4F
:1034D000D8900636010FFDE30650041202C0E9FF42
:1034E00003C0EAFF04C0EFFF230E0024026E036A4C
:1034F0000F0E032202C0E9FF03C0EAFF01C0EFFF85
:10350000016A240E0026040E012200C0E9FF01C05A
:10351000EAFFFF0EEF68E4CF06F0E4CF05F0E4CF5A
:1035200004F0E4CF03F0E4CF02F0E4CF01F0E4CF05
:1035300000F0E4CFD9FF1200D9CFE5FFE1CFD9FFEA
:1035400000C0E5FF01C0E5FF02C0E5FF03C0E5FFE5
:1035500004C0E5FF05C0E5FF06C0E5FF020EDBCFB6
:1035600000F0030EDBCF01F0040EDBCF02F0050EFE
:10357000DBCF03F0060EDBCF04F0070EDBCF05F048
:10358000080EDBCF06F0D88003AED89015E30650C6
:103590000A0A12E104C0E9FF05C0EAFF2D0EEF6E32
:1035A000044A052A031E021E011E006C05E1012AC1
:1035B00003E1022AD8B4032A0650E56E0550E56EF1
:1035C0000450E56E0350E56E0250E56E0150E56E65
:1035D0000050E56ED3EC12F0070EE126E4CF06F0C2
:1035E000E4CF05F0E4CF04F0E4CF03F0E4CF02F041
:1035F000E4CF01F0E4CF00F0E4CFD9FF1200D9CF3F
:10360000E5FFE1CFD9FF00C0E5FF01C0E5FF02C043
:10361000E5FF03C0E5FF04C0E5FF05C0E5FF06C008
:10362000E5FF020EDBCF00F0030EDBCF01F0040E4E
:10363000DBCF02F0050EDBCF03F0046A056A03500E
:10364000800BE844066E065011E102500226033654
:103650000350015C02E10250005C04E2D8900332A6
:10366000023204D0052A05C004F0E9D70350015CFA
:1036700002E10250005C04E30250005E0350015A74
:10368000D8900332023204C005F004060550EEE182
:1036900001C0F3FF0050E4CF06F0E4CF05F0E4CF23
:1036A00004F0E4CF03F0E4CF02F0E4CF01F0E4CF84
:1036B00000F0E4CFD9FF120000C0E5FF01C0E5FF34
:1036C00002C0E5FF03C0E5FF6BCA00F0016A76CADD
:1036D00002F0036A0250005E0350015AE56A800E50
:1036E000E56E0150E56E0050E56EF8EC18F0006EE6
:1036F000040EE126000676CA01F0430EABEC1FF083
:10370000200EABEC1FF00050800F7F0F20E3600E07
:103710000124026E036A000E032202C0E9FF03C007
:10372000EAFFEFCF02F0E56A0250E56E000EE56EAB
:10373000460EE56ED40EE56E63EC1DF0050EE12637
:10374000012A0150800A01E1016A0006DCD7E4CFBA
:1037500003F0E4CF02F0E4CF01F0E4CF00F0120078
:10376000D9CFE5FFE1CFD9FF00C0E5FF01C0E5FFFC
:1037700002C0E5FF03C0E5FF04C0E5FF020EDBCF9A
:1037800000F0030EDBCF01F0040EDBCF02F00A01E4
:10379000655111E145EC1FF0036EF3CF04F003C057
:1037A000E5FF04C0F4FF00C0E9FF01C0F3FF0250D1
:1037B0007AEC23F016D00A016551010A12E100C02B
:1037C000E9FF01C0F3FF0250ABEC22F0006EF3CF33
:1037D00001F00150E56E0050E56E1FEC1EF0E65260
:1037E000E652E4CF04F0E4CF03F0E4CF02F0E4CFFC
:1037F00001F0E4CF00F0E4CFD9FF1200AA0EF66E7C
:10380000470EF76E000EF86E0900F550056E0900C0
:10381000F550066E04E1056702D04BEF1CF009007D
:10382000F550006E0900F550016E0900F550026E6A
:1038300009000900F550E96E0900F550EA6E09002B
:1038400009000900F550036E0900F550046E0900E7
:103850000900F6CF07F0F7CF08F0F8CF09F000C065
:10386000F6FF01C0F7FF02C0F8FF035002E1045069
:1038700007E00900F550EE6E0306F8E20406F9D7FA
:1038800007C0F6FF08C0F7FF09C0F8FF050601E210
:1038900006060AEF1CF01200D9CFE5FFE1CFD9FFF1
:1038A00000C0E5FF01C0E5FF02C0E5FF03C0E5FF82
:1038B00004C0E5FF05C0E5FF020EDBCF00F00050BD
:1038C000010A24E1016A026A036AB30E0224046E4B
:1038D000040E0320056E04C0E9FF05C0EAFFEE6890
:1038E0007F0EEF6ED30E0224046E040E0320056ECD
:1038F00004C0E9FF05C0EAFFEE6AEF6A020E022685
:10390000D8B0032A012A100E015CDFE300C048FA98
:10391000E4CF05F0E4CF04F0E4CF03F0E4CF02F00D
:10392000E4CF01F0E4CF00F0E4CFD9FF120000C0F3
:10393000E5FF01C0E5FF02C0E5FF03C0E5FF5BEC6A
:1039400015F010EC0AF037EC20F0006EF3CF01F028
:10395000F4CF02F0E9CF03F004013451005E355199
:10396000015A3651025A3751035A039E3F0E035CE7
:1039700008E1FF0E025C05E1FF0E015C02E1FF0EB3
:10398000005C16E237EC20F0F3CF01F0F4CF02F048
:10399000E9CF03F0880F0401346F130E0120356F57
:1039A000000E0220366F000E0320376FC1EC07F0C7
:1039B000E4CF03F0E4CF02F0E4CF01F0E4CF00F075
:1039C000120000C0E5FF01C0E5FF02C0E5FF61ECA9
:1039D00020F0006E61EC20F0016E0050026ED00EFF
:1039E0000224006E0A0E005C05E30050026EF90E20
:1039F0000224006E0150026ED00E0224016E0A0EE7
:103A0000015C05E30150026EF90E0224016E080EFE
:103A1000005C12E2100E015CD8B00ED00038F00B42
:103A20000124006ED3EC1EF0016E015005E1005040
:103A3000E56E21EC22F0E652E4CF02F0E4CF01F093
:103A4000E4CF00F01200D9CFE5FFE1CFD9FF00C0ED
:103A5000E5FF01C0E5FF02C0E5FF03C0E5FF04C0CC
:103A6000E5FF020EDBCF00F00038E8441F0B016ECB
:103A7000026A630E01260A0E022201C0E9FF02C09B
:103A8000EAFFEFCF03F0070E0016010E046E0050A0
:103A900005E0E86CD8900436010FFDE3041C031622
:103AA00001C0E9FF02C0EAFF03C0EFFFE4CF04F06A
:103AB000E4CF03F0E4CF02F0E4CF01F0E4CF00F074
:103AC000E4CFD9FF1200D9CFE5FFE1CFD9FF00C085
:103AD000E5FF01C0E5FF02C0E5FF020ED924006E3C
:103AE000000EDA20016E800E026E030E0026000E1C
:103AF000012202220250E56E0150E56E0050E56E93
:103B0000040EDBCFE5FF030EDBCFE5FF020EDBCFBC
:103B1000E5FF0401FD51E56EFC51E56EFB51E56EDC
:103B20000EEC00F0006EF3CF01F0090EE12601C0AB
:103B3000F3FF0050E4CF02F0E4CF01F0E4CF00F057
:103B4000E4CFD9FF1200D9CFE5FFE1CFD9FF00C004
:103B5000E5FF01C0E5FF02C0E5FF03C0E5FF020E7F
:103B6000DBCF00F0030EDBCF01F0040EDBCF02F061
:103B70000A0165510DE17FEC22F0036E03C0E5FF01
:103B800000C0E9FF01C0F3FF0250A8EC23F00FD002
:103B90000A016551010A0BE100C0E9FF01C0F3FF12
:103BA000025010EC23F0E56E27EC21F0E652E4CF52
:103BB00003F0E4CF02F0E4CF01F0E4CF00F0E4CF73
:103BC000D9FF120000C0E5FF01C0E5FF61EC20F065
:103BD000006E4C0A08E161EC20F0300A02E08B82B2
:103BE00029D08B9227D00050450A24E1000EE56EC3
:103BF000250EE56EA00EE56E63EC1DF0030EE126CA
:103C0000EBEC23F0006E00C001F0000601500FE065
:103C100061EC20F0E56AE56E000EE56E250EE56EBE
:103C2000A20EE56E63EC1DF0050EE126ECD70A0E40
:103C3000ABEC1FF0E4CF01F0E4CF00F01200D9CFDD
:103C4000E5FFE1CFD9FF00C0E5FF01C0E5FF02C0FD
:103C5000E5FF03C0E5FF020EDBCF00F0030EDBCF74
:103C600001F0FEC402F0FFC403F00401FE3F01D0E6
:103C7000FF2B0150E56E0250E56EB2EC20F0E652EB
:103C8000E652FEC402F0FFC403F00401FE3F01D07F
:103C9000FF2B0050E56E0250E56EB2EC20F0E652CC
:103CA000E652E4CF03F0E4CF02F0E4CF01F0E4CF3A
:103CB00000F0E4CFD9FF1200D9CFE5FFE1CFD9FF63
:103CC00000C0E5FF01C0E5FF02C0E5FF03C0E5FF5E
:103CD00004C0E5FF020EDBCF00F042CA01F0026A29
:103CE000014A022A43CA03F0046A0150031803E19F
:103CF0000250041801E001D00ED0000E0A01422546
:103D0000016E026A070E022201C0E9FF02C0EAFF4B
:103D100000C0EFFF422BE4CF04F0E4CF03F0E4CF88
:103D200002F0E4CF01F0E4CF00F0E4CFD9FF1200BD
:103D3000D9CFE5FFE1CFD9FF00C0E5FF01C0E5FF26
:103D400002C0E5FF03C0E5FF020EDBCF00F0016A11
:103D500076CA02F0036A0250002603500122E56A87
:103D6000800EE56E0150E56E0050E56EF8EC18F03F
:103D7000006EF3CF01F0040EE126600E0026000E67
:103D8000012200C0E9FF01C0EAFFEFCF00F00050C0
:103D9000E4CF03F0E4CF02F0E4CF01F0E4CF00F091
:103DA000E4CFD9FF120000C0E5FF01C0E5FF02C06B
:103DB000E5FF010E006E61EC20F0016E01C002F023
:103DC000015023E00050E56E50EC23F0016EE65206
:103DD000015010E10A0E005C0BE20A0E006EE56E67
:103DE00050EC23F0016EE652015004E1E8680ED079
:103DF000E8680CD00150021802E0E86807D0002AF9
:103E00001B0E005CD8E3E86801D0E86AE4CF02F05A
:103E1000E4CF01F0E4CF00F01200F3CFE5FFF4CFE0
:103E2000E5FFE9CFE5FFEACFE5FFFACFE5FFFBCFFE
:103E3000E5FF0A01405104017E6F0A01415104016E
:103E40007F6FD6507C6FD7507D6FF2A411D00A01DE
:103E5000403F01D0412BF2940A01405104017E6F92
:103E60000A01415104017F6FD6507C6FD7507D6F9E
:103E7000E4CFFBFFE4CFFAFFE4CFEAFFE4CFE9FFB2
:103E8000E4CFF4FFE4CFF3FF110000C0E5FF01C071
:103E9000E5FF02C0E5FF03C0E5FFFEC400F0FFC47C
:103EA00001F00401FE3F01D0FF2B0050E56E50EC05
:103EB00023F0E652036E026AFEC400F0FFC401F074
:103EC0000401FE3F01D0FF2B0050E56E50EC23F0C3
:103ED000E652016A02120150031203C0F3FF0250BE
:103EE000E4CF03F0E4CF02F0E4CF01F0E4CF00F040
:103EF0001200D9CFE5FFE1CFD9FF00C0E5FF01C037
:103F0000E5FF02C0E5FF03C0E5FF04C0E5FF020EC8
:103F1000DBCF00F0030EDBCF01F0040EDBCF02F0AD
:103F2000050EDBCF03F0060EDBCFE9FF070EDBCF7C
:103F3000EAFF080EDBCF04F040EC04F0E4CF04F01D
:103F4000E4CF03F0E4CF02F0E4CF01F0E4CF00F0DF
:103F5000E4CFD9FF120000C0E5FF01C0E5FF02C0B9
:103F6000E5FF006E390E0A014725016E026A040E54
:103F7000022201C0E9FF02C0EAFF00C0EFFF220EEB
:103F8000475D01E2472B00500A0A0FE10A01475141
:103F9000E56E800EE56E040EE56E390EE56E06ECFC
:103FA00018F0040EE1260A01476BE4CF02F0E4CFDB
:103FB00001F0E4CF00F012000A01426B0A01436BEA
:103FC0000A0144698B809490B06A3F0EAF6EB88648
:103FD000AC8AAC84AC8CAC90AB8CAB8E0A016D6BB4
:103FE0000A01676B0A016A6B0A016B6B0A016C6B51
:103FF000000EE56A50EC23F00A01466FE6529F98E6
:104000009F9A010E0A01456F0401FB6BFC6B2F0E9A
:10401000FD6F5EEC23F01200D9CFE5FFE1CFD9FFB1
:1040200000C0E5FF01C0E5FF02C0E5FF03C0E5FFFA
:10403000020EDBCF00F0030EDBCF01F0040EDBCF6E
:1040400002F0050EDBCF03F0060EDBCFE9FF070E13
:10405000DBCFEAFF41EC0CF0E4CF03F0E4CF02F059
:10406000E4CF01F0E4CF00F0E4CFD9FF12000A0161
:1040700040510F01356F0A0141510F01366FD65083
:10408000336FD750346F35510A01401905E10F01E4
:1040900036510A0141190CE00A0140510F01356FF8
:1040A0000A0141510F01366FD650336FD750346F2C
:1040B00036CFE9FF35CFF4FF34CFF3FF0F01335193
:1040C000120000C0E5FF01C0E5FF0A016B510A01C3
:1040D000741905E00A016B510A016A1902E1E86AE4
:1040E00015D06BCA00F00A016B2B016A600E002626
:1040F000000E012200C0E9FF01C0EAFFEFCF00F08F
:104100006B51800A02E10A016B6B0050E4CF01F0B1
:10411000E4CF00F0120000C0E5FFE5EC23F004015D
:10412000896B806B8983006A89B3002A0050010B78
:10413000E844F46E8051FD0BF410806FD58ED59C51
:10414000D59AD588D596D594D582D580F28AF18432
:10415000D08EF28EF28CBA80FF0EBB68BA84E4CFA8
:1041600000F01200D9CFE5FFE1CFD9FF00C0E5FF95
:10417000020EDBCF00F0030EDBCFA8FF00C0A9FFCB
:10418000A69EA69CA684F29EF29C550EA76EAA0E31
:10419000A76EA682A6A202D00000FCD7E86AA6B647
:1041A000E82AA694F28EF28CE4CF00F0E4CFD9FF97
:1041B0001200D9CFE5FFE1CFD9FF00C0E5FF01C074
:1041C000E5FF020EDBCF00F00050020DF450016E4F
:1041D000F3CF00F0000E00260A0E012200C0E9FF16
:1041E00001C0EAFFEECF00F0EFCF01F001C0F3FF16
:1041F0000050E4CF01F0E4CF00F0E4CFD9FF12008B
:10420000D9CFE5FFE1CFD9FF00C0E5FF01C0E5FF51
:10421000020EDBCF00F00050020DF450016EF3CF20
:1042200000F0E00E0026000E012200C0E9FF01C0F0
:10423000EAFFEECF00F0EFCF01F001C0F3FF005036
:10424000E4CF01F0E4CF00F0E4CFD9FF1200D9CFE2
:10425000E5FFE1CFD9FF00C0E5FF01C0E5FF02C0E7
:10426000E5FF020EDBCF00F0FEC401F0FFC402F058
:104270000401FE3F01D0FF2B0050E56E0150E56EBA
:10428000B2EC20F0E652E652E4CF02F0E4CF01F0C7
:10429000E4CF00F0E4CFD9FF1200D8CFE5FFE0CFA4
:1042A000E5FFE56EF3CFE5FFF4CFE5FFE9CFE5FFEE
:1042B000EACFE5FFFACFE5FFFBCFE5FFF4EC10F026
:1042C000E4CFFBFFE4CFFAFFE4CFEAFFE4CFE9FF5E
:1042D000E4CFF4FFE4CFF3FFE450E4CFE0FFE4CF1A
:1042E000D8FF1000E8AE0AD0F3CFEAFFEE50EECFD1
:1042F000F3FFEECFF4FFEECFE9FF1200E8BCFEEFD4
:1043000023F0E9CFF6FFF3CFF7FFF86E0900F55081
:104310000900F5CFF3FF0900F5CFF4FF0900F5CF51
:10432000E9FF120000C0E5FF01C0E5FF0A014251AC
:104330000A01431902E1E86A0FD0000E0A01432581
:10434000006E016A070E012200C0E9FF01C0EAFF0A
:10435000EFCF00F0432B0050E4CF01F0E4CF00F0AA
:104360001200F2CFEAFFF29EA69EA69CA684E9CF99
:10437000A9FFF3CFAAFFE4CFA8FFBDEC23F0F4CF51
:10438000A8FFBDEC23F0F6CFA8FFBDEC23F0F7CFDC
:10439000A8FFBDEC23F0A694EABEF28E1200F2CF85
:1043A000F6FFF29EA69EA69CE9CFA9FFF3CFAAFF37
:1043B000A680A850A94AAA2AA680A8CFF3FFA94A96
:1043C000AA2AA680A8CFF4FFA94AAA2AA680A8CF25
:1043D000EAFFF6BEF28E1200E8AE08D0F3CFEAFF95
:1043E000EE50EECFF3FFEECFF4FF1200E8BC00EF8B
:1043F00024F0E9CFF6FFF3CFF7FFF86E0900F55090
:104400000900F5CFF3FF0900F5CFF4FF1200F2CF5A
:10441000EAFFF29EA69EA69CA684E9CFA9FFF3CF51
:10442000AAFFE4CFA8FFBDEC23F0F4CFA8FFBDECBA
:1044300023F0F6CFA8FFBDEC23F0A694EABEF28EDF
:104440001200D9CFE5FFE1CFD9FF00C0E5FF020E92
:10445000DBCF00F000C046FA0050E56E000EE56AC2
:10446000B2EC20F0E652E652E4CF00F0E4CFD9FF00
:104470001200F2CFF6FFF29EA69EA69CE9CFA9FFFE
:10448000F3CFAAFFA680A850A94AAA2AA680A8CF3F
:10449000F3FFA94AAA2AA680A8CFF4FFF6BEF28E9F
:1044A000120000C0E5FF01C0E5FF600E0A016B25A8
:1044B000006E016A000E012200C0E9FF01C0EAFFA0
:1044C000EFCF00F00050E4CF01F0E4CF00F0120095
:1044D000D9CFE5FFE1CFD9FF00C0E5FF020EDBCF6A
:1044E00000F0610E005C05E37B0E005C02E2010E51
:1044F00001D0E86AE4CF00F0E4CFD9FF120000C099
:10450000E5FF01C0E5FFFEC400F0FFC401F00401B7
:10451000FE3F01D0FF2B0050E56E50EC23F0E65239
:10452000E4CF01F0E4CF00F01200D9CFE5FFE1CFF6
:10453000D9FF00C0E5FF020EDBCF00F000C045FA56
:10454000005004E15EEC23F09D9A9D98E4CF00F0CA
:10455000E4CFD9FF1200E8AE06D0F3CFEAFFEE5069
:10456000EECFF3FF1200E8BCFCEF23F0E9CFF6FF3B
:10457000F3CFF7FFF86E0900F5500900F5CFF3FF10
:104580001200F2CFEAFFF29EA69EA69CA684E9CF77
:10459000A9FFF3CFAAFFE4CFA8FFBDEC23F0F4CF2F
:1045A000A8FFBDEC23F0A694EABEF28E120018EE2E
:1045B000FFF028EEFFF0F86AA68EA69CE9680E0EC2
:1045C000EA6E0068000EED6A0050FDE1FEEC1BF0A3
:1045D00006EC00F0FFD7F2CFF6FFF29EA69EA69C57
:1045E000E9CFA9FFF3CFAAFFA680A850A94AAA2A1B
:1045F000A680A8CFF3FFF6BEF28E1200F2CFEAFF3C
:10460000F29EA69EA69CA684E9CFA9FFF3CFAAFF9F
:10461000E4CFA8FFBDEC23F0A694EABEF28E120010
:10462000E8AE04D0F3CFEAFFEE501200E8BCFAEF98
:1046300023F0E9CFF6FFF3CFF7FFF86E0900F5504E
:104640001200E8AE0BD0F3CFEAFFE4CFEEFFF4CFD9
:10465000EEFFF6CFEEFFF7CFEEFF1200E8BCF8EF6B
:1046600023F0120000000000FF0000000002000222
:1046700000000042000000000000000000000000F8
:104680000000E8AE09D0F3CFEAFFE4CFEEFFF4CFAD
:10469000EEFFF6CFEEFF1200E8BC02EF24F01200AE
:1046A000D9CFE5FFE1CFD9FF020EDBCFA9FFA69C52
:1046B000A69EA680A850E4CFD9FF1200ACA2FED7D8
:1046C0008B80AE500000AE50AB98AB88AB869D8A15
:1046D0009D98120025642000F2CFF6FFF29EA69E60
:1046E000A69CE9CFA9FFF3CFAAFFA680A850F6BEEB
:1046F000F28E1200E8AE07D0F3CFEAFFE4CFEEFF70
:10470000F4CFEEFF1200E8BCF6EF23F01200700EBB
:10471000D36E9B8CFF0E9268936894689668626A69
:10472000F19E120000C0E5FFD3EC1EF0006E0050B9
:1047300001E1FF00E4CF00F012000F01456B900E85
:104740000F01446F030E0F01436F0F01458F1200DD
:10475000E8AE05D0F3CFEAFFE4CFEEFF1200E8BCED
:10476000F4EF23F01200D9CFE5FFE1CFD9FF020E1D
:10477000DBCF4BFAE4CFD9FF1200550EA76EAA0E7D
:10478000A76EA682A6B2FED7A94AAA2A010E0A01DE
:10479000656F1C0E0401FE6FFF6B12000A01656B52
:1047A0001C0E0401FE6FFF6B120001006446000046
:1047B000400A00001D0000008BEC20F0DCEC1FF034
:1047C0001200ACA2FED7AD6E120087EC23F01200EF
:1047D0000A016B5112000A01755112000A0145517C
:1047E0001200E8CF7FFF1200FEEF22F0C1EF22F0AF
:1047F000B1EF21F06CEF23F0EBEF22F0CFEF21F0DF
:0848000039EF22F007EF22F06E
:00000001FF
