:020000040000FA
:10000000DAEF20F0C96E1200B9EF1CF035EC21F0E8
:10001000C4EC1DF01200120073EF1EF0D9CFE5FF03
:10002000E1CFD9FF00C0E5FF01C0E5FF02C0E5FF59
:1000300003C0E5FF04C0E5FF05C0E5FF06C0E5FF1E
:1000400007C0E5FF08C0E5FF09C0E5FF0AC0E5FFFE
:100050000BC0E5FF0CC0E5FF0DC0E5FF0EC0E5FFDE
:100060000FC0E5FF10C0E5FF11C0E5FF12C0E5FFBE
:1000700013C0E5FF14C0E5FF15C0E5FF16C0E5FF9E
:1000800017C0E5FF18C0E5FF19C0E5FF1AC0E5FF7E
:100090001BC0E5FF1CC0E5FF1DC0E5FF1EC0E5FF5E
:1000A000020EDBCF00F0030EDBCF01F0040EDBCF3E
:1000B00002F0050EDBCF03F0060EDBCF04F0070ED7
:1000C000DBCF05F0080EDBCF06F0090EDBCF07F023
:1000D0000A0EDBCF08F0096A0A6A02C00DF00D5063
:1000E000800A0DE1025001014A6F0150496F005032
:1000F000486F010E016E480E006E800E026E03C046
:10010000E9FF04C0F3FF055013EC21F00B6E0B5018
:10011000D8B4FCEF03F00B50250A02E0E3EF03F044
:100120000C6A0D6A0E6A0F6A106A0A0E116E126A64
:10013000136A146A200E156E1668176A2B0E186E55
:10014000032A02E3044A052A03C0E9FF04C0F3FFBF
:10015000055013EC21F0196E250A13E11950E56ED4
:100160000250E56E0150E56E0050E56EADEC15F005
:10017000040EE126094A0A2A032A02E3044A052A50
:10018000BED71950300A06E1300E156E032A02E37D
:10019000044A052A03C0E9FF04C0F3FF055013EC2D
:1001A00021F02D0A06E1010E146E032A02E3044A2F
:1001B000052A03C0E9FF04C0F3FF055013EC21F04A
:1001C000200A08E1010E176E200E186E032A02E3C2
:1001D000044A052A03C0E9FF04C0F3FF055013ECED
:1001E00021F02B0A06E1010E176E032A02E3044AEE
:1001F000052A03C0E9FF04C0F3FF055013EC21F00A
:10020000196E800F4F0F2DE31950800F460F29E212
:1002100003C019F004C01AF005C01BF019C0E9FFB3
:100220001AC0F3FF1B5013EC21F01C6E800F500F0F
:1002300012E31C50800F460F0EE213500A0DF3CF4D
:100240001DF01D501C26D00E1C24136E192A02E32B
:100250001A4A1B2AE3D719C003F01AC004F01BC0C6
:1002600005F003C0E9FF04C0F3FF055013EC21F0D3
:100270002E0A2EE1032A02E3044A052A166A03C065
:1002800019F004C01AF005C01BF019C0E9FF1AC02C
:10029000F3FF1B5013EC21F01C6E800F500F12E384
:1002A0001C50800F460F0EE216500A0DF3CF1DF0C2
:1002B0001D501C26D00E1C24166E192A02E31A4A61
:1002C0001B2AE3D719C003F01AC004F01BC005F0C5
:1002D00003C0E9FF04C0F3FF055013EC21F0196ED1
:1002E0006C0A07E1010E0C6E032A02E3044A052A98
:1002F00009D01950680A06E1010E0E6E032A02E3C6
:10030000044A052A03C0E9FF04C0F3FF055013ECBB
:1003100021F0750A06E1010E106E032A02E3044A79
:10032000052A03C0E9FF04C0F3FF055013EC21F0D8
:10033000196E730A05E1010E0D6E200E156E3FD089
:100340001950780A03E1100E116E39D01950580A6D
:1003500005E1100E116E010E126E31D01950630AB4
:1003600002E1116A2CD019506F0A03E1080E116ED8
:1003700026D01950660A03E1010E0F6E20D01950E5
:10038000640A1DE01950690A1AE0105005E0FF0EDA
:1003900003260422052213D01950E56E0250E56EA3
:1003A0000150E56E0050E56EADEC15F0040EE1264F
:1003B000094A0A2A032A02E3044A052AA0D60D5054
:1003C00021E00650030F0D6E000E0720196E000E7F
:1003D00008201A6E0DC006F019C007F01AC008F008
:1003E000FD0E0D26FF0E19221A220DC0E9FF19C0BD
:1003F000F3FF1A50EFEC1FF00D6EF3CF19F0F4CFAE
:100400001AF032D10F50D8B43ED00650040F0F6E00
:10041000000E07201B6E000E08201C6E0FC006F099
:100420001BC007F01CC008F0FC0E0F26FF0E1B229D
:100430001C220FC0E9FF1BC0F3FF1C5075EC1FF01E
:100440000F6EF3CF1BF0F4CF1CF0E9CF1DF00F0EB1
:10045000196E000E0D6E800E1A6E1650E56E240E8B
:10046000E56E0F0EE56E000EE56E1D50E56E1C503C
:10047000E56E1B50E56E0F50E56EBAEC0DF0080E00
:10048000E1261668F1D016680C5023E00650040FE0
:100490000C6E000E07200F6E000E08201B6E0CC0A5
:1004A00006F00FC007F01BC008F0FC0E0C26FF0E74
:1004B0000F221B220CC0E9FF0FC0F3FF1B5075EC8D
:1004C0001FF00C6EF3CF0FF0F4CF1BF0E9CF1CF050
:1004D0006AD00E5032E00650020F0E6E000E07205A
:1004E0001D6E000E08201E6E0EC006F01DC007F027
:1004F0001EC008F0FE0E0E26FF0E1D221E220EC08C
:10050000E9FF1DC0F3FF1E50AEEC20F00E6E0EC0D2
:100510000CF0E86A0EBEFF0E0F6E1B6E1C6E1150C3
:100520000A0A03E11050D8B43ED00C500E6E0EC033
:100530000CF00F6A1B6A1C6A36D00650020F0E6E52
:10054000000E07201D6E000E08201E6E0EC006F065
:100550001DC007F01EC008F0FE0E0E26FF0E1D2265
:100560001E220EC0E9FF1DC0F3FF1E50AEEC20F0AE
:100570000E6EF3CF1DF00EC00CF01DC00FF0E86A38
:100580001DBEFF0E1B6E1C6E11500A0A02E11050B8
:100590000AE00C500E6E0F501D6E0EC00CF01DC008
:1005A0000FF01B6A1C6A0F0E196E010E0D6E800E85
:1005B0001A6E1150D8B440D0105013E01150E56EAF
:1005C0000F0EE56E010EE56E1C50E56E1B50E56EDC
:1005D0000F50E56E0C50E56ED8EC10F0070EE126DA
:1005E00012D01150E56E0F0EE56E010EE56E1C5037
:1005F000E56E1B50E56E0F50E56E0C50E56E69EC34
:1006000018F0070EE12617502FE00DC0E9FF19C0C2
:10061000F3FF1A5013EC21F02D0A26E0FF0E0D26F1
:1006200019221A2218C0E5FF0DC0E9FF19C0F3FF17
:100630001A50B0EC21F018D00CC0E5FF0DC0E9FF56
:1006400019C0F3FF1A50B0EC21F00D50010F0C6EE1
:10065000000E19200E6E000E1A20E56A0CC0E9FF8C
:100660000EC0F3FFB0EC21F00DC00CF019C00EF07D
:100670001AC00FF013C010F0105010E00CC0E9FFCA
:100680000EC0F3FF0F5013EC21F0176E175006E069
:100690000C2A02E30E4A0F2A1006EED710C013F000
:1006A00014501EE109C00CF00AC00EF010C00FF08B
:1006B0000F5010E01550E56E0250E56E0150E56EEA
:1006C0000050E56EADEC15F0040EE1260C4A0E2A42
:1006D0000F06EED70CC009F00EC00AF00FC013F0E1
:1006E00016C00CF00DC00DF019C00EF01AC00FF0BE
:1006F00009C010F00AC015F00DC0E9FF0EC0F3FFED
:100700000F5013EC21F0166E1650D8B43ED00CC02A
:1007100016F0176A161E171E1650171005E00CC0AB
:1007200016F00C06165031E00DC0E9FF0EC0F3FFC5
:100730000F5013EC21F0116E125010E01150E56EC5
:100740006BEC20F0166EE652165004E01150166E57
:10075000169A02D011C016F016C011F01150E56EB5
:100760000250E56E0150E56E0050E56EADEC15F0FF
:10077000040EE1260D2A02E30E4A0F2A104A152A1A
:100780001350D8B4B9D71306B7D710C009F015C0A5
:100790000AF014502BE010C00CF015C00DF013C07F
:1007A0000EF00E501FE0200EE56E0250E56E015077
:1007B000E56E0050E56EADEC15F0040EE1260C4A36
:1007C0000D2A0E06EED70B50E56E0250E56E015075
:1007D000E56E0050E56EADEC15F0040EE126094A19
:1007E0000A2A04D00CC009F00DC00AF0032A02E363
:1007F000044A052A7FEF00F00AC0F3FF0950E4CF56
:100800001EF0E4CF1DF0E4CF1CF0E4CF1BF0E4CFEA
:100810001AF0E4CF19F0E4CF18F0E4CF17F0E4CFEA
:1008200016F0E4CF15F0E4CF14F0E4CF13F0E4CFEA
:1008300012F0E4CF11F0E4CF10F0E4CF0FF0E4CFEA
:100840000EF0E4CF0DF0E4CF0CF0E4CF0BF0E4CFEA
:100850000AF0E4CF09F0E4CF08F0E4CF07F0E4CFEA
:1008600006F0E4CF05F0E4CF04F0E4CF03F0E4CFEA
:1008700002F0E4CF01F0E4CF00F0E4CFD9FF1200A2
:1008800005C0E5FF06C0E5FF07C0E5FF08C0E5FFBE
:1008900009C0E5FF0AC0E5FF0BC0E5FF0CC0E5FF9E
:1008A0000DC0E5FF0EC0E5FF0FC0E5FF10C0E5FF7E
:1008B00011C0E5FF12C0E5FF13C0E5FF14C0E5FF5E
:1008C00015C0E5FF16C0E5FF17C0E5FF18C0E5FF3E
:1008D00019C0E5FF1AC0E5FF1BC0E5FF1CC0E5FF1E
:1008E0001DC0E5FF000E00B0050F066AF60F02E31B
:1008F000062AFCD70A0F056E042E03D0FB0F01E376
:10090000062A065000B0020F00B2050F076AF60F64
:1009100002E3072AFCD70A0F066E042E03D0FB0F52
:1009200001E3072A075000B0060F00B2020F00B41F
:10093000050F086AF60F02E3082AFCD70A0F076EB4
:10094000042E03D0FB0F01E3082A085000B2010F68
:1009500000B4020F00B6050F096AF60F02E3092A78
:10096000FCD70A0F086E042E03D0FB0F01E3092AFF
:10097000095000B0090F00B2080F00B4060F00B60E
:10098000020F00B8050F0A6AF60F02E30A2AFCD725
:100990000A0F096E042E03D0FB0F01E30A2A0A5046
:1009A00000B0030F00B2070F00B4050F00B6010F2F
:1009B00000B8020F00BA050F0B6AF60F02E30B2A0C
:1009C000FCD70A0F0A6E042E03D0FB0F01E30B2A9B
:1009D0000B5000B0050F00B4010F00B6030F00B8B4
:1009E000060F00BA020F00BC050F0C6AF60F02E3F7
:1009F0000C2AFCD70A0F0B6E042E03D0FB0F01E369
:100A00000C2A0C5000B0070F00B2050F00BA010FFE
:100A100000BC020F00BE050F0D6AF60F02E30D2A9F
:100A2000FCD70A0F0C6E042E03D0FB0F01E30D2A36
:100A30000D5000B0070F00B2050F00B4010F00B653
:100A4000020F00B8040F00BA080F00BC060F00BE6A
:100A5000020F01B0050F0E6AF60F02E30E2AFCD753
:100A60000A0F0D6E042E03D0FB0F01E30E2A0E5069
:100A700000B0040F00B2090F00B4090F00B6080F50
:100A800000B8060F00BA020F00BC050F00BE010F30
:100A900001B0020F01B2050F0F6AF60F02E30F2A31
:100AA000FCD70A0F0E6E042E03D0FB0F01E30F2AB2
:100AB0000F5000B0040F00B2080F00B4070F00B6CB
:100AC000050F00B8010F00BA030F00BC060F00BEEF
:100AD000030F01B0060F01B2020F01B4050F106A37
:100AE000F60F02E3102AFCD70A0F0F6E042E03D074
:100AF000FB0F01E3102A105000B0060F00B2020FE6
:100B000000B4050F00B6010F00B8030F00BA060FBE
:100B100000BC020F00BE050F01B2010F01B4020FAD
:100B200001B6050F116AF60F02E3112AFCD70A0F6E
:100B3000106E042E03D0FB0F01E3112A115000B0F8
:100B4000040F00B2090F00B4080F00B6070F00B879
:100B5000040F00BA080F00BC070F00BE040F01B05D
:100B6000090F01B2080F01B4060F01B6020F01B858
:100B7000050F126AF60F02E3122AFCD70A0F116E54
:100B8000042E03D0FB0F01E3122A125000B4010F10
:100B900000B6030F00B8070F00BA040F00BC090F1E
:100BA00000BE090F01B0080F01B2070F01B4050F15
:100BB00001B6010F01B8020F01BA050F136AF60F53
:100BC00002E3132AFCD70A0F126E042E03D0FB0F88
:100BD00001E3132A135000B0060F00B2020F00B455
:100BE000040F00B6080F00B8060F00BA030F00BCD0
:100BF000060F00BE030F01B0070F01B2050F01B4CD
:100C0000010F01B6030F01B8060F01BA020F01BCB4
:100C1000050F146AF60F02E3142AFCD70A0F136EAD
:100C2000042E03D0FB0F01E3142A145000B0090F67
:100C300000B2090F00B4080F00B6060F00B8030F8A
:100C400000BA070F00BC040F00BE090F01B0080F67
:100C500001B2070F01B4050F01BA010F01BC020F69
:100C600001BE050F156AF60F02E3152AFCD70A0F1D
:100C7000146E042E03D0FB0F01E3152A155000B0AB
:100C8000050F00B2010F00B4030F00B6070F00B844
:100C9000050F00BC010F00BE020F01B0050F01B22D
:100CA000010F01B4030F01B6070F01B8040F01BA19
:100CB000080F01BC060F01BE020F02B0050F166A35
:100CC000F60F02E3162AFCD70A0F156E042E03D086
:100CD000FB0F01E3162A165000B2010F00B4020FF9
:100CE00000B6040F00B8090F00BA090F00BC080FC6
:100CF00000BE060F01B0020F01B2050F01B8010FCF
:100D000001BA020F01BC050F01BE010F02B0020FB4
:100D100002B2050F176AF60F02E3172AFCD70A0F73
:100D2000166E042E03D0FB0F01E3172A175000BAEA
:100D3000010F00BC030F00BE070F01B0050F01B487
:100D4000010F01B6020F01B8040F01BA080F01BC70
:100D5000060F01BE030F02B0060F02B2020F02B46B
:100D6000050F186AF60F02E3182AFCD70A0F176E50
:100D7000042E03D0FB0F01E3182A185001B0010F15
:100D800001B2030F01B4060F01B6020F01B8040F40
:100D900001BA080F01BC070F01BE050F02B2010F17
:100DA00002B4020F02B6050F196AF60F02E3192A00
:100DB000FCD70A0F186E042E03D0FB0F01E3192A8B
:100DC000195001B6010F01B8020F01BA040F01BC9E
:100DD000090F01BE090F02B0090F02B2080F02B4D9
:100DE000060F02B6020F02B8050F1A6AF60F02E3E9
:100DF0001A2AFCD70A0F196E042E03D0FB0F01E349
:100E00001A2A1A5001BE010F02B0030F02B2070FD7
:100E100002B4050F02B6010F02B8020F02BA050FA5
:100E20001B6AF60F02E31B2AFCD70A0F1A6E042E68
:100E300003D0FB0F01E31B2A1B5002B4010F02B6C3
:100E4000030F02B8060F02BA020F02BC050F1C6A9C
:100E5000F60F02E31C2AFCD70A0F1B6E042E03D0E8
:100E6000FB0F01E31C2A1C5002BA010F02BC020F47
:100E700002BE050F1D6AF60F02E31D2AFCD70A0FFA
:100E80001C6E042E03D0FB0F01E31D2A300FEE6E03
:100E90001B50300FEE6E1A50300FEE6E1950300F9F
:100EA000EE6E1850300FEE6E1750300FEE6E16507B
:100EB000300FEE6E1550300FEE6E1450300FEE6E98
:100EC0001350300FEE6E1250300FEE6E1150300F87
:100ED000EE6E1050300FEE6E0F50300FEE6E0E5063
:100EE000300FEE6E0D50300FEE6E0C50300FEE6E78
:100EF0000B50300FEE6E0A50300FEE6E0950300F6F
:100F0000EE6E0850300FEE6E0750300FEE6E06504A
:100F1000300FEE6E0550300FEE6E170EE4CF1DF061
:100F2000E4CF1CF0E4CF1BF0E4CF1AF0E4CF19F0CB
:100F3000E4CF18F0E4CF17F0E4CF16F0E4CF15F0CB
:100F4000E4CF14F0E4CF13F0E4CF12F0E4CF11F0CB
:100F5000E4CF10F0E4CF0FF0E4CF0EF0E4CF0DF0CB
:100F6000E4CF0CF0E4CF0BF0E4CF0AF0E4CF09F0CB
:100F7000E4CF08F0E4CF07F0E4CF06F0E4CF05F0CB
:100F8000120000C0E5FF01C0E5FF02C0E5FF03C09D
:100F9000E5FF04C0E5FF05C0E5FF06C0E5FF07C0AB
:100FA000E5FF08C0E5FF09C0E5FF0AC0E5FF0BC08B
:100FB000E5FF006A016A040E015CD8B0E8D10101C6
:100FC0002F2B100E2F5D01E32F6B01012F39E84409
:100FD0001F0B026E036A4B0E0226010E032202C093
:100FE000E9FF03C0EAFFEFCF02F0070E2F15036EF3
:100FF000010E046E000E056E035006E0E86CD890FA
:1010000004360536010FFCE3066A0250041606504A
:101010000516045005E1055003E1046A042A01D0D5
:10102000046A0450D880E866D890046A04360450F4
:10103000D8B4C1D701012F51020DF450036EF3CF84
:1010400002F0E00E0224046E000E0320056E04C0C0
:10105000E9FF05C0EAFFEECF04F0EFCF05F0010194
:101060002CA19DD0860E0224066E0A0E0320076E68
:1010700006C0E9FF07C0EAFFEECF06F0EFCF07F0AA
:101080000550800FF36E0750800FF35C02E10650AD
:10109000045C03E2046A056A60D0A60E02260A0E0A
:1010A000032202C0E9FF03C0EAFFEECF02F0EFCF58
:1010B00003F00350800FF36E0550800FF35C02E1E4
:1010C0000450025C04E204683F0E056E46D00650F0
:1010D000045C086E07500558096EE86A09BEFF0EE9
:1010E0000A6EE56E0A50E56E0950E56E0850E56E31
:1010F000E56AE56A400EE56E000EE56ACCEC0EF09E
:10110000086EF3CF09F0F4CF0AF0E9CF0BF0080E28
:10111000E1260650025C066E07500358076EE86A27
:1011200007BEFF0E026EE56E0250E56E0750E56EDB
:101130000650E56E0B50E56E0A50E56E0950E56EFF
:101140000850E56E98EC14F0026EF3CF03F0080E31
:10115000E1260250046E0350056E01012B51800FF1
:10116000F36E0550800FF35C02E104502A5D03E347
:10117000046A056A14D001012A51FF08026E3F0E6D
:101180002B55036E0550800FF36E0350800FF35CF8
:1011900002E10250045C03E304683F0E056E0101A6
:1011A0002F51020DF450036EF3CF02F0660E0226AB
:1011B0000A0E032202C0E9FF03C0EAFFEECF02F0ED
:1011C000EFCF03F00250045C026E03500558036E2B
:1011D000D88003AED89004E3031E026CD8B4032A6F
:1011E000012A01012B51800FF36E0350800FF35C35
:1011F00002E102502A5DD8B0DED601012F51020D66
:10120000F450076EF3CF06F0660E06260A0E07228C
:1012100006C0E9FF07C0EAFF04C0EEFF05C0EFFF0C
:1012200001012CA55AD001012F51020DF450076E77
:10123000F3CF06F0C60E0624086E0A0E0720096ECC
:1012400008C0E9FF09C0EAFFEECF0AF0EFCF0BF0CC
:101250000A500B10D8B441D0460E06260A0E0722BB
:1012600006C0E9FF07C0EAFFEECF06F0EFCF07F0B8
:101270000650045C026E07500558036E02101CE015
:101280000350800F800F02E1010E025C066A0636F1
:101290000B50800F800F02E1010E0A5C0A6A0A36C9
:1012A00006500A1809E108C0E9FF09C0EAFF02C0B8
:1012B000EEFF03C0EFFF7FD601012F51020DF45066
:1012C000036EF3CF02F0C60E02260A0E032202C0FE
:1012D000E9FF03C0EAFFEE6AEF6A01012CA343D0E5
:1012E00000500EE100C002F0002A036A300E022610
:1012F000010E032202C0E9FF03C0EAFF420EEF6EB7
:1013000000C002F0002A036A300E0226010E0322FA
:10131000640E01012F25066E02C0E9FF03C0EAFF3B
:1013200006C0EFFF00C002F0002A036A300E02265A
:10133000010E03220550066E02C0E9FF03C0EAFF5A
:1013400006C0EFFF00C002F0002A036A300E02263A
:10135000010E03220450066E02C0E9FF03C0EAFF3B
:1013600006C0EFFF28D62FC102F00550E56E0450ED
:10137000E56EE56A0250E56E000EE56E270EE56E3D
:10138000DE0EE56E86EC1BF0070EE12614D600504B
:101390001DE001012CA31AD000C002F0002A036A4C
:1013A000300E0226010E032202C0E9FF03C0EAFF4D
:1013B0000A0EEF6E0050E56E800EE56E010EE56ED2
:1013C000300EE56E36EC16F0040EE1260150E4CF47
:1013D0000BF0E4CF0AF0E4CF09F0E4CF08F0E4CF5B
:1013E00007F0E4CF06F0E4CF05F0E4CF04F0E4CF5B
:1013F00003F0E4CF02F0E4CF01F0E4CF00F01200FC
:1014000000C0E5FF01C0E5FF02C0E5FF03C0E5FF46
:1014100004C0E5FF05C0E5FF06C0E5FF07C0E5FF26
:1014200008C0E5FF09C0E5FF0AC0E5FF0BC0E5FF06
:101430000CC0E5FF0DC0E5FF0EC0E5FF000E00B0DB
:10144000010F00B2020F00B4040F00B6080F00B87D
:10145000060F00BA020F00BC040F00BE080F01B057
:10146000060F01B2020F01B4040F01B6080F01B854
:10147000060F01BA020F01BC040F01BE080F02B033
:10148000060F02B2020F02B4040F02B6080F02B830
:10149000060F02BA020F02BC040F02BE080F056A53
:1014A000F60F02E3052AFCD70A0F046E055000B8B8
:1014B000010F00BA030F00BC060F00BE020F01B0FF
:1014C000050F01B2010F01B4020F01B6040F01B8FC
:1014D000090F01BA090F01BC080F01BE060F02B0C7
:1014E000030F02B2070F02B4040F02B6080F02B8CE
:1014F000070F02BA050F066AF60F02E3062AFCD7A9
:101500000A0F056E065000BE010F01B0020F01B2B6
:10151000050F01BA010F01BC030F01BE070F02B096
:10152000050F02B4010F02B6020F02B8050F02BA8E
:10153000010F02BC030F02BE060F076AF60F02E39B
:10154000072AFCD70A0F066E075001B4010F01B637
:10155000020F01B8040F01BA080F01BC060F01BE4B
:10156000020F02B0050F02B2010F02B4020F02B661
:10157000040F02B8080F02BA070F02BC040F02BE24
:10158000080F086AF60F02E3082AFCD70A0F076E55
:10159000085001BC010F01BE030F02B0060F02B2DA
:1015A000030F02B4060F02B6020F02B8040F02BA0C
:1015B000090F02BC090F02BE080F096AF60F02E309
:1015C000092AFCD70A0F086E095002B2010F02B4B3
:1015D000020F02B6050F02BC010F02BE030F0A6A1A
:1015E000F60F02E30A2AFCD70A0F096E0A5002B866
:1015F000010F02BA020F02BC040F02BE080F0B6AF1
:10160000F60F02E30B2AFCD70A0F0A6E0B500E6A84
:101610000EE10A5010E1095012E1085014E10750A0
:1016200016E1065018E105501AE104501CD00E2AAC
:10163000300FEE6E0A500E2A300FEE6E09500E2A51
:10164000300FEE6E08500E2A300FEE6E07500E2A45
:10165000300FEE6E06500E2A300FEE6E05500E2A39
:10166000300FEE6E04500E2A300FEE6E0E50E4CFA7
:101670000EF0E4CF0DF0E4CF0CF0E4CF0BF0E4CFAC
:101680000AF0E4CF09F0E4CF08F0E4CF07F0E4CFAC
:1016900006F0E4CF05F0E4CF04F0E4CF03F0E4CFAC
:1016A00002F0E4CF01F0E4CF00F01200006A06EC93
:1016B00000F094928B921FEC1EF0016EF3CF02F0BB
:1016C000F4CF03F0E9CF04F0880E0126130E0222B6
:1016D000000E032204227BEC13F09280800E056E34
:1016E0000F0E066E0F0E086E380E052608500622E5
:1016F000800E076E0F0E086E800E055E0850065AAB
:101700000F0E0A6E380E07260A5008220F0E0A6EB8
:10171000800E075E0A50085A07C0E9FF08C0EAFFBA
:10172000EFCF07F0078005C0E9FF06C0EAFF07C05A
:10173000EFFF000EE56AE56A29EC19F0E652E65281
:101740009282800E056E0F0E066E0F0E086E380E1A
:10175000052608500622800E076E0F0E086E800EBA
:10176000055E0850065A0F0E0A6E380E07260A50FC
:1017700008220F0E0A6E800E075E0A50085A07C034
:10178000E9FF08C0EAFFEFCF07F0078205C0E9FFD5
:1017900006C0EAFF07C0EFFF010EE56EE56E29EC1B
:1017A00019F0E652E6529284800E056E0F0E066E18
:1017B0000F0E086E380E052608500622800E076EA2
:1017C0000F0E086E800E055E0850065A0F0E0A6E48
:1017D000380E07260A5008220F0E0A6E800E075E8A
:1017E0000A50085A07C0E9FF08C0EAFFEFCF07F028
:1017F000078405C0E9FF06C0EAFF07C0EFFF020E3D
:10180000E56EE56E29EC19F0E652E6529486820EFA
:10181000056E0F0E066E0F0E086E380E0526085068
:1018200006220F0E086E800E055E0850065A820EC4
:10183000076E0F0E086E0F0E0A6E380E07260A503E
:1018400008220F0E0A6E800E075E0A50085A07C063
:10185000E9FF08C0EAFFEFCF07F0078605C0E9FF00
:1018600006C0EAFF07C0EFFF0F0EE56E030EE56E40
:1018700029EC19F0E652E652056A55EC12F08DECAF
:101880000CF01FEC1EF0066EF3CF07F0F4CF08F05B
:10189000E9CF09F00150065E0250075A0350085A7A
:1018A0000450095A099E3F0E095C08E1FF0E085CCE
:1018B00005E1FF0E075C02E1FF0E065CDEE2C1EC13
:1018C00007F01FEC1EF0F3CF07F0F4CF08F0E9CFDC
:1018D00009F0880F016E130E0720026E000E08201B
:1018E000036E000E0920046E002A01012051005CE5
:1018F000D8A0C3D7006A052A05C006F0E56A0650DD
:10190000E56E000EE56E350EE56EF00EE56E86ECCA
:101910001BF0050EE126B1D7120000C0E5FF01C0A3
:10192000E5FF02C0E5FF03C0E5FF04C0E5FF05C019
:10193000E5FF06C0E5FF07C0E5FF08C0E5FF09C0F9
:10194000E5FFC2B202D101012E51D8B4ADD00101E0
:101950002D51020DF450016EF3CF00F0E00E002681
:10196000000E012200C0E9FF01C0EAFFEECF02F045
:10197000EFCF03F003340330056E0230046E0534FC
:10198000053204320534053204320450025C046E20
:1019900005500358056EC3CF06F0076A06500426AB
:1019A00007500522C4CF06F00650096E086A085099
:1019B00004260950052200C0E9FF01C0EAFF04C067
:1019C000EEFF05C0EFFF01012951010A01E06AD0D5
:1019D00001012D51020DF450016EF3CF00F0E00E25
:1019E0000024046E000E0120056E04C0E9FF05C04E
:1019F000EAFFEECF02F0EFCF03F0860E00260A0ECC
:101A0000012200C0E9FF01C0EAFFEECF04F0EFCFF2
:101A100005F09C0E0426D8A005060350800FF36E37
:101A20000550800FF35C02E10450025C0EE20250AC
:101A3000640F046E000E0320056E00C0E9FF01C0B4
:101A4000EAFF04C0EEFF05C0EFFF01012D51020DBA
:101A5000F450016EF3CF00F0A60E00260A0E01220C
:101A600000C0E9FF01C0EAFFEECF04F0EFCF05F0C0
:101A7000640E0426D8B0052A0550800FF36E03507B
:101A8000800FF35C02E10250045C0CE29C0E022623
:101A9000D8A0030600C0E9FF01C0EAFF02C0EEFFC4
:101AA00003C0EFFF01012E6B01012D2B100E2D5DE8
:101AB00001E32D6B01012D39E8441F0B006E016A13
:101AC0004B0E0026010E012200C0E9FF01C0EAFF13
:101AD000EFCF00F0070E2D15016E010E026E000E05
:101AE000036E015006E0E86CD89002360336010F11
:101AF000FCE3046A0050021604500316025005E18C
:101B0000035003E1026A022A01D0026A0250D8801F
:101B1000E866D890026A0236025017E0240E0101EE
:101B20002D25006E016A0F0E012200C0E9FF01C0E1
:101B3000EAFFEFCF00F00044E844FC0B016E0128FF
:101B4000C26EC282010E01012E6FE4CF09F0E4CF14
:101B500008F0E4CF07F0E4CF06F0E4CF05F0E4CFDF
:101B600004F0E4CF03F0E4CF02F0E4CF01F0E4CFDF
:101B700000F01200D9CFE5FFE1CFD9FF00C0E5FFAB
:101B800001C0E5FF02C0E5FF03C0E5FF04C0E5FFBB
:101B900005C0E5FF06C0E5FF07C0E5FF08C0E5FF9B
:101BA00009C0E5FF0AC0E5FF0BC0E5FF020EDBCF71
:101BB00000F0030EDBCF01F0040EDBCF02F0050EC8
:101BC000DBCF03F0060EDBCF04F0070EDBCF05F012
:101BD000080EDBCF06F0090EDBCF07F006C008F0D9
:101BE000060608500EE006500424086EE86A06BE99
:101BF000E8680520096E08C0E9FF09C0EAFFEF6A3E
:101C0000EDD7005001013E6F01503F6F0250406F11
:101C10000350416F3EC100F03FC101F040C102F0EE
:101C200041C103F0066A086A096A800E03140A6E4D
:101C3000065007E1085005E1095003E10A50800A07
:101C400001E012D0039E005001013E6F01503F6F32
:101C50000250406F0350416F04C0E9FF05C0EAFF26
:101C60002D0EEF6E044A052A0101403541357E08EC
:101C7000006E3E51016E3F51026E7F0E4015036EA5
:101C8000066A038E086A096A0A6A0B6A005019E03C
:101C9000D88000AED8900EE30850082609360A36E0
:101CA0000B3603BE08800150012602360336063685
:101CB000002AECD7D89006320332023201320006F5
:101CC000E5D7085009100A100B1012E00550E56E18
:101CD0000450E56E0B50E56E0A50E56E0950E56E56
:101CE0000850E56EF4EC1DF0006E060EE12608D0FB
:101CF00004C0E9FF05C0EAFF300EEF6E010E006E72
:101D000000500426E86A00BEE8680522075028E073
:101D100004C0E9FF05C0EAFF2E0EEF6E002A044A58
:101D2000052A07501808E56E0550E56E0450E56E6B
:101D30000650E56E0350E56E0250E56E0150E56E0B
:101D400061EC1DF0016E070EE126015000260750E0
:101D50000426E86A052204C0E9FF05C0EAFFEF6A2D
:101D60000050E4CF0BF0E4CF0AF0E4CF09F0E4CF69
:101D700008F0E4CF07F0E4CF06F0E4CF05F0E4CFBD
:101D800004F0E4CF03F0E4CF02F0E4CF01F0E4CFBD
:101D900000F0E4CFD9FF1200D9CFE5FFE1CFD9FFA2
:101DA00000C0E5FF01C0E5FF02C0E5FF03C0E5FF9D
:101DB00004C0E5FF05C0E5FF06C0E5FF07C0E5FF7D
:101DC000020EDBCF00F0030EDBCF01F0040EDBCF01
:101DD00002F0050EDBCF03F0060EDBCF04F0070E9A
:101DE000DBCF05F0080EDBCF06F0090EDBCF07F0E6
:101DF00000500A01EA6F0150EB6F0250EC6F035084
:101E0000ED6F04500A01EE6F0550EF6F0650F06F52
:101E10000750F16F0A01EA510A01F003F4CF01F013
:101E2000F3CF00F000500A01F46F0150F56F0A0182
:101E3000EA510A01EE03F4CF01F0F3CF00F00050B5
:101E40000A01F26F0150F36F0A01ED510A01EE032E
:101E5000F3CF00F00A01F55100260050F56F0A019A
:101E6000EC510A01EF03F3CF00F00A01F55100260F
:101E70000050F56F0A01EC510A01EE03F4CF01F0B6
:101E8000F3CF00F00A01F4510026F5510122005071
:101E9000F46F0150F56F0A01EB510A01EF03F4CF23
:101EA00001F0F3CF00F00A01F4510026F5510122B0
:101EB0000050F46F0150F56F0A01EB510A01F00375
:101EC000F3CF00F000500A01F96F0A01EB510A014B
:101ED000EE03F4CF01F0F3CF00F000500A01F76FEA
:101EE0000150F86F0A01EA510A01F103F3CF00F043
:101EF00000500A01FD6F0A01EA510A01EF03F4CF15
:101F000001F0F3CF00F000500A01FB6F0150FC6FAD
:101F10000A01F66B0A01FA6B0A01F6510A01F22571
:101F2000006E0A01F7510A01F321016E0A01F8510E
:101F30000A01F421026E0A01F9510A01F521036E2A
:101F40000050F26F0150F36F0250F46F0350F56FC1
:101F50000A01FA510A01F225006E0A01FB510A0139
:101F6000F321016E0A01FC510A01F421026E0A01FB
:101F7000FD510A01F521036E03C0E9FF02C0F4FF21
:101F800001C0F3FF0050E4CF07F0E4CF06F0E4CF48
:101F900005F0E4CF04F0E4CF03F0E4CF02F0E4CFA7
:101FA00001F0E4CF00F0E4CFD9FF120000C0E5FF5C
:101FB00001C0E5FF01012651D8B4F5D09DA81DD080
:101FC0009EA81BD0010157510101541905E171EC84
:101FD00021F00101546BE7D0000E01015725006E7E
:101FE000016A0A0E012200C0E9FF01C0EAFFEFCF3B
:101FF00050F1572B50C1ADFFD6D09EAAD4D0ABA282
:1020000005D00101558171EC21F0CDD0ABA405D0F4
:102010000101558371EC21F0C6D0ABA03ED0AECF0C
:1020200050F1800E010127110101501904E1010155
:102030005589AB96B8D00101505104E050510101CF
:10204000271927E101015599AB960101505103E091
:102050000101559702D00101558750C159F152C174
:102060005AF10101520501015B6F600E01015A2511
:10207000006E016A000E012200C0E9FF01C0EAFF04
:1020800050C1EFFF5A2B5A51800A02E101015A6BED
:102090008AD001015599AB8686D0AECF50F10101AF
:1020A00055A919D0800E010127110101501911E124
:1020B0008B909D9AAB980101545104E1AD6A71EC8B
:1020C00021F007D000CAADFF010E0101576F9D88B6
:1020D0006AD0AB8668D00101505101015927010136
:1020E0005A5101015B191BE1010159510CE15AC11F
:1020F00052F1010155B712D08B909D9AAB98AD6A01
:1021000071EC21F00BD00101558555B707D08B90AC
:102110009D9AAB98010EAD6E71EC21F044D0010197
:102120005A510101531908E101015351010152199A
:1021300003E071EC21F037D052C100F0016A004A8F
:10214000012AE56A800EE56E0150E56E0050E56EED
:1021500028EC17F0006E040EE12600500101516FCB
:1021600001015A190CE11F0E0101501501015B6FAD
:102170005B2B5B2B0101525101015B275B9F5AC115
:1021800000F001015A2B016A600E0026000E0122A8
:1021900000C0E9FF01C0EAFF50C1EFFF5A51800AB9
:1021A00002E101015A6BE4CF01F0E4CF00F012002C
:1021B000D9CFE5FFE1CFD9FF00C0E5FF01C0E5FFC2
:1021C00002C0E5FF03C0E5FF04C0E5FF05C0E5FF71
:1021D00006C0E5FF07C0E5FF08C0E5FF09C0E5FF51
:1021E0000AC0E5FF0BC0E5FF0CC0E5FF0DC0E5FF31
:1021F0000EC0E5FF0FC0E5FF020EDBCF00F0030EBF
:10220000DBCF01F0040EDBCF02F0050EDBCF03F0D5
:10221000060EDBCF04F0070EDBCF05F0080EDBCF98
:1022200006F0200E076E086A06C009F00A6A0B6AFB
:102230000C6AE56AE56AE56A0950E56E0350E56EE9
:102240000250E56E0150E56E0050E56EE8EC12F0CC
:102250000D6E080EE126300E0D263A0E0D5C05E3DC
:102260000D500E6E270E0E240D6EFF0E072608224F
:10227000000E07240E6E010E08200F6E0EC0E9FF3F
:102280000FC0EAFF0DC0EFFF0C50E56E0B50E56E7E
:102290000A50E56E0950E56E0350E56E0250E56E9A
:1022A0000150E56E0050E56E98EC14F0006EF3CF2F
:1022B00001F0F4CF02F0E9CF03F0080EE126005060
:1022C000011002100310D8A4AFD707C000F008C057
:1022D00001F004C002F005C003F000C004F001C02A
:1022E00005F0004A012A000E0426010E052204C052
:1022F000E9FF05C0EAFFEFCF04F002C0E9FF03C029
:10230000EAFF04C0EFFF024A032A000E015C02E16B
:10231000200E005CE2E302C0E9FF03C0EAFF000E0A
:10232000EF6AE4CF0FF0E4CF0EF0E4CF0DF0E4CF8E
:102330000CF0E4CF0BF0E4CF0AF0E4CF09F0E4CFE7
:1023400008F0E4CF07F0E4CF06F0E4CF05F0E4CFE7
:1023500004F0E4CF03F0E4CF02F0E4CF01F0E4CFE7
:1023600000F0E4CFD9FF1200800EE56E0A0EE56E94
:10237000A60EE56ED4EC19F0030EE126800EE56E94
:102380000A0EE56EA80EE56ED4EC19F0030EE126F8
:10239000800EE56E0A0EE56EAA0EE56ED4EC19F01D
:1023A000030EE126800EE56E0A0EE56EAC0EE56EBC
:1023B000D4EC19F0030EE126800EE56E0A0EE56EF0
:1023C000AE0EE56ED4EC19F0030EE126800EE56E3C
:1023D0000A0EE56EB00EE56ED4EC19F0030EE126A0
:1023E000800EE56E0A0EE56EB20EE56ED4EC19F0C5
:1023F000030EE126800EE56E0A0EE56EB40EE56E64
:10240000D4EC19F0030EE126800EE56E0A0EE56E9F
:10241000860EE56ED4EC19F0030EE126800EE56E13
:102420000A0EE56E880EE56ED4EC19F0030EE12677
:10243000800EE56E0A0EE56E8A0EE56ED4EC19F09C
:10244000030EE126800EE56E0A0EE56E8C0EE56E3B
:10245000D4EC19F0030EE126800EE56E0A0EE56E4F
:102460008E0EE56ED4EC19F0030EE126800EE56EBB
:102470000A0EE56E900EE56ED4EC19F0030EE1261F
:10248000800EE56E0A0EE56E920EE56ED4EC19F044
:10249000030EE126800EE56E0A0EE56E940EE56EE3
:1024A000D4EC19F0030EE126120000C0E5FF01C0D4
:1024B000E5FF02C0E5FF03C0E5FF04C0E5FF010141
:1024C00053510101521901E165D053C100F0002AB6
:1024D000009E600E0024016E026A000E022201C0FE
:1024E000E9FF02C0EAFFEFCF5DF11F0E01015D17AA
:1024F00053C15CF15D5101015C275C2B5C2B5C9F3F
:1025000049EC1EF0016E015003E1016A012A01D07D
:10251000016A49EC1EF001015D6F800E5D15026ECF
:102520001F0E5D15036E03C004F003C05DF104507F
:1025300003E152C153F141D0015021E002501CE0AF
:1025400049EC1EF0006E01015D070050420A03E1F4
:1025500017EC22F01DD000504E0A03E104EC1BF0F2
:1025600017D00050460A03E1A5EC21F011D000502D
:10257000490A0EE1FF000CD016EC22F009D053C13D
:102580005EF1025003E0BBEC1AF002D0CFEC21F078
:102590005CC153F1010123510101241906E001013D
:1025A000545103E124EC15F008D08BB006D00101A2
:1025B000545103E1ACB271EC21F0E4CF04F0E4CF6C
:1025C00003F0E4CF02F0E4CF01F0E4CF00F012001A
:1025D000D9CFE5FFE1CFD9FF00C0E5FF01C0E5FF9E
:1025E00002C0E5FF03C0E5FF04C0E5FF05C0E5FF4D
:1025F00006C0E5FF07C0E5FF08C0E5FF09C0E5FF2D
:102600000AC0E5FF020EDBCF00F0030EDBCF01F0C6
:10261000040EDBCF02F0050EDBCF03F0060EDBCF9E
:1026200004F0070EDBCF05F0080EDBCF06F0090E35
:10263000DBCF07F0086A096A0750800BE8440A6E8E
:102640000A501BE1045004260536063607360750AB
:10265000035C08E10650025C05E10550015C02E103
:102660000450005C06E2D89007320632053204328C
:1026700004D0092A09C008F0DFD70750035C08E13D
:102680000650025C05E10550015C02E10450005C6B
:1026900008E30450005E0550015A0650025A0750E4
:1026A000035AD890073206320532043208C009F0C6
:1026B00008060950E2E103C0E9FF02C0F4FF01C0CF
:1026C000F3FF0050E4CF0AF0E4CF09F0E4CF08F0C4
:1026D000E4CF07F0E4CF06F0E4CF05F0E4CF04F058
:1026E000E4CF03F0E4CF02F0E4CF01F0E4CF00F058
:1026F000E4CFD9FF120000C0E5FF01C0E5FF02C032
:10270000E5FF03C0E5FF04C0E5FF006A4B0E0024AF
:10271000016E026A010E022201C0E9FF02C0EAFF57
:10272000EF6A002A020E005CF1E3006A016A026AA5
:10273000E00E0124036E000E0220046E03C0E9FFC8
:1027400004C0EAFFEE6AEF6A460E0124036E0A0E29
:102750000220046E03C0E9FF04C0EAFFEE6AEF6ADC
:10276000660E0124036E0A0E0220046E03C0E9FF08
:1027700004C0EAFFEE6AEF6A860E0124036E0A0EB9
:102780000220046E03C0E9FF04C0EAFFEE6AEF6AAC
:10279000A60E0124036E0A0E0220046E03C0E9FF98
:1027A00004C0EAFFEE687F0EEF6E020E0126D8B07D
:1027B000022A002A100E005CD8A0BAD7AF0EC06E55
:1027C000C16A010EC26EC282E4CF04F0E4CF03F00E
:1027D000E4CF02F0E4CF01F0E4CF00F01200432098
:1027E000412025642025640A0000432061736D2088
:1027F00025642025642025642025642025640A00A2
:10280000432061734D202564202564202564202504
:10281000642025640A0000C0E5FF01C0E5FF03C095
:10282000E5FF04C0E5FF05C0E5FF06C0E5FF07C002
:10283000E5FF08C0E5FF09C0E5FF0AC0E5FF0BC0E2
:10284000E5FFFECA00F0FFCA01F00A01FE3F01D019
:10285000FF2B0050E56E63EC21F0E652076E046A30
:10286000056A066AFECA00F0FFCA01F00A01FE3FCF
:1028700001D0FF2B0050E56E63EC21F0E6520B6AAD
:102880000A6E086A0850041205120A5006120B500C
:102890000712FECA00F0FFCA01F00A01FE3F01D094
:1028A000FF2B0050E56E63EC21F0E652036E006AE8
:1028B00003C001F0E86A03BEFF0E086E096E005007
:1028C0000412015005120850061209500712FECAE0
:1028D00000F0FFCA01F00A01FE3F01D0FF2B0050BB
:1028E000E56E63EC21F0E652016A04120150051214
:1028F0000612071207C0E9FF06C0F4FF05C0F3FF88
:102900000450E4CF0BF0E4CF0AF0E4CF09F0E4CFB9
:1029100008F0E4CF07F0E4CF06F0E4CF05F0E4CF11
:1029200004F0E4CF03F0E4CF01F0E4CF00F01200B4
:10293000D9CFE5FFE1CFD9FF00C0E5FF01C0E5FF3A
:1029400002C0E5FF03C0E5FF04C0E5FF05C0E5FFE9
:1029500006C0E5FF07C0E5FF08C0E5FF09C0E5FFC9
:102960000AC0E5FF0BC0E5FF0CC0E5FF0DC0E5FFA9
:10297000020EDBCF00F0030EDBCF01F0040EDBCF45
:1029800002F0050EDBCF03F0060EDBCF04F0070EDE
:10299000DBCF05F0080EDBCF06F0090EDBCF07F02A
:1029A000086A096A0A6A0B6A200E0C6E0350800BD3
:1029B000E8440D6E005000260136023603360850FA
:1029C000082609360A360B360D50D8A40880075061
:1029D0000B5C08E106500A5C05E10550095C02E168
:1029E0000450085C09E30450085E0550095A06507B
:1029F0000A5A07500B5A00800C2ED8D703C0E9FFA3
:102A000002C0F4FF01C0F3FF0050E4CF0DF0E4CFAB
:102A10000CF0E4CF0BF0E4CF0AF0E4CF09F0E4CF00
:102A200008F0E4CF07F0E4CF06F0E4CF05F0E4CF00
:102A300004F0E4CF03F0E4CF02F0E4CF01F0E4CF00
:102A400000F0E4CFD9FF120000C0E5FF01C0E5FFB0
:102A500002C0E5FF03C0E5FFACA276D095EC1FF005
:102A6000006E005005E10101246B0101236B6CD065
:102A700024C101F00050012695EC1FF0026E000603
:102A80000250230A1FE1010E005CD8A05BD095EC38
:102A90001FF0026E690A03E1C4EC1DF053D002502E
:102AA000720A03E171EC21F04DD00250730A01E08B
:102AB00049D08B80AB869D8A9D98AE50AE50AB9826
:102AC000AB8840D00250430A05E00250420A01E0C0
:102AD00039D001D0008E00C056F100500A01006FBD
:102AE000010E0101576F01012451011814E095EC0A
:102AF0001FF0026E01015627000E01015725006EDE
:102B0000036A0A0E032200C0E9FF03C0EAFF02C005
:102B1000EFFF572BE8D7000E01015725006E026A20
:102B20000A0E02220101561D036E032A00C0E9FFAE
:102B300002C0EAFF03C0EFFF0101572B57C154F158
:102B400001014E6B01C024F1E4CF03F0E4CF02F0A9
:102B5000E4CF01F0E4CF00F01200D9CFE5FFE1CFE0
:102B6000D9FF00C0E5FF01C0E5FF02C0E5FF03C0DB
:102B7000E5FF04C0E5FF05C0E5FF06C0E5FF07C0AF
:102B8000E5FF020EDBCF00F0030EDBCF01F0040EF9
:102B9000DBCF02F0050EDBCF03F002C006F00650DB
:102BA000046E800A33E100C0E9FF01C0F3FF025068
:102BB000EFEC1FF0056EF3CF06F0F4CF07F003C083
:102BC000E5FF05C0E9FF06C0F3FF0750B0EC21F0B8
:102BD00000C0E9FF01C0F3FF0250EFEC1FF0056EEB
:102BE000F3CF06F0F4CF07F0052A02E3064A072ADE
:102BF00005C0E5FF06C0F4FF07C0F6FF00C0E9FF0F
:102C000001C0F3FF025054EC21F01DD004AA1BD0E8
:102C1000047A045004E10350F1EC21F014D0045084
:102C2000010A04E1035002EC00F00DD004500F0A39
:102C300004E1035093EC1DF006D004500E0A03E1AA
:102C4000035001EC22F0E4CF07F0E4CF06F0E4CF2C
:102C500005F0E4CF04F0E4CF03F0E4CF02F0E4CFDA
:102C600001F0E4CF00F0E4CFD9FF1200D9CFE5FFA7
:102C7000E1CFD9FF00C0E5FF01C0E5FF02C0E5FFDD
:102C800003C0E5FF04C0E5FF05C0E5FF06C0E5FFA2
:102C900007C0E5FF020EDBCF00F0030EDBCF01F033
:102CA000040EDBCF02F0050EDBCF03F024C125F1CB
:102CB000010123510101255F250703C004F0056AC6
:102CC000030E0426D8B0052A25C106F0076A07506E
:102CD000800FF36E0550800FF35C02E10450065C38
:102CE00002E2E8682BD0020E035C02E2E86A26D01A
:102CF00003060350E56E42EC1CF0E652046A0350F2
:102D0000045C14E204500024056EE86A0120066E9B
:102D1000E86A022005C0E9FF06C0F3FF13EC21F0CA
:102D2000042AE56E42EC1CF0E652E9D724C125F1F5
:102D3000010123510101255F2507E86AE4CF07F06F
:102D4000E4CF06F0E4CF05F0E4CF04F0E4CF03F0E5
:102D5000E4CF02F0E4CF01F0E4CF00F0E4CFD9FFFC
:102D60001200D9CFE5FFE1CFD9FF00C0E5FF01C0D8
:102D7000E5FF02C0E5FF03C0E5FF04C0E5FF05C0B5
:102D8000E5FF020EDBCF00F0030EDBCF01F0040EF7
:102D9000DBCF02F00050020DF450036EF3CF00F0D1
:102DA000460E0024046E0A0E0320056E04C0E9FFDF
:102DB00005C0EAFF01C0EEFF02C0EFFF660E00246F
:102DC000046E0A0E0320056E04C0E9FF05C0EAFF89
:102DD000EECF04F0EFCF05F00150045C016E02501D
:102DE0000558026EC60E00260A0E032200C0E9FF37
:102DF00003C0EAFF01C0EEFF02C0EFFFD88002AEC1
:102E0000D89004E3021E016CD8B4022A0250800F4D
:102E1000800F02E1030E015C02E2016A026A0150C6
:102E2000021007E100C0E9FF03C0EAFF000EEE6AEE
:102E3000EF6AE4CF05F0E4CF04F0E4CF03F0E4CF91
:102E400002F0E4CF01F0E4CF00F0E4CFD9FF1200AC
:102E5000D9CFE5FFE1CFD9FF00C0E5FF01C0E5FF15
:102E600002C0E5FF03C0E5FF04C0E5FF05C0E5FFC4
:102E700006C0E5FF020EDBCF00F0030EDBCF01F052
:102E8000040EDBCF02F0050EDBCF03F0D88001AEDD
:102E9000D890046A0436045007E0011C066E001C3A
:102EA000056E054A062A04D000C005F001C006F0F0
:102EB000D88003AED89007E3031C016E021C006E9D
:102EC000004A012A04D002C000F003C001F0015002
:102ED000E56E0050E56E0650E56E0550E56ECCECF3
:102EE00018F0006EF3CF01F0040EE12604500AE062
:102EF000011C036E001C026E024A032A03C0F3FF8A
:102F0000025003D001C0F3FF0050E4CF06F0E4CF3D
:102F100005F0E4CF04F0E4CF03F0E4CF02F0E4CF17
:102F200001F0E4CF00F0E4CFD9FF1200D9CFE5FFE4
:102F3000E1CFD9FF00C0E5FF01C0E5FF02C0E5FF1A
:102F400003C0E5FF04C0E5FF05C0E5FF020EDBCFCF
:102F500000F0030EDBCF01F0040EDBCF02F0050E14
:102F6000DBCF03F0FECA04F0FFCA05F00A01FE3F02
:102F700001D0FF2B0350E56E0450E56E9AEC1EF075
:102F8000E652E652FECA04F0FFCA05F00A01FE3F0F
:102F900001D0FF2B0250056EE56E0450E56E9AECF1
:102FA0001EF0E652E652FECA04F0FFCA05F00A011E
:102FB000FE3F01D0FF2B0150056EE56E0450E56E1B
:102FC0009AEC1EF0E652E652FECA04F0FFCA05F083
:102FD0000A01FE3F01D0FF2B0050E56E0450E56E64
:102FE0009AEC1EF0E652E652E4CF05F0E4CF04F08E
:102FF000E4CF03F0E4CF02F0E4CF01F0E4CF00F03F
:10300000E4CFD9FF1200D9CFE5FFE1CFD9FF00C04F
:10301000E5FF01C0E5FF02C0E5FF03C0E5FF04C016
:10302000E5FF05C0E5FF06C0E5FF020EDBCF00F0BF
:10303000030EDBCF01F0040EDBCF02F001014D5196
:1030400019E10BEC14F0036EF3CF04F0F4CF05F0AC
:10305000E9CF06F003C0E5FF04C0F4FF05C0F6FFAA
:1030600006C0F7FF00C0E9FF01C0F3FF025024ECE7
:1030700021F01ED001014D51010A1AE100C0E9FF03
:1030800001C0F3FF025075EC1FF0006EF3CF01F0AA
:10309000F4CF02F0E9CF03F00350E56E0250E56E85
:1030A0000150E56E0050E56E96EC17F0040EE12637
:1030B000E4CF06F0E4CF05F0E4CF04F0E4CF03F072
:1030C000E4CF02F0E4CF01F0E4CF00F0E4CFD9FF89
:1030D0001200D9CFE5FFE1CFD9FF00C0E5FF01C065
:1030E000E5FF02C0E5FF03C0E5FF04C0E5FF05C042
:1030F000E5FF06C0E5FF020EDBCF00F0030EDBCFDD
:1031000001F0040EDBCF02F0050EDBCF03F0060E5C
:10311000DBCF04F0070EDBCF05F0080EDBCF06F0A7
:10312000D88003AED89015E306500A0A12E104C015
:10313000E9FF05C0EAFF2D0EEF6E044A052A031EC3
:10314000021E011E006C05E1012A03E1022AD8B427
:10315000032A0650E56E0550E56E0450E56E0350F7
:10316000E56E0250E56E0150E56E0050E56ED8EC5C
:1031700010F0070EE126E4CF06F0E4CF05F0E4CF2F
:1031800004F0E4CF03F0E4CF02F0E4CF01F0E4CFA9
:1031900000F0E4CFD9FF1200D9CFE5FFE1CFD9FF8E
:1031A00000C0E5FF01C0E5FF02C0E5FF03C0E5FF89
:1031B00004C0E5FF05C0E5FF06C0E5FF020EDBCF5A
:1031C00000F0030EDBCF01F0040EDBCF02F0050EA2
:1031D000DBCF03F0046A056A0350800BE844066EF7
:1031E000065011E10250022603360350015C02E151
:1031F0000250005C04E2D8900332023204D0052A67
:1032000005C004F0E9D70350015C02E10250005C04
:1032100004E30250005E0350015AD8900332023298
:1032200004C005F004060550EEE101C0F3FF0050B4
:10323000E4CF06F0E4CF05F0E4CF04F0E4CF03F0F0
:10324000E4CF02F0E4CF01F0E4CF00F0E4CFD9FF07
:103250001200D9CFE5FFE1CFD9FF00C0E5FF01C0E3
:10326000E5FF02C0E5FF03C0E5FF04C0E5FF05C0C0
:10327000E5FF06C0E5FF020EDBCF00F0030EDBCF5B
:1032800001F00038E8441F0B026E036A4B0E022661
:10329000010E032202C0E9FF03C0EAFFEFCF04F0F2
:1032A000070E0014056E010E066E055005E0E86C71
:1032B000D8900636010FFDE30650041202C0E9FF64
:1032C00003C0EAFF04C0EFFF026A240E00260F0EBF
:1032D000022200C0E9FF02C0EAFF01C0EFFFE4CF15
:1032E00006F0E4CF05F0E4CF04F0E4CF03F0E4CF40
:1032F00002F0E4CF01F0E4CF00F0E4CFD9FF1200F8
:1033000000C0E5FF01C0E5FF02C0E5FF03C0E5FF27
:1033100053C100F0016A5EC102F0036A0250005E10
:103320000350015AE56A800EE56E0150E56E0050CB
:10333000E56E28EC17F0006E040EE12600065EC173
:1033400001F0430E93EC1DF0200E93EC1DF00050A5
:10335000800F7F0F20E3600E0124026E036A000ECF
:10336000032202C0E9FF03C0EAFFEFCF02F0E56AE3
:103370000250E56E000EE56E420EE56EFA0EE56E49
:1033800086EC1BF0050EE126012A0150800A01E1BE
:10339000016A0006DCD7E4CF03F0E4CF02F0E4CF0B
:1033A00001F0E4CF00F01200D9CFE5FFE1CFD9FF63
:1033B00000C0E5FF01C0E5FF02C0E5FF03C0E5FF77
:1033C00004C0E5FF020EDBCF00F0030EDBCF01F0FF
:1033D000040EDBCF02F001014D5111E12DEC1DF087
:1033E000036EF3CF04F003C0E5FF04C0F4FF00C098
:1033F000E9FF01C0F3FF02508DEC21F016D001016E
:103400004D51010A12E100C0E9FF01C0F3FF025073
:10341000AEEC20F0006EF3CF01F00150E56E0050ED
:10342000E56E05EC1CF0E652E652E4CF04F0E4CF82
:1034300003F0E4CF02F0E4CF01F0E4CF00F0E4CFFA
:10344000D9FF1200D40EF66E430EF76E000EF86E22
:103450000900F550056E0900F550066E04E1056798
:1034600002D06FEF1AF00900F550006E0900F55018
:10347000016E0900F550026E09000900F550E96E71
:103480000900F550EA6E090009000900F550036EC5
:103490000900F550046E09000900F6CF07F0F7CFD8
:1034A00008F0F8CF09F000C0F6FF01C0F7FF02C036
:1034B000F8FF035002E1045007E00900F550EE6EFA
:1034C0000306F8E20406F9D707C0F6FF08C0F7FFC5
:1034D00009C0F8FF050601E206062EEF1AF01200F9
:1034E000D9CFE5FFE1CFD9FF00C0E5FF01C0E5FF7F
:1034F00002C0E5FF03C0E5FF04C0E5FF05C0E5FF2E
:10350000020EDBCF00F00050010A24E1016A026ADA
:10351000036A860E0224046E0A0E0320056E04C0A0
:10352000E9FF05C0EAFFEE687F0EEF6EA60E0224EB
:10353000046E0A0E0320056E04C0E9FF05C0EAFF11
:10354000EE6AEF6A020E0226D8B0032A012A100E94
:10355000015CDFE300C029F1E4CF05F0E4CF04F023
:10356000E4CF03F0E4CF02F0E4CF01F0E4CF00F0C9
:10357000E4CFD9FF120000C0E5FF01C0E5FF49EC30
:103580001EF0006E4C0A08E149EC1EF0300A02E021
:103590008B8229D08B9227D00050450A24E1000E5F
:1035A000E56E360EE56E020EE56E86EC1BF0030E40
:1035B000E126FBEC21F0006E00C001F00006015096
:1035C0000FE049EC1EF0E56AE56E000EE56E360E82
:1035D000E56E040EE56E86EC1BF0050EE126ECD7D9
:1035E0000A0E93EC1DF0E4CF01F0E4CF00F01200DE
:1035F00043732048656C6C6F20212074323D256434
:103600000A0043002563000000C0E5FF01C0E5FF9C
:1036100002C0E5FF49EC1EF0006E49EC1EF0016EA1
:103620000050026ED00E0224006E0A0E005C05E30C
:103630000050026EF90E0224006E0150026ED00E90
:103640000224016E0A0E015C05E30150026EF90EC0
:103650000224016E080E005C12E2100E015CD8B06C
:103660000ED00038F00B0124006EF3EC1CF0016E5C
:10367000015005E10050E56E24EC20F0E652E4CF65
:1036800002F0E4CF01F0E4CF00F01200D9CFE5FF63
:10369000E1CFD9FF00C0E5FF01C0E5FF02C0E5FFB3
:1036A00003C0E5FF04C0E5FF020EDBCF00F00038E9
:1036B000E8441F0B016E026A4B0E0126010E022226
:1036C00001C0E9FF02C0EAFFEFCF03F0070E0016CA
:1036D000010E046E005005E0E86CD8900436010F2E
:1036E000FDE3041C031601C0E9FF02C0EAFF03C0AA
:1036F000EFFFE4CF04F0E4CF03F0E4CF02F0E4CF37
:1037000001F0E4CF00F0E4CFD9FF1200D9CFE5FFFC
:10371000E1CFD9FF00C0E5FF01C0E5FF02C0E5FF32
:10372000020ED924006E000EDA20016E800E026EA9
:10373000030E0026000E012202220250E56E015007
:10374000E56E0050E56E040EDBCFE5FF030EDBCF28
:10375000E5FF020EDBCFE5FF01014451E56E435169
:10376000E56E4251E56E0EEC00F0006EF3CF01F015
:10377000090EE12601C0F3FF0050E4CF02F0E4CFD0
:1037800001F0E4CF00F0E4CFD9FF1200D9CFE5FF7C
:10379000E1CFD9FF00C0E5FF01C0E5FF02C0E5FFB2
:1037A00003C0E5FF020EDBCF00F0030EDBCF01F01C
:1037B000040EDBCF02F001014D510DE182EC20F04F
:1037C000036E03C0E5FF00C0E9FF01C0F3FF025034
:1037D000B0EC21F00FD001014D51010A0BE100C006
:1037E000E9FF01C0F3FF025013EC21F0E56E0FEC8E
:1037F0001FF0E652E4CF03F0E4CF02F0E4CF01F093
:10380000E4CF00F0E4CFD9FF1200D9CFE5FFE1CF3C
:10381000D9FF00C0E5FF01C0E5FF02C0E5FF03C01E
:10382000E5FF020EDBCF00F0030EDBCF01F0FECA96
:1038300002F0FFCA03F00A01FE3F01D0FF2B015046
:10384000E56E0250E56E9AEC1EF0E652E652FECAB4
:1038500002F0FFCA03F00A01FE3F01D0FF2B005027
:10386000E56E0250E56E9AEC1EF0E652E652E4CFA9
:1038700003F0E4CF02F0E4CF01F0E4CF00F0E4CFB6
:10388000D9FF1200D9CFE5FFE1CFD9FF00C0E5FF96
:1038900001C0E5FF02C0E5FF03C0E5FF04C0E5FF8E
:1038A000020EDBCF00F023C101F0026A014A022AB6
:1038B00024C103F0046A0150031803E10250041804
:1038C00001E001D00ED0000E01012325016E026A35
:1038D000070E022201C0E9FF02C0EAFF00C0EFFFAD
:1038E000232BE4CF04F0E4CF03F0E4CF02F0E4CFE5
:1038F00001F0E4CF00F0E4CFD9FF1200D9CFE5FF0B
:10390000E1CFD9FF00C0E5FF01C0E5FF02C0E5FF40
:1039100003C0E5FF020EDBCF00F0016A5EC102F0DA
:10392000036A0250002603500122E56A800EE56E0C
:103930000150E56E0050E56E28EC17F0006EF3CFF5
:1039400001F0040EE126600E0026000E012200C0E8
:10395000E9FF01C0EAFFEFCF00F00050E4CF03F031
:10396000E4CF02F0E4CF01F0E4CF00F0E4CFD9FFE0
:103970001200F3CFE5FFF4CFE5FFE9CFE5FFEACF93
:10398000E5FFFACFE5FFFBCFE5FF010121510F0174
:10399000366F010122510F01376FD650346FD75067
:1039A000356FF2A411D00101213F01D0222BF294F6
:1039B000010121510F01366F010122510F01376FB3
:1039C000D650346FD750356F15EC22F0E4CFFBFFA3
:1039D000E4CFFAFFE4CFEAFFE4CFE9FFE4CFF4FF5E
:1039E000E4CFF3FF110000C0E5FF01C0E5FF02C016
:1039F000E5FF010E006E49EC1EF0016E01C002F001
:103A0000015023E00050E56E63EC21F0016EE652B8
:103A1000015010E10A0E005C0BE20A0E006EE56E2A
:103A200063EC21F0016EE652015004E1E8680ED02B
:103A3000E8680CD00150021802E0E86807D0002ABC
:103A40001B0E005CD8E3E86801D0E86AE4CF02F01E
:103A5000E4CF01F0E4CF00F0120000C0E5FF01C0A8
:103A6000E5FF02C0E5FF03C0E5FFFECA00F0FFCAA4
:103A700001F00A01FE3F01D0FF2B0050E56E63EC20
:103A800021F0E652036E026AFECA00F0FFCA01F09E
:103A90000A01FE3F01D0FF2B0050E56E63EC21F0E0
:103AA000E652016A02120150031203C0F3FF0250F2
:103AB000E4CF03F0E4CF02F0E4CF01F0E4CF00F074
:103AC0001200D9CFE5FFE1CFD9FF00C0E5FF01C06B
:103AD000E5FF02C0E5FF03C0E5FF04C0E5FF020EFD
:103AE000DBCF00F0030EDBCF01F0040EDBCF02F0E2
:103AF000050EDBCF03F0060EDBCFE9FF070EDBCFB1
:103B0000EAFF080EDBCF04F040EC04F0E4CF04F051
:103B1000E4CF03F0E4CF02F0E4CF01F0E4CF00F013
:103B2000E4CFD9FF120000C0E5FF01C0E5FF02C0ED
:103B3000E5FF006E230E01012825016E026A0A0EC0
:103B4000022201C0E9FF02C0EAFF00C0EFFF220E1F
:103B5000285D01E2282B00500A0A0FE101012851DB
:103B6000E56E800EE56E0A0EE56E230EE56E36EC10
:103B700016F0040EE1260101286BE4CF02F0E4CF39
:103B800001F0E4CF00F012000101236B0101246B6E
:103B9000010125698B809490B06A3F0EAF6EB886A4
:103BA000AC8AAC84AC8CAC90AB8CAB8E0101556B09
:103BB00001014F6B0101526B0101536B0101546B09
:103BC000000EE56A63EC21F00101276FE6529F9831
:103BD0009F9A010E0101266F0101426B436B2F0E6C
:103BE000446F71EC21F01200D9CFE5FFE1CFD9FF8E
:103BF00000C0E5FF01C0E5FF02C0E5FF03C0E5FF2F
:103C0000020EDBCF00F0030EDBCF01F0040EDBCFA2
:103C100002F0050EDBCF03F0060EDBCFE9FF070E47
:103C2000DBCFEAFF00EC0AF0E4CF03F0E4CF02F0D0
:103C3000E4CF01F0E4CF00F0E4CFD9FF120001019E
:103C400021510A01E86F010122510A01E96FD650A2
:103C5000E66FD750E76FE8510101211905E10A012C
:103C6000E951010122190CE0010121510A01E86F1B
:103C7000010122510A01E96FD650E66FD750E76F74
:103C8000E9CAE9FFE8CAF4FFE7CAF3FF0A01E6510F
:103C9000120000C0E5FF01C0E5FF01015351010121
:103CA0005C1905E0010153510101521902E1E86A72
:103CB00015D053C100F00101532B016A600E00269C
:103CC000000E012200C0E9FF01C0EAFFEFCF00F0C3
:103CD0005351800A02E10101536B0050E4CF01F01F
:103CE000E4CF00F01200D8CFE5FFE0CFE5FFE56EAE
:103CF000F3CFE5FFF4CFE5FFE9CFE5FFEACFE5FF3E
:103D0000FACFE5FFFBCFE5FFD6EC0FF014EC22F085
:103D1000E4CFFBFFE4CFFAFFE4CFEAFFE4CFE9FF13
:103D2000E4CFF4FFE4CFF3FFE450E4CFE0FFE4CFCF
:103D3000D8FF1000D9CFE5FFE1CFD9FF00C0E5FFE4
:103D4000020EDBCF00F0030EDBCFA8FF00C0A9FFFF
:103D5000A69EA69CA684F29EF29C550EA76EAA0E65
:103D6000A76EA682A6A202D00000FCD7E86AA6B67B
:103D7000E82AA694F28EF28CE4CF00F0E4CFD9FFCB
:103D80001200D9CFE5FFE1CFD9FF00C0E5FF01C0A8
:103D9000E5FF020EDBCF00F00050020DF450016E83
:103DA000F3CF00F0C60E00260A0E012200C0E9FF84
:103DB00001C0EAFFEECF00F0EFCF01F001C0F3FF4A
:103DC0000050E4CF01F0E4CF00F0E4CFD9FF1200BF
:103DD000D9CFE5FFE1CFD9FF00C0E5FF01C0E5FF86
:103DE000020EDBCF00F00050020DF450016EF3CF55
:103DF00000F0E00E0026000E012200C0E9FF01C025
:103E0000EAFFEECF00F0EFCF01F001C0F3FF00506A
:103E1000E4CF01F0E4CF00F0E4CFD9FF1200D9CF16
:103E2000E5FFE1CFD9FF00C0E5FF01C0E5FF02C01B
:103E3000E5FF020EDBCF00F0FECA01F0FFCA02F080
:103E40000A01FE3F01D0FF2B0050E56E0150E56EE8
:103E50009AEC1EF0E652E652E4CF02F0E4CF01F015
:103E6000E4CF00F0E4CFD9FF12000A01AF51E56EB4
:103E7000AE51E56EAD51E56EAC51E56EAB51E56E00
:103E8000AA51E56EA951E56EA851E56EA751E56E00
:103E9000A651E56E000EE56E280EE56E000EE56E8D
:103EA00086EC1BF00D0EE12612000A018F51E56E23
:103EB0008E51E56E8D51E56E8C51E56E8B51E56E40
:103EC0008A51E56E8951E56E8851E56E8751E56E40
:103ED0008651E56E000EE56E270EE56EEA0EE56E84
:103EE00086EC1BF00D0EE1261200E8AE0AD0F3CFEF
:103EF000EAFFEE50EECFF3FFEECFF4FFEECFE9FF97
:103F00001200E8BC0EEF22F0E9CFF6FFF3CFF7FF87
:103F1000F86E0900F5500900F5CFF3FF0900F5CF61
:103F2000F4FF0900F5CFE9FF120000C0E5FF01C072
:103F3000E5FF010123510101241902E1E86A0FD0D4
:103F4000000E01012425006E016A070E012200C047
:103F5000E9FF01C0EAFFEFCF00F0242B0050E4CFCF
:103F600001F0E4CF00F01200F2CFEAFFF29EA69E2D
:103F7000A69CA684E9CFA9FFF3CFAAFFE4CFA8FFB0
:103F8000E1EC21F0F4CFA8FFE1EC21F0F6CFA8FF9F
:103F9000E1EC21F0F7CFA8FFE1EC21F0A694EABE16
:103FA000F28E1200F2CFF6FFF29EA69EA69CE9CFFB
:103FB000A9FFF3CFAAFFA680A850A94AAA2AA680E3
:103FC000A8CFF3FFA94AAA2AA680A8CFF4FFA94A3E
:103FD000AA2AA680A8CFEAFFF6BEF28E1200E8AEAB
:103FE00008D0F3CFEAFFEE50EECFF3FFEECFF4FFB1
:103FF0001200E8BC10EF22F0E9CFF6FFF3CFF7FF95
:10400000F86E0900F5500900F5CFF3FF0900F5CF70
:10401000F4FF1200F2CFEAFFF29EA69EA69CA684B1
:10402000E9CFA9FFF3CFAAFFE4CFA8FFE1EC21F08D
:10403000F4CFA8FFE1EC21F0F6CFA8FFE1EC21F0EE
:10404000A694EABEF28E1200D9CFE5FFE1CFD9FFE8
:1040500000C0E5FF020EDBCF00F000C027F10050EA
:10406000E56E000EE56A9AEC1EF0E652E652E4CFE9
:1040700000F0E4CFD9FF1200F2CFF6FFF29EA69E29
:10408000A69CE9CFA9FFF3CFAAFFA680A850A94A12
:10409000AA2AA680A8CFF3FFA94AAA2AA680A8CF59
:1040A000F4FFF6BEF28E120000C0E5FF01C0E5FF8E
:1040B000600E01015325006E016A000E012200C04E
:1040C000E9FF01C0EAFFEFCF00F00050E4CF01F0BC
:1040D000E4CF00F01200D9CFE5FFE1CFD9FF00C057
:1040E000E5FF020EDBCF00F0610E005C05E37B0E06
:1040F000005C02E2010E01D0E86AE4CF00F0E4CFF8
:10410000D9FF120000C0E5FF01C0E5FFFECA00F0C4
:10411000FFCA01F00A01FE3F01D0FF2B0050E56EFF
:1041200063EC21F0E652E4CF01F0E4CF00F012009E
:10413000D9CFE5FFE1CFD9FF00C0E5FF020EDBCF0D
:1041400000F000C026F1005004E171EC21F09D9ACE
:104150009D98E4CF00F0E4CFD9FF1200E8AE06D07E
:10416000F3CFEAFFEE50EECFF3FF1200E8BC0CEF06
:1041700022F0E9CFF6FFF3CFF7FFF86E0900F55014
:104180000900F5CFF3FF1200F2CFEAFFF29EA69EE0
:10419000A69CA684E9CFA9FFF3CFAAFFE4CFA8FF8E
:1041A000E1EC21F0F4CFA8FFE1EC21F0A694EABE07
:1041B000F28E120018EEFFF028EEFFF0F86AA68EDD
:1041C000A69CE9680E0EEA6E0068000EED6A0050CB
:1041D000FDE122EC1AF056EC0BF0FFD7F2CFF6FF20
:1041E000F29EA69EA69CE9CFA9FFF3CFAAFFA680C8
:1041F000A850A94AAA2AA680A8CFF3FFF6BEF28E3D
:104200001200F2CFEAFFF29EA69EA69CA684E9CFFA
:10421000A9FFF3CFAAFFE4CFA8FFE1EC21F0A69419
:10422000EABEF28E1200E8AE04D0F3CFEAFFEE5001
:104230001200E8BC0AEF22F0E9CFF6FFF3CFF7FF58
:10424000F86E0900F5501200E8AE0BD0F3CFEAFF8C
:10425000E4CFEEFFF4CFEEFFF6CFEEFFF7CFEEFFA9
:104260001200E8BC08EF22F01200F5EC21F0D58E28
:10427000D59CD59AD588D596D594D582D580F28A05
:10428000F184D08EF28EF28C1200C800000000FF84
:1042900000000000070002000000420000000000D3
:1042A0000000000000000000E8AE09D0F3CFEAFFF4
:1042B000E4CFEEFFF4CFEEFFF6CFEEFF1200E8BC46
:1042C00012EF22F01200D9CFE5FFE1CFD9FF020EA5
:1042D000DBCFA9FFA69CA69EA680A850E4CFD9FF5D
:1042E0001200ACA2FED78B80AE500000AE50AB984F
:1042F000AB88AB869D8A9D98120025642000F2CF82
:10430000F6FFF29EA69EA69CE9CFA9FFF3CFAAFFD7
:10431000A680A850F6BEF28E1200E8AE07D0F3CF0A
:10432000EAFFE4CFEEFFF4CFEEFF1200E8BC06EFA9
:1043300022F01200700ED36E9B8CFF0E9268936871
:1043400094689668626AF19E120000C0E5FFF3EC83
:104350001CF0006E005001E1FF00E4CF00F01200FD
:10436000E8AE05D0F3CFEAFFE4CFEEFF1200E8BCE1
:1043700004EF22F01200010E01014D6F1C0E0A0124
:10438000FE6FFF6B0BEC00F01200D9CFE5FFE1CF21
:10439000D9FF020EDBCF2CF1E4CFD9FF120049EC9C
:1043A0001EF0010A04E149EC1EF00101206F120029
:1043B00001014D6B1C0E0A01FE6FFF6B0BEC00F050
:1043C0001200550EA76EAA0EA76EA682A6B2FED741
:1043D000A94AAA2A01008A420000200100001E000A
:1043E0000000ACA2FED7AD6E12009AEC21F01200D4
:1043F00001015351120001015D51120001012651CA
:104400001200E8CF7FFF120001EF21F0C4EF20F08F
:10441000B4EF1FF07FEF21F0EEEF20F0D2EF1FF0AE
:104420003CEF20F00AEF20F0120012001200120000
:00000001FF
