:020000040000FA
:06000000CCEF26F0120017
:06080000CCEF26F012000F
:06080800C0EF23F0120016
:06081800A2EF23F0120024
:06082A000300E64D000092
:10083000E300000009000000E44D0000FB0100009F
:1008400002000000E14D0000FF0100000100000077
:10085000D9CFE6FFE1CFD9FFFD0EDB50A86EFE0E2B
:10086000DB50A96EA69EA69CA684F29E550EA76E8E
:10087000AA0EA76EA682A6A202D00000FCD7A6A64A
:1008800010D0720E146E480E156E166A14C0E6FF74
:1008900015C0E6FF16C0E6FF4EEC25F0E552E55226
:1008A000E552A694F28EE552E7CFD9FF1200D9CFD8
:1008B000E6FFE1CFD9FFFE0EDB50A96EA69CA69EF7
:1008C000A680A85000D0E552E7CFD9FF1200ACA215
:1008D000FED7AE50E86EAE50E86EAB98AB889D8AFE
:1008E0009D988B8012000101416B0101406B010159
:1008F000CB6B0101D46B0101D56B0101C66B01010A
:10090000C76B0101C96B080EB86E2F0EE66EE66A62
:100910001E0EE66E9AEC25F0E552E552E552010115
:10092000FD83CA82CA80CA9CCA9ACA98CA96CB68F2
:10093000CA84FC0E8B16FC0E941694849490AB988B
:100940008B909D9A0101CC6B100E0101CC5D13E2DE
:100950000101CC51EA6AD90FE96E010EEA22EF6A71
:100960000101CC51EA6AE90FE96E010EEA22EF6A51
:100970000101CC2BE9D70101040ED86F0101010E52
:10098000D66F0101020ED76F9D929F829F889F8A2A
:10099000F28E1200D9CFE6FFE1CFD9FF030EE12698
:1009A000DF6A0101CBA1B7D0DF50DF2AEA6A860FE8
:1009B000E96E010EEA22010EEFCFDBFF0101D6390D
:1009C0000F0BE76E020EE7CFDBFF0101CBA302D0D6
:1009D000020EDB86300E146E020EDBCFE7FF1450E2
:1009E000E726020EE7CFDBFF020EDB5039080AE2F2
:1009F000070E146E020EDBCFE7FF1450E726020E3F
:100A0000E7CFDBFF020EDBCFE6FF42EC22F0E55240
:100A10000F0E0101D615300FE76E020EE7CFDBFF98
:100A2000020EDB5039080AE2070E146E020EDBCF0D
:100A3000E7FF1450E726020EE7CFDBFF020EDBCF05
:100A4000E6FF42EC22F0E5520101CBA312D00101F6
:100A5000C651DF5C0DE2DF50DF2AEA6A860FE96EDD
:100A6000010EEA22EF50E66E42EC22F0E552EFD79B
:100A700047D00101C651DF5C43E2DF50DF2AEA6A5A
:100A8000860FE96E010EEA22010EEFCFDBFF010EA9
:100A9000DB380F0B300FE76E020EE7CFDBFF020EE5
:100AA000DB5039080AE2070E146E020EDBCFE7FFB7
:100AB0001450E726020EE7CFDBFF020EDBCFE6FF86
:100AC00042EC22F0E552010EDB500F0B300FE76EC7
:100AD000020EE7CFDBFF020EDB5039080AE2070EF9
:100AE000146E020EDBCFE7FF1450E726020EE7CFAD
:100AF000DBFF020EDBCFE6FF42EC22F0E552B9D776
:100B00000A0EE66E42EC22F0E5520101C66BC6C148
:100B1000C7F10101CB91030EE15C02E2E16AE5520B
:100B2000E16EE552E7CFD9FF12000101CBAB12D045
:100B30000101CB9B690E146E480E156E166A14C027
:100B4000E6FF15C0E6FF16C0E6FF4EEC25F0E552C5
:100B5000E552E5520101CBAD12D00101CB9D600EF3
:100B6000146E480E156E166A14C0E6FF15C0E6FF37
:100B700016C0E6FF4EEC25F0E552E552E5520101C4
:100B8000D55101E1B4D10101D551050A01E16ED180
:100B9000010A01E12CD1070A01E1EAD0010A75E05E
:100BA000030A01E0A2D1070E0101F915156E010E2D
:100BB000155204E0E846FE0B1506FCE1146E010137
:100BC000F951E840E840E8401F0BEA6AE90FE96E96
:100BD000010EEA22EF50141457E1070E0101F91536
:100BE000156E010E155204E0E846FE0B1506FCE1F9
:100BF000146E0101F951E840E840E8401F0BEA6A31
:100C0000E90FE96E010EEA221450EF120A0EE66EA9
:100C100042EC22F0E552730EE66E42EC22F0E55211
:100C2000430EE66E42EC22F0E5520101F9390F0B5A
:100C3000146E0A0E145C05E20101F9390F0B300F36
:100C400005D00101F9390F0BF60F410FE66E42ECAA
:100C500022F0E5520F0E0101F915146E0A0E145C14
:100C600005E20F0E0101F915300F05D00F0E01013D
:100C7000F915F60F410FE66E42EC22F0E5520A0E2E
:100C8000E66E42EC22F0E55230D1070E0101F91573
:100C9000156E010E155204E0E846FE0B1506FCE148
:100CA000146E0101F951E840E840E8401F0BEA6A80
:100CB000E90FE96E010EEA22EF50141458E0070E16
:100CC0000101F915156E010E155204E0E846FE0B00
:100CD0001506FCE1E81C146E0101F951E840E840FA
:100CE000E8401F0BEA6AE90FE96E010EEA22145090
:100CF000EF160A0EE66E42EC22F0E552730EE66E37
:100D000042EC22F0E552630EE66E42EC22F0E55230
:100D10000101F9390F0B146E0A0E145C05E2010192
:100D2000F9390F0B300F05D00101F9390F0BF60F10
:100D3000410FE66E42EC22F0E5520F0E0101F9156B
:100D4000146E0A0E145C05E20F0E0101F915300F46
:100D500005D00F0E0101F915F60F410FE66E42ECBA
:100D600022F0E5520A0EE66E42EC22F0E552BDD0CA
:100D70000A0EE66E42EC22F0E552730EE66E42EC8D
:100D800022F0E552780EE66E42EC22F0E5520101C7
:100D9000F9390F0B146E0A0E145C05E20101F939E2
:100DA0000F0B300F05D00101F9390F0BF60F410F72
:100DB000E66E42EC22F0E5520F0E0101F915146EB9
:100DC0000A0E145C05E20F0E0101F915300F05D073
:100DD0000F0E0101F915F60F410FE66E42EC22F0FD
:100DE000E5520A0EE66E42EC22F0E5527ED00A0E83
:100DF000E66E42EC22F0E552730EE66E42EC22F013
:100E0000E552610EE66E42EC22F0E5520101F9393D
:100E10000F0B146E0A0E145C05E20101F9390F0B79
:100E2000300F05D00101F9390F0BF60F410FE66EB7
:100E300042EC22F0E5520F0E0101F915146E0A0E74
:100E4000145C05E20F0E0101F915300F05D00F0EED
:100E50000101F915F60F410FE66E42EC22F0E55262
:100E60000A0EE66E42EC22F0E5523FD00A0EE66E24
:100E700042EC22F0E552730EE66E42EC22F0E552AF
:100E8000540EE66E42EC22F0E5520101F9390F0BE7
:100E9000146E0A0E145C05E20101F9390F0B300FD4
:100EA00005D00101F9390F0BF60F410FE66E42EC48
:100EB00022F0E5520F0E0101F915146E0A0E145CB2
:100EC00005E20F0E0101F915300F05D00F0E0101DB
:100ED000F915F60F410FE66E42EC22F0E5520A0ECC
:100EE000E66E42EC22F0E55200D00101D56B120013
:100EF000D9CFE6FFE1CFD9FF050EE126010141512F
:100F000002E15AEF0DF00101CB970101CB9540C1F1
:100F1000DFFF040EDB6A040EDBCFF3FFDB2AF350A6
:100F2000EA6A000FE96E010EEA22010EEFCFDBFF45
:100F3000010EDB50230801E0AED3020EDF5C02E2BB
:100F40005AEF0DF0040EDBCFF3FFDB2AF350EA6A11
:100F5000000FE96E010EEA22010EEFCFDBFF010E5A
:100F6000DB50530801E0B1D0040EDF5C02E05AEF21
:100F70000DF0040EDBCFF3FFDB2AF350EA6A000F1B
:100F8000E96E010EEA22010EEFCFDBFF300E146E88
:100F9000010EDBCFE7FF1450E75E010EE7CFDBFF6A
:100FA000010EDB5009080AE2070E146E010EDBCFBA
:100FB000E7FF1450E75E010EE7CFDBFF040EDBCF47
:100FC000F3FFDB2AF350EA6A000FE96E010EEA2212
:100FD000020EEFCFDBFF300E146E020EDBCFE7FF09
:100FE0001450E75E020EE7CFDBFF020EDB5009086C
:100FF0000AE2070E146E020EDBCFE7FF1450E75E25
:10100000020EE7CFDBFF010EDB500F0804E3020EF8
:10101000DB500F0802E25AEF0DF0020EDBCFE6FFC5
:10102000010EDB38F00BE552E724E76E030EE7CF45
:10103000DBFF030EDB50000845E2030EDB50146EAD
:10104000156AD890155004E6800E145C000E1558F1
:1010500039E2030EDB50070B156E010E155204E04A
:10106000E846FE0B1506FCE1146E030EDB40E8407B
:10107000E8401F0BEA6AD90FE96E010EEA2214500C
:10108000EF12030EDB50070B156E010E155204E034
:10109000E846FE0B1506FCE1E81C146E030EDB406F
:1010A000E840E8401F0BEA6AE90FE96E010EEA2208
:1010B0001450EF16030EDB500101D85D03E2030E5E
:1010C000DBCFD8F15AEF0DF0E4D2010EDB5043082C
:1010D00001E0AAD0040EDF5C02E05AEF0DF0040E2E
:1010E000DBCFF3FFDB2AF350EA6A000FE96E010E53
:1010F000EA22010EEFCFDBFF300E146E010EDBCFC4
:10110000E7FF1450E75E010EE7CFDBFF010EDB5077
:1011100009080AE2070E146E010EDBCFE7FF145038
:10112000E75E010EE7CFDBFF040EDBCFF3FFDB2A28
:10113000F350EA6A000FE96E010EEA22020EEFCFC9
:10114000DBFF300E146E020EDBCFE7FF1450E75EBC
:10115000020EE7CFDBFF020EDB5009080AE2070EA2
:10116000146E020EDBCFE7FF1450E75E020EE7CFEE
:10117000DBFF010EDB500F0804E3020EDB500F080B
:1011800002E25AEF0DF0020EDBCFE6FF010EDB3874
:10119000F00BE552E724E76E030EE7CFDBFF030E0B
:1011A000DB5000083EE2030EDB50146E156AD89047
:1011B000155004E6800E145C000E155832E2030E42
:1011C000DB50070B156E010E155204E0E846FE0BCE
:1011D0001506FCE1E81C146E030EDB40E840E84015
:1011E0001F0BEA6AE90FE96E010EEA221450EF16AE
:1011F000030EDB50070B156E010E155204E0E84696
:10120000FE0B1506FCE1E81C146E030EDB40E84003
:10121000E8401F0BEA6AD90FE96E010EEA2214506A
:10122000EF165AEF0DF035D2010EDB50690815E1CB
:101230004E0E146E480E156E166A14C0E6FF15C0E9
:10124000E6FF16C0E6FF4EEC25F0E552E552E5520A
:1012500073EC04F05AEF0DF01CD2010EDB504C0879
:1012600001E0A2D03D0E146E480E156E166A14C031
:10127000E6FF15C0E6FF16C0E6FF4EEC25F0E5528E
:10128000E552E552020EDB6ACBC1E6FFD4C114F091
:10129000156A14BE156814C0E6FF15C0E6FF180EE7
:1012A000166E480E176E186A16C0E6FF17C0E6FFE6
:1012B00018C0E6FF4EEC25F0196E060EE15E1950DF
:1012C000010EF36E030EF3CFDBFF030EDBCF14F042
:1012D0000101D851D880145460E3030EDB50070B92
:1012E000156E010E155204E0E846FE0B1506FCE1F2
:1012F000146E030EDB40E840E8401F0BEA6AD90F8A
:10130000E96E010EEA22EF50141444E0030EDB50A4
:10131000070B176E010E175204E0E846FE0B170686
:10132000FCE1166E030EDB40E840E8401F0BEA6A62
:10133000E90FE96E010EEA22EF50161402E1000EE9
:1013400001D0010E146E156A14BE156814C0E6FFB4
:1013500015C0E6FF030EDBCFE6FFE66A110E186E3E
:10136000480E196E1A6A18C0E6FF19C0E6FF1AC0C7
:10137000E6FF4EEC25F01B6E070EE15E1B50020EE1
:10138000DB2A020EDB500F0B05E10A0EE66E42EC83
:1013900022F0E552030EDB2A98D70A0EE66E42ECE5
:1013A00022F0E55287D375D1010EDB5046081AE1D1
:1013B0000101CB990101D46BAB988B809D9A9D98CC
:1013C000FA0E146E470E156E166A14C0E6FF15C0AD
:1013D000E6FF16C0E6FF4EEC25F0E552E552E55279
:1013E00069D357D1010EDB50560812E1C70E146EB7
:1013F000470E156E166A14C0E6FF15C0E6FF16C04C
:10140000E6FF4EEC25F0E552E552E55253D341D1CB
:10141000010EDB50520840E1E66A57EC04F0E55259
:10142000E76E030EE7CFDBFF030EDB500F0B146EEE
:101430000A0E145C05E2030EDB500F0B300F05D0D3
:10144000030EDB500F0BF60F410FE66EE66A030E3C
:10145000DB380F0B156E0A0E155C05E2030EDB3848
:101460000F0B300F05D0030EDB380F0BF60F410FBB
:10147000E66EE66ABE0E166E470E176E186A16C046
:10148000E6FF17C0E6FF18C0E6FF4EEC25F0196E28
:10149000070EE15E1950FDD0010EDB50570868E1E0
:1014A000040EDBCFF3FFDB2AF350EA6A000FE96E8C
:1014B000010EEA22010EEFCFDBFF300E146E010E9B
:1014C000DBCFE7FF1450E75E010EE7CFDBFF010E35
:1014D000DB5009080AE2070E146E010EDBCFE7FFAE
:1014E0001450E75E010EE7CFDBFF040EDBCFF3FF06
:1014F000DB2AF350EA6A000FE96E010EEA22020EBF
:10150000EFCFDBFF300E146E020EDBCFE7FF14507F
:10151000E75E020EE7CFDBFF020EDB5009080AE2AE
:10152000070E146E020EDBCFE7FF1450E75E020ECB
:10153000E7CFDBFF010EDB500F0804E3020EDB50A8
:101540000F0801E2B7D2020EDBCFE6FF010EDB3857
:10155000F00BE552E724E76E030EE7CFDBFF030E47
:10156000DBCFE6FFE66A28EC04F0E552E55291D0C5
:10157000010EDB50450823E101014051F36E040EDA
:10158000DBCFF4FFF350F45C14E2040EDBCFF3FF87
:10159000DB2AF350EA6A000FE96E010EEA22010E1F
:1015A000EFCFDBFF010EDBCFE6FF42EC22F0E5528E
:1015B000E3D70A0EE66E42EC22F0E5526AD0010E45
:1015C000DB50440866E1040EDF5C01E073D2040ED8
:1015D000DBCFF3FFDB2AF350EA6A000FE96E010E5E
:1015E000EA22010EEFCFDBFF300E146E010EDBCFCF
:1015F000E7FF1450E75E010EE7CFDBFF010EDB5083
:1016000009080AE2070E146E010EDBCFE7FF145043
:10161000E75E010EE7CFDBFF040EDBCFF3FFDB2A33
:10162000F350EA6A000FE96E010EEA22020EEFCFD4
:10163000DBFF300E146E020EDBCFE7FF1450E75EC7
:10164000020EE7CFDBFF020EDB5009080AE2070EAD
:10165000146E020EDBCFE7FF1450E75E020EE7CFF9
:10166000DBFF010EDB500F0804E3020EDB500F0816
:1016700001E220D2020EDBCFE6FF010EDB38F00BD9
:10168000E552E724E76E030EE7CFDBFF030EDBCF67
:10169000C9F110D257D0010EDB50210853E1DF060B
:1016A000010EDF5C01E206D20101010E826F010131
:1016B000426B42C184F1040EDB50EA6A000FE96E0E
:1016C000010EEA22010EEFCFDBFF010EDB504208D4
:1016D00014E0010EDB50490810E0010EDB504E080B
:1016E0000CE0010EDB50520808E0010EDB50500800
:1016F00004E0010EDB5046081CE10101CB85010E20
:10170000DB50460813E10101CB89A60E146E470E8B
:10171000156E166A14C0E6FF15C0E6FF16C0E6FF98
:101720004EEC25F0E552E552E55202D00101CB998D
:10173000DDD0010EDB50620804E1040EDB2ADF0677
:10174000D5D0B8D10101CBA95DD00101010E826FC6
:10175000DF280101426F0101846F01018251EA6AB1
:10176000420FE96E010EEA22010EDBCFEFFFEF50D0
:10177000010184270101822B01014051F36E040E07
:10178000DBCFF4FFF350F45C1BE2040EDBCFF3FF7E
:10179000DB2AF350EA6A000FE96E010EEA22EF50ED
:1017A000E66E01018251EA6A420FE96E010EEA22F9
:1017B000E552E750EF6E010184270101822BDCD74F
:1017C000FF0E01018403F350E66E01018251EA6AC3
:1017D000420FE96E010EEA22E552E750EF6E010179
:1017E00082290101836F0101856BAB988B909D9AD3
:1017F00042C1ADFF0101010E826F0101040ED46FE1
:101800009D8858D1030EDF5C01E254D1300E146E76
:10181000010EDBCFE7FF1450E75E010EE7CFDBFFE1
:10182000010EDB5009080AE2070E146E010EDBCF31
:10183000E7FF1450E75E010EE7CFDBFF040EDBCFBE
:10184000F3FFDB2AF350EA6A000FE96E010EEA2289
:10185000020EEFCFDBFF300E146E020EDBCFE7FF80
:101860001450E75E020EE7CFDBFF020EDB500908E3
:101870000AE2070E146E020EDBCFE7FF1450E75E9C
:10188000020EE7CFDBFF010EDB500F0804E3020E70
:10189000DB500F0801E20ED1020EDBCFE6FF010E96
:1018A000DB38F00BE552E724E76E030EE7CFDBFFF2
:1018B000030EDB50146E156A1450800B03E0010117
:1018C000CB8502D00101CB95030EDB9E030EDB50CE
:1018D00001E1F0D00101010E826F030EDBCF42F176
:1018E00042C184F1020EDF5E0101CB870101CBA56D
:1018F00002D0DF8E02D0DF90DF4201018251EA6A1E
:10190000420FE96E010EEA22DFCFEFFFEF50010137
:1019100084270101822B0101CBA525D00101405173
:10192000F36E040EDBCFF4FFF350F45C1BE2040E05
:10193000DBCFF3FFDB2AF350EA6A000FE96E010EFA
:10194000EA22EF50E66E01018251EA6A420FE96E27
:10195000010EEA22E552E750EF6E010184270101F2
:10196000822BDCD782D001014051F36E040EDBCF15
:10197000F4FFF350F45C01E378D0040EDBCFF3FF07
:10198000DB2AF350EA6A000FE96E010EEA22010E2B
:10199000EFCFDBFF300E146E010EDBCFE7FF1450EC
:1019A000E75E010EE7CFDBFF010EDB5009080AE21C
:1019B000070E146E010EDBCFE7FF1450E75E010E39
:1019C000E7CFDBFF01014051F36E040EDBCFF4FFE4
:1019D000F350F45C01E36ED0040EDBCFF3FFDB2A9F
:1019E000F350EA6A000FE96E010EEA22020EEFCF11
:1019F000DBFF300E146E020EDBCFE7FF1450E75E04
:101A0000020EE7CFDBFF020EDB5009080AE2070EE9
:101A1000146E020EDBCFE7FF1450E75E020EE7CF35
:101A2000DBFF010EDB500F0804E3020EDB500F0852
:101A300001E240D0010EDB50100D020EDBCFE7FFBC
:101A4000F350E726020EE7CFDBFF01018251EA6A7D
:101A5000420FE96E010EEA22020EDBCFEFFFEF50DC
:101A6000010184270101822B7ED7FF0E010184032F
:101A7000F350E66E01018251EA6A420FE96E010EEF
:101A8000EA22E552E750EF6E010182290101836FDE
:101A90000101856BAB988B909D9AAC8042C1F9F1A6
:101AA00042C1ADFFAC900101010E826F0101020E37
:101AB000D46F9D880101406B0101416B00D0050E80
:101AC000E15C02E2E16AE552E16EE552E7CFD9FF5F
:101AD0001200D9CFE6FFE1CFD9FFE652ABA202D088
:101AE0000101CB8BABA402D00101CB8D0101D40548
:101AF0003BE19DBA0BD09EA208D067EC04F09D920A
:101B00001F0ECA6E6A0ECC6E9E9242D19EAA2AD039
:101B1000030ECA6E9D929E92AE50DF6EAB988B8084
:101B20009D9A9D98DF501BE00101852B030E01015A
:101B3000855D12E2AB988B909D9AAC8042C1F9F121
:101B400042C1ADFFAC900101010E826F0101020E96
:101B5000D46F9D881DD103D00101040ED56F010102
:101B6000D46B16D115D114D1030E0101D45D6CE1F3
:101B70009DBA0BD09EA208D067EC04F09D921F0E78
:101B8000CA6E6A0ECC6E9E9203D19EAA5BD0AE50F6
:101B9000DF6E0101C651EA6A860FE96E010EEA2284
:101BA000DFCFEFFF0101C62B6A0ECC6E9E920101C2
:101BB000C60523E10101C86B3F0EDF140101C76FA9
:101BC0000101C72BDF500EE1030ECA6E9D929E925B
:101BD000AB988B809D9A9D980101D46B0101010EF9
:101BE000D56F0BD0DF50146E156A1450800B03E0D4
:101BF0000101CB8302D00101CB93DF500101C82743
:101C00000101C7510101D880C6551BE2030ECA6EFF
:101C10009D929E92AB988B809D9A9D980101D46B6A
:101C20000101C85109E10101C6070101CB81010190
:101C3000010ED56FAD6A05D00101030ED56F010EFF
:101C4000AD6EA6D0A5D0A4D0020E0101D45D4BE1AB
:101C50009E50020B12E0010183510101825D0DE1F2
:101C6000030ECA6E9D929E920101D46B67EC04F044
:101C7000AB988B809D9A9D988BD09EA889D0030E9F
:101C8000CA6E9D929E9201018251822BEA6A420F96
:101C9000E96E010EEA22EF50AD6E010183510101A0
:101CA000825D1FE19D980101CBA70BD09D92070E8D
:101CB000CA6ED00ECC6E9E929D820101010ED46F31
:101CC00010D00101CBA906D067EC04F00101050E8C
:101CD000D46F07D09D92070ECA6ED00ECC6E9E9226
:101CE0009D8256D055D0040E0101D45D26E1030E2D
:101CF000CA6E9D929E929EA84BD001018251822B6A
:101D0000EA6A420FE96E010EEA22EF50AD6E010160
:101D100083510101825D0FE19D989D92070ECA6E6D
:101D2000D00ECC6E9E929D820101050ED46F0101F2
:101D3000C76BC7C1C6F12CD02BD0050E0101D45DF5
:101D40001DE19DBA09D09EA206D067EC04F0030EF7
:101D5000CA6E9D929E921CD09EAA0ED0AE50DF6E8F
:101D60000101C651EA6A860FE96E010EEA22DFCF51
:101D7000EFFF0101C62B0CD00BD00AD00101D451CA
:101D800007E1030ECA6E9D929E929D989D9A00D087
:101D9000E552E552E7CFD9FF120095EC05F0050EAC
:101DA0000101D45D20E10101C7510101C65D15E0CB
:101DB0000101C7510101C65D0EE00101C751C72BEA
:101DC000EA6A860FE96E010EEA22EF50E66E42ECF7
:101DD00022F0E552EDD7F8EC21F00101415102E08B
:101DE00078EC07F0A9D0F29E0101D45160E1030E16
:101DF000CA6E9D929E920101415103E078EC07F07A
:101E00009BD00101CBB152D00101C9510101CA5D82
:101E10004DE30101CA6B0101D62B0101D85101012B
:101E2000D880D65507E20101010ED66F0101020EDE
:101E3000D76F0AD00101D745010B146E0101D751AC
:101E4000E82414100101D76F0101D651E840E840A1
:101E5000E8401F0BEA6AD90FE96E010EEA22EF5043
:101E60000101D71523E00101C76BC7C1C6F1C7C186
:101E7000C8F1AC80AB988B909D9A95EC05F0F29CE4
:101E8000D6C1F9F1800E0101D611AD6EAC90800E75
:101E90000101D611AD6E9D92070ECA6ED00ECC6EAA
:101EA0009E929D820101030ED46FF28C45D00101F8
:101EB000D4052BE19D50200B27E09E50020B24E01F
:101EC000030ECA6E9D929E92AB988B809D9A9D98B0
:101ED0000101852B030E0101855D11E2AB988B900A
:101EE0009D9AAC8042C1F9F142C1ADFFAC900101B5
:101EF000010E826F0101020ED46F9D8805D0010191
:101F0000050ED56F0101D46B17D0030E0101D45D0E
:101F100013E19D50200B10E09E50020B0DE0030ECC
:101F2000CA6E9D929E920101020ED56FAB988B8076
:101F30009D9A9D980101D46BF28ECAEC04F01200B8
:101F40000101FA51FA2B146E156AC80E141801E13A
:101F5000155003E10101FA6B8B720101CA2B02E1FA
:061F60000101CA69120034
:0A1F6600D9CFE6FFE1CFD9FFFC0E52
:101F7000DBCF60F0FD0EDBCF61F0FE0EDBCF62F059
:101F8000F90EDBCF63F0FA0EDBCF64F0FB0EDBCF94
:101F900065F0F60EDBCF66F0F70EDBCF67F0F80EDC
:101FA000DBCF68F0F40EDBCF69F0F50EDBCF6AF023
:101FB00000016B6B6C6B00016D6B6E6B00016F6BE6
:101FC000706B000EE66EE66A000EE66EE66A74EC72
:101FD00017F0E552E552E552E552000EE66EE66A6C
:101FE000000EE66EE66A92EC17F0E552E552E55215
:101FF000E55221D8140E6F6E6D98E552E7CFD9FFE8
:1020000012006D860001010EB56F6DBAFED700019A
:10201000040EB56F12006A6A120068960001B36B75
:10202000B46B0001040EB56F0001B66B68B6F5D74E
:1020300002D86D981200D9CFE6FFE1CFD9FF020E8A
:10204000E12600016B6B6C6B00016D6B6E6B000128
:102050006F6B706B6E6A6D8C6D9C6A6ADE6ADD6A8E
:10206000DECF14F0DDCF15F0D890155004E6100E39
:10207000145C000E155832E2DECFE9FFDDCFEAFF37
:10208000D890E936EA36D890E936EA36710EE92674
:10209000000EEA22020EE926000EEA22EE6AED6A3E
:1020A000DECFE9FFDDCFEAFFD890E936EA36D890F7
:1020B000E936EA36710EE926000EEA22EE6AED6A8A
:1020C000DECFE9FFDDCFEAFF700EE9260F0EEA2230
:1020D000EF6ADF2A010E01E3DB2AC2D7DE6ADD6A7E
:1020E000DECF14F0DDCF15F0D890155004E6060EC3
:1020F000145C000E155814E2DECFE9FFDDCFEAFFD5
:10210000D890E936EA36D890E936EA36000EE92664
:10211000040EEA22EF6ADF2A010E01E3DB2AE0D790
:10212000160E706E0001B16BB26B0001B56B000151
:10213000B36BB46B0001B66B0401080E016F0401B0
:102140008A0E026F040E036F0401880E006F0401F3
:10215000056B0401920E066F040E076F0401480E12
:10216000046F020EE15C02E2E16AE552E16EE552C3
:10217000E7CFD9FF120068A803D0A1EC23F068983C
:1021800068A002D04ADF689068A202D06A6A6892AA
:1021900068BA689A68AC0CD000016B516C1107E00A
:1021A00005D06CC0FAFF00016B51F96EFADF689C34
:1021B00068A609D06C50E840E840E8401F0B0F0BC0
:1021C00001E102D8689612000001C16B6CCFB7F034
:1021D0000001B751FC0BE842E842040DF3CFB8F020
:1021E000F4CFB9F0000E0001B827040E0001B923A6
:1021F000040E0001B711FC0BE842E842040DF3CFD6
:10220000BAF0F4CFBBF0000E0001BA27040E0001B3
:10221000BB23B8C0E9FFB9C0EAFFEF503C0B240A6A
:102220000AE0200A05E0300A01E008D008D806D00C
:1022300014EC17F003D0E6EC16F000D01200BAC090
:10224000E9FFBBC0EAFF080EEF6E6D98B8C0E9FF6A
:10225000B9C0EAFF020EE926000EEA22EE50EFCFE7
:10226000EAFFE96EEF50600B400A42E0600A34E09A
:10227000200A01E049D0B8C0E9FFB9C0EAFF020E68
:10228000E926000EEA22EE50EFCFEAFFE96EEF50AA
:10229000030B020A15E0030A0BE0010A01E019D062
:1022A000B8C0E6FFB9C0E6FF7CD8E552E55213D0CE
:1022B000B8C0E6FFB9C0E6FF94DBE552E5520BD0AB
:1022C000B8C0E6FFB9C0E6FF8EEC15F0E552E55266
:1022D00002D0D4EC17F01AD000016D516E1107E056
:1022E00005D06EC0FAFF00016D51F96EFADF0ED015
:1022F00000016F51701107E005D070C0FAFF0001B6
:102300006F51F96EFADF02D0D4EC17F0B8C0E9FFD4
:10231000B9C0EAFFEE52080EEF6EB8C0E9FFB9C0CF
:10232000EAFF020EE926000EEA22EE50EFCFEAFFA6
:10233000E96EEF50800B24E1B8C0E9FFB9C0EAFFB5
:10234000020EE926000EEA22EE50EFCFEAFFE96E18
:10235000060EE926000EEA22EF5014E1B8C0E9FFAC
:10236000B9C0EAFF020EE926000EEA22EE50EFCFD6
:10237000EAFFE96E070EE926000EEA22EF5002E1BD
:10238000000E01D0010E000902E0C80E01D0880E37
:10239000E66EB8C0E9FFB9C0EAFFE552E750EF6E5C
:1023A0001200D9CFE6FFE1CFD9FF040EE126FD0EE2
:1023B000DBCFE9FFFE0EDBCFEAFF020EE926000EBF
:1023C000EA22EECFDEFFEDCFDDFFDECFE9FFDDCF8E
:1023D000EAFF010EE926000EEA22EF50070A01E1AA
:1023E000F5D20E0A01E1C3D2010A01E1ABD20E0A15
:1023F00001E19FD0030A64E0060A4BE0020A32E0E2
:10240000010A01E0E3D20001B151E66EBAC0E9FF72
:10241000BBC0EAFF020EE926000EEA22EE50EFCF23
:10242000EAFFE96EE552E750EF6EB2C014F0156AAC
:10243000BAC0E9FFBBC0EAFF020EE926000EEA229D
:10244000EE50EFCFEAFFE96E010EE926000EEA2218
:1024500014C0EFFF020EE66EE66AB4EC17F0E55228
:10246000E552B5D2DECFE9FFDDCFEAFF020EE92665
:10247000000EEA22EF040AE10001B193000EE66EBD
:10248000E66AB4EC17F0E552E55202D0D4EC17F04E
:102490009ED2DECFE9FFDDCFEAFF020EE926000E75
:1024A000EA22EF040AE10001B183000EE66EE66A5B
:1024B000B4EC17F0E552E55202D0D4EC17F087D215
:1024C000DECFE9FFDDCFEAFF030EE926000EEA22A8
:1024D000EF502CE17F0E146EDECFE9FFDDCFEAFF77
:1024E000020EE926000EEA22EF50145C1FE3DECF55
:1024F000E9FFDDCFEAFF020EE926000EEA22EFCF68
:10250000B6F0BC0EE66E2F0EE66E000EE66EE66AC4
:1025100074EC17F0E552E552E552E552000EE66E16
:10252000E66AB4EC17F0E552E55202D0D4EC17F0AD
:102530004ED2DECFE9FFDDCFEAFF030EE926000E23
:10254000EA22EF50040A01E1E7D1010A01E1E4D1F6
:10255000060A01E14FD1010A3FE0030A01E0DCD1A4
:1025600060C0BCF061C0BDF062C0BEF060C0F6FFEC
:1025700061C0F7FF62C0F8FF0800F5500001BF6FAF
:10258000C06BDECFE9FFDDCFEAFF070EE926000EC4
:10259000EA22EF5020E1DECFE9FFDDCFEAFF060EB1
:1025A000E926000EEA22EFCF14F0BCC0F6FFBDC052
:1025B000F7FFBEC0F8FF0800F550145C0CE2DECF58
:1025C000E9FFDDCFEAFF060EE926000EEA22EF5012
:1025D0000001BF6FC06BA3D1DECFE9FFDDCFEAFF03
:1025E000020EE926000EEA22EFCF14F060C0F6FFDB
:1025F00061C0F7FF62C0F8FF110EF626000EF72249
:10260000000EF8220800F550145C04E30001010EEE
:10261000C16F85D163C0BCF064C0BDF065C0BEF0C1
:10262000BCC0F6FFBDC0F7FFBEC0F8FF030EF62624
:10263000000EF722000EF8220800F550146E156AFD
:1026400014C015F0146ABCC0F6FFBDC0F7FFBEC0D1
:10265000F8FF020EF626000EF722000EF822080000
:10266000F55000011424BF6F000E1520C06F020E3C
:10267000DB6A030EDB6A020EDBCF14F0030EDBCF46
:1026800015F0DECFE9FFDDCFEAFF020EE926000EEE
:10269000EA22EF50000115AE02D0D89003D0145CAE
:1026A000000E15583BE2BFC014F0C0C015F0166A0A
:1026B00014500001BC2715500001BD231650000125
:1026C000BE23BCC0F6FFBDC0F7FFBEC0F8FF030EBF
:1026D000F626000EF722000EF8220800F550146EC0
:1026E000156A14C015F0146ABCC0F6FFBDC0F7FF30
:1026F000BEC0F8FF020EF626000EF722000EF822EA
:102700000800F55000011424BF6F000E1520C06FA3
:10271000020EDB2A030E01E3DB2AADD7DECFE9FF91
:10272000DDCFEAFF070EE926000EEA22EFCF14F014
:10273000BCC0F6FFBDC0F7FFBEC0F8FF030EF62613
:10274000000EF722000EF8220800F550145C34E366
:10275000DECFE9FFDDCFEAFF070EE926000EEA2211
:10276000EFCF15F0BCC0F6FFBDC0F7FFBEC0F8FF4D
:10277000030EF626000EF722000EF8220800F55090
:10278000155C37E1DECFE9FFDDCFEAFF060EE92673
:10279000000EEA22EFCF16F0BCC0F6FFBDC0F7FF77
:1027A000BEC0F8FF020EF626000EF722000EF82239
:1027B0000800F550165C1DE2DECFE9FFDDCFEAFF31
:1027C000070EE926000EEA22EF50146E156A14C0B7
:1027D00015F0146ADECFE9FFDDCFEAFF060EE92629
:1027E000000EEA22EF5000011424BF6F000E1520E6
:1027F000C06F95D0DECFE9FFDDCFEAFF020EE926FC
:10280000000EEA22EF50146E156A000115506A1985
:10281000E8AE02D06A3504D06951145C6A5115588B
:1028200004E30001010EC16F7AD066C0BCF067C03E
:10283000BDF068C0BEF0BCC0F6FFBDC0F7FFBEC0B3
:10284000F8FF0800F5500001BF6FC06B020EDB6A95
:10285000030EDB6A020EDBCF14F0030EDBCF15F0A4
:10286000DECFE9FFDDCFEAFF020EE926000EEA2205
:10287000EF50000115AE02D0D89003D0145C000ECA
:1028800015581FE2BFC014F0C0C015F0166A1450EE
:102890000001BC2715500001BD2316500001BE23C6
:1028A000BCC0F6FFBDC0F7FFBEC0F8FF0800F55082
:1028B0000001BF6FC06B020EDB2A030E01E3DB2AAF
:1028C000C9D7DECFE9FFDDCFEAFF070EE926000E0C
:1028D000EA22EF5020E1DECFE9FFDDCFEAFF060E6E
:1028E000E926000EEA22EFCF14F0BCC0F6FFBDC00F
:1028F000F7FFBEC0F8FF0800F550145C0CE2DECF15
:10290000E9FFDDCFEAFF060EE926000EEA22EF50CE
:102910000001BF6FC06B03D00001010EC16F000149
:10292000C1510EE165DBF00EE66E2F0EE66E000E75
:10293000E66EE66AD9DAE552E552E552E55201D093
:1029400033DB45D0BAC0E9FFBBC0EAFF020EE9267F
:10295000000EEA22EE50EFCFEAFFE96EB3C0EFFFC0
:10296000010EE66EE66A00DBE552E55230D0010E5C
:10297000146EDECFE9FFDDCFEAFF020EE926000E7E
:10298000EA22EF50145C20E3DECFE9FFDDCFEAFF5F
:10299000020EE926000EEA22EF500001B36FB46B7D
:1029A0000001B351B41106E00001200EB56FD6EC62
:1029B0001EF003D00001100EB56F000EE66EE66A41
:1029C000D3DAE552E55201D0EFDA01D0EDDA040EA8
:1029D000E15C02E2E16AE552E16EE552E7CFD9FF40
:1029E0001200D9CFE6FFE1CFD9FF020EE126FD0E9E
:1029F000DBCFE9FFFE0EDBCFEAFF020EE926000E79
:102A0000EA22EECFDEFFEDCFDDFFDECFE9FFDDCF47
:102A1000EAFF010EE926000EEA22EF50010A73E0F8
:102A2000020A71E0080A4EE0010A28E00A0A01E001
:102A30006AD0BAC0E9FFBBC0EAFF020EE926000E69
:102A4000EA22EE50EFCFEAFFE96EEF6ABAC0E9FF83
:102A5000BBC0EAFF020EE926000EEA22EE50EFCFDD
:102A6000EAFFE96E010EE926000EEA22EF6A020E85
:102A7000E66EE66A79DAE552E55246D0020E146E49
:102A8000DECFE9FFDDCFEAFF040EE926000EEA22E1
:102A9000EF50D880145414E2BAC0E9FFBBC0EAFF7B
:102AA000020EE926000EEA22EE50EFCFEAFFE96EB1
:102AB000EF6A010EE66EE66A57DAE552E55201D09A
:102AC00073DA22D0020E146EDECFE9FFDDCFEAFF0B
:102AD000040EE926000EEA22EF50D880145411E2C9
:102AE000DECFE9FFDDCFEAFF020EE926000EEA2283
:102AF000EF5007E1000EE66EE66A36DAE552E5527F
:102B000001D052DA01D050DA020EE15C02E2E16A51
:102B1000E552E16EE552E7CFD9FF1200D9CFE6FFCB
:102B2000E1CFD9FF080EE126FD0EDBCFE9FFFE0E57
:102B3000DBCFEAFF020EE926000EEA22EECFDEFF2F
:102B4000EDCFDDFFDECFE9FFDDCFEAFF010EE926A5
:102B5000000EEA22EF500C0A01E12DD10F0A01E12B
:102B6000E8D0020A73E0010A01E025D1BAC0E9FF0A
:102B7000BBC0EAFF020EE926000EEA22EE50EFCFBC
:102B8000EAFFE96EEF6ABAC0E9FFBBC0EAFF020ED6
:102B9000E926000EEA22EE50EFCFEAFFE96E010EC1
:102BA000E926000EEA22EF6ADECFE9FFDDCFEAFF79
:102BB000040EE926000EEA22EF500F0BE76E020E1C
:102BC000E7CFDBFFDECFE9FFDDCFEAFF040EE9262A
:102BD000000EEA22EF50E844010BE76E030EE7CF48
:102BE000DBFF030EDBCFE6FF020EDB50E824E552ED
:102BF000E724040DF3CF14F0F4CF15F0000E1426E3
:102C0000040E1522040E14C0DBFF050E15C0DBFFF9
:102C1000040EDBCFE9FF050EDBCFEAFFEF94EF50A8
:102C20000EE0BAC0E9FFBBC0EAFF020EE926000EC3
:102C3000EA22EE50EFCFEAFFE96E010EEF6E020ED0
:102C4000E66EE66A91D9E552E552B6D0DECFE9FFED
:102C5000DDCFEAFF040EE926000EEA22EF500F0B4B
:102C6000E76E020EE7CFDBFFD950060FE96EDACF31
:102C7000EAFF700EEE6E0F0EED6E020EDB50146E5C
:102C8000156AD950060FE96EDACFEAFF1450EE2626
:102C90001550ED22060EDBCFE9FF070EDBCFEAFF72
:102CA000EF90DECFE9FFDDCFEAFF040EE926000E4C
:102CB000EA22EF50E844010BE76E030EE7CFDBFF9B
:102CC000030EDBCFE6FF020EDB50E824E552E724DB
:102CD000040DF3CF14F0F4CF15F0000E1426040EFB
:102CE0001522040E14C0DBFF050E15C0DBFF040E19
:102CF000DBCFE9FF050EDBCFEAFFEF94030EDB50DD
:102D000007E0040EDBCFE9FF050EDBCFEAFFEF8C17
:102D1000030EDB5007E1040EDBCFE9FF050EDBCF2E
:102D2000EAFFEF9C000EE66EE66A1ED9E552E55218
:102D300043D0DECFE9FFDDCFEAFF040EE926000E27
:102D4000EA22EF500F0BE76E020EE7CFDBFFDECF7C
:102D5000E9FFDDCFEAFF040EE926000EEA22EF507C
:102D6000E844010BE76E030EE7CFDBFF030EDBCF7A
:102D7000E6FF020EDB50E824E552E724040DF3CF12
:102D800014F0F4CF15F0000E1426040E1522040ED4
:102D900014C0DBFF050E15C0DBFF040EDBCFE9FF1F
:102DA000050EDBCFEAFFEF84000EE66EE66ADCD8A4
:102DB000E552E55201D0F8D8080EE15C02E2E16A82
:102DC000E552E16EE552E7CFD9FF12000001B7519D
:102DD000E840E840E8401F0B0F0B040DF3CFE9FF7C
:102DE000F4CFEAFF710EE926000EEA22EE50ED1054
:102DF0001AE00001B751E840E840E8401F0B0F0B14
:102E0000040DF3CFE9FFF4CFEAFF710EE926000EBF
:102E1000EA22EECF14F0EFCF15F004D015C0FAFF80
:102E20001450F96EFBDF12000001B751E840E84092
:102E3000E8401F0B0F0B040DF3CFE9FFF4CFEAFFBF
:102E4000710EE926000EEA22020EE926000EEA22A1
:102E5000EE50ED101EE00001B751E840E840E840B8
:102E60001F0B0F0B040DF3CFE9FFF4CFEAFF710E38
:102E7000E926000EEA22020EE926000EEA22EECF33
:102E800014F0EFCF15F004D015C0FAFF1450F96E0E
:102E9000FBDF1200D9CFE6FFE1CFD9FFFD0EDBCF7C
:102EA0006BF0FE0EDBCF6CF0E552E7CFD9FF1200DE
:102EB000D9CFE6FFE1CFD9FFFD0EDBCF6DF0FE0EDF
:102EC000DBCF6EF0E552E7CFD9FF1200D9CFE6FF96
:102ED000E1CFD9FFFD0EDBCF6FF0FE0EDBCF70F040
:102EE000E552E7CFD9FF1200D9CFE6FFE1CFD9FFF6
:102EF000FD0EDBCFE9FFFE0EDBCFEAFFD890E9360F
:102F0000EA36D890E936EA36710EE926000EEA2252
:102F1000FB0EDBCFEEFFFC0EDBCFEDFFE552E7CF84
:102F2000D9FF1200D9CFE6FFE1CFD9FFFD0EDBCFED
:102F3000E9FFFE0EDBCFEAFFD890E936EA36D890FB
:102F4000E936EA36710EE926000EEA22020EE9267B
:102F5000000EEA22FB0EDBCFEEFFFC0EDBCFEDFF17
:102F6000E552E7CFD9FF1200D9CFE6FFE1CFD9FF75
:102F7000FF0EE76EFD0EDBCF14F0FE0EDBCF15F07B
:102F8000E7501416156ABAC0E9FFBBC0EAFFEE525B
:102F900014C0EFFFBAC0E9FFBBC0EAFFC80EEF6E76
:102FA000E552E7CFD9FF12000401080E016F0401BA
:102FB000840E046F0401840E006F12000001B651EC
:102FC00004E10001040EB56F03D00001100EB56FCF
:102FD000B6C06EFF0001B669000EE66EE66A000E2E
:102FE000E66EE66A81DFE552E552E552E5521200EF
:102FF000D9CFE6FFE1CFD9FF040EE1260001BF5192
:10300000C0115AE00001080EBF5D000EC05905E274
:10301000BFC014F0C0C015F003D0080E146E156ABE
:10302000020E14C0DBFF030E15C0DBFFDE6ADD6A93
:10303000DECF14F0DDCF15F0020EDBCF16F0030E5D
:10304000DBCF17F01650145C1750155834E2DECF62
:1030500016F0DDCF17F0186A0001BC511624F36E8C
:103060000001BD511720F46E0001BE511820F86E0A
:10307000F4CFF7FFF3CFF6FF0800F550E66EDECF92
:1030800014F0DDCF15F0BAC0E9FFBBC0EAFF020EB5
:10309000E926000EEA221450EE24E76E1550EE20C9
:1030A000EA6EE7CFE9FFE552E750EF6EDF2A010E47
:1030B00001E3DB2ABDD70FD0020EDB6A030EDB6A09
:1030C000000EE66EE66A000EE66EE66A0DDFE55279
:1030D000E552E552E552BAC0E9FFBBC0EAFFEE5245
:1030E000020EDBCFEFFFBAC0E9FFBBC0EAFFEF5033
:1030F000400A400B80090809E66EBAC0E9FFBBC070
:10310000EAFFE552E750EF6E020EDBCF14F0030E3C
:10311000DBCF15F0166A14500001BC2715500001D2
:10312000BD2316500001BE23020EDBCF06F0030EB6
:10313000DBCF07F006500001BF5F07500001C05B06
:10314000040EE15C02E2E16AE552E16EE552E7CF8E
:04315000D9FF120091
:0C315400E6EC1DF0FB0EDBCFF3FFDB060A
:10316000F35000090AE034EC1EF0FA0E9FEC1EF05A
:10317000F3E1151CF1E1010E01D0000E15EF1EF078
:10318000E6EC1DF03B0EE12402E3E168E652E16E5D
:10319000010EDB6A020EDB6AF90EDBCFF6FFFA0ED8
:1031A000DBCFF7FFFB0EDBCFF8FF0800F550DF6E3B
:1031B000DF5002E139EF1DF0250EDF5C02E02CEF5D
:1031C0001DF0030EDB6A040EDB6A050EDB6A060ED9
:1031D000DB6A070EDB6A4EEC1DF02D0EDF5C0CE0A7
:1031E0002B0EDF5C09E0200EDF5C06E0230EDF5CC7
:1031F00003E0300EDF5C1AE1DF50300A14E0130AFE
:103200000FE0030A0AE00B0A05E0060AE4E1030EF8
:10321000DB80E1D7030EDB82DED7030EDB84DBD756
:10322000030EDB86D8D7030EDB88D5D72A0EDF5CEA
:103230001BE14AEC1DF098EC1DF010E0030EDB8062
:1032400006680768130EDBCF0BF0140EDBCF0CF013
:1032500059EC26F0040E04C0DBFF03D0130E81EC02
:103260001DF04EEC1DF00BD0090EDB6AEFEC1DF0EB
:1032700003E063EC1EF0FAD7090E81EC1DF0030E9B
:10328000DBB0DB982E0EDF5C1BE14EEC1DF02A0E4E
:10329000DF5C0BE14AEC1DF098EC1DF003E1130E2E
:1032A000D3EC1DF04EEC1DF00BD0090EDB6AEFECF9
:1032B0001DF003E063EC1EF0FAD7090ED3EC1DF00D
:1032C000680EDF5C07E14EEC1DF0680EDF5C1DE16F
:1032D000030E18D0740EDF5C17E07A0EDF5C14E08A
:1032E000480EDF5C06E0540EDF5C03E05A0EDF5C44
:1032F00002E1020E07D06C0EDF5C03E06A0EDF5CB9
:1033000004E1010E26EC1EF0C9DBDF506E0A01E17C
:103310007FD31E0A01E192D1200A01E18FD13F0A39
:1033200001E149D11A0A01E146D10D0A01E143D177
:10333000200A01E140D13A0A01E13DD1200A01E130
:103340003AD1260A01E135D10D0A01E132D11A0A3A
:1033500001E1D9D0200A4AE0300A1FE0460A0EE017
:10336000250A01E083D3D950F90FE96EFF0EDA2068
:10337000EA6E010EEE5E000EEE5AEE5A34EC1EF0CE
:10338000250EE66E95DB03E1151C01E169D330ECF7
:103390001EF001E26BD3DB2A69D3080EDB6A040E50
:1033A000DB50010806E2040EDB04F8EC1DF0DB50F4
:1033B0008BDB080EDB5009E0030EDB50010B05E14F
:1033C00072DB01E04DD3080EDB6A64DBEFCFDFFF79
:1033D000A8EC1EF003E1151C01E142D330EC1EF015
:1033E00001E3DB2A60DB01E141D33AD3070EDB5076
:1033F00002080FE174EC1EF0030E3BEC1EF00E0E03
:10340000EECFDBFF0F0EEECFDBFF100EEECFDBFFBC
:1034100020D0F70EDBCF17F0F80EDBCF18F0020E3E
:10342000175E000E185AF70E17C0DBFFF80E18C013
:10343000DBFF17C0E9FF18C0EAFF2BEC1EF0166A8D
:103440000E0E14C0DBFF0F0E15C0DBFF100E16C0F2
:10345000DBFF0E0EDBCFE6FF0F0EDBCFE6FF100E1D
:10346000DBCFE6FF83EC24F0E552E552E552130E84
:1034700005C0DBFF140E06C0DBFF060EDB5005E0C7
:10348000130E6FEC1EF001E26ADB93EC1EF002E219
:10349000130E37DB56EC1EF006E0040E6FEC1EF048
:1034A00002E2050E2EDB030EDBB005D0FCDA01E0F4
:1034B000D7D2080EDB6A090EDB6A0E0EDBCFF6FFF1
:1034C0000F0EDBCFF7FF100EDBCFF8FF0800F55033
:1034D000DF6EDF5014E099EC1EF011E2A8EC1EF054
:1034E00003E1151C01E1BCD2BBDB01E3DB2A090EC1
:1034F000DB2AD9500E0FE96E000ECBDBE7D7D3DA0B
:1035000001E1B4D2ADD2C6DA110EEECFDBFF120E5E
:10351000EDCFDBFF110EDBCFE6FF120EDBCFE6FFB8
:1035200075EC24F0E552E552130EF3CFDBFF140ED9
:10353000F4CFDBFF060EDB5004E0130ED0DB01E21C
:103540000EDB93EC1EF002E2130EDBDAAFDB05E0DC
:10355000040EC5DB02E2050ED4DA030EDBB005D0A3
:10356000A2DA01E07DD2080EDB6A090EDB6A110ED9
:10357000DBCFE9FF120EDBCFEAFFEFCFDFFFDF503B
:1035800014E0D7DB12E2E4DB03E1151C01E168D2B1
:1035900067DB01E3DB2A090EDB2A110EDB2ADBCF16
:1035A000E9FF120EE8E3DB2AE6D77DDA01E15ED21D
:1035B00057D2030EDB8E070EDB0410E195DB040E01
:1035C0005ADB0A0EEECFDBFF0B0EEECFDBFF0C0E4D
:1035D000EECFDBFF0D0EEECFDBFF6CD0070EDB5026
:1035E00003082CE1030EDBAE0DD0B2DA020E76DA60
:1035F000EFCF14F0156A166A176A14AE39D0156841
:10360000166835D0F70EDBCF15F0F80EDBCF16F0CD
:10361000020E155E000E165AF70E15C0DBFFF80EEF
:1036200016C0DBFF15C0E9FF16C0EAFFEFCF14F0AC
:103630000A0E14C0DBFF0B0EDB6A38D0070EDB501E
:10364000020809E1030EDBAE04D059DB16AE10D040
:103650000ED055DB0DD0030EDBAE12D079DA020EA0
:103660003DDAF9DA166A176A15AE02D016681768DD
:10367000E2DA0C0E16C0DBFF0D0E17C0DBFF1AD00E
:10368000F70EDBCF16F0F80EDBCF17F0020E165E4A
:10369000000E175AF70E16C0DBFFF80E17C0DBFF3F
:1036A00016C0E9FF17C0EAFFD6DAC5DA0C0EDB6AEE
:1036B0000D0EDB6A060EDB5005E1010EF36E050E02
:1036C000F3CFDBFF150EDB6A160EDB6AD950370F1E
:1036D000146E000EDA20156E390E14C0DBFF3A0EA0
:1036E00015C0DBFF380EDB6A080EDB6A0A0EAEDAA5
:1036F000DF50780A12E0200A10E0280A0CE0200AC5
:103700000AE03F0A06E00D0A02E0200A08E1020E84
:1037100005D0080E03D0080EDF26100E97DA030E30
:10372000DBBE02D0DB92DB94DB50800B24E08ADA34
:10373000D890030EEB50000A08E6000EEE5C000E77
:10374000EE58000EEE58000EEE5815E213DA096836
:103750000A680B680C6821EC26F00A0E00C0DBFF3B
:103760000B0E01C0DBFF0C0E02C0DBFF0D0E03C011
:10377000DBFF2D0E08D0030EDBA202D02B0E03D0F0
:10378000DBA408D0200EF36E170EF3CFDBFF150E6F
:10379000DB2A02D0170EDB6A050EDB5003E1B7D936
:1037A00001E189D0D00E146E4D0E156E000E166E0E
:1037B000070EDBCF17F0186A196A1A6A17C009F0EA
:1037C00018C00AF019C00BF01AC00CF0D3D986EC5F
:1037D00026F014500024F36E15500120F46E16509C
:1037E0000220F86EF4CFF7FFF3CFF6FF0800090EC2
:1037F000F5CFDBFF580EDF5C0FE1610EF36E090EB3
:103800007BD90AE3200E146E090EDBCFE7FF1450BC
:10381000E75E090EE7CFDBFF070EDBCF14F0156A7A
:10382000166A176A0FDA14C009F015C00AF016C03C
:103830000BF017C00CF0EECF04F0EECF05F0EECF9A
:1038400006F0EFCF07F086EC26F007C0EDFF06C0CC
:10385000EDFF05C0EDFF04C0EFFF390EDBCFE9FF40
:10386000DB063A0EDBCFEAFF01E2DB06090EDBCF17
:10387000EFFF150EDB2A4BD995E1030EDBA61DD019
:103880006F0EDF5C06E1C1D918E3150EDB285BDAA9
:1038900014D0780EDF5C09E0580EDF5C06E0620EA3
:1038A000DF5C03E0420EDF5C08E1020EF36E160EF1
:1038B000F3CFDBFF02D0150EDB6A030EDB50100BDB
:1038C0000EE0040EDBCF14F0050EDB50D88014544C
:1038D00006E2060EDB5003E1040EDB5034DA95D924
:1038E0000AE2050EDBCFE7FF150EDB50E75E050EA3
:1038F000E7CFDBFF02D0050EDB6A040EDBCF14F04E
:10390000160E45D9D880145414E2160EDBCFE6FF0C
:10391000150EDBCFE6FF040EDBCFE6FF050EDB5016
:10392000E552E75CE552D880E754E552D880E75489
:103930005FD9030EDB50010B0BE1080EDB5008E0F2
:10394000B2D801E08DD0080EDB50BED8080EDB6A7D
:10395000170EDB5007E088D9170EF1D903E1151CCB
:1039600001E17ED0160EDB5016E07ED9300EE66EF9
:103970009FD802E1151C74E077D9DFCFE6FFDFECBA
:1039800025F0E552E552E552F4CF15F00001F31CA5
:1039900002E1151C65E0050EDBCF14F0160EDB50BE
:1039A000D880145409E2050EDBCFE7FF160EDB507A
:1039B000E75E050EE7CFDBFF300EE66E050ECBD9D6
:1039C0004FE1390EDB2ADBCFE9FF3A0E01E3DB2AB8
:1039D000DBCFEAFF090EEFCFDBFFDB500EE044D96F
:1039E000090EADD902E1151C3BE0390EDB2ADBCF15
:1039F000E9FF3A0EEDE3DB2AEBD755D831E1160E9D
:103A0000DBCFE6FF080EC3D8E552E7245DD82ED001
:103A1000070EDB50030A1CE0010A14E0030A07E06A
:103A20007BD9DBCFEEFF020EDBCFEDFF1FD0F5D849
:103A3000196A17AE02D0186819682CD8BCD819C0FA
:103A4000EEFF14D0EAD817BE186824D8B4D80ED028
:103A500063D9DBCFEFFF0AD07BD905E1151C03E169
:103A6000F368F46810D0FCD801E3DB2A79D9D5EFEC
:103A700018F0010EDBCF14F0020EDBCF15F014C0EE
:103A8000F3FF15C0F4FF3B0EE15C02E2E16AE55290
:103A9000E16ECBD029D9020E3BEF1EF061D90800B0
:103AA000F550DF6E1200200EE66E080EABEF1EF032
:103AB000DFEC25F0E552E552E552F3CF14F0F4CFF8
:103AC00015F00001F31C1200146E156AD950010F95
:103AD0004DD91450EE261550ED221200185E000E3E
:103AE000195AF70E18C0DBFFF80E19C0DBFF18C01B
:103AF000E9FF19C0EAFF1200DBCFF4FFF350F45CDA
:103B00001200DB50E76E040EE7CFDBFF12000A0E57
:103B1000DBCF14F00B0EDBCF15F00C0EDBCF16F065
:103B20000D0EDBCF17F014501510161017101200E1
:103B3000130EEECFDBFF140EEDCFDBFF130EDBCF4A
:103B400014F0140EDBCF15F00001800E15141200D6
:103B5000F70EDBCF18F0F80EDBCF19F01200050ED0
:103B6000DB50E66ED950130F01D9E552E750EE6EE7
:103B7000ED6A12000A0EDBCF04F00B0EDBCF05F06E
:103B80000C0EDBCF06F00D0EDBCF07F01200DBCF03
:103B9000E6FF150EDBCFE6FF050EDB50E552E7240E
:103BA000E552E7241200DB50CED8010EF36E060E6C
:103BB000F3CFDBFF1200EE50EFCFEAFFE96E16C045
:103BC000EEFF17C0EEFF18C0EEFF1200D9CFE6FFE0
:103BD000DACFE6FFE1CFD9FFE2CFDAFF1200DFCF85
:103BE000E6FFE66AAAEC26F0E552E552F350120031
:103BF000E76E080EE7CFDBFF1200EECF14F0EECF3A
:103C000015F0EFCF16F0176A1200050EDBCF14F097
:103C1000150EDB50D88014541200010EDBCF16F0C5
:103C2000020EDBCF17F0186A1200E552E5CFDAFF7B
:103C3000E7CFD9FF12000A0E14C0DBFF0B0E15C030
:103C4000DBFF1200D9500A0FB6EF1EF0F36E070E1D
:103C5000F3CFDBFF1200EECF14F0EFCF15F0120020
:103C6000010EDB2A020E1200FC0EDBCFE6FFFD0E7A
:103C7000DBCFE6FF1200145E000E155AF70E14C0DB
:103C8000DBFFF80E15C0DBFF14C0E9FF15C0EAFF2B
:103C90001200DA20EA6EEF2AEECFF6FF000EEF22D6
:103CA000EECFF7FFEF22EECFF8FF1200040EDBCFCE
:103CB000E6FF130EDB50E552E75C9ADFDB5004DFD2
:103CC000060EDB501200090EDB500A0DF350DF2404
:103CD000D00FE76E090EE7CFDBFF4EEF1DF0DB5094
:103CE000F36E050E7CEF1DF0F70EDBCF14F0F80E2F
:103CF000DBCF15F01200DFCFE6FF58EF1DF028DF15
:103D0000030EECDEFDEF1DF0AAEC18F0E552E552D3
:103D1000E552E55200091200BDDEEE50EFCFEAFF9A
:103D2000E96E010E1200130EDB50F36E040E7CEFF1
:103D30001DF0040EDB50F36E090E7CEF1DF0DBCF9F
:103D4000E6FF58EF1DF0E76E050EE7CFDBFF120030
:103D50008BDF7BEF1EF0DBCFE6FF86DF84EF1EF00C
:103D6000D950F90FE96EFF0E49EF1EF0E96E000E13
:063D7000DA20EA6E1200E9
:0A3D76000001C26BC20EC36F010E04
:103D8000C46FC56B0001C66B0001C76B0001080E54
:103D9000C86F0001C9910001C993C00EE66E3E0EC6
:103DA000E66E58EC17F0E552E5521200000EE66E92
:103DB000E66A010EE66EE66A74EC17F0E552E5522B
:103DC000E552E552000EE66EE66A020EE66EE66A1F
:103DD00074EC17F0E552E552E552E552000EE66E3E
:103DE000E66A020EE66EE66A92EC17F0E552E552DC
:103DF000E552E5521A0E716E1E0E726E04010D6BC5
:103E00000401800E0E6F040E0F6F0401480E0C6F3C
:103E1000C00EE66E3E0EE66E58EC17F0E552E55227
:103E20000001D86B0001100ED36F040ED46F000197
:103E3000140ED56F040ED66F0001CD690001800EFF
:103E4000CF6F050ED06F0001CB6BD5C0E9FFD6C098
:103E5000EAFF020EE926000EEA22800EEE6E050E43
:103E6000ED6ED5C0E9FFD6C0EAFFEE52EF6AD5C0CD
:103E7000E9FFD6C0EAFF480EEF6E0001CC6B0001EF
:103E8000CE690001000ED16F060ED26FD3C0E9FFDC
:103E9000D4C0EAFFEE52400EEF6ED3C0E9FFD4C0AB
:103EA000EAFF020EE926000EEA22000EEE6E060E72
:103EB000ED6ED3C0E9FFD4C0EAFF880EEF6E1200AA
:103EC000D9CFE6FFE1CFD9FF040EE126B8C0E9FF64
:103ED000B9C0EAFF020EE926000EEA22EECFDEFFAD
:103EE000EDCFDDFFDECFE9FFDDCFEAFFEF50630B63
:103EF000210A01E0BBD0DECFE9FFDDCFEAFF010EF2
:103F0000E926000EEA22EF50230A01E1ACD0010AB3
:103F100001E185D0030A2EE0010A1EE0220A19E021
:103F2000010A17E0070A15E0050A0BE0010A01E0A3
:103F30009AD0000EE66EE66AB4EC17F0E552E55250
:103F400094D0000EE66EE66AB4EC17F0E552E55246
:103F50008CD0D4EC17F089D09E0EE66E400EE66E43
:103F6000000EE66EE66A92EC17F0E552E552E55275
:103F7000E5527BD0DECFE9FFDDCFEAFF060EE92672
:103F8000000EEA22020EEECFDBFF030EEDCFDBFFC9
:103F9000020EDBCF14F0030EDBCF15F0070ED88036
:103FA0001454000E155407E2070EF36E020EF3CF01
:103FB000DBFF030EDB6A020EDBCFE6FF030EDBCF77
:103FC000E6FFC20EE66E000EE66EBAC0E9FFBBC0A9
:103FD000EAFF020EE926000EEA22EECFE6FFEFCF5F
:103FE000E6FF4AEC24F0146E060EE15E1450020E59
:103FF000DBCFE6FF030EDBCFE6FFB4EC17F0E552B4
:10400000E552840EE66E400EE66E000EE66EE66A3F
:1040100074EC17F0E552E552E552E55226D0DECFBA
:10402000E9FFDDCFEAFF020EE926000EEA22EECF1D
:10403000C9F0EDCFCAF0380EE66E420EE66E000E05
:10404000E66EE66A74EC17F0E552E552E552E55289
:10405000000EE66EE66AB4EC17F0E552E552000198
:10406000010EE86F02D0D4EC17F002D0D4EC17F0B8
:10407000040EE15C02E2E16AE552E16EE552E7CF4F
:10408000D9FF1200000EE66EE66A000EE66EE66AE2
:1040900074EC17F0E552E552E552E5521200D9CF23
:1040A000E6FFE1CFD9FF080EE126070EE66EE66ACD
:1040B000B8C0E9FFB9C0EAFF020EE926000EEA2205
:1040C000EECFE6FFEFCFE6FFC20EE66E000EE66E25
:1040D0004AEC24F0146E060EE15E1450146A1B0EB6
:1040E000156EB70E166E176A14C004F015C005F0F1
:1040F00016C006F017C007F0C2C009F0C3C00AF02E
:10410000C4C00BF0C5C00CF086EC26F004C0DEFF86
:1041100005C0DEFF06C0DEFF07C0DDFFDD52DD5259
:10412000C2C009F0C3C00AF0C4C00BF0C5C00CF097
:10413000046A1B0E056EB70E066E076A86EC26F043
:10414000040E00C0DBFF050E01C0DBFF060E02C03F
:10415000DBFF070E03C0DBFF040EDBCF14F0050E00
:10416000DBCF15F0060EDBCF16F0070EDBCF17F016
:10417000010E1F0B07E0D890143615361636173689
:10418000E806F9E10001C251145C0001C351155861
:104190000001C45116580001C551175809E2D9CF82
:1041A000E9FFDACFEAFFEE06000EEE5AEE5AEE5ABB
:1041B000000EE66EE66A000EE66EE66A92EC17F016
:1041C000E552E552E552E5521E0EE66E420EE66EEF
:1041D000000EE66EE66A74EC17F0E552E552E55221
:1041E000E552000EE66EE66AB4EC17F0E552E552D1
:1041F000B8C0E9FFB9C0EAFFEE52080EEF6EB8C0D2
:10420000E9FFB9C0EAFF880EEF6E080EE15C02E23A
:10421000E16AE552E16EE552E7CFD9FF1200000EE8
:10422000E66EE66A000EE66EE66A74EC17F0E5529A
:10423000E552E552E5521200000EE66EE66A000E07
:10424000E66EE66A74EC17F0E552E552E552E55287
:104250001200D3C0E9FFD4C0EAFFEF50800B01E0A9
:10426000F8D71200D5C0E9FFD6C0EAFFEF50800BA7
:1042700001E0F8D71200D3C0E9FFD4C0EAFFEF5045
:10428000800B02E0000E01D0010E00D01200D5C05C
:10429000E9FFD6C0EAFFEF50800B02E0000E01D02C
:1042A000010E00D012000001D76BD3DF0001CEA1B8
:1042B00012D00001000ED16F060ED26FD3C0E9FFFD
:1042C000D4C0EAFF020EE926000EEA22400EEE6E8E
:1042D000060EED6E11D00001400ED16F060ED26FAA
:1042E000D3C0E9FFD4C0EAFF020EE926000EEA229D
:1042F000000EEE6E060EED6E0001CE1FD3C0E9FF7C
:10430000D4C0EAFFEE52EFCFCCF0D3C0E9FFD4C067
:10431000EAFFEE52400EEF6ED3C0E9FFD4C0EAFFD1
:10432000EF50400A400B80090809E66ED3C0E9FF50
:10433000D4C0EAFFE552E750EF6E0001CC5100D047
:104340001200D9CFE6FFE1CFD9FFD5C0E9FFD6C033
:10435000EAFFEF50800B01E0F8D70001CD5112E0E9
:10436000D5C0E9FFD6C0EAFF020EE926000EEA2218
:10437000800EEE6E050EED6E0001C00ECF6F050EC5
:10438000D06F11D0D5C0E9FFD6C0EAFF020EE926F2
:10439000000EEA22C00EEE6E050EED6E0001800EDC
:1043A000CF6F050ED06FD5C0E9FFD6C0EAFFEE5241
:1043B000FE0EDBCFEFFFD5C0E9FFD6C0EAFFEF501E
:1043C000400A400B80090809E66ED5C0E9FFD6C057
:1043D000EAFFE552E750EF6E0001CD1F000E00D05E
:1043E000E552E7CFD9FF1200E66AABDFE5521200D3
:1043F0000001CB51000816E24ADF000901E1FCD7B9
:10440000CBC0E6FF9EDFE552400E0001CB5D04E12C
:104410000001010EEA6F02D00001EA6B0001CB6BD4
:104420000001E96B1200040E0001E95D28E30001C0
:10443000CB51000819E20001EB5115E128DF00091A
:1044400012E0CBC0E6FF7DDFE552400E0001CB5D00
:1044500004E10001010EEA6F02D00001EA6B0001E5
:10446000CB6B0001E96B0AD00001EA5107E0E66A74
:1044700068DFE5520001EA6B0001E96B02D0000140
:10448000E92B1200D9CFE6FFE1CFD9FF0001010EE1
:10449000EB6FFE0EDB50CFC0E9FFD0C0EAFFEF6E3E
:1044A0000001CF2B000ED0230001CB2B0001EA6BC3
:1044B000400E0001CB5D09E1CBC0E6FF42DFE552D3
:1044C0000001CB6B0001010EEA6F0001EB6B0001F4
:1044D000E96BE552E7CFD9FF1200D9CFE6FFE1CF74
:1044E000D9FFE652DF6A0001CC5106E1DCDE0001B3
:1044F000CC6F0001CC51FAE0D1C0E9FFD2C0EAFF95
:10450000EFCFDFFF0001D12B000ED2230001CC073B
:10451000DF5000D0E552E552E7CFD9FF1200D9CFE6
:10452000E6FFE1CFD9FF0001CC5117E0D1C0E9FF90
:10453000D2C0EAFFEF50E66EFD0EDBCFE9FFFE0EC4
:10454000DBCFEAFFE552E750EF6E0001D12B000E02
:10455000D2230001CC07010E22D08DDE00091DE020
:10456000A2DE0001CC6F0001CC5117E0D1C0E9FF01
:10457000D2C0EAFFEF50E66EFD0EDBCFE9FFFE0E84
:10458000DBCFEAFFE552E750EF6E0001D12B000EC2
:10459000D2230001CC07010E02D0000E00D0E5525C
:1045A000E7CFD9FF1200D9CFE6FFE1CFD9FF000155
:1045B000CC5111E0D1C0E9FFD2C0EAFFEF50E66E66
:1045C000FD0EDBCFE9FFFE0EDBCFEAFFE552E75041
:1045D000EF6E010E1CD04FDE000917E064DE000113
:1045E000CC6F0001CC5111E0D1C0E9FFD2C0EAFF8D
:1045F000EF50E66EFD0EDBCFE9FFFE0EDBCFEAFFEC
:10460000E552E750EF6E010E02D0000E00D0E552E9
:06461000E7CFD9FF120004
:0A461600D9CFE6FFE1CFD9FFFE0E79
:10462000DBCFE6FF42EC22F0E552E552E7CFD9FFBF
:1046300012000101010EFE6F13EC22F01200D9CF1F
:10464000E6FFE1CFD9FF050EE1260101FB69FC6918
:10465000BBEC1EF070D8040EE66EE66AA50EE66EA0
:10466000490EE66E000EE66E620EE66E490EE66ECE
:10467000000EE66E500EE66E490EE66E000EE66E19
:10468000B3EC0FF0146E0B0EE15E145001EC10F061
:104690004B0E6912D08EA29AF28CF28CF28EA08A06
:1046A000200E0001B55DFCE3320EE66E460EE66EAE
:1046B0004AEC17F0E552E55273EC04F00101415168
:1046C00026E1D9CFE6FFDACFE6FF8FEC22F0E55204
:1046D000E55200091CE00A0EDF5C05E10101010E54
:1046E000416F15D013D001014051146E156A3F0E71
:1046F000145C000E15580AE201014051402BEA6A91
:10470000000FE96E010EEA22DFCFEFFFDAD70101D9
:10471000FE0504E1A0EC0FF00101FE6BCDEC0EF004
:10472000CDD7050EE15C02E2E16AE552E16EE552A9
:10473000E7CFD9FF12000F0EC112B56A8B6A9468D9
:1047400012001200D8CFE4FFE0CFE4FFE46EDACF2E
:10475000E4FFE2CFDAFFE9CFE4FFEACFE4FFE6527D
:10476000BBEC10F0A19AE552E5CFEAFFE5CFE9FFF7
:10477000E5CFDAFFE550E5CFE0FFE5CFD8FF100049
:10478000DACFE4FFE2CFDAFFE9CFE4FFEACFE4FFDC
:10479000E65269EC0DF0E552E5CFEAFFE5CFE9FF1F
:0647A000E5CFDAFF110075
:0A47A600456E74657220626F6F7437
:1047B0006C6F61646572206D6F64652E0A007349C9
:1047C00044256325630A007356205573624672615F
:1047D00069736520322E312E33202844505F5553A3
:1047E000422920416E746F696E6520526F75737334
:1047F00065617520323031330A0051756974206269
:104800006F6F746C6F61646572206D6F64652E0AE2
:104810000025643A2564200046726169736553740B
:10482000617465203A202564203B204672616973DB
:10483000655374617475733A2025640A000A732005
:10484000667261697365206C6F67203A0A00732095
:1048500066726169736520696E69742E2E2E0A0076
:10486000464552522021210A004F45525220212113
:104870000A004552524F523A2077726974696E6746
:1048800020746F20454550524F4D206661696C651C
:0448900064210A0095
:0C489400D9CFE6FFDACFE6FFFA0EE3CF43
:1048A000D9FFFB0EE3CFDAFFFC0EE3CFE9FFFD0EED
:1048B000E3CFEAFFE9CFF3FFEACFF4FFF80EE350CE
:1048C00003E1F90EE35008E0F80EE30602E2F90E08
:1048D000E306DECFEEFFF2D7FF0EE3CFDAFFE552BD
:1048E000FF0EE3CFD9FFE5521200FE0EE3CFE9FF42
:1048F000FF0EE3CFEAFFF36AF46AEE5203E0F34AF5
:10490000F42AFBD71200FF0EE3CFF8FFE552FF0EAB
:10491000E3CFF7FFE552FF0EE3CFF6FFE552E66A7D
:10492000E66AE66A0900F55209E0FD0EE32A05E1B0
:10493000FE0EE32A02E1FF0EE32AF4D7FD0EE3CFD9
:1049400005F0FE0EE3CF06F0FF0EE3CF07F01200F6
:104950001201000202000008D8040A00020001024D
:104960000301090243000201008064090400000100
:10497000020201000524001001042402020524069D
:1049800000010524010101070581030A0040090413
:104990000100020A000000070502024000000705AE
:1049A0008202400000040309042A03440061006EEF
:1049B000006700650072006F0075007300200050F2
:1049C0000072006F0074006F007400790070006561
:1049D00000730019034600720061006900730065EE
:1049E000004D006100730074006500721203300016
:0E49F000300030003000300030003000310068
:0249FE002A0E7F
:104A0000F66E080EF76E000EF86E00010900F55004
:104A1000DE6F0900F550DF6F03E1DE6701D03DD0A6
:104A20000900F550D96F0900F550DA6F0900F5500B
:104A3000DB6F09000900F550E96E0900F550EA6ED8
:104A4000090009000900F550DC6F0900F550DD6F21
:104A500009000900F6CFE0F0F7CFE1F0F8CFE2F07F
:104A6000D9C0F6FFDAC0F7FFDBC0F8FF0001DC5366
:104A700002E1DD5307E00900F550EE6EDC07F8E2D5
:104A8000DD07F9D7E0C0F6FFE1C0F7FFE2C0F8FFAD
:0C4A90000001DE07000EDF5BBFD7120044
:044A9C00D9CFE6FF89
:104AA000DACFE6FFE1CFD9FFE2CFDAFFE652E652F6
:104AB000E652E652D950FB0F146EFF0EDA20156E47
:104AC00014C0DEFFDD6EDECFE6FFDDCFE6FFFB0EBE
:104AD000DBCFE6FFFC0EDBCFE6FFFD0EDBCFE6FF14
:104AE000FBC1E6FFFCC1E6FFC0EC18F0146E070E38
:104AF000E15C02E2E16AE552E16E1450020EF3CF8E
:104B0000DBFF030EF4CFDBFF020EDBCF14F0030E4E
:104B1000DBCF15F014C0F3FF15C0F4FF040EE15C09
:104B200002E2E16AE552E16EE552E5CFDAFFE7CF56
:044B3000D9FF120097
:0C4B3400D9CFE6FFDACFE6FFE1CFD9FFD2
:104B4000E2CFDAFFAC6AAB6AFD0EDBB0AC88DBA269
:104B500002D0AC8CAB8CDBB4AC8EDBA602D0AB88C5
:104B600001D0AB8ADBB8AC849E98DBBAAB86DBACF9
:104B700002D09D8A01D09D9A9E9ADBAE02D09D887C
:104B800001D09D98FB0EDB50AF6EFB0EFC0EDBCF11
:104B900015F015C014F0156A1450B06EAC8AAB8EC7
:104BA000949C948EAC50100B04E0AC50800B01E14F
:0E4BB000948CE552E5CFDAFFE7CFD9FF120073
:024BBE00D9CF4D
:104BC000E6FFDACFE6FFE1CFD9FFE2CFDAFFFB0E57
:104BD000DBCF14F0FC0EDBCF15F00001800E1514B6
:104BE0001AE1FB0EDBCFE9FFFC0EDBCFEAFFEECFD5
:104BF000F3FFEDCFF4FFEE2A000EEF22F3CFE9FF33
:104C0000F4CFEAFFFD0EDBCFEFFFEF50156AF36E36
:104C100015C0F4FF10D0FB0EDB50FE0806E1FD0EC0
:104C2000DBCFE6FFDAEC26F005D0FD0EDBCFE6FFAA
:104C30000BEC23F0E552E552E5CFDAFFE7CFD9FFE1
:024C4000120060
:0E4C420004500902F3CF00F0F4CF01F00A0293
:104C5000F3500126000EF420026E04500B02F350B4
:104C60000226000EF420036E04500C02F3500326BB
:104C700005500902F3500126F4500222000E0322CF
:104C800005500A02F3500226F450032205500B028D
:104C9000F350032606500902F3500226F450032273
:104CA00006500A02F350032607500902F350032668
:024CB0001200F0
:0E4CB20007C013F006C012F006500B02F4CF3C
:104CC00005F0F3CF04F007500C02F4CF07F0F3CF58
:104CD00006F00B02F3500526F4500622E86A07227C
:104CE00012500C02F3500526F4500622E86A0722FF
:104CF0000CAE7FEF26F01250065E1350075A13AE2B
:0C4D0000000C0B50065E0C50075A000C13
:044D0C00036A026ACA
:104D1000016A006A200EE76ED89004360536063622
:104D2000073600360136023603360950005C0A5059
:104D300001580B5002580C50035809E30950005E0B
:104D40000A50015A0B50025A0C50035A042AE72EFB
:044D5000E4D7120092
:0C4D5400F36AF46AFF0EE124E96EFF0E22
:104D6000E220EA6EED6607D02F0EEF6404D03A0E13
:084D7000EF6001D0F32A1200EC
:084D7800000EF36E00EE00F0E6
:104D8000080E01D81200EA6002D0EE6AFCD7F35098
:084D9000E9601200EE6AFCD795
:084D980013EE00F023EE00F021
:104DA000F86A0F9CFFEC24F0F1EC26F01FEC23F0E6
:044DB000FBD712001B
:0C4DB400FF0EE350ACBA04D0AF6AAB8E27
:104DC000AC8A949CACA2FED7AD6EF36EF46A12006E
:104DD0003031323334353637383961626364656671
:014DE00000D2
:014DE10000D1
:024DE2001200BD
:024DE400FEFFD0
:094DE6004E4F454D530000000042
:00000001FF
