:020000041000EA
:1080000000200420F7800010C3800010C5800010FD
:10801000C1800010C1800010C1800010C18000101C
:10802000C1800010C1800010C1800010C780001006
:10803000C1800010C1800010C9800010CB800010EA
:10804000CD800010CD800010CD800010CD800010BC
:10805000CD800010CD800010CD800010CD800010AC
:10806000CD800010CD800010CD800010CD8000109C
:10807000CD800010CD800010CD800010CD8000108C
:10808000CD800010CD800010CD800010CD8000107C
:10809000CD800010CD800010CD800010CD8000106C
:1080A000CD800010CD800010CD800010CD8000105C
:1080B000CD800010CD800010CD800010CD8000104C
:1080C00000BE00BE00BE00BE00BE00BEEFF30580D5
:1080D000103800BEF2EB887168E5001084E50010EE
:1080E0003481001090A31AE700201F49086006C8D9
:1080F00081F3088810471D48006800282FD10DA47F
:108100000ECC002902D000F012F8F9E71849194AFC
:10811000002000E001C19142FCD11749884717496E
:1081200088471749884700BEFDE701C901C29A4246
:10813000FBD3704784E50010C0000020A404002099
:1081400068E90010000004200000042068E9001025
:1081500000100420001004200000000070470948AF
:1081600003F092FA0047000008ED00E0000000D0A4
:10817000A804002004130020CD9E0010A9D20010F6
:10818000C19F00105756000006005250ABB3605319
:10819000F0E3001006005250861C030200E40010B9
:1081A000060052505422A29D08E4001005005250CF
:1081B000DE65F46868E90010F8B5C0460448054B70
:1081C00010B5834203D0044B002B00D0984710BD5C
:1081D000A4040020A4040020000000000648074971
:1081E000091A8B10C90FC91810B5491003D0044BD8
:1081F000002B00D0984710BDA4040020A404002048
:108200000000000010B5074C2378002B09D1FFF7C0
:10821000D5FF054B002B02D0044800E000BF01232E
:10822000237010BDD00500200000000018E10010F0
:10823000054B10B5002B03D00449054800E000BFF2
:10824000FFF7CCFF10BDC04600000000D4050020A1
:1082500018E1001010B5024805F048FE012010BDDD
:10826000F010002000B5192185B0084805F0E8FDA0
:1082700000F020FE064B074A029300230193064BB1
:108280000093002300F0E0FE05B000BDF0100020D8
:10829000D8100020881300005582001010B5037814
:1082A0000A2B02D00B2B11D010BD437880781B0213
:1082B000181803F01BFD00220D4B03F088FC03F09F
:1082C0005DFD011C0B4805F0F3FDEDE74378807878
:1082D0001B02181803F00AFD0022054B03F077FC7F
:1082E00003F04CFD011C034805F0E4FDDCE7C0464B
:1082F000E0FFEF40F010002010B50378452B00D0D0
:1083000010BD411C014804F07DFFF9E718E10010A1
:10831000094A830094464022634410B51C68C0009B
:108320006240C02414408022520113431C60034B5E
:108330009C466044416010BD04C0014000400140C3
:108340000A4B80009C4604236044002901D00C2382
:108350000821002A00D10B00026853400C221A4069
:1083600080235B01184302607047C04604C001408F
:108370000123D0228340120693629361094A83004D
:108380009446402263441968C0004A40C02111400D
:108390008022520113431960034B9C46052360441D
:1083A0004360704704C0014000400140024B186820
:1083B0008007C00F7047C04600C00640EFF3108032
:1083C00072B6034A1368002BFCD0BFF35F8F70476F
:1083D0002C0100D0BFF35F8F0022024B1A6080F3A4
:1083E000108870472C0100D0F8B5EFF3108772B6F3
:1083F0000E4E3368002BFCD0BFF35F8FCB08C41840
:108400000725A446C45C01230D40AB401800204062
:10841000234208D1624623431370BFF35F8F30605D
:1084200087F31088F8BD100001F0CEFD2C0100D0BC
:10843000F8B5CE4647468C4680B5EFF3108872B645
:10844000214D2C68002CFCD0BFF35F8F9A422CD8B2
:10845000D4080721055D0619012411408C402C42E7
:108460001FD007218946063909E0D408055D0619A1
:108470004C460F001440A7403C002F4211D001325F
:108480009342F2D201204042BFF35F8F00220E4B95
:108490001A6088F3108800280FDB0CBC90469946C0
:1084A000F8BD2C4310003470EEE7BFF35F8F00235C
:1084B0002B6088F31088012040426346002BECD0EB
:1084C000089801F081FDC0462C0100D070B5EFF393
:1084D000108672B60A4C2368002BFCD0BFF35F8F66
:1084E00007230122CD0819408A40435D9343435539
:1084F000BFF35F8F0023236086F3108870BDC046F2
:108500002C0100D00021044B044ABFF35F8F02C34B
:108510009342FAD17047C046000100D0800100D0DC
:10852000044A1078431CDBB2172B00D910231370B8
:108530007047C046B003002000B5054B83B0010072
:10854000009318221F230348FFF772FF03B000BDFA
:1085500020E100100407002001238340002904D0FB
:10856000034A1360034A13607047034A1360FBE732
:1085700080E200E000E100E080E100E0024B10302A
:108580009B688000C058704700ED00E070B50D009A
:10859000EFF3108672B60F4A1368002BFCD0BFF3BE
:1085A0005F8F0D4B10309B6884001B590B4A934220
:1085B00003D09D4201D001F01FFD074B9B681D5168
:1085C000BFF35F8FBFF35F8F0022024B1A6086F309
:1085D000108870BD240100D000ED00E0CD800010B7
:1085E000EFF3108172B60E4B1A68002AFCD0BFF36D
:1085F0005F8F0C4A1030926880008058BFF35F8F05
:1086000000221A6081F31088074B984206D02F236E
:10861000064A821A93429B41184070470020FCE7AB
:10862000240100D000ED00E0CD800010B403002054
:10863000F0B557464E464546DE46E0B5894683B01E
:1086400005001700EFF3108A72B65E4A1368002B1C
:10865000FCD0BFF35F8F00205B4B18569B46002871
:1086600000DA6CE05A464400584E2418A40033192E
:1086700098469B7910351370554BAA009B68019260
:108680009B589C469B1B2F2B28D801226146914367
:10869000CB79BB4208D86AE053009B189B00F318C3
:1086A000DD79BD4251D9190006228A56002AF3DA33
:1086B0000B1D9B46474E43465C46043B1B1B1B055C
:1086C000454C5B0D23438B80887141468A714A4635
:1086D000424B8E800B60CF718A601BE0404B9C4503
:1086E00042D142463F4B023413803F4B3619043B84
:1086F0009E1B3605384B760D1E433C4B56809380AF
:10870000FF23D771937143464A469A60012342463C
:108710001A43944661462E4B019A9B689950BFF3C9
:108720005F8FBFF35F8F0022264B1A608AF3108899
:1087300003B03CBC90469946A246AB46F0BD01F062
:108740005BFC5B46002018568CE70B1D9B468B8814
:1087500004345B051B155B4436199E1BE02336056C
:10876000760D1B021E43A6E701F046FCB9E745461D
:108770000B001F489B1B5B415843000D194B2B807E
:10878000A31C9C46B4446546174B0434043B5B1B56
:108790001B05114D5B0DAC462B43454636196B80CE
:1087A0000B1F9E1B6346A87148463605760D1E4377
:1087B0000A4BAE80EF71A8600B60434613439C46A2
:1087C000A8E7C046240100D0C8100020B403002050
:1087D00000ED00E001BD000000E0FFFF0148804720
:1087E000CD80001000A1FFFFE403002001BDFFFFCA
:1087F000AAAA0000F0B5DE4657464E464546E0B50B
:108800000C0083B0EFF3108972B6594A1368002B3D
:10881000FCD0BFF35F8F574B9A68030010339F0063
:10882000D559554A9046954232D0A54243D0534E31
:10883000AA1B2F2A2CD80122824092465146504A28
:1088400012681140019151464E4A1160BFF35F8F8B
:10885000EFF305829346002A33D101232A009A437D
:1088600093689C4208D178E04B005B189B00F3189A
:108870009968A1422AD01A00062151560029F3DA3C
:10888000019B002B19D052463F4B1A603C4B1A609B
:10889000384B9B68DD51BFF35F8FBFF35F8F0022C2
:1088A000334B1A6089F3108803B03CBC904699465C
:1088B000A246AB46F0BD1500EAE75246314B1A60BE
:1088C000E6E79342C9D001F097FBC6E70621595667
:1088D000002922DB4A005018800034188046A06826
:1088E0009860E079D871062020569871A0797F2889
:1088F00024D8A488F01A6405241544440019E024FF
:108900000005400D24022043988052181F4B92000E
:10891000B6181A781970B271B2E7594600290FD10A
:10892000FF3191711A49918018490A789A71194A50
:108930009B1B5B415A43120D0A70A1E71648E3E7FF
:10894000164A1749D21A083A5002400D014399803D
:10895000144952080A43DA8092E70621515613005F
:108960000029B7DA5A46002AEAD14546DCE7C04674
:10897000240100D000ED00E0CD800010B403002001
:1089800000E100E080E100E080E200E0C8100020AB
:1089900001BDFFFFAAAA000001BD0000EE030020F8
:1089A00000F0FFFF00F8FFFFF0B5EFF305810124B1
:1089B0000443EFF3108672B6214A1368002BFCD0F3
:1089C000BFF35F8F1F4B05001F4AED1A6D416A43CD
:1089D000120D1E4D8900AF6852B27F58A7421CD0BD
:1089E0000621595691421CD012215956914222D04B
:1089F0001E215956914220D02A21595603249142D2
:108A000010D0134B19781A708171BFF35F8F002259
:108A10000B4B1A6086F31088F0BDAB680D4C5C50B0
:108A2000EFE700246100091989005B18FF219971A3
:108A300009499980E5E70124F4E70224F2E7C046FA
:108A4000240100D0B4030020AAAA000000ED00E039
:108A5000C8100020CD80001001BDFFFF054B064A65
:108A60001360064A136053609360D36013615361CF
:108A7000936170478080808000E400E004E400E0BF
:108A800070B504000E001500FFF74AFD010020003C
:108A900000F006F8A680E580BFF35F8F70BDC0468A
:108AA000024B9C46614489000160704740000034DD
:108AB00010B50400FFF734FD01002000FFF7F0FFC0
:108AC000FF232371BFF35F8F10BDC04610B50400B4
:108AD000FFF726FD01002000FFF7E2FFFF23A38040
:108AE000BFF35F8F10BDC04610B504000120FFF733
:108AF00023FD034BC3189B002360BFF35F8F10BDA2
:108B00004000003483680B4810B5844661446244D9
:108B1000090112019A18591854684B6801209C42A7
:108B200001D802D00020C0B210BD12680B689A4272
:108B3000F9D8F7E7FFFFFF0F10B508000B690C002D
:108B40009847002802D02068616810BDE0600021CD
:108B50000020FAE70A4B1968EFF3108072B60A6832
:108B6000002AFCD0BFF35F8F1B68BFF35F8F00222A
:108B70001A6080F3108840BF002000217047C04673
:108B8000940E0020F8B5574645464E46DE46E0B501
:108B900099460CAB19780DAB1B78050090469A46A8
:108BA0000768002912D1BE7B002E45D074003B68B7
:108BB000A419033C1B195A783100BA73002A00D15A
:108BC000FA7300229A705A701A7003E00E004C007B
:108BD0006418033C2C4B00229C46AB6861449C46C5
:108BE0004346090161440B604B464B600A9B8B6016
:108BF0000B9BCB603B681B199A705A701A707B7B79
:108C00009B46002B2CD032005946B8687B689847A9
:108C10003A68002817D05B4658465B005B4414193D
:108C2000033BA070D118D35C002B00D063705B466F
:108C30000E707B73B34514D030003CBC904699460F
:108C4000A246AB46F8BD5B465B005B44033BD318D2
:108C50009E701119125D002A00D05A705B460B708D
:108C60007E7342464B46287D00F086FC041E06D0EB
:108C70005346002B03D13100286800F0C3FE0E9B41
:108C8000002BD9D01C70D7E7FFFFFF0FF0B5DE46F1
:108C900057464E4645460023E0B58BB00893674BD8
:108CA0008200D45800239B46099000F005FC6268BE
:108CB00006000F00EFF3108572B61368002BFCD08E
:108CC000BFF35F8F23689C465B7B9946002B00D1E6
:108CD00069E0A2685A4B90464B441B0198444346B6
:108CE0001A685B6810001900801BB941002900DC7C
:108CF00063E0099800F040FC00230022984600231E
:108D00000692079300239A466368BFF35F8F5A4623
:108D10001A6085F310885346002B08D10028C4D16F
:108D20000BB03CBC90469946A246AB46F0BD089BB2
:108D3000414618024B461843D047626806000F00B0
:108D4000EFF3108572B61368002BFCD0BFF35F8F72
:108D5000002F50DB33003B4302D02369002B61D14D
:108D60002368DA7B002A07D051008A1819688C46DC
:108D700049466244033A51709A7B002A01D14A461F
:108D80009A734A46DA734B46E168013BCA5C01328A
:108D9000CA545B4623616368BFF35F8F5A461A600B
:108DA00085F3108881E7002300229846002306926D
:108DB0000793002300209A46A6E7002902D1002845
:108DC00000D096E70021604600F07AFD43461A681D
:108DD0005B680692079343469B689A464346DB6866
:108DE0009846E3684B44013B1B7808931B020343FE
:108DF0002361002088E72369002BB1D0069A079BE6
:108E0000921BBB41002B15DB5946049101210391B4
:108E10004946029141460191514620000091FFF7D9
:108E2000B1FEB6E700F048FB32003B0012184B41A0
:108E3000002BE9DA0122034B5242E5E76C0C0020DB
:108E4000FFFFFF0FFFFFFF7F10B5144C6368002B7F
:108E500004D00A211248FFF723FE10BD2300114A57
:108E60001021206800F046FC032000F019FB0320CD
:108E700000F0ECFB03200C4900F038FBFFF750FB3F
:108E80000A4B9C4603232375D0231B061B686044B2
:108E90006375074B80006060DC60DAE7FC0300204C
:108EA000940E0020058B00108D8C001040000034C3
:108EB0006C0C002000487047FC030020F0B54E46C3
:108EC0004546DE465746E0B585B0019310AB1B78AA
:108ED00080460393002300269946009243465A6831
:108EE000EFF3108B72B61368002BFCD0BFF35F8FCB
:108EF00043461D68AC7B002C43D067002B683F19AC
:108F0000033FDB195A78AA73002A00D1EA7342465C
:108F10009E705E701E709268494B94460099019A4B
:108F2000E3181B01634419605A600E9A9A600F9A05
:108F3000DA602B68DB199E705E701E706B7B9A4640
:108F4000002B68D022001900A8686B6898472A682F
:108F5000002853D0534650465B005344D719033B77
:108F6000B870D118D35C002B00D07B7053460C70C6
:108F70006B73544550D04346DB681B19013B18788E
:108F800000E0002043465B68BFF35F8F1E608BF3F9
:108F90001088002C51D04B46002B08D100022043F2
:108FA00005B03CBC90469946A246AB46F0BD039B3B
:108FB000002B40D00E9B00200F999847030004001F
:108FC0000D000B4337D000290ADA009A019B121BCF
:108FD000AB4100920193002B0ADB039B99467DE78E
:108FE00000F06AFA24184D4100940195002DF4DA3E
:108FF0000123144C5B4200930194EEE753465B005F
:109000005344033BD3189C70D119D25D002A00D081
:109010005A7053460B706C734346187D009A019B3F
:1090200000F0AAFA81460028A5D04346210018681E
:1090300000F0E8FC9FE70020B2E701204042AFE7E4
:10904000FFFFFF0FFFFFFF7FF0B54E464546DE46B0
:1090500057461100E0B585B08046109E194300D1F7
:10906000D3E0D817070057403C0007005F400100DD
:109070003D00241A8D4141467360B1600F9B0E99EB
:1090800032603161736100F017FA00196941009094
:109090000191002900DAC8E00023B1469A4646460D
:1090A00002937368EFF3108B72B61A68002AFCD033
:1090B000BFF35F8F3568AC7B002C5FD067002B68F7
:1090C0003F19033F0394DB195A78AA73002A00D191
:1090D000EA7352469A705A701A70B268584B9446A6
:1090E0000099019AE3181B01634419605A60554ABC
:1090F0009A604A46DA6052462B68DB199A705A70B9
:109100001A706B7B9846002B00D170E0220019008A
:10911000A8686B6898472A6800285CD04346404698
:109120005B004344D719033BB870D118D35C002BC4
:1091300000D073E043460C706B73444558D0F3681D
:109140001B19013B1B787268BFF35F8F514611609A
:109150008BF31088002C63D0029A002A12D1039A54
:109160001B02134301224E4602920298F36005B09F
:109170003CBC90469946A246AB46F0BD0022002377
:109180000392E0E7484603699847071E02D14E461E
:109190000023EAE74B461C685D6823002B434AD056
:1091A000002D09DA009A019B121BAB41009201933A
:1091B000002B09DB029774E700F07EF924184D417B
:1091C00000940195002DF5DA01231F4C5B420093BA
:1091D0000194029765E743465B004344033BD31881
:1091E0009C70D119D25D002A14D143460B706C7368
:1091F000307D009A019B00F0BFF9029000289ED0BC
:109200002100306800F0FEFB99E7012400250122CF
:10921000002330E75A7043460B70E8E77B7089E71C
:1092200000234E460293013B9FE70123064C5B421D
:109230000093019430E74E460023029795E7C0461D
:10924000FFFFFF0F398B0010FFFFFF7FF0B5040019
:109250000D0006267642F717C64636196F4100B54F
:1092600084B08F4214D811D000F026F932003B00B0
:10927000121A8B41002B15DC002B3ED02000290058
:1092800000F024F904B004BC9046F0BD8642EBD94E
:109290000026002700F010F932003B00121A8B4123
:1092A000002BE9DD002302930193154B320000935C
:1092B00014483B00FFF702FE0028DFDB002398463E
:1092C000BC46114A114F7B6A9C4504D8B96A8E424C
:1092D000D4D99C45D2D11168EFF3108072B60B68D7
:1092E000002BFCD0BFF35F8F1368BFF35F8F414645
:1092F000196080F3108820BFE5E7002ABED0D1E7CF
:10930000558B0010FC030020940E00200040054007
:10931000F0B5EFF30583CE46474680B505000C0057
:1093200085B0002B12D02C4B0020596A8C4203D8F8
:109330009B6A0130AB4204D305B00CBC9046994601
:10934000F0BD611A481E8141C8B2F5E7234E029371
:109350000193234B0200009330000B00FFF7AEFD9A
:10936000031EE0DD20BF7168EFF3108772B60A6854
:10937000002AFCD0BFF35F8FDAB294463068427B9C
:1093800062451DD0FF221A40510089460168914470
:1093900088464946414403398978002913D0F16849
:1093A0001B0A88464244013A1278DBB29A420FD037
:1093B0007368BFF35F8F00221A6087F31088B2E7EB
:1093C000FF221A40EBE732699342F1D13161EFE7B6
:1093D000614600F017FBEBE700400540FC0300206E
:1093E000558B0010F0B5EFF30582D6464F46464642
:1093F0001000C0B51038EFF3108872B6214C236806
:10940000002BFCD0BFF35F8F0123190081401E4D5C
:109410001F006963AA461D4D29601D4D2E78AC467C
:109420003500C5402F402B4215D05346194D5F6A79
:1094300083005D59AF4218D3174A8E439B5862464A
:109440001670BFF35F8F0022226088F31088002B14
:1094500006D0984704E0BFF35F8F276088F3108839
:109460001CBC90469946A246F0BD0C4B92009C460F
:10947000624413681360BFF35F8F0023236088F397
:109480001088EDE7280100D0004005403C70054001
:10949000D31000209C0E0020F4050020D03F054092
:1094A00010B50100024A0348FEF79EFF10BDC046FA
:1094B00048E10010C5100020034B596A0A00986A61
:1094C000596A8A42FAD1704700400540064A536AF9
:1094D0009942FCD807D1044B02E05A6A914202D16A
:1094E0009A6A8242F9D370470040054070B5040083
:1094F0000D00EFF3108672B61A4A1368002BFCD0E9
:10950000BFF35F8F002D1BD02000FFF737F81649FF
:1095100081420AD02000FFF739F801212000FFF72F
:109520001BF80123A340114A1360114BA400E5501E
:10953000BFF35F8F00220B4B1A6086F3108870BD5B
:109540000B4BA200D5500122A2400A4920000B7803
:1095500093430B700449FFF74DF900212000FEF7FB
:10956000FBFFE5E7280100D0E593001038600540D7
:10957000F4050020D3100020F0B54F46D6464646ED
:10958000C0B507002C4C616A0D00A66A616AA94249
:10959000FAD18B4208D805D001201CBC90469946D0
:1095A000A246F0BDB242F7D9EFF3108972B6234854
:1095B00001680029FCD0BFF35F8F01252049BD4021
:1095C0008C4609781C4C0E002E438846F1B28A4620
:1095D000614650460870391D1A48890065630A5172
:1095E000B9000B50216A0020294219D0616A080095
:1095F000A66A616A8142FAD18B4219D801D1B2427E
:1096000016D8C24516D00C4B1F201D625D63012386
:109610000740BB400C4A1E381360634642461A702E
:10962000BFF35F8F0022054B1A6089F31088B4E7FF
:109630000020F5E70120F3E700400540280100D0B5
:10964000D31000209C0E002080E200E010B5EFF364
:10965000108472B60A490B68002BFCD0BFF35F8FF1
:1096600001238340074A0848136202789A43027034
:10967000BFF35F8F00230B6084F3108810BDC046DA
:10968000280100D000400540D310002070B505002F
:109690000E001400002924D0002A24D080686B68B2
:1096A0009847296800280ED063001B197200033BFD
:1096B0009219CB18033A9E7088188A5C002A14D13C
:1096C000047030000EE073009B196200033B121916
:1096D000CB18033A9C7088188A5C002A00D05A7014
:1096E0000670200070BD0800FCE75A70047030005E
:1096F000F8E7C04630B583600023CCB24373013332
:10970000047342608373C4730D000068012C06D992
:10971000421C0133DBB2137003329C42F9D1FF21AA
:1097200029404B005918002340180338437030BDBE
:10973000F8B5CE46474606000C0080B5002907D094
:109740004D0003686D18033D5A195778002F04D156
:1097500020000CBC90469946F8BD7900C919033920
:10976000884643445978894600215970517073687E
:109770003A002100806898473368002814D0424698
:109780009A18947059195B5D002B00D053700F70BC
:10979000270049463000FFF7CBFF390002003000B8
:1097A000FFF774FF0400D3E7424641465D19AF70EE
:1097B0009A185B5C002B00D06B701470E9E7C04610
:1097C000F0B557464546DE464E46E0B50D006B0007
:1097D00001685B19DF1E0400C85D83B00192CA19DD
:1097E000002850D043001B18033BCB185E78B446CA
:1097F000002E1AD1019E002E42D0E67B002E04D00E
:1098000073009B19CB18033B5D70A37B002B00D129
:10981000A573E57300282FD10023537003B03CBC1F
:1098200090469946A246AB46F0BD72006244033AA8
:1098300089184A78904600224A7091465A70010071
:1098400032002000FFF722FF43468246002B07D05C
:109850005B0021684344033BCB185A78002A16D199
:10986000424651462000FFF711FF2168019BCA19AB
:10987000002BC2D10028CFD043001B18033BCB18CC
:1098800000219970C8E7019B002BB6D1C4E75000B6
:10989000801803380918487883464846487058703D
:1098A00041462000FFF7F2FE594680462000FFF7B0
:1098B0003FFF414602002000FFF7E8FE8046CFE769
:1098C000F0B54E464546DE465746E0B5467B0400B9
:1098D00075000068AD19033D83B00191415D4219E7
:1098E000002952D04B005B18033BC3185F78BC467D
:1098F000002F1CD1019D002D44D0E57B002D04D00C
:109900006B005B19C318033B5E70A37B002B00D177
:10991000A673E673002931D10023300053706173C0
:1099200003B03CBC90469946A246AB46F0BD7A00D7
:109930006244033A8018427893460022427091466E
:109940005A7020003A00FFF7A1FE5B468046002BCC
:1099500007D05B0021685B44033BCB185A78002A90
:1099600017D15A4641462000FFF790FE019B0100A7
:1099700020684219002BC0D10029CDD04B005B18C4
:10998000033BC31800209870C6E7019B002BB4D19D
:10999000C2E75000801803380918487882464846C4
:1099A0004870587059462000FFF770FE53468346B2
:1099B000002B07D05B0021685344033BCB185A7837
:1099C000002A06D1594652462000FFF75FFE834623
:1099D000C7E7500080180338091848464F78487088
:1099E000587051462000FFF751FE39008146200093
:1099F000FFF79EFE494602002000FFF747FE824621
:109A0000E0E7C04670B5040000292CD0437B8B42B0
:109A10002ED0056848004018033828188278002A9C
:109A200021D053009B18033BEA5CEE188A4202D116
:109A30001BE0002A08D053009B18033BEB185A7810
:109A40008A42F6D142785A70002301228370437013
:109A50002000FFF7B5FE617B02002000FFF716FE35
:109A60006073012000E0002070BD43783370EBE7A5
:109A700001221900FFF7A4FE60730120F4E7C0463D
:109A800030B50C2083B000F0B9F9FEF78FFC002848
:109A90000ED0994B994A1A605A609A60DA601A613E
:109AA0005A619A61DA611A62954A5A6203B030BD0E
:109AB000944CA06700F0F6F90122934B1A60636C96
:109AC000012BFCD10322914B1A608E4A936B012B20
:109AD000FCD1013301218E4A8E480093043300F0FB
:109AE0003DF905238C4A009301218C4800F036F99A
:109AF0008B4B5A68FF2A02D8802252005A6080227B
:109B00007D4C824B21691201854D1A60002907D0D6
:109B1000606901F00FFE431C5800C0180338FDD2E5
:109B2000E0217F4B02201A681140802252012A4313
:109B300011601968484003210140116004219A68AE
:109B40001142FCD08022802192012A430901116038
:109B5000802252005A60734B2361734B5968FF296E
:109B600000D85A6003227048674B01211A60020036
:109B700093681942FCD0E02513681D4080235B01E7
:109B800003431D6012684A400321114019600221FD
:109B9000654A93681942FCD0802380219B010343CE
:109BA000090119608021614B490051606361604B7C
:109BB0005A68FF2A00D8596080225E4BE169120181
:109BC0005B4D1A60002907D0606901F0B3FD431CAA
:109BD0005800C0180338FDD2E02255490B681A40DE
:109BE00080235B012B431A60802380229B012B433F
:109BF00012011A608022414B52004A60E3614E4BD1
:109C00005968FF2900D85A6080224C4B216A120102
:109C1000494D1A60002907D0606901F08BFD431C93
:109C20005800C0180338FDD2E02243490B681A409F
:109C300080235B012B431A60802380229B012B43EE
:109C400012011A60802380225B004B602B4BD202F2
:109C500023623B4B5968914200D25A608022394BB3
:109C6000616A1201364D1A60002907D0606901F05F
:109C700061FD431C5800C0180338FDD2E022304972
:109C80000B681A4080235B012B431A6080238022DB
:109C90009B012B4312011A608023DB024B60184B9F
:109CA0006362294B5A68FF2A02D8802252005A6008
:109CB0008022264BA1691201234D1A60002907D08A
:109CC000606901F037FD431C5800C0180338FDD20D
:109CD000E0221D490B681A4080235B012B431A6068
:109CE000802380229B012B4312011A6080235B009A
:109CF0004B600E4BA361D9E60C070020006CDC0220
:109D00001BB70000008000403CB0004030B0004075
:109D1000002F685900800240008C864700C0024036
:109D200030800040001BB7003C8000404059730762
:109D30005480004054B000406080004060B000405B
:109D40006C8000406CB000404880004048B000404B
:109D5000014B8000C05870470C070020F8B5040084
:109D6000214817001D000E0001F0E4FC010038003E
:109D700001F0E0FC069A2B04120313432268002A28
:109D800021DB1A4AA21851424A41802149018C46DE
:109D900052420A40164962440A6016490A6016494E
:109DA00017008D68AF43FBD1C021221D89011143EB
:109DB00021222660A0600A602268002AFCDAE360A3
:109DC00008230B60F8BD3F2221680A40B242D8D177
:109DD000A2681205120D8242D3D1EE21E268C902B7
:109DE0000A409A42CDD1EDE7001BB7000040FDBF0D
:109DF00000E0004000F0004000C000408023024A24
:109E00009B000343D36270470080054010B51400E7
:109E100080221B4BD2051A6000281AD00123194A50
:109E20001843194BDA61194A42401A625962986222
:109E30008022134BD2051A601549164A1160E022A0
:109E4000D2041A60002C07D18022134B12061A602C
:109E500010BD0D4BD861EBE780236201121B92000D
:109E6000121912015B049A4200D30C4A0C4B1A607F
:109E7000054B5A608022084BD2051A60E8E7C046BD
:109E800000B00540D3C007B0008005402D3FF84F1B
:109E9000FCFF01000820014000A00540FFFFFF007B
:109EA0001C0C0020AA23064A1B0113602F2305491E
:109EB000D360054B19605368002BFCDA7047C0462D
:109EC0000040024000B0FA00006002402C4B2D4AD6
:109ED00070B51A602C4A2D4B2D491A6010008B6802
:109EE0009843FBD12B4C2C4B9C4209D2013B1D1BB0
:109EF000AD080135AD002D1908CC9847AC42FBD117
:109F0000FFF7BEFD254A214B1A60214A9368DB0109
:109F10008033FBD14022224B224C234D9A675A6753
:109F20001A67DA66AC4208D223682000002B21D0E1
:109F30000834FEF7CBFDAC42F6D31C4C1C4DA16897
:109F4000C022280002F06CFBA560FEF7DBFAFEF7EA
:109F500085FDFEF779FF174C174B9C4209D2013B58
:109F60001D1BAD080135AD002D1908CC9847A54241
:109F7000FBD170BD0834FEF79BFDAC42D4D3DCE7C7
:109F800000E00040BFCDFBFEFE7F3C0000F0004043
:109F900000C000408C0400209C040020FFFFFF0153
:109FA00000F00140840400208C04002000ED00E05B
:109FB000000000209C040020A404002000BEFDE757
:109FC00010B5FFF7FBFFC0460FB400B5084883B0DB
:109FD00002F04CFC049B002B07D005A9180001914E
:109FE00001F02CFB034802F041FC0120FFF7E6FFE3
:109FF0006CE100107CE1001010B50148FFF7E4FFB0
:10A0000080E100109A4200D2885470477047C046E1
:10A01000F8B557464E46DE464546E0B51F000A9B5A
:10A0200005009B460D9B0E00914692469B0718D15A
:10A030000B9B0C9A934214D213000B9AB8469B1AAE
:10A040004B444C460F0006001D00220043460134DD
:10A0500039002020B047AC42F7D1AA4635003E0077
:10A0600047460B9B002B38D09A441C00D0465346E1
:10A070001A1B5B46013C185D31003B00A847002CD1
:10A08000F5D10D9B9B0721D543464A469C1A0C9B54
:10A09000A3421BD93A009A464F469146E2194B46D5
:10A0A000310020200134A8475445F7D343460C998A
:10A0B000DB1B0133B9460022994203D343464A1EB3
:10A0C0004A44D21A434690460133984440463CBC29
:10A0D00090469946A246AB46F8BDD046D1E7C04669
:10A0E000F0B54F464646D646C0B584B098460EAB4E
:10A0F0001B78129F994694460D9C109B119EBA079F
:10A1000025D4002E69D19C4200D3C2E001223A40FE
:10A1100092461F2C00D9BBE00C9A551E302201E05C
:10A12000202C03D001342A55A342F9D85246002AE4
:10A130000DD0B4420BD21F2C62D80C9A551E30227F
:10A1400001E0202C5CD001342A55B442F9D1FA0642
:10A1500035D57A055DD4002C57D10F9B102B00D13B
:10A160007CE00F9B022B00D18DE030230C9A012460
:10A1700013704B46002B27D02D230C9A1355013416
:10A180000C9B624600930397434602960194FFF7A7
:10A190003FFF04B01CBC90469946A246F0BDBB06EA
:10A1A00063D4202CECD00C9B1A1901347823137043
:10A1B000202CE5D030220C9B1B191A700134202C66
:10A1C000DED04B46002BD7D17B0735D43B07D7D504
:10A1D00020230C9A13550134D2E7012215003D408B
:10A1E000AA463A4220D04A46002A2AD10C323A42A4
:10A1F00027D19C429DD21F2C00D88DE7202E19D943
:10A200002024FA06BCD57A0503D4A3421BD0A6426B
:10A2100019D00F9B102BC2D0022BC9D1202CAFD04C
:10A220000C9B1B19013440E09C4200D38FE71F2C8C
:10A2300000D871E720248AE72B230C9A13550134A8
:10A240009EE7013ED5E7631E012C00D185E70F9AFA
:10A25000102A20D0022A25D01C00ABE7BB060DD463
:10A2600078230C9A01241370A4E7202C00D187E7EF
:10A2700058220C9B1B191A70013499E758230C9A29
:10A280000124137096E70C9A60330124137091E750
:10A29000202400265BE7023CBA06E9D40C9A121986
:10A2A0001C0083E70C9A9246534462221A707FE79F
:10A2B00010B5002800D110BD02F08CFAFBE7C046B3
:10A2C000F0B5DE46574645464E46E0B59BB09B4648
:10A2D000249B0A909846259B0B910C92404642463F
:10A2E00019009A4601F0EFFC002800D0E8E00122B6
:10A2F000404651467F4B524201F0E0FC002800D01E
:10A30000DEE00122404651467B4B524201F0C0FC48
:10A31000002800D0D4E0002200234046514601F03E
:10A32000B7FC002800D0CAE15346C14609938023F8
:10A33000289ADB001A400E92289A1A4201D106236D
:10A3400026934C46099B234300D0D9E0289B002646
:10A3500000271B0500D4AEE100230D93269B1900B6
:10A360000D9B994200DCB0E1C81A431E269380235E
:10A37000289ADB001A430023002528920D93279B7F
:10A380000024AB4200D95C1B0223289A1A400E928B
:10A39000289A134203D06B426B415B421C400D9BD9
:10A3A000002B07D04846099932003B0001F00FFC12
:10A3B00081460991002200234046514601F068FC85
:10A3C000002805D08020000684460999614409913F
:10A3D000289A4A4B0A9E13404A460493269B0B999F
:10A3E0000293099B03940092019330005B460C9A00
:10A3F000884600F0A1F90400002D72D0289B2200AD
:10A4000098061F23C017984341465B466530B04706
:10A410000D9B671CDA179C18DB0F98466B1E99463C
:10A420000025544001E0202D13D00AAA94461F2392
:10A43000200063440A2101355E1901F07BF93031B7
:10A44000317020000A2101F075F926000400092E60
:10A45000E9D8052306934B460593002304930A335A
:10A46000039343463A000A9E0B9F029312AB00935C
:10A4700039005B4630000195FFF732FE0E9B040069
:10A48000002B2ED00C9B279AC51AAA4229D93C0032
:10A49000814698461700434621005A1920205B4602
:10A4A0000135B047AF42F6D84C460C992798631A4D
:10A4B00001330022984200D30AE10134141910E05C
:10A4C000289B42460493279B0B990393269B0A984B
:10A4D00002935346009201935B460C9A00F02CF9CC
:10A4E000040020001BB03CBC90469946A246AB46F7
:10A4F000F0BDC046FFFFEF7FFFFFEFFFFFF7FFFF5D
:10A50000764B099D9C466800400D604401F0EEFBCF
:10A51000734A744B01F079FB734A744B01F04EFBA4
:10A520002B03734A1B0B1A4306000F00714B1100DB
:10A5300048460022099501F038FB6F4A6F4B01F045
:10A5400064FB02000B003000390001F037FB01F022
:10A55000E5FB0D9001F0CAFB694A6A4B04000D004F
:10A5600001F053FB0022684B01F028FB01F0D6FB01
:10A57000664A0600664B2000290001F046FB0400F5
:10A5800030000D000F9601F0B1FB624A624B01F002
:10A590003CFB02000B002000290001F006FB02003A
:10A5A0000B0006000F0001F030FB320004000D002C
:10A5B0003B003000390001F001FB002210901191A6
:10A5C000564B2000290001F002FB0022544B01F001
:10A5D000F5FA02000B002000290001F0F8FA002231
:10A5E000504B01F0EBFA02000B002000290001F0B3
:10A5F000EEFA0D00802132003B000400C905002066
:10A6000001F0D3FA02000B002000290001F0D6FA75
:10A6100002000B001098119901F0D9FA0022344B76
:10A6200001F0CCFA404A0F9B9446634400221B057C
:10A6300001F0EBFA06000F0002000B0048460999F2
:10A6400001F026FB00280AD00D9B3000013B3900A9
:10A650000D930022324B01F0BAFA06000F00C62516
:10A660000D99330063318D42AD4128996D42043517
:10A67000090500D483E63B4300D16FE6099C4846B8
:10A6800021002A4A2A4B01F011FB002808D00022A1
:10A6900048462100274B01F0FBFA002800D05DE678
:10A6A000269B002B00D16AE60E9B5A1E9341269AE8
:10A6B000D31A269363E6002304250D935FE68023D7
:10A6C0001B065344C146099331E6002326934EE608
:10A6D0000A008446013A6244121BEEE601FCFFFFC9
:10A6E000FB799F501344D33FB3C8608B288AC63F81
:10A6F0000000F03F0000F83F61436F63A787D23F3F
:10A7000071A379094F930A400000E03F1655B5BB8D
:10A71000B16B0240EF39FAFE422EE63F00002C40BA
:10A720000000244000001840FF0300002D431CEBF4
:10A73000E2361A3F80842E41F0B54E46DE4657463B
:10A740004546E0B597B09946209E219F229B8346BF
:10A75000984607910C923B0032003000390001F01E
:10A76000B2FA002800D0C1E1012230003900CA4B02
:10A77000524201F08DFA002800D0E0E001223000C2
:10A780003900C64B524201F099FA002800D0B6E0D9
:10A79000002230003900C24B01F090FA002800D0AE
:10A7A00098E0002230003900BE4B01F071FA002819
:10A7B00000D08FE0002200233000390001F068FA59
:10A7C000002800D0B0E000230D93249B5B0501D44A
:10A7D0000623984608AB9C461722002430234146A6
:10A7E000624404E0013413550139202C01D00929B9
:10A7F000F8D888463000390001F090FA4346DA0074
:10A80000A94B05009B181A685B680892099301F030
:10A810006DFA02000B003000390001F0C6F9089A09
:10A82000099B01F0F2F90A900B9101F09BFA824624
:10A8300001F058FA02000B000A980B9901F0B5F9E3
:10A8400000229A4B0A900B9101F038FA002800D1AF
:10A85000C0E001239C46E244504601F043FA020066
:10A860000B000898099901F019FA002802D000237A
:10A870009A4601354346002B69D008AB17269C4603
:10A8800008956644554614E001235B4243440A217F
:10A8900028009A4600F04EFF0134303137193970E4
:10A8A00028000A2100F046FF092D00D8D5E0D04647
:10A8B0000500202CE8D10323249A1340012B00D15A
:10A8C00000E10EAB9846249B01940393239B0293D3
:10A8D00043461EE0249B58460493239B0096019711
:10A8E000039343460C9A029307994B46FFF7E8FC03
:10A8F00017B03CBC90469946A246AB46F0BD249B9F
:10A900005B070ED403226A4B249901920391239989
:10A910000291009358464B460C9A0799FFF778FB33
:10A92000E6E70422634BEFE73B0032000020002102
:10A9300001F03BF9012306000F000D9345E7249B2E
:10A940000393239B0293042301935B4BE1E72800CD
:10A9500001F0CCF902000B003000390001F025F9BC
:10A96000524B002206000F0001F092F90EAB984600
:10A9700000280AD10022300039004C4B01F09EF92A
:10A98000002802D1EB0700D50135202C32D008AACF
:10A9900094461723280063440A2101341E1900F04D
:10A9A000A1FE3031280031700A2100F09BFE051E07
:10A9B000EBD10323249A1340012B00D191E01F2CEB
:10A9C00000D980E70D9B002B3BD02D234246135529
:10A9D000013478E700220A980B99344B01F058F9BA
:10A9E000002800D046E75346002B67D101239C4640
:10A9F000E2443FE70323249A1340012B00D062E78F
:10AA0000239B002B00D15EE70D9B002B03D1249AE2
:10AA10000C33134202D0239B013B2393239B9C4284
:10AA2000CDD208AB9C461722302362441F2C06D897
:10AA30002399013413558C42C1D0202CF8D1202405
:10AA400041E7249B5B0721D4249B1B0700D43AE7F2
:10AA5000202342461355013435E75746089D202CE4
:10AA600037D0220030214046002F08D00132B154A7
:10AA7000202A43D0D3431B191B18002BF6D10EAB51
:10AA800098462E234146541C8B547EE72B23424686
:10AA90001355013417E7C046FFFFEFFFFFFFEF7FBD
:10AAA00065CDCD4165CDCDC188E300100000E03F0C
:10AAB0008CE1001090E100109CE10010DB0700D455
:10AAC000D8E693E7239B002B00D1FAE60EAB98461D
:10AAD0009AE70323249A1340012B00D0F1E60EAB32
:10AAE0009846239B002B00D169E78DE7249B0393B5
:10AAF000239B029303230193064B0AE70323249A23
:10AB000020241340012B00D0DBE6239B2024002BC4
:10AB1000DCD1D6E698E10010F0B5DE464E46574649
:10AB20004546E0B59FB01C00289B93460993CF4A49
:10AB3000CF4B894608901A60002900D116E2002305
:10AB400020789A46002800D118E226001D004C46C5
:10AB50000AE02A006F1C5B46089D2100A8473D00C3
:10AB60000136307800287AD02528F2D110239A4671
:10AB7000083B9946043B9846023B00219C46721CC8
:10AB8000107816000300203BDBB2102B03D8B94F1E
:10AB90009B00FB589F460300303B092B3CD9002308
:10ABA0000A932A2800D171E0002398462E2847D026
:10ABB0000300683BDBB2122B1FD8AF4A9B00D3586F
:10ABC0009F46012301321943DAE7634601321943F4
:10ABD000D6E7434601321943D2E7534601321943BF
:10ABE000CEE74B4601321943CAE770786C2800D192
:10ABF000BFE280235B00194301360300253BDBB233
:10AC0000532BA6D89D4A9B00D3589F4680235B00B8
:10AC1000707819430136F0E700270300B800C01927
:10AC200001364000C018337830381A00303A070037
:10AC3000092AF3D90A901800002398462E28B7D184
:10AC400080237078DB0019430300303B721C092B12
:10AC500000D895E12A2800D1A6E11600A8E7A14670
:10AC6000AA462C00D34503D801235B425B449A4695
:10AC70005B46524649460020089DA84720001FB069
:10AC80003CBC90469946A246AB46F0BD099B40CBE2
:10AC90000A96002E03DB50780993561C84E7283867
:10ACA000014370420A9009935078561C7CE778283B
:10ACB00000D1D4E1582800D168E26F2800D152E3D6
:10ACC000622800D1D8E110230A009A430B92692828
:10ACD00001D000F0A2FC0A230C934B0500D4D5E16F
:10ACE00001230B9A9A430B92692800D1CEE1642884
:10ACF00000D1CBE10B9A802311009B0019408A46BA
:10AD00001A4200D032E3802311005B0019408946CB
:10AD10001A4201D000F002FC13005B0600D510E3DC
:10AD20000B9B1B0601D400F06EFC099B04CB1204A4
:10AD3000120C924609935346002B00D064E30B9A01
:10AD40001033110099430B91520500D45CE30023AA
:10AD500099460B9B06930A9B0593434604930C9BD1
:10AD600003930023DEE27078682800D107E2802395
:10AD70000136194341E780239B007078194301365F
:10AD80003BE7462800D174E10722099B0491073371
:10AD900093430A9A19000392424602920CC90898FA
:10ADA0000092019309912A005B462100FFF7C4FC41
:10ADB00001360500D5E6099B1A0008CA9146002B0A
:10ADC00000D105E1212211438A460EA884461F21A5
:10ADD0006144099500220F27A4460D0002E0202AB5
:10ADE0000CD00B003C001C4020003730092C00D850
:10ADF00007380132A85419090F2BF0D86446099D71
:10AE0000F0E08B0700D4D1E1099B2A0099466B1C26
:10AE100098464B4601CB21009946089F5B46C0B23D
:10AE2000B8470A9B9C466544012B00D890E2B24685
:10AE30005E464746A846089D3A0033000137210088
:10AE40002020A8474745F7D1B3464B4656463D001C
:10AE50000993013685E62A006F1C5B46089D210098
:10AE60002520A84701363D007BE6C04619AB0010FF
:10AE7000980B0020A4E10010E8E1001034E200107B
:10AE8000099B04CB994643460992002B00D097E0DA
:10AE900013789C46002B00D1B3E302235B425A1C7B
:10AEA000099B924618000A9F0B92504402E083428D
:10AEB00000D169E15A780133002AF8D1099A0A973A
:10AEC0009B1A0B9380230A00DB001A400C92194254
:10AED00004D00B9B434501D943460B9302231A0030
:10AEE0000A400D920B4200D184E16046002823D035
:10AEF0000C9B002B00D124E1A844C246099B574675
:10AF00005B1B9846089BB2462A0026005C469B467F
:10AF100009E023003100551CD8474346585D0028FE
:10AF200000D13FE12A009742F3D1A3463D0034000F
:10AF300056460D9B002B69D00B9B0A99A846994257
:10AF400064D98C466544ED1A089B47469A46B0463C
:10AF500026005C463A002300013731002020D0470C
:10AF6000AF42F7D1A346340046464FE0D24B20789B
:10AF7000089300239A46002800D0E6E5002471E6F5
:10AF8000434606000A9F9800C0180132400080190D
:10AF90001678030030003038303B0928F3D93000F0
:10AFA000984616000A9703E6099B023604CB9046A2
:10AFB000D2434046D2171040804609933078F7E5D7
:10AFC00013789C46002B00D11AE34346013B66E709
:10AFD0001022080090431132104382460022490596
:10AFE00000D4F2E6534606930823059343460493A0
:10AFF000102303930023029316AB019200932A00BF
:10B000005B4621000898FFF76BF805004B460136B8
:10B010000993A6E5202302009A43472A04D18023FE
:10B020001B01194302239843452801D120231943CA
:10B030000722099B0491073393430A9A190003924C
:10B04000424602920CC908980092019309912A0085
:10B050005B462100FFF734F90136050081E5102336
:10B060000C930C230A009A430B924B0500D43BE649
:10B0700036E62023194387E602230C930B910B99A4
:10B080006428EED10B9B5B0500D529E60B9A802343
:10B0900011009B0019408A461A4200D0CEE080235E
:10B0A00011005B00194089461A4200D0DBE1130011
:10B0B0005B0600D51DE10B9B09991B0600D499E2A4
:10B0C00008C91BB2D8171A18424092B20991924689
:10B0D000DA0F1292002B09D1802310220B99DB008A
:10B0E0000B4091430B91002B00D012E10B9A61238E
:10B0F000920600D541230EA91F228C46DBB2624482
:10B100000A3B57461395A2464D460C9CB1460D93FB
:10B1100016000AE03033DBB201357355A74200D286
:10B120001CE1202D00D119E107002100380000F0BA
:10B1300001FBCBB20929EDD90D9A94466344DBB2E9
:10B14000EAE7099B5F465B1B98460A9BB3469A4613
:10B150002600089C2A003B003100A04743460135E9
:10B16000585D0028F6D1534634000A935E46BB462C
:10B17000DFE6C0239B00B078194302363DE5C023CB
:10B18000B0781943023638E50A979BE60C230A008B
:10B190009A4314331A4310230B920C934B0500D49B
:10B1A000A8E59DE5A34634005646C2E60A9A012A60
:10B1B00000D82EE26B1E9F18089BB04699462600C9
:10B1C0005C462A002300013531002020C847BD42DB
:10B1D000F7D1A34634004646099B3A0001CB210033
:10B1E00098467D1C5B46089FC0B2B847434601366F
:10B1F0000993B6E40B9A0A98531C904200D80AE2CD
:10B2000043199B1A1F00089BB24626005C469B46CA
:10B210002A002300013531002020D847BD42F7D154
:10B220000A9BA34601330B93099B34001B785646B7
:10B230009C466046002800D05AE6E7E60722099BB4
:10B2400007339343013294469C4462465F680992F7
:10B250001A68FB171093119310981199030053402B
:10B260000E930B007B400F9394460E9A0F9B121A7D
:10B270008B410E920F93FB0F6246129300233A43C9
:10B280009A463DD00B9A6123920600D541230022B5
:10B29000DBB20EA90A3B8C4691460D9343461F3202
:10B2A0006244139515964D460E9E0F9FA1469046FB
:10B2B0000C9C14930FE0C0460DA000103032D2B2A7
:10B2C000434601355A55BA4500D17CE1202D00D1C5
:10B2D0007CE106000F00220000233000390000F05E
:10B2E00067FAD2B2092AE9D90D9B9C466244D2B2D0
:10B2F000E6E7FF23099904C913401A000991E6E61D
:10B300000B9A1033110099430B915205BAD50023C3
:10B3100099460B9B06930A9B0593434604930C9B0B
:10B320000393129B02934B46019316AB2A000093A2
:10B3300021005B460898FEF7D3FE01360500FFF7B3
:10B3400010FCFF22099B02CB11408A460993F2E4CC
:10B350004B46454609930136FFF703FC4E465446DB
:10B36000A946139DD5E708230C9387E60722099B7E
:10B3700007339343013294469C44624609921A680B
:10B380005B6810009A4613005246134307D10B9A8C
:10B390001033110099430B91520500D5D7E40B9A55
:10B3A0006123920600D541230022DBB20EA90A3B9D
:10B3B0008C4691460D9343461F3262445746129580
:10B3C000A2464D460400B14690460C9E13930DE0F4
:10B3D0003032D2B2434601355A550023BB4200D128
:10B3E000FDE0202D00D1FDE004000F00320000231D
:10B3F0002000390000F0DCF9D2B2092AE8D90D9B0F
:10B400009C466244D2B2E5E70B9A6123920600D5CE
:10B410004123DBB20EA90A3B1F228C460D93230069
:10B4200062445446129517004D469A46B1460C9E0A
:10B4300008E03033DBB201357B55B4420ED3202D0A
:10B440000CD004003100200000F074F9CBB20929BF
:10B45000EFD90D9A94466344DBB2ECE74E4654466E
:10B46000A946129D75E4099B1A0008CAD9171392C0
:10B470005A184A409146DA0F1292002B08D18023C5
:10B4800010220B99DB000B4091430B91002B2BD129
:10B490000B9A6123920600D541230EAA1F279446DA
:10B4A000DBB20A3B0D95674455460993A2464C46CC
:10B4B000B1460C9E08E03033DBB201357B55B44217
:10B4C0000ED3202D0CD004003100200000F032F902
:10B4D000CBB20929EFD9099A94466344DBB2ECE771
:10B4E0004E465446AA460D9D0B9B2A0006930A9B86
:10B4F00021000593434604930C9B08980393129BE9
:10B50000013602935346019316AB00935B46FEF758
:10B51000E7FD139B05000993FFF723FB099B04CB71
:10B5200091461293002A08D1802310220B99DB0048
:10B530000B4091430B91002B2BD10B9A6123920668
:10B5400000D541230EAA1F279446DBB20A3B0D9576
:10B55000674455460993A2464C46B1460C9E08E006
:10B560003033DBB201357B55B4420ED3202D0CD0E5
:10B5700004003100200000F0DDF8CBB20929EFD93A
:10B58000099A94466344DBB2ECE74E465446AA4619
:10B590000D9D0B9B2A0006930A9B210005934346B1
:10B5A00004930C9B08980393002302935346019342
:10B5B00016AB00935B46FEF793FD129B05000993C3
:10B5C0000136FFF7CEFAB44200D87FE6149B4C4612
:10B5D0000E960F97A9469846159E139D99E6A6428A
:10B5E00000D8FEE6139B4E469846A9465446129D47
:10B5F000FFF7AFFB08C9D8171A184240099166E552
:10B6000000230B935EE4099B04CB92460993FFF75A
:10B6100092FB2F00E0E50B930BE6063B0C932EE527
:10B6200000B583B0009313000A0001000248FFF741
:10B6300073FA03B000BDC04605A0001010B5094A5A
:10B640000300146884B0002C08D001220091064841
:10B65000524203A9A047012004B010BD01F006F931
:10B660000020F9E7980B0020B1A200100148042146
:10B67000014B184730040020A9B60010014B9B680D
:10B680001847000030040020142310B5010018886A
:10B6900004331B88984710BD162310B50100188885
:10B6A00002331B88984710BDF0B5C64600B5002987
:10B6B00016D014230400012598461827890046183F
:10B6C0004346216818883B88984701C4431E984127
:10B6D00040420540A642F3D1280004BC9046F0BD8C
:10B6E0000125F9E7124A936F9B0815D29066D1663F
:10B6F000002905D0FFE7FFE7FFE7516F106F7047A4
:10B7000004B580210906C2175140002800D0C84363
:10B7100002F0E2FC002104BDF0B5146E556E576FC7
:10B72000166FFFF7E3FF1466556657671667F0BD9F
:10B73000000000D0114A936F9B0813D21066516627
:10B74000002905D0FFE7FFE7FFE7516F106F704753
:10B7500004B5002801D00020C04302F0BDFC002148
:10B7600004BDC046F0B5146E556E576F166FFFF7E7
:10B77000E5FF1466556657671667F0BD000000D0F8
:10B7800094464A4A926F9208624601D228E0C04627
:10B79000F0B5464E346E756E776F366F00F020F858
:10B7A0009446424A14665566576716676246F0BD6E
:10B7B00094463E4A926F9208624601D254E0C046D7
:10B7C000F0B53A4E346E756E776F366F00F04CF808
:10B7D0009446364A14665566576716676246F0BD4A
:10B7E000002B24DB11D000293EDA00B5C9434042CA
:10B7F00000D1013100F038F8C943404200D1013195
:10B80000DB43524200D1013300BD002AEBD10028B6
:10B8100001D1002905D00020C90FC90701D1C043BB
:10B82000410800B502F048FC0022002300BD00B52D
:10B8300000290ADBDB43524200D1013300F014F847
:10B84000C943404200D1013100BDC943404200D14B
:10B850000131DB43524200D1013300F005F8DB43F4
:10B86000524200D1013300BD002923D1002B18D151
:10B87000002A0CD0BC460D4F38667A6600210023A2
:10B88000FFE7FFE7FFE77A6F386F674670470028EA
:10B8900001D00748010000B502F00EFC0022002391
:10B8A00000BD02000B00002000217047000000D006
:10B8B000FFFFFFFF002B00D0BFE0130C28D1002AB0
:10B8C000E7D080B4114F39667A66FFE7FFE730B4FE
:10B8D000040C7B6F396F1B0423433B667A66FFE7DA
:10B8E000FFE7FFE7C04684B27B6F3D6F1B04234335
:10B8F0003B667A66FFE7FFE7C04600232C042D0C69
:10B900007A6F386F00196941B0BC7047000000D0F1
:10B91000F0B594460025140E01D112020835140F1B
:10B9200001D112010435940F01D192000235D40FD8
:10B9300001D152000135D40B0134254F7C66254CD2
:10B940003C660E0C93B2FFE7FFE7FFE73C6F6643F0
:10B95000360C7703BE467343DF0B5B04C01AB94154
:10B96000130C7343DB18C91ACE086643360CB64471
:10B9700093B273431F0F1B01C01AB941130C7343D9
:10B980001F0B1B05C01AB941860D8F023E4366434B
:10B99000360C092D24DB520A7243801A7703460ABB
:10B9A0006643360C16235B1BDE40DF40BF1964463E
:10B9B0006643821B7046043506330100D940A84017
:10B9C000C01900D30131A24206D20023F0BD00000D
:10B9D000000000D0FFFFFFFF121B0130F3D3F1E79F
:10B9E00009277F1BFE406446A2B27243801A00D230
:10B9F0000139220C7243130C1204821A99410B0074
:10BA00007046043513370100F940A840801900D36F
:10BA10000131002B02D1A2420AD2F0BD013000D385
:10BA20000131121BFAD2013BF8D1A24200D2F0BD83
:10BA3000013000D30131121BF7E7F0B51C0C00D028
:10BA400080E00CB400251C0A04D11B02160E3343FF
:10BA5000120208351C0B04D11B01160F33431201CF
:10BA600004359C0B04D19B00960F334392000235A2
:10BA7000DC0B02D192185B4101351C009718644120
:10BA80000134464F7C66464C3C660E0CFFE7FFE7F0
:10BA9000FFE7C0463C6F6643360C7703BE4697B25D
:10BAA0007743C01B00D20139C01B00D201399FB2BD
:10BAB0007743C91BC91B170C77437E04FF0B801B00
:10BAC000B941CE086643360C0C2D33DBB644120B5D
:10BAD0001F053A431B0B97B27743C01B00D20139B5
:10BAE0009FB27743C91B170C77433E043F0C801B62
:10BAF000B941860D8F023E43664329277F1BFE40D6
:10BB00000C3D7746AF40BF1930BCA2B2ABB2724316
:10BB10007343801A9941220C7243130C1204801A49
:10BB2000994102000B000137001BA941F9D2781E90
:10BB30000021F0BD0C277F1BFE4077467F0BAF40F6
:10BB4000FF19E0E700245D1C07D0144F7D663966BD
:10BB5000FFE7FFE7FFE7FFE73C6F95B29EB2654363
:10BB60006643401BB141150C1E0C65436643360409
:10BB70002F0C3E432D04401BB141994204D20200D8
:10BB80000B0020000021F0BD01D19042F7D3801AB4
:10BB9000994101349942F2D3F6E70000000000D049
:10BBA000FFFFFFFF48404140484018B41B4B5B6813
:10BBB000FC46019308BD04DF87BE001018B4174B84
:10BBC0001B68FC46019308BD00DF91BE001094463F
:10BBD000134A926F920809D2624618B40F4BDB6881
:10BBE000FC46019308BD0CDF49C100100C4AF0B5BA
:10BBF000146E556E576F166F6246FFF7EEFF084AD8
:10BC00001466556657671667F0BD18B4034B9B68FA
:10BC1000FC46019308BD08DFEDBF001000110020B5
:10BC2000000000D0FFB550404240504059404B40CA
:10BC3000594000E0FFB5154F4C00640D03D0BC42E5
:10BC400004D10C0314D80020090D09055C00640D13
:10BC500003D0BC4204D11C030AD800221B0D1B05D3
:10BC600001264B4009D44B4003D58B4200D1824280
:10BC7000FFBD9942FCD19042FFBD0B43DB1803434B
:10BC80001343F5D0C9434918FFBD0000FF0700006A
:10BC900000B5FFF7CFFF804100BDC04600B5FFF7FC
:10BCA000C9FF01D9002000BD012000BD00B5FFF78C
:10BCB000B9FF01D9002000BD012000BD00B5FFF78C
:10BCC000B1FF804100BD012040054A00121804D890
:10BCD0005A00121801D80020704701207047002038
:10BCE000704700000021002805D17047C117484067
:10BCF000401AFAD0C90713B5064B1B6898470CBC0D
:10BD0000441CA2401005120B0349091B09051943E5
:10BD1000114310BD900E00201F04000010B54C0010
:10BD2000620D8023D218DB00D21A5B057E2A10DD5B
:10BD30009E3A13DACC170903490819435242D140FD
:10BD4000640001341532202A05DAD04008436043EC
:10BD500010BD002010BD0846604310BDC80FC018BC
:10BD6000013810BD18B4044B5B6AFC46019308BD52
:10BD700024DFF9C2001000000011002018B4044BA9
:10BD8000DB6FFC46019308BD7CDF79C30010000027
:10BD900000110020132370B51D78012D15D010DD82
:10BDA0002748FFF779FC274C01008022200000F093
:10BDB00037FC022D06D02448FFF766FC234B1860A1
:10BDC00070BD204C224AA264F5E72E001D4C204A8B
:10BDD000A3085B421E401D422FD03300226020206A
:10BDE000B1006118801B0A604A608A60CA600A61FB
:10BDF0004A618A61CA610A624A628A62CA620A63E5
:10BE00004A638A63CA630A644A648A64CA640A65C4
:10BE10004A658A65CA650A664A668A66CA660A67A4
:10BE20004A674008102803D18A67CA67A264C2E73C
:10BE30001E339B00E250A264BDE70023CFE7C0465B
:10BE400053440000001100204C330000900E0020ED
:10BE500055BE001007B5604601880A0A0230DF2A85
:10BE6000FAD1C9B2820804D3028840880004104382
:10BE700000E00068014A5050039007BD0011002007
:10BE80000FB403BC0CBCF0B50124E407634000E030
:10BE9000F0B50C0DCF0F661E3605891B640503D364
:10BEA000C943404200D30131640D03D0661CF60A39
:10BEB00007D0E41B00207F00791C89078912803C91
:10BEC00024031D0DDF0F6E1E36059B1B6D0503D36E
:10BED000DB43524200D301336D0D03D06E1CF60AD2
:10BEE00007D0ED1B00227F007B1C9B079B12803D2F
:10BEF0002D032F1B661B58D4A446202E46DA20376C
:10BF00001400BC401D00BD40F24033412A4380185C
:10BF10005941CB0F05D0C943C04300226442504170
:10BF2000514162464D0D28D10D0D07D100281FD07B
:10BF3000241940414941013A0D0DF9D0640006D35E
:10BF4000013000D30131002C01D140084000013AFA
:10BF50000BD4941CE40A04D112051144DB071944E4
:10BF6000F0BDD907204B194300E0D9070020F0BDF0
:10BF70000029DDD1002CDBD1F0BD0132C60740081D
:10BF8000CD0728434908002EE1D0D9E73C2E29DA15
:10BF9000203E40371400BC4000D00124F24014433E
:10BFA0001A00BB401C43D317ACE7AC46202F08DA7D
:10BFB00020360400B4400D00B540F8403941284314
:10BFC000A5E73C2F0CDA203F40360400B44000D0F7
:10BFD0000124F84004430800B1400C43C117EAE7CC
:10BFE00010001900002494E70000F07FF0B50C0D5C
:10BFF000661E3605891BE60A6405640D02D0651CC1
:10C00000ED0A04D0002001210905803C2403A44648
:10C010001C0D671E3F05DB1BE70A6405640D02D09B
:10C02000651CED0A04D0002201231B05803C24037B
:10C030007740644497B484B296B27443070C7E434D
:10C04000150C6F4380B26843361802D301200004F8
:10C050003F183004350C00197D41844688B29AB2ED
:10C0600050430C0C62431F0C7C438EB27E439219EA
:10C0700002D301263604A4191604170C361867419A
:10C0800001BC81B29AB25143040C62431B0C5C4365
:10C0900080B25843121802D301200004241810045F
:10C0A000130C401863412D185E410020474106BC27
:10C0B00088B293B258430C0C6343120C544389B2B8
:10C0C00051435B1802D301210904641819041A0CA6
:10C0D000091862416D1856410020474118BCF90209
:10C0E000720D1143F0026A0D1043ED020A0D03D1E7
:10C0F0006D1940414941013B124E9B1B7600B342F2
:10C100000ED26D0007D301300026714166463543DB
:10C1100001D1400840001B05C918E4072144F0BDC7
:10C120000BDA013306D1013004D101314F0D01D0BA
:10C130004908F2E7E1070020F0BD01363105002093
:10C14000EBE70000FF030000F0B51C0D671E3F0584
:10C15000DB1BE70A6405640D02D0661CF60A04D0F6
:10C16000002201231B05803C2403D0252D06002638
:10C17000F6432E661E096E66CE0FF619B4464900C8
:10C180004F0D02D07E1CF60A03D000200021403F54
:10C190003F033E1BB600B444013F7F05C91B49085D
:10C1A0002E6F013676089C02950D25437543ED13DD
:10C1B0007543AD1301356D10F603761B0CB4CC023C
:10C1C000450D2C43A2B2B3B25A43270C7B43350C26
:10C1D0006F43A4B26C431B1902D3012424043F19FA
:10C1E0001C041D0CA4187D4124196D41009A91B2C4
:10C1F000ACB26143170C7C432B0C5F4392B25A43A1
:10C20000A41802D301221204BF182204230C5218CE
:10C210007B41019C6C431B19520ED9010A43440116
:10C22000A01A81B2B2B2514303145A43360C73437D
:10C2300087B27743D617D21900277E4136049B195F
:10C240001704160C7F185E417316ED18F3010026D3
:10C2500080337541A90F06D16400690AE8055B0ABD
:10C26000184309D22FE00422944480337541A90A6F
:10C27000A8059B0A184326D3404149412404009A4B
:10C28000019B0D005543641B4343E41A95B286B2EB
:10C290007543170C7E43030C5F4392B25A43B618A2
:10C2A00002D301221204BF183204330C52197B410D
:10C2B00052429C41002C02D40022013051414008DE
:10C2C000CA071043490802B06246D7079210084BCC
:10C2D000D218084B9A4203D212058918C919F0BD29
:10C2E0000020002A01DC3900F0BD01331905F5E713
:10C2F000FD030000FE070000002200B5203200F020
:10C3000004F8080000BD000000220B150AD410B587
:10C31000944600F05FF81414013400DA0021CB17C2
:10C32000144C20470020002170476244343A0CD45A
:10C330000C2A07DA04009140904052422032D44047
:10C34000214310BDD843D94310BD203207D40C4639
:10C350009440524220321141D040204310BD080089
:10C36000C917203203D452422032104110BD1800A8
:10C37000190010BD2BC300104A00520D144BD21AE5
:10C3800013DDFF2A1EDAD205CB0FDB071A43C300E9
:10C39000400F0903490A084310435B0001D301D051
:10C3A000013070474308FBD2704702D0C80FC00766
:10C3B00070470A0312130132F8D1420F072AF5D150
:10C3C000012200E0FF22C80F00028018C00570475C
:10C3D000800300000A0DCC0F531E1B05C91A52051D
:10C3E00003D3C943404200D30131520D03D0531C43
:10C3F000DB0A07D0121B00206400611C8907891228
:10C40000803A1203014BD21A70470000FF0300006C
:10C410004840414048400E4B5B6818470C4B1B6836
:10C4200018470C4A936F9B0802D2094BDB681847E8
:10C43000F0B5146E556E576F166FFFF7F6FF054A8D
:10C440001466556657671667F0BD014B9B68184721
:10C4500000120020000000D0491A002808D1084628
:10C4600070470000C10FC90700D54042002817D00F
:10C47000F44603B40B4B1B68984706BC81409E38BA
:10C480004042803107D20B0607D04900490AC00557
:10C490001043084360470130F8E7490A8902F5E78D
:10C4A00070470000900E002041000A0E80231B06FA
:10C4B0007E2A0BDD9E3A0BDAC11740024008184372
:10C4C0005242D04049000131484370470020704734
:10C4D000C00FC01801387047C0420DD300B54000EE
:10C4E0004008002100F012F8002801D4404200BDAD
:10C4F0008020000600BD0000034BDB69FC461847A6
:10C500001CDFBDC50010000000120020014B5B6A5B
:10C510001847000000120020034BDB6FFC46184751
:10C520007CDFD5C50010000000120020132310B5D9
:10C5300012481C78FFF7B0F80100012C0AD003DD87
:10C5400080220F4800F06CF80E48FFF79DF80E4B64
:10C55000186010BD0A4C5422200000F061F80B4B0B
:10C560006365A365E36523666366A366E366236785
:10C570006367A367E3672362E361E5E7534600006F
:10C58000001200204C330000900E002091C50010D6
:10C5900007B5604601880A0A0230DF2AFAD1C9B21B
:10C5A000820804D3028840880004104300E0006839
:10C5B000014A5050039007BD001200200021C2150F
:10C5C0008032803201D0024A1047002070470000BC
:10C5D000CD2A0000C30FDB0741000A0E07D0FF2A57
:10C5E00008D00909054A89181943400770471900FE
:10C5F000002070470249C918FAE70000000000381F
:10C600000000F07F01480421014B1847400400203E
:10C61000A9B60010014B1B68184700004004002019
:10C62000014B5B681847000040040020030010B570
:10C6300008001B681100984710BDC046F8B5474672
:10C64000CE4680B5437D07000D001600002B37D085
:10C6500000240020002A1EDD4B1E98461B4B9946E5
:10C66000002C2BD043461B5D0D3B5A425341DBB29D
:10C670002A5D0A2A13D00134A642F1DC864203DD8A
:10C68000311A3B6828189847AD19013D2B780D3BAE
:10C690005A4253413B750CBC90469946F8BD002B5D
:10C6A000E9D1A04203DA211A3B6828189847484686
:10C6B00002213B68013498472000DDE73B7DD7E746
:10C6C0000368110028009847E5E7C04638E40010E9
:10C6D000F0B5DE4657464E464546E0B585B01700F4
:10C6E0001C0006000D00FCF7E7FE0023324A12187A
:10C6F0004B41002B5BDB314908008A4601F0FCFC12
:10C7000001906B1C03D1300001F044FC0500002CAB
:10C7100028D12B4B98462B4B1C68002C15D0002F92
:10C7200023D1294F02E02469002C0ED02368002B6E
:10C73000F9D03B68002B01D0A342F4D120002A009D
:10C740003100C0472469002CF0D1019B002B2AD175
:10C75000681E8541E8B205B03CBC90469946A246A9
:10C76000AB46F0BD194B9846D5E7174B994602AB3F
:10C77000DF1D0A239B4602E02469002CE5D02368D4
:10C78000002BF9D04B461B68002B01D0A342F3D1FC
:10C790002A0031002000C0475B46012239002000FA
:10C7A0003B70C047E8E7504601F07EFCD0E701222D
:10C7B000074B52429FE7C04640420F0084040020CE
:10C7C0003DC6001080070020840B00202DC60010FD
:10C7D000FFFFFF7FF0B5CE46474680B583B06B467E
:10C7E0000500DE1D3070FCF767FE00231A4A1218A0
:10C7F0004B41002B2CDB19490800884601F07CFCDA
:10C80000174B07001C68002C16D0164B994602E007
:10C810002469002C10D02368002BF9D04B461B68EC
:10C82000002B01D0A342F3D1200001223100FFF7F9
:10C8300005FF2469002CEED1002F05D1280003B09C
:10C840000CBC90469946F0BD404601F02DFCF5E742
:10C850000122054B5242CEE740420F0084040020E3
:10C8600080070020840B0020FFFFFF7F70B50400CD
:10C8700001F090FB00230100050001222000FFF7DA
:10C8800027FF084B1C68002C06D06368002B05D0DE
:10C8900098472469002CF8D1280070BD2469002C29
:10C8A000F3D1F9E7800700200A4A1368002B05D16D
:10C8B0000CE01A001B691032002B07D09842F8D107
:10C8C000002902D103691360016170470029FCD07F
:10C8D0001060FAE78007002000207047F0B5D646C8
:10C8E0004F464646C0B500291CDD1A4B0400984649
:10C8F0000023C1469A46184E471807E032680134B3
:10C90000511C316041468B54BC420BD023780A2B1A
:10C91000F4D100F06FFD002809D153460134336093
:10C92000BC42F3D11CBC90469946A246F0BD336888
:10C930000025002B02DC09E01F2D07D04B46585D77
:10C9400000F084FD33680135AB42F5DC012000F0D6
:10C950009FFDE2E79C0B002038070020F0B5DE4683
:10C9600057464E464546CC4AE0B51368CB4F013397
:10C9700013603A68CA4B914608224A449346012202
:10C98000584682401B68C74C596883B0114232D167
:10C99000C54A48469046102642464146B24612686D
:10C9A00001320A6082009A18116A8C46CD0D196B0B
:10C9B0000E40B14656460E4200D087E0FF2D45D9C5
:10C9C0004A462270B94A1278511CFF318D4200D17B
:10C9D0009AE0802149008D4200D195E08132FF32FA
:10C9E000954200D0A8E001225D4622700122AA40B3
:10C9F00059681142CFD0AE4BA1469846AD4B257831
:10CA00009A4601239B4618E0A54B3D681C682B0005
:10CA100059461033994062680A4210D100F094FDE3
:10CA200043460435AD0028511D78013DEDB21D701F
:10CA3000002D00D19BE04B461D78032DE4D003B0C0
:10CA40003CBC90469946A246AB46F0BD21780229EF
:10CA50001AD011D800296FD0944A127880329542AA
:10CA600000D1D6E04A46227001225D46AA405968AC
:10CA7000114200D18FE7BEE70429F3D1002D00D188
:10CA800098E000222270EFE7E9B28A468A498B4E8D
:10CA90000D785544EDB20D70884909780131C9B25D
:10CAA000317002297BD0864E3678B4460326B346D1
:10CAB000DC44614500D186E0504600F099FD082233
:10CAC0009346774B38681B688344CDE77D4A410025
:10CAD000126809189446CD005D192A006646D832BE
:10CAE0001660CC352A68002AFCDB8022C900D031D0
:10CAF000520159181143802212060A600A6010225E
:10CB00001A6300222270AFE700F04AFD0028D6D059
:10CB1000022301222370694B38681A70664B073272
:10CB20001D70013DFF3D6B425D419346664B834462
:10CB30001D705B4B1B6897E7624A41000918126839
:10CB4000CD005D1901922A00019ED8321660CC35C5
:10CB50002A68002AFCDBC9000A008021D032490182
:10CB60009A180A4380210906116011607CE751463A
:10CB70005C464B4B09681A683B680433DBB29C4047
:10CB8000002900D185E03932C023FF329B011A43CE
:10CB9000146000F0FBFC00234A46137031E7524654
:10CBA0003F251540464A4949157062465200D20F4A
:10CBB0000A7059E700F0EAFC08229346384B3868BF
:10CBC0001B6883445DE749462170002D00D1A5E034
:10CBD0003D490978002900D071E741000818C000DC
:10CBE00005008021D0355D194901294380252D0696
:10CBF0000D600D6036491B180D681900D8310D60A5
:10CC0000CC3319680029FCDB002313610133136165
:10CC100055E700F06BFC264B051E18705AD038689B
:10CC2000244A410012680918C90092460A000323E9
:10CC3000D032914623701A4B80221B6852019944CE
:10CC40004E4632438026360616601660204A591832
:10CC5000126891460A004E46D8321660CC310A68F6
:10CC6000002AFCDB011D6A1E8D00EA505246C9B243
:10CC7000002A00D185E001228A401D0011003935CB
:10CC80008022FF3592012A43116008229346834493
:10CC9000EAE62D3278E7C046880B0020980E002087
:10CCA000680C0020D2100020900B002050040020BF
:10CCB000D41000208C0B0020CE100020CD100020BE
:10CCC000D110002008070020CF100020D010002035
:10CCD000940B00203868802241000918C9000D001B
:10CCE0002B4BD0351B6852015D192A4380252D0638
:10CCF00015601560274A591815680A00D832156062
:10CD0000CC310A68002AFCDB002182009A181161EC
:10CD100011610822934621708344A5E61E4D1F4BE6
:10CD20002978187800F07EFC1D4B1E4918680368AE
:10CD30005B6A98472B78002B00D0C0E638688022C9
:10CD400041000918C9000D00114BD0351B68520174
:10CD50005D192A4380252D06156015600D4A591866
:10CD600015680A00D8321560CC310A68002AFCDB4D
:10CD7000002182009A1811611161082293468344B0
:10CD800072E601221D008A402D35110078E7C04669
:10CD9000680C0020940B0020CF100020D010002041
:10CDA000340700206C0400208022054BD20510B50A
:10CDB00000211A6000200022FDF728F8FEE7C04697
:10CDC00000B00540F0B557464E464546DE46E0B554
:10CDD0001F26A94BA94F9D6A9C6A9B6A89B0AD0A20
:10CDE00064093800354034401E4000F0C7FF002879
:10CDF00000D13EE1A24B38001F603B68A149DB69CE
:10CE00009847A14FA14BA24839009A46186000F0FC
:10CE1000B7FC002808D153469E483900186000F03E
:10CE2000AFFC002800D11AE153463900186800F021
:10CE3000DBFC994B0021994618605346186800F0B6
:10CE400081FC964B47B21F609B4653461B683900D6
:10CE500098464B461A6880235B0204930392931C06
:10CE600010321203DB0113438D4A40461340C022A7
:10CE7000D20513430593C0231B0306938023DB05D0
:10CE8000079300232A000093013300F0DDFD854B5A
:10CE9000280043445A1E9341063319009946FBF774
:10CEA00037FA280000220121FBF74AFA07997E4B46
:10CEB000EA030B401343059907937C4B2D060B4067
:10CEC0001D437B4A069B05951A408023DB021343D2
:10CED000069301231D00B340A5401D432B000022F3
:10CEE0003900404600F00CFD2B000022390040467E
:10CEF00000F058FD20004946FBF70AFA3000494689
:10CF0000FBF706FA200000220121FBF719FA300096
:10CF100000220121FBF714FA069B664A07991A4082
:10CF200080231B0313430693634B644A0B40234344
:10CF30001340A4021C43624B76011C401F2326436E
:10CF40008224039AE404113213405E4A264313609C
:10CF50005D4B5E4A05201A600796FCF7F9FEFFF765
:10CF60007BFA5B49FFF75DFA051CFFF7CFFA84B245
:10CF70000023002C55D12404039A1C43390004AB30
:10CF80004046049400F0B8FD43461A680123BB40B4
:10CF900013434246136052463E4B12689A425BD09E
:10CFA000092009234B4C2370FBF71AFB002807D0FC
:10CFB0002078013040B22070FBF712FB002855D1D9
:10CFC0000020802220564449FBF732FB002001213B
:10CFD0002056FBF7C1FA53461968324B0020CB1894
:10CFE0005A42534101225B42205693430933C31AEC
:10CFF0003A4803605846006823D1FF2303409A4013
:10D0000080232D31FF319B0119430A6001213448EF
:10D01000FFF74AFC09B03CBC90469946A246AB4695
:10D02000F0BD2000FFF718FA011C281CFFF7F3F9E8
:10D030008721C905FFF709FAFFF768FAC3B21B0297
:10D0400099E7FF2303409A400B0080213933FF33D7
:10D05000890119430A60D9E707200723A2E70122C3
:10D060000D4B52421F481A60FCF7AEFF1E48FCF7FA
:10D07000ABFF1E48FCF7A8FF00800540A805002074
:10D08000340700206C0400207CE40010680C0020B1
:10D090000000305000002050640C0020980E00204A
:10D0A000FFFFFF9F0000E0AFFF7FF0FFFFFFFFE00B
:10D0B000FFFF0AFEFFFFF5C1E0FF0FFCFF83FFFF4C
:10D0C0001FFCFFE3940B00200807002040E0000055
:10D0D0000024F449CC1000205DC900108C0B002006
:10D0E0005404002054E4001068E400103CE40010F4
:10D0F00070B5214D21482968214C00680A1D23681C
:10D10000D2B2002832D00120060096403933C02226
:10D11000FF3392011343FF22114088401E601860C4
:10D120000020184E00213056FBF716FA0020164951
:10D130003056FBF75FFB0122296820688A400368AC
:10D14000124993430360124B1A6800F0BFFB296831
:10D15000206800F0E7FA0F4C0F49206803681B6A4B
:10D160009847206803685B6B984770BD01200600F4
:10D170002D339640CBE7C046980E00208C0B002044
:10D18000680C0020CC1000205DC900107CE4001069
:10D19000640C0020340700206C040020F8B50278ED
:10D1A00006001500303DEDB20F004378092D01D97E
:10D1B000373AD5B21C00303CE4B2092C01D9373BD8
:10D1C000DCB2072D01D80F2C00D9F8BD00F00CFE01
:10D1D000BA1E0100B01C00F011FF0028F5D1084B69
:10D1E000280120181A78C0B28242EED0187000F0E0
:10D1F000FFFDFFF77DFF00F007FEFFF7E3FDE4E72B
:10D20000500400200FB4F0B5CE46474680B593B029
:10D210001AAB04CB02AC402120000193FEF700FAC8
:10D220002378002B32D01D491D4F0E0088468946B9
:10D230003A68203609E03F2A04DC4046511C8354FA
:10D240000A0039602378002B20D001340A2BF2D158
:10D25000002349468B5400F0CDF8002810D04B46EF
:10D260001878002809D05D1C02E00135AE4204D0D8
:10D2700000F0ECF828780028F7D1012000F008F938
:10D2800000233B6023780022002BDED113B00CBCBE
:10D2900090469946F0BC08BC04B01847DC0B00204F
:10D2A0003C0700207047C04610B5FFF715FB19205A
:10D2B000FBF75EF8D02380221B0692045A62FFF728
:10D2C00081FD00F07DFD00F099FD074B1870FAF725
:10D2D000C9FF064C206803689B6A002B00D0984762
:10D2E000FFF7E0FFF6E7C0465004002034070020B7
:10D2F0007047C0467047C046F8B5394B4746CE46E2
:10D300009946384B80B59846374F384C00F0A8F90D
:10D310003860002830D000234A462370C3B2DB09AE
:10D32000137042464306DB0F13703F2318403860EA
:10D3300041D0002500232E4E0133237000F0C6F9A2
:10D3400023783A6870551D009342F5DB00F0E0F950
:10D350004B461B78002B13D000232578735543468A
:10D360001B78002B15D129003000FAF7C5FF00F01B
:10D3700077F938600028CED10CBC90469946F8BDAC
:10D3800043461B78002B11D130002178FAF786FF35
:10D39000BCE73378422B10D0462B14D04E2BB5D19E
:10D3A000013DE9B2701CFFF7F9FEAFE730002178CC
:10D3B000FFF79EFFAAE70E4EC8E7013DE9B2701CD9
:10D3C000FFF798FFA2E700F00FFD013D0100EAB270
:10D3D000701C00F013FE002898D1FFF7E5FCC04652
:10D3E000CB100020CA100020600C0020C9100020C3
:10D3F000200C00200F4B104A1B681268D21A03D56C
:10D40000802189008C466244212A10DD0B495A1C78
:10D410008C466344591E8B415B421A40084B0120E5
:10D420001A600023074A1360074A13607047002000
:10D43000FCE7C04680040020AC10002001FEFFFF86
:10D44000C0100020BC100020B810002010B50B4CFC
:10D450000B49A4460B680B4AD0545A1C63445C1E0B
:10D46000A3415B421A400A60074A13680133136004
:10D47000064B1A6894466044186010BD01FEFFFF19
:10D48000C0100020AC0E0020BC100020B8100020FE
:10D4900010B5002817D10F4B1B680F490F480A68B9
:10D4A0000F4C835422689A180E4B22601B6852421C
:10D4B000C2540D485A1C84466344581E83415B4243
:10D4C0001A400A6010BD8023024A11680B431360A2
:10D4D000E3E7C046BC10002080040020AC0E002012
:10D4E000B8100020C010002001FEFFFF0F4B104AB3
:10D4F0001B681268D21A511E01D50E495118002915
:10D5000012D00D495A1C8C466344591E8B411F2072
:10D510005B421A40094B1A60094B9B5C1840094B4F
:10D5200002301860C0B270470020FCE7AC10002049
:10D5300080040020FF01000001FEFFFFB410002066
:10D54000AC0E0020B01000200C4910B50B68002B69
:10D5500011D00B4C0B482268013B805C0B60002B08
:10D5600008D00949531C8C466244511E8A415242DC
:10D570001340236010BD0020FCE7C046B01000201F
:10D58000B4100020AC0E002001FEFFFF024B1A6811
:10D59000024B1A607047C046B4100020AC10002047
:10D5A0000E4B0F4A1B681268D21A03D580218900DE
:10D5B0008C466244212A0EDD0A495A1C8C4663447B
:10D5C000591E8B415B421A40074B01201A60002212
:10D5D000064B1A6070470020FCE7C0467C04002020
:10D5E0007C0E002001FEFFFF8C0E0020880E002024
:10D5F0000849094A0B68D05408485A1C84466344B9
:10D60000581E83415B421A400A60054A1368013381
:10D61000136070478C0E00207C0C002001FEFFFF81
:10D62000880E00200A4A00280DD11368002902D074
:10D6300040210B431360074A074910680B54074BFE
:10D640001B68136070478023106803431360EDE785
:10D65000880E00207C0400207C0C00208C0E002012
:10D66000144B154A1B681268D21A511E01D5134972
:10D67000511800291CD080215A1C89008A420FD0E1
:10D680000F49885C3F220F4902400A609A1CFF3B09
:10D69000FF3B591E8B415B421A400B4B1A6070478F
:10D6A000074B084A18783F23034013600122F4E730
:10D6B0000020F4E77C0E00207C040020FF01000025
:10D6C0007C0C0020800E0020840E00200C4910B538
:10D6D0000B68002B11D00B4C0B482268013B805C7F
:10D6E0000B60002B08D00949531C8C466244511E24
:10D6F0008A4152421340236010BD0020FCE7C0461F
:10D70000800E0020840E00207C0C002001FEFFFF14
:10D71000024B1A68024B1A607047C046840E002004
:10D720007C0E0020054B10B59C4660444342584196
:10D73000800041180248FAF7C9FE10BD0000D0AFC2
:10D74000C61000200B4B10B59C4660444442444137
:10D75000094AA40082B0009208482200E31CFAF7AC
:10D7600067FE844202DC001B02B010BD0120404273
:10D77000FAE7C0460000D0AFBCE40010C61000209D
:10D7800070B50D000400FAF719FE154B05219C46F3
:10D79000644463425C41134BA400E458012369567E
:10D7A0002D792022AB40521B013B00290ADB91421C
:10D7B00013DC8B4023405C425C41E4B2FAF70AFE82
:10D7C000200070BD002A02DA07E0013A05D31900F3
:10D7D00091400C42F9D10124F0E70024EEE7C04665
:10D7E0000000D0AFEC050020F0B5DE4645465746B8
:10D7F0004E46E0B5060083B00D00FAF7DFFD304B72
:10D800002F79F1184B4259412E4B052498468B0035
:10D810009B4643465A469B5820229C460123BB40C8
:10D8200001902C57013BD21B002C32DB944243DC8D
:10D83000A34062461A423FD19946002F18D06B7818
:10D840002A781B021A43AB781B041343EA781206AA
:10D850001A439246002351465A008D5A6A0B00D152
:10D860002D191A1912329200013395519F42F2D8A4
:10D8700063464A4659461343424601985350FAF7C5
:10D88000A9FD200003B03CBC90469946A246AB4699
:10D89000F0BD002A10DB1900604691401400894653
:10D8A000014207D1C9E71800614690401400814643
:10D8B0000842C2D0013AF6D20348FCF785FBC046C5
:10D8C0000000D0AFEC050020E0E4001070B50125A9
:10D8D0000B7904009D40013D9540FAF76FFD064B22
:10D8E00006499C466444634263419B005A58AA43DC
:10D8F0005A50FAF76FFD70BD0000D0AFEC05002064
:10D90000F0B5DE4657464E4645468B46E0B51C0010
:10D9100085B04B0003935B44DB00C5182E00DC365A
:10D9200017003268844600922A00CC321268CC3349
:10D930000192C0226344920113438022920202901A
:10D940001A60002C19D08023DB049A4601239946E3
:10D95000E0231B029846D8352000FDF78FFE524683
:10D960004301134333603B004A46C34013404246E1
:10D9700013432B60631E1C40EED1039B009A5B4453
:10D98000D800029B9C4660440300DC331A60019B74
:10D99000CC30036005B03CBC90469946A246AB46ED
:10D9A000F0BDC046F0B5DE4657464E4645468B466E
:10D9B000E0B51C0085B04B0003935B44DB00C51849
:10D9C0002E00DC3617003268844600922A00CC32E2
:10D9D0001268CC330192C022634492011343802227
:10D9E000920202901A60002C18D08023DB049A4621
:10D9F00001239946134BD83598462000FDF73EFE8B
:10DA000052464301134333603B004A46C340134030
:10DA1000424613432B60631E1C40EED1039B009AC9
:10DA20005B44D800029B9C4660440300DC331A60D0
:10DA3000019BCC30036005B03CBC90469946A246A1
:10DA4000AB46F0BD80E00000F0B557464E46454677
:10DA5000DE468946E0B583B00CA90D7849464900F9
:10DA600088464944C900461837003400DC37019025
:10DA70003868CC3483462068C02482460198CC3173
:10DA80008446A401614421438024A4020C60691EE1
:10DA90008D411F216D420D4016498C466544052B72
:10DAA0000ED9A02149058C461F21D8366046540165
:10DAB00004430532053B3C600A403560052BF5D830
:10DAC00041469B0652011A434944019BC90058181C
:10DAD0000300DC331A600200D83215605A461A601F
