:020000040000FA
:10000000F3EF18F0C96E120077EF15F0C80000008A
:10001000000000FF0000000069EF17F0D9CFE5FFF6
:10002000E1CFD9FF00C0E5FF01C0E5FF02C0E5FF59
:1000300003C0E5FF04C0E5FF05C0E5FF06C0E5FF1E
:1000400007C0E5FF08C0E5FF09C0E5FF0AC0E5FFFE
:100050000BC0E5FF0CC0E5FF0DC0E5FF0EC0E5FFDE
:100060000FC0E5FF10C0E5FF11C0E5FF12C0E5FFBE
:1000700013C0E5FF14C0E5FF15C0E5FF16C0E5FF9E
:1000800017C0E5FF18C0E5FF19C0E5FF1AC0E5FF7E
:100090001BC0E5FF1CC0E5FF1DC0E5FF1EC0E5FF5E
:1000A000020EDBCF00F0030EDBCF01F0040EDBCF3E
:1000B00002F0050EDBCF03F0060EDBCF04F0070ED7
:1000C000DBCF05F0080EDBCF06F0090EDBCF07F023
:1000D0000A0EDBCF08F0096A0A6A02C00DF00D5063
:1000E000800A0DE102500F01256F0150246F00506E
:1000F000236F0F0E016E230E006E800E026E03C082
:10010000E9FF04C0F3FF05502CEC19F00B6E0B5007
:10011000D8B4FCEF03F00B50250A02E0E3EF03F044
:100120000C6A0D6A0E6A0F6A106A0A0E116E126A64
:10013000136A146A200E156E1668176A2B0E186E55
:10014000032A02E3044A052A03C0E9FF04C0F3FFBF
:1001500005502CEC19F0196E250A13E11950E56EC3
:100160000250E56E0150E56E0050E56EC9EC0EF0F0
:10017000040EE126094A0A2A032A02E3044A052A50
:10018000BED71950300A06E1300E156E032A02E37D
:10019000044A052A03C0E9FF04C0F3FF05502CEC14
:1001A00019F02D0A06E1010E146E032A02E3044A37
:1001B000052A03C0E9FF04C0F3FF05502CEC19F039
:1001C000200A08E1010E176E200E186E032A02E3C2
:1001D000044A052A03C0E9FF04C0F3FF05502CECD4
:1001E00019F02B0A06E1010E176E032A02E3044AF6
:1001F000052A03C0E9FF04C0F3FF05502CEC19F0F9
:10020000196E800F4F0F2DE31950800F460F29E212
:1002100003C019F004C01AF005C01BF019C0E9FFB3
:100220001AC0F3FF1B502CEC19F01C6E800F500FFE
:1002300012E31C50800F460F0EE213500A0DF3CF4D
:100240001DF01D501C26D00E1C24136E192A02E32B
:100250001A4A1B2AE3D719C003F01AC004F01BC0C6
:1002600005F003C0E9FF04C0F3FF05502CEC19F0C2
:100270002E0A2EE1032A02E3044A052A166A03C065
:1002800019F004C01AF005C01BF019C0E9FF1AC02C
:10029000F3FF1B502CEC19F01C6E800F500F12E373
:1002A0001C50800F460F0EE216500A0DF3CF1DF0C2
:1002B0001D501C26D00E1C24166E192A02E31A4A61
:1002C0001B2AE3D719C003F01AC004F01BC005F0C5
:1002D00003C0E9FF04C0F3FF05502CEC19F0196EC0
:1002E0006C0A07E1010E0C6E032A02E3044A052A98
:1002F00009D01950680A06E1010E0E6E032A02E3C6
:10030000044A052A03C0E9FF04C0F3FF05502CECA2
:1003100019F0750A06E1010E106E032A02E3044A81
:10032000052A03C0E9FF04C0F3FF05502CEC19F0C7
:10033000196E730A05E1010E0D6E200E156E3FD089
:100340001950780A03E1100E116E39D01950580A6D
:1003500005E1100E116E010E126E31D01950630AB4
:1003600002E1116A2CD019506F0A03E1080E116ED8
:1003700026D01950660A03E1010E0F6E20D01950E5
:10038000640A1DE01950690A1AE0105005E0FF0EDA
:1003900003260422052213D01950E56E0250E56EA3
:1003A0000150E56E0050E56EC9EC0EF0040EE1263A
:1003B000094A0A2A032A02E3044A052AA0D60D5054
:1003C00021E00650030F0D6E000E0720196E000E7F
:1003D00008201A6E0DC006F019C007F01AC008F008
:1003E000FD0E0D26FF0E19221A220DC0E9FF19C0BD
:1003F000F3FF1A5008EC18F00D6EF3CF19F0F4CF9C
:100400001AF032D10F50D8B43ED00650040F0F6E00
:10041000000E07201B6E000E08201C6E0FC006F099
:100420001BC007F01CC008F0FC0E0F26FF0E1B229D
:100430001C220FC0E9FF1BC0F3FF1C508EEC17F00D
:100440000F6EF3CF1BF0F4CF1CF0E9CF1DF0040EBC
:10045000196E000E0D6E800E1A6E1650E56E240E8B
:10046000E56E040EE56E000EE56E1D50E56E1C5047
:10047000E56E1B50E56E0F50E56E17EC09F0080EA7
:10048000E1261668F1D016680C5023E00650040FE0
:100490000C6E000E07200F6E000E08201B6E0CC0A5
:1004A00006F00FC007F01BC008F0FC0E0C26FF0E74
:1004B0000F221B220CC0E9FF0FC0F3FF1B508EEC74
:1004C00017F00C6EF3CF0FF0F4CF1BF0E9CF1CF058
:1004D0006AD00E5032E00650020F0E6E000E07205A
:1004E0001D6E000E08201E6E0EC006F01DC007F027
:1004F0001EC008F0FE0E0E26FF0E1D221E220EC08C
:10050000E9FF1DC0F3FF1E50C7EC18F00E6E0EC0C1
:100510000CF0E86A0EBEFF0E0F6E1B6E1C6E1150C3
:100520000A0A03E11050D8B43ED00C500E6E0EC033
:100530000CF00F6A1B6A1C6A36D00650020F0E6E52
:10054000000E07201D6E000E08201E6E0EC006F065
:100550001DC007F01EC008F0FE0E0E26FF0E1D2265
:100560001E220EC0E9FF1DC0F3FF1E50C7EC18F09D
:100570000E6EF3CF1DF00EC00CF01DC00FF0E86A38
:100580001DBEFF0E1B6E1C6E11500A0A02E11050B8
:100590000AE00C500E6E0F501D6E0EC00CF01DC008
:1005A0000FF01B6A1C6A040E196E010E0D6E800E90
:1005B0001A6E1150D8B440D0105013E01150E56EAF
:1005C000040EE56E010EE56E1C50E56E1B50E56EE7
:1005D0000F50E56E0C50E56E2BEC0BF0070EE1268C
:1005E00012D01150E56E040EE56E010EE56E1C5042
:1005F000E56E1B50E56E0F50E56E0C50E56EDBECC2
:1006000011F0070EE12617502FE00DC0E9FF19C0C9
:10061000F3FF1A502CEC19F02D0A26E0FF0E0D26E0
:1006200019221A2218C0E5FF0DC0E9FF19C0F3FF17
:100630001A50AAEC19F018D00CC0E5FF0DC0E9FF64
:1006400019C0F3FF1A50AAEC19F00D50010F0C6EEF
:10065000000E19200E6E000E1A20E56A0CC0E9FF8C
:100660000EC0F3FFAAEC19F00DC00CF019C00EF08B
:100670001AC00FF013C010F0105010E00CC0E9FFCA
:100680000EC0F3FF0F502CEC19F0176E175006E058
:100690000C2A02E30E4A0F2A1006EED710C013F000
:1006A00014501EE109C00CF00AC00EF010C00FF08B
:1006B0000F5010E01550E56E0250E56E0150E56EEA
:1006C0000050E56EC9EC0EF0040EE1260C4A0E2A2D
:1006D0000F06EED70CC009F00EC00AF00FC013F0E1
:1006E00016C00CF00DC00DF019C00EF01AC00FF0BE
:1006F00009C010F00AC015F00DC0E9FF0EC0F3FFED
:100700000F502CEC19F0166E1650D8B43ED00CC019
:1007100016F0176A161E171E1650171005E00CC0AB
:1007200016F00C06165031E00DC0E9FF0EC0F3FFC5
:100730000F502CEC19F0116E125010E01150E56EB4
:1007400084EC18F0166EE652165004E01150166E46
:10075000169A02D011C016F016C011F01150E56EB5
:100760000250E56E0150E56E0050E56EC9EC0EF0EA
:10077000040EE1260D2A02E30E4A0F2A104A152A1A
:100780001350D8B4B9D71306B7D710C009F015C0A5
:100790000AF014502BE010C00CF015C00DF013C07F
:1007A0000EF00E501FE0200EE56E0250E56E015077
:1007B000E56E0050E56EC9EC0EF0040EE1260C4A21
:1007C0000D2A0E06EED70B50E56E0250E56E015075
:1007D000E56E0050E56EC9EC0EF0040EE126094A04
:1007E0000A2A04D00CC009F00DC00AF0032A02E363
:1007F000044A052A7FEF00F00AC0F3FF0950E4CF56
:100800001EF0E4CF1DF0E4CF1CF0E4CF1BF0E4CFEA
:100810001AF0E4CF19F0E4CF18F0E4CF17F0E4CFEA
:1008200016F0E4CF15F0E4CF14F0E4CF13F0E4CFEA
:1008300012F0E4CF11F0E4CF10F0E4CF0FF0E4CFEA
:100840000EF0E4CF0DF0E4CF0CF0E4CF0BF0E4CFEA
:100850000AF0E4CF09F0E4CF08F0E4CF07F0E4CFEA
:1008600006F0E4CF05F0E4CF04F0E4CF03F0E4CFEA
:1008700002F0E4CF01F0E4CF00F0E4CFD9FF1200A2
:1008800005C0E5FF06C0E5FF07C0E5FF08C0E5FFBE
:1008900009C0E5FF0AC0E5FF0BC0E5FF0CC0E5FF9E
:1008A0000DC0E5FF0EC0E5FF0FC0E5FF10C0E5FF7E
:1008B00011C0E5FF12C0E5FF13C0E5FF14C0E5FF5E
:1008C00015C0E5FF16C0E5FF17C0E5FF18C0E5FF3E
:1008D00019C0E5FF1AC0E5FF1BC0E5FF1CC0E5FF1E
:1008E0001DC0E5FF000E00B0050F066AF60F02E31B
:1008F000062AFCD70A0F056E042E03D0FB0F01E376
:10090000062A065000B0020F00B2050F076AF60F64
:1009100002E3072AFCD70A0F066E042E03D0FB0F52
:1009200001E3072A075000B0060F00B2020F00B41F
:10093000050F086AF60F02E3082AFCD70A0F076EB4
:10094000042E03D0FB0F01E3082A085000B2010F68
:1009500000B4020F00B6050F096AF60F02E3092A78
:10096000FCD70A0F086E042E03D0FB0F01E3092AFF
:10097000095000B0090F00B2080F00B4060F00B60E
:10098000020F00B8050F0A6AF60F02E30A2AFCD725
:100990000A0F096E042E03D0FB0F01E30A2A0A5046
:1009A00000B0030F00B2070F00B4050F00B6010F2F
:1009B00000B8020F00BA050F0B6AF60F02E30B2A0C
:1009C000FCD70A0F0A6E042E03D0FB0F01E30B2A9B
:1009D0000B5000B0050F00B4010F00B6030F00B8B4
:1009E000060F00BA020F00BC050F0C6AF60F02E3F7
:1009F0000C2AFCD70A0F0B6E042E03D0FB0F01E369
:100A00000C2A0C5000B0070F00B2050F00BA010FFE
:100A100000BC020F00BE050F0D6AF60F02E30D2A9F
:100A2000FCD70A0F0C6E042E03D0FB0F01E30D2A36
:100A30000D5000B0070F00B2050F00B4010F00B653
:100A4000020F00B8040F00BA080F00BC060F00BE6A
:100A5000020F01B0050F0E6AF60F02E30E2AFCD753
:100A60000A0F0D6E042E03D0FB0F01E30E2A0E5069
:100A700000B0040F00B2090F00B4090F00B6080F50
:100A800000B8060F00BA020F00BC050F00BE010F30
:100A900001B0020F01B2050F0F6AF60F02E30F2A31
:100AA000FCD70A0F0E6E042E03D0FB0F01E30F2AB2
:100AB0000F5000B0040F00B2080F00B4070F00B6CB
:100AC000050F00B8010F00BA030F00BC060F00BEEF
:100AD000030F01B0060F01B2020F01B4050F106A37
:100AE000F60F02E3102AFCD70A0F0F6E042E03D074
:100AF000FB0F01E3102A105000B0060F00B2020FE6
:100B000000B4050F00B6010F00B8030F00BA060FBE
:100B100000BC020F00BE050F01B2010F01B4020FAD
:100B200001B6050F116AF60F02E3112AFCD70A0F6E
:100B3000106E042E03D0FB0F01E3112A115000B0F8
:100B4000040F00B2090F00B4080F00B6070F00B879
:100B5000040F00BA080F00BC070F00BE040F01B05D
:100B6000090F01B2080F01B4060F01B6020F01B858
:100B7000050F126AF60F02E3122AFCD70A0F116E54
:100B8000042E03D0FB0F01E3122A125000B4010F10
:100B900000B6030F00B8070F00BA040F00BC090F1E
:100BA00000BE090F01B0080F01B2070F01B4050F15
:100BB00001B6010F01B8020F01BA050F136AF60F53
:100BC00002E3132AFCD70A0F126E042E03D0FB0F88
:100BD00001E3132A135000B0060F00B2020F00B455
:100BE000040F00B6080F00B8060F00BA030F00BCD0
:100BF000060F00BE030F01B0070F01B2050F01B4CD
:100C0000010F01B6030F01B8060F01BA020F01BCB4
:100C1000050F146AF60F02E3142AFCD70A0F136EAD
:100C2000042E03D0FB0F01E3142A145000B0090F67
:100C300000B2090F00B4080F00B6060F00B8030F8A
:100C400000BA070F00BC040F00BE090F01B0080F67
:100C500001B2070F01B4050F01BA010F01BC020F69
:100C600001BE050F156AF60F02E3152AFCD70A0F1D
:100C7000146E042E03D0FB0F01E3152A155000B0AB
:100C8000050F00B2010F00B4030F00B6070F00B844
:100C9000050F00BC010F00BE020F01B0050F01B22D
:100CA000010F01B4030F01B6070F01B8040F01BA19
:100CB000080F01BC060F01BE020F02B0050F166A35
:100CC000F60F02E3162AFCD70A0F156E042E03D086
:100CD000FB0F01E3162A165000B2010F00B4020FF9
:100CE00000B6040F00B8090F00BA090F00BC080FC6
:100CF00000BE060F01B0020F01B2050F01B8010FCF
:100D000001BA020F01BC050F01BE010F02B0020FB4
:100D100002B2050F176AF60F02E3172AFCD70A0F73
:100D2000166E042E03D0FB0F01E3172A175000BAEA
:100D3000010F00BC030F00BE070F01B0050F01B487
:100D4000010F01B6020F01B8040F01BA080F01BC70
:100D5000060F01BE030F02B0060F02B2020F02B46B
:100D6000050F186AF60F02E3182AFCD70A0F176E50
:100D7000042E03D0FB0F01E3182A185001B0010F15
:100D800001B2030F01B4060F01B6020F01B8040F40
:100D900001BA080F01BC070F01BE050F02B2010F17
:100DA00002B4020F02B6050F196AF60F02E3192A00
:100DB000FCD70A0F186E042E03D0FB0F01E3192A8B
:100DC000195001B6010F01B8020F01BA040F01BC9E
:100DD000090F01BE090F02B0090F02B2080F02B4D9
:100DE000060F02B6020F02B8050F1A6AF60F02E3E9
:100DF0001A2AFCD70A0F196E042E03D0FB0F01E349
:100E00001A2A1A5001BE010F02B0030F02B2070FD7
:100E100002B4050F02B6010F02B8020F02BA050FA5
:100E20001B6AF60F02E31B2AFCD70A0F1A6E042E68
:100E300003D0FB0F01E31B2A1B5002B4010F02B6C3
:100E4000030F02B8060F02BA020F02BC050F1C6A9C
:100E5000F60F02E31C2AFCD70A0F1B6E042E03D0E8
:100E6000FB0F01E31C2A1C5002BA010F02BC020F47
:100E700002BE050F1D6AF60F02E31D2AFCD70A0FFA
:100E80001C6E042E03D0FB0F01E31D2A300FEE6E03
:100E90001B50300FEE6E1A50300FEE6E1950300F9F
:100EA000EE6E1850300FEE6E1750300FEE6E16507B
:100EB000300FEE6E1550300FEE6E1450300FEE6E98
:100EC0001350300FEE6E1250300FEE6E1150300F87
:100ED000EE6E1050300FEE6E0F50300FEE6E0E5063
:100EE000300FEE6E0D50300FEE6E0C50300FEE6E78
:100EF0000B50300FEE6E0A50300FEE6E0950300F6F
:100F0000EE6E0850300FEE6E0750300FEE6E06504A
:100F1000300FEE6E0550300FEE6E170EE4CF1DF061
:100F2000E4CF1CF0E4CF1BF0E4CF1AF0E4CF19F0CB
:100F3000E4CF18F0E4CF17F0E4CF16F0E4CF15F0CB
:100F4000E4CF14F0E4CF13F0E4CF12F0E4CF11F0CB
:100F5000E4CF10F0E4CF0FF0E4CF0EF0E4CF0DF0CB
:100F6000E4CF0CF0E4CF0BF0E4CF0AF0E4CF09F0CB
:100F7000E4CF08F0E4CF07F0E4CF06F0E4CF05F0CB
:100F8000120000C0E5FF01C0E5FF02C0E5FF03C09D
:100F9000E5FF04C0E5FF05C0E5FF06C0E5FF07C0AB
:100FA000E5FF08C0E5FF09C0E5FF0AC0E5FF0BC08B
:100FB000E5FF0CC0E5FF0DC0E5FF0EC0E5FF000E2C
:100FC00000B0010F00B2020F00B4040F00B6080F0A
:100FD00000B8060F00BA020F00BC040F00BE080FD5
:100FE00001B0060F01B2020F01B4040F01B6080FE1
:100FF00001B8060F01BA020F01BC040F01BE080FB1
:1010000002B0060F02B2020F02B4040F02B6080FBC
:1010100002B8060F02BA020F02BC040F02BE080F8C
:10102000056AF60F02E3052AFCD70A0F046E055085
:1010300000B8010F00BA030F00BC060F00BE020F7C
:1010400001B0050F01B2010F01B4020F01B6040F88
:1010500001B8090F01BA090F01BC080F01BE060F44
:1010600002B0030F02B2070F02B4040F02B6080F5A
:1010700002B8070F02BA050F066AF60F02E3062A46
:10108000FCD70A0F056E065000BE010F01B0020F1B
:1010900001B2050F01BA010F01BC030F01BE070F1A
:1010A00002B0050F02B4010F02B6020F02B8050F1D
:1010B00002BA010F02BC030F02BE060F076AF60F49
:1010C00002E3072AFCD70A0F066E075001B4010F8E
:1010D00001B6020F01B8040F01BA080F01BC060FD8
:1010E00001BE020F02B0050F02B2010F02B4020FDF
:1010F00002B6040F02B8080F02BA070F02BC040FB1
:1011000002BE080F086AF60F02E3082AFCD70A0F8E
:10111000076E085001BC010F01BE030F02B0060F9D
:1011200002B2030F02B4060F02B6020F02B8040F98
:1011300002BA090F02BC090F02BE080F096AF60FB6
:1011400002E3092AFCD70A0F086E095002B2010F08
:1011500002B4020F02B6050F02BC010F02BE030F5C
:101160000A6AF60F02E30A2AFCD70A0F096E0A5030
:1011700002B8010F02BA020F02BC040F02BE080F30
:101180000B6AF60F02E30B2AFCD70A0F0A6E0B500C
:101190000E6A0EE10A5010E1095012E1085014E104
:1011A000075016E1065018E105501AE104501CD012
:1011B0000E2A300FEE6E0A500E2A300FEE6E0950D6
:1011C0000E2A300FEE6E08500E2A300FEE6E0750CA
:1011D0000E2A300FEE6E06500E2A300FEE6E0550BE
:1011E0000E2A300FEE6E04500E2A300FEE6E0E50A7
:1011F000E4CF0EF0E4CF0DF0E4CF0CF0E4CF0BF031
:10120000E4CF0AF0E4CF09F0E4CF08F0E4CF07F030
:10121000E4CF06F0E4CF05F0E4CF04F0E4CF03F030
:10122000E4CF02F0E4CF01F0E4CF00F01200D9CF18
:10123000E5FFE1CFD9FF00C0E5FF01C0E5FF02C037
:10124000E5FF03C0E5FF04C0E5FF05C0E5FF06C0FC
:10125000E5FF07C0E5FF08C0E5FF09C0E5FF0AC0DC
:10126000E5FF0BC0E5FF020EDBCF00F0030EDBCF86
:1012700001F0040EDBCF02F0050EDBCF03F0060E0B
:10128000DBCF04F0070EDBCF05F0080EDBCF06F056
:10129000090EDBCF07F006C008F0060608500EE086
:1012A00006500424086EE86A06BEE8680520096E48
:1012B00008C0E9FF09C0EAFFEF6AEDD7005004015A
:1012C000856F0150866F0250876F0350886F85C409
:1012D00000F086C401F087C402F088C403F0066AF7
:1012E000086A096A800E03140A6E065007E1085066
:1012F00005E1095003E10A50800A01E012D0039E83
:1013000000500401856F0150866F0250876F0350B3
:10131000886F04C0E9FF05C0EAFF2D0EEF6E044A96
:10132000052A0401873588357E08006E8551016ED7
:101330008651026E7F0E8715036E066A038E086A59
:10134000096A0A6A0B6A005019E0D88000AED8908A
:101350000EE30850082609360A360B3603BE08800D
:1013600001500126023603360636002AECD7D89003
:1013700006320332023201320006E5D70850091066
:101380000A100B1012E00550E56E0450E56E0B508C
:10139000E56E0A50E56E0950E56E0850E56E76EC94
:1013A00016F0006E060EE12608D004C0E9FF05C065
:1013B000EAFF300EEF6E010E006E00500426E86A60
:1013C00000BEE8680522075028E004C0E9FF05C018
:1013D000EAFF2E0EEF6E002A044A052A075018086D
:1013E000E56E0550E56E0450E56E0650E56E03505F
:1013F000E56E0250E56E0150E56EE3EC15F0016E0E
:10140000070EE1260150002607500426E86A05224F
:1014100004C0E9FF05C0EAFFEF6A0050E4CF0BF01B
:10142000E4CF0AF0E4CF09F0E4CF08F0E4CF07F00E
:10143000E4CF06F0E4CF05F0E4CF04F0E4CF03F00E
:10144000E4CF02F0E4CF01F0E4CF00F0E4CFD9FF25
:10145000120000C0E5FF01C0E5FF04012C51D8B423
:10146000F5D09DA81DD09EA81BD00F0130510F01B3
:101470002D1905E16BEC19F00F012D6BE7D0000E73
:101480000F013025006E016A0F0E012200C0E9FF36
:1014900001C0EAFFEFCF29FF302B29CFADFFD6D017
:1014A0009EAAD4D0ABA205D00F012E816BEC19F00F
:1014B000CDD0ABA405D00F012E836BEC19F0C6D0B4
:1014C000ABA03ED0AECF29FF800E04012D110F013D
:1014D000291904E10F012E89AB96B8D00F012951CB
:1014E00004E0295104012D1927E10F012E99AB9633
:1014F0000F01295103E00F012E9702D00F012E8713
:1015000029CF32FF2BCF33FF0F012B050F01346F93
:10151000600E0F013325006E016A000E012200C02B
:10152000E9FF01C0EAFF29CFEFFF332B3351800AD7
:1015300002E10F01336B8AD00F012E99AB8686D062
:10154000AECF29FF0F012EA919D0800E04012D1155
:101550000F01291911E18B909D9AAB980F012D5124
:1015600004E1AD6A6BEC19F007D000CFADFF010EBE
:101570000F01306F9D886AD0AB8668D00F0129516A
:101580000F0132270F0133510F0134191BE10F01F5
:1015900032510CE133CF2BFF0F012EB712D08B90BD
:1015A0009D9AAB98AD6A6BEC19F00BD00F012E85AC
:1015B0002EB707D08B909D9AAB98010EAD6E6BEC59
:1015C00019F044D00F0133510F012C1908E10F011C
:1015D0002C510F012B1903E06BEC19F037D02BCFF6
:1015E00000F0016A004A012AE56A800EE56E0150AA
:1015F000E56E0050E56ECDEC0FF0006E040EE126B6
:1016000000500F012A6F0F0133190CE11F0E0F015B
:1016100029150F01346F342B342B0F012B510F017F
:101620003427349F33CF00F00F01332B016A600E53
:101630000026000E012200C0E9FF01C0EAFF29CF09
:10164000EFFF3351800A02E10F01336BE4CF01F069
:10165000E4CF00F01200D9CFE5FFE1CFD9FF00C001
:10166000E5FF01C0E5FF02C0E5FF03C0E5FF04C0E0
:10167000E5FF05C0E5FF06C0E5FF07C0E5FF08C0C0
:10168000E5FF09C0E5FF0AC0E5FF0BC0E5FF0CC0A0
:10169000E5FF0DC0E5FF0EC0E5FF0FC0E5FF020E40
:1016A000DBCF00F0030EDBCF01F0040EDBCF02F046
:1016B000050EDBCF03F0060EDBCF04F0070EDBCF09
:1016C00005F0080EDBCF06F0200E076E086A06C094
:1016D00009F00A6A0B6A0C6AE56AE56AE56A09506C
:1016E000E56E0350E56E0250E56E0150E56E005068
:1016F000E56E07EC0CF00D6E080EE126300E0D269F
:101700003A0E0D5C05E30D500E6E270E0E240D6E85
:10171000FF0E07260822E00E07240E6E000E08209A
:101720000F6E0EC0E9FF0FC0EAFF0DC0EFFF0C50B7
:10173000E56E0B50E56E0A50E56E0950E56E0350FC
:10174000E56E0250E56E0150E56E0050E56EB4ECBA
:101750000DF0006EF3CF01F0F4CF02F0E9CF03F00B
:10176000080EE1260050011002100310D8A4AFD7D4
:1017700007C000F008C001F004C002F005C003F08B
:1017800000C004F001C005F0004A012AE00E042662
:10179000000E052204C0E9FF05C0EAFFEFCF04F008
:1017A00002C0E9FF03C0EAFF04C0EFFF024A032AB8
:1017B000000E015C02E1200E005CE2E302C0E9FFE2
:1017C00003C0EAFF000EEF6AE4CF0FF0E4CF0EF0A3
:1017D000E4CF0DF0E4CF0CF0E4CF0BF0E4CF0AF04F
:1017E000E4CF09F0E4CF08F0E4CF07F0E4CF06F04F
:1017F000E4CF05F0E4CF04F0E4CF03F0E4CF02F04F
:10180000E4CF01F0E4CF00F0E4CFD9FF1200D9CF4C
:10181000E5FFE1CFD9FF00C0E5FF01C0E5FF02C051
:10182000E5FF03C0E5FF04C0E5FF05C0E5FF06C016
:10183000E5FF07C0E5FF08C0E5FF09C0E5FF0AC0F6
:10184000E5FF020EDBCF00F0030EDBCF01F0040E4C
:10185000DBCF02F0050EDBCF03F0060EDBCF04F08A
:10186000070EDBCF05F0080EDBCF06F0090EDBCF4D
:1018700007F0086A096A0750800BE8440A6E0A50AC
:101880001BE1045004260536063607360750035C74
:1018900008E10650025C05E10550015C02E10450DC
:1018A000005C06E2D890073206320532043204D0DA
:1018B000092A09C008F0DFD70750035C08E1065089
:1018C000025C05E10550015C02E10450005C08E3A4
:1018D0000450005E0550015A0650025A0750035A40
:1018E000D890073206320532043208C009F00806E3
:1018F0000950E2E103C0E9FF02C0F4FF01C0F3FFB9
:101900000050E4CF0AF0E4CF09F0E4CF08F0E4CFD0
:1019100007F0E4CF06F0E4CF05F0E4CF04F0E4CF25
:1019200003F0E4CF02F0E4CF01F0E4CF00F0E4CF25
:10193000D9FF120000C0E5FF01C0E5FF03C0E5FFCD
:1019400004C0E5FF05C0E5FF06C0E5FF07C0E5FFF1
:1019500008C0E5FF09C0E5FF0AC0E5FF0BC0E5FFD1
:1019600090C400F091C401F00401903F01D0912B8C
:101970000050E56E5DEC19F0E652076E046A056AE8
:10198000066A90C400F091C401F00401903F01D0B8
:10199000912B0050E56E5DEC19F0E6520B6A0A6E71
:1019A000086A0850041205120A5006120B5007125A
:1019B00090C400F091C401F00401903F01D0912B3C
:1019C0000050E56E5DEC19F0E652036E006A03C04C
:1019D00001F0E86A03BEFF0E086E096E00500412A3
:1019E00001500512085006120950071290C400F069
:1019F00091C401F00401903F01D0912B0050E56E9D
:101A00005DEC19F0E652016A04120150051206124B
:101A1000071207C0E9FF06C0F4FF05C0F3FF04503A
:101A2000E4CF0BF0E4CF0AF0E4CF09F0E4CF08F004
:101A3000E4CF07F0E4CF06F0E4CF05F0E4CF04F004
:101A4000E4CF03F0E4CF01F0E4CF00F0120000C0D7
:101A5000E5FF01C0E5FF02C0E5FF03C0E5FF04C0EC
:101A6000E5FF0F012C510F012B1901E15FD02CCFA5
:101A700000F0002A009E600E0024016E026A000E33
:101A8000022201C0E9FF02C0EAFFEFCF36FF1F0EBE
:101A90000F0136172CCF35FF36510F013527352B67
:101AA000352B359FCBEC16F0016E015003E1016A36
:101AB000012A01D0016ACBEC16F00F01366F800EBF
:101AC0003615026E1F0E3615036E03C004F003C0F8
:101AD00036FF045003E12BCF2CFF3BD001501BE01D
:101AE000025022E0CBEC16F0006E0F0136070050DA
:101AF000420A1AE000504E0A03E18BEC13F014D0B6
:101B00000050460A03E19FEC19F00ED00050490A3C
:101B10000BE1FF0009D02CCF5CF4025003E04CEC49
:101B200014F002D0B5EC19F035CF2CFF0401295187
:101B300004012A1906E00F012D5103E140EC0EF0DB
:101B400008D08BB006D00F012D5103E1ACB26BEC85
:101B500019F0E4CF04F0E4CF03F0E4CF02F0E4CFD7
:101B600001F0E4CF00F01200D9CFE5FFE1CFD9FFBB
:101B700000C0E5FF01C0E5FF02C0E5FF03C0E5FFCF
:101B800004C0E5FF05C0E5FF06C0E5FF07C0E5FFAF
:101B900008C0E5FF09C0E5FF0AC0E5FF0BC0E5FF8F
:101BA0000CC0E5FF0DC0E5FF020EDBCF00F0030E19
:101BB000DBCF01F0040EDBCF02F0050EDBCF03F02C
:101BC000060EDBCF04F0070EDBCF05F0080EDBCFEF
:101BD00006F0090EDBCF07F0086A096A0A6A0B6A89
:101BE000200E0C6E0350800BE8440D6E0050002652
:101BF0000136023603360850082609360A360B36F7
:101C00000D50D8A4088007500B5C08E106500A5C10
:101C100005E10550095C02E10450085C09E3045049
:101C2000085E0550095A06500A5A07500B5A0080A0
:101C30000C2ED8D703C0E9FF02C0F4FF01C0F3FFA8
:101C40000050E4CF0DF0E4CF0CF0E4CF0BF0E4CF84
:101C50000AF0E4CF09F0E4CF08F0E4CF07F0E4CFD6
:101C600006F0E4CF05F0E4CF04F0E4CF03F0E4CFD6
:101C700002F0E4CF01F0E4CF00F0E4CFD9FF12008E
:101C800000C0E5FF01C0E5FF02C0E5FF03C0E5FFBE
:101C9000ACA276D0AEEC17F0006E005005E1040166
:101CA0002A6B0401296B6CD02AC401F00050012674
:101CB000AEEC17F0026E00060250230A1FE1010E7F
:101CC000005CD8A05BD0AEEC17F0026E690A03E1AD
:101CD00046EC16F053D00250720A03E16BEC19F097
:101CE0004DD00250730A01E049D08B80AB869D8AAB
:101CF0009D98AE50AE50AB98AB8840D00250430A8E
:101D000005E00250420A01E039D001D0008E00C047
:101D10002FFF00500F01006F010E0F01306F040103
:101D20002A51011814E0AEEC17F0026E0F012F27B4
:101D3000000E0F013025006E036A0F0E032200C053
:101D4000E9FF03C0EAFF02C0EFFF302BE8D7000E27
:101D50000F013025006E026A0F0E02220F012F1DA7
:101D6000036E032A00C0E9FF02C0EAFF03C0EFFFD1
:101D70000F01302B30CF2DFF0F01276B01C02AF44C
:101D8000E4CF03F0E4CF02F0E4CF01F0E4CF00F0C1
:101D90001200D9CFE5FFE1CFD9FF00C0E5FF01C0B8
:101DA000E5FF02C0E5FF03C0E5FF04C0E5FF05C095
:101DB000E5FF06C0E5FF07C0E5FF020EDBCF00F040
:101DC000030EDBCF01F0040EDBCF02F0050EDBCFFC
:101DD00003F002C006F00650046E800A33E100C032
:101DE000E9FF01C0F3FF025008EC18F0056EF3CFD5
:101DF00006F0F4CF07F003C0E5FF05C0E9FF06C019
:101E0000F3FF0750AAEC19F000C0E9FF01C0F3FF8F
:101E1000025008EC18F0056EF3CF06F0F4CF07F08F
:101E2000052A02E3064A072A05C0E5FF06C0F4FFBB
:101E300007C0F6FF00C0E9FF01C0F3FF02504EECFF
:101E400019F01DD004AA1BD0047A045004E10350F9
:101E5000E8EC19F014D00450010A04E1035002EC3C
:101E600000F00DD004500F0A04E1035015EC16F0F9
:101E700006D004500E0A03E10350F8EC19F0E4CF49
:101E800007F0E4CF06F0E4CF05F0E4CF04F0E4CFB0
:101E900003F0E4CF02F0E4CF01F0E4CF00F0E4CFB0
:101EA000D9FF1200D9CFE5FFE1CFD9FF00C0E5FF90
:101EB00001C0E5FF02C0E5FF03C0E5FF04C0E5FF88
:101EC00005C0E5FF06C0E5FF07C0E5FF020EDBCF5A
:101ED00000F0030EDBCF01F0040EDBCF02F0050EA5
:101EE000DBCF03F02AC42BF40401295104012B5F3A
:101EF0002B0703C004F0056A030E0426D8B0052A98
:101F00002BC406F0076A0750800FF36E0550800F50
:101F1000F35C02E10450065C02E2E8682BD0020E9A
:101F2000035C02E2E86A26D003060350E56EC6ECC5
:101F300014F0E652046A0350045C14E204500024D6
:101F4000056EE86A0120066EE86A022005C0E9FF16
:101F500006C0F3FF2CEC19F0042AE56EC6EC14F071
:101F6000E652E9D72AC42BF40401295104012B5F5E
:101F70002B07E86AE4CF07F0E4CF06F0E4CF05F0E2
:101F8000E4CF04F0E4CF03F0E4CF02F0E4CF01F0BB
:101F9000E4CF00F0E4CFD9FF1200D9CFE5FFE1CFC5
:101FA000D9FF00C0E5FF01C0E5FF02C0E5FF03C0A7
:101FB000E5FF04C0E5FF05C0E5FF06C0E5FF020E32
:101FC000DBCF00F0030EDBCF01F0040EDBCF02F01D
:101FD000050EDBCF03F0D88001AED890046A04363A
:101FE000045007E0011C066E001C056E054A062A17
:101FF00004D000C005F001C006F0D88003AED89030
:1020000007E3031C016E021C006E004A012A04D083
:1020100002C000F003C001F00150E56E0050E56E13
:102020000650E56E0550E56E3EEC12F0006EF3CF03
:1020300001F0040EE12604500AE0011C036E001CAE
:10204000026E024A032A03C0F3FF025003D001C00C
:10205000F3FF0050E4CF06F0E4CF05F0E4CF04F046
:10206000E4CF03F0E4CF02F0E4CF01F0E4CF00F0DE
:10207000E4CFD9FF1200D9CFE5FFE1CFD9FF00C0EF
:10208000E5FF01C0E5FF02C0E5FF03C0E5FF04C0B6
:10209000E5FF05C0E5FF020EDBCF00F0030EDBCF4E
:1020A00001F0040EDBCF02F0050EDBCF03F090C48D
:1020B00004F091C405F00401903F01D0912B03502E
:1020C000E56E0450E56E1CEC17F0E652E65290C443
:1020D00004F091C405F00401903F01D0912B02500F
:1020E000056EE56E0450E56E1CEC17F0E652E65204
:1020F00090C404F091C405F00401903F01D0912BED
:102100000150056EE56E0450E56E1CEC17F0E652CA
:10211000E65290C404F091C405F00401903F01D050
:10212000912B0050E56E0450E56E1CEC17F0E65262
:10213000E652E4CF05F0E4CF04F0E4CF03F0E4CFBF
:1021400002F0E4CF01F0E4CF00F0E4CFD9FF1200B9
:1021500000C0E5FF01C0E5FF02C0E5FF03C0E5FFE9
:1021600004C0E5FFE3EC19F094928B92A1EC16F019
:10217000F3CF01F0F4CF02F0E9CF03F0880F0401B0
:10218000306F130E0120316F000E0220326F000EEF
:102190000320336F9280800E006E0F0E016E0F0EC3
:1021A000036E380E002603500122800E026E0F0EC1
:1021B000036E800E005E0350015A0F0E046E380E3F
:1021C0000226045003220F0E046E800E025E04509D
:1021D000035A02C0E9FF03C0EAFFEFCF02F002900A
:1021E00000C0E9FF01C0EAFF02C0EFFFE4CF04F046
:1021F000E4CF03F0E4CF02F0E4CF01F0E4CF00F04D
:1022000012004348656C6C6F212074323D202564B8
:10221000204B313D2025640A000043002563000067
:10222000D9CFE5FFE1CFD9FF00C0E5FF01C0E5FF51
:1022300002C0E5FF03C0E5FF04C0E5FF05C0E5FF00
:1022400006C0E5FF020EDBCF00F0030EDBCF01F08E
:10225000040EDBCF02F00F01265119E19AEC0CF0CD
:10226000036EF3CF04F0F4CF05F0E9CF06F003C01E
:10227000E5FF04C0F4FF05C0F6FF06C0F7FF00C08D
:10228000E9FF01C0F3FF02503DEC19F01ED00F0131
:102290002651010A1AE100C0E9FF01C0F3FF025014
:1022A0008EEC17F0006EF3CF01F0F4CF02F0E9CF1F
:1022B00003F00350E56E0250E56E0150E56E0050EC
:1022C000E56E3BEC10F0040EE126E4CF06F0E4CF1F
:1022D00005F0E4CF04F0E4CF03F0E4CF02F0E4CF64
:1022E00001F0E4CF00F0E4CFD9FF120000C0E5FF19
:1022F00001C0E5FF02C0E5FF03C0E5FF27EC0DF0DC
:10230000A1EC16F0006EF3CF01F0F4CF02F0E9CFAC
:1023100003F004013051005E3151015A3251025A2A
:102320003351035A039E3F0E035C08E1FF0E025C2B
:1023300005E1FF0E015C02E1FF0E005C33E2A1EC5F
:1023400016F0F3CF01F0F4CF02F0E9CF03F0880FDD
:102350000401306F130E0120316F000E0220326F26
:10236000000E0320336F0401252B040124510401C6
:10237000255D18E3256B0401262B006A80B0002A36
:1023800026C402F0E56A0050E56EE56A0250E56E8B
:10239000000EE56E220EE56E020EE56ECDEC13F03A
:1023A000070EE126E4CF03F0E4CF02F0E4CF01F022
:1023B000E4CF00F01200D9CFE5FFE1CFD9FF00C094
:1023C000E5FF01C0E5FF02C0E5FF03C0E5FF04C073
:1023D000E5FF05C0E5FF06C0E5FF020EDBCF00F01C
:1023E000030EDBCF01F0040EDBCF02F0050EDBCFD6
:1023F00003F0060EDBCF04F0070EDBCF05F0080E6E
:10240000DBCF06F0D88003AED89015E306500A0A59
:1024100012E104C0E9FF05C0EAFF2D0EEF6E044A89
:10242000052A031E021E011E006C05E1012A03E1BC
:10243000022AD8B4032A0650E56E0550E56E045012
:10244000E56E0350E56E0250E56E0150E56E0050FA
:10245000E56E2BEC0BF0070EE126E4CF06F0E4CF9F
:1024600005F0E4CF04F0E4CF03F0E4CF02F0E4CFD2
:1024700001F0E4CF00F0E4CFD9FF1200D9CFE5FF9F
:10248000E1CFD9FF00C0E5FF01C0E5FF02C0E5FFD5
:1024900003C0E5FF04C0E5FF05C0E5FF06C0E5FF9A
:1024A000020EDBCF00F0030EDBCF01F0040EDBCF1A
:1024B00002F0050EDBCF03F0046A056A0350800BBF
:1024C000E844066E065011E102500226033603501E
:1024D000015C02E10250005C04E2D8900332023257
:1024E00004D0052A05C004F0E9D70350015C02E1DD
:1024F0000250005C04E30250005E0350015AD89081
:102500000332023204C005F004060550EEE101C0BA
:10251000F3FF0050E4CF06F0E4CF05F0E4CF04F081
:10252000E4CF03F0E4CF02F0E4CF01F0E4CF00F019
:10253000E4CFD9FF120000C0E5FF01C0E5FF02C0F3
:10254000E5FF03C0E5FF2CCF00F0016A5CC402F098
:10255000036A0250005E0350015AE56A800EE56E80
:102560000150E56E0050E56ECDEC0FF0006E040EEC
:10257000E12600065CC401F0430E15EC16F0200EB7
:1025800015EC16F00050800F7F0F20E3600E012441
:10259000026E036A000E032202C0E9FF03C0EAFFD5
:1025A000EFCF02F0E56A0250E56E000EE56E320EE6
:1025B000E56EEE0EE56ECDEC13F0050EE126012A78
:1025C0000150800A01E1016A0006DCD7E4CF03F084
:1025D000E4CF02F0E4CF01F0E4CF00F01200D9CF55
:1025E000E5FFE1CFD9FF00C0E5FF01C0E5FF02C074
:1025F000E5FF03C0E5FF04C0E5FF020EDBCF00F0FE
:10260000030EDBCF01F0040EDBCF02F00F012651E9
:1026100011E1AFEC15F0036EF3CF04F003C0E5FF5A
:1026200004C0F4FF00C0E9FF01C0F3FF025087ECD3
:1026300019F016D00F012651010A12E100C0E9FF7E
:1026400001C0F3FF0250C7EC18F0006EF3CF01F0A9
:102650000150E56E0050E56E89EC14F0E652E6524A
:10266000E4CF04F0E4CF03F0E4CF02F0E4CF01F0D4
:10267000E4CF00F0E4CFD9FF1200AC0EF66E330EBB
:10268000F76E000EF86E0900F550056E0900F55062
:10269000066E04E1056702D08AEF13F00900F550D9
:1026A000006E0900F550016E0900F550026E090038
:1026B0000900F550E96E0900F550EA6E09000900BD
:1026C0000900F550036E0900F550046E0900090079
:1026D000F6CF07F0F7CF08F0F8CF09F000C0F6FF0B
:1026E00001C0F7FF02C0F8FF035002E1045007E009
:1026F0000900F550EE6E0306F8E20406F9D707C0AC
:10270000F6FF08C0F7FF09C0F8FF050601E206065C
:1027100049EF13F0120000C0E5FF01C0E5FF02C061
:10272000E5FFCBEC16F0006ECBEC16F0016E00501E
:10273000026ED00E0224006E0A0E005C05E300500B
:10274000026EF90E0224006E0150026ED00E0224B9
:10275000016E0A0E015C05E30150026EF90E0224BF
:10276000016E080E005C12E2100E015CD8B00ED0B3
:102770000038F00B0124006E3DEC15F0016E0150A5
:1027800005E10050E56E3DEC18F0E652E4CF02F0B2
:10279000E4CF01F0E4CF00F01200D9CFE5FFE1CFA4
:1027A000D9FF00C0E5FF01C0E5FF02C0E5FF020E52
:1027B000D924006E000EDA20016E800E026E030E28
:1027C0000026000E012202220250E56E0150E56E45
:1027D0000050E56E040EDBCFE5FF030EDBCFE5FF17
:1027E000020EDBCFE5FF04018C51E56E8B51E56EE7
:1027F0008A51E56E0EEC00F0006EF3CF01F0090E89
:10280000E12601C0F3FF0050E4CF02F0E4CF01F075
:10281000E4CF00F0E4CFD9FF1200D9CFE5FFE1CF3C
:10282000D9FF00C0E5FF01C0E5FF02C0E5FF03C01E
:10283000E5FF020EDBCF00F0030EDBCF01F0040E4C
:10284000DBCF02F00F0126510DE19BEC18F0036E77
:1028500003C0E5FF00C0E9FF01C0F3FF0250AAEC8E
:1028600019F00FD00F012651010A0BE100C0E9FF5A
:1028700001C0F3FF02502CEC19F0E56E43EC17F0A9
:10288000E652E4CF03F0E4CF02F0E4CF01F0E4CF6E
:1028900000F0E4CFD9FF120000C0E5FF01C0E5FF62
:1028A000CBEC16F0006E4C0A08E1CBEC16F0300AC7
:1028B00002E08B8229D08B9227D00050450A24E178
:1028C000000EE56E220EE56E1A0EE56ECDEC13F0ED
:1028D000030EE126F2EC19F0006E00C001F00006D4
:1028E00001500FE0CBEC16F0E56AE56E000EE56EE8
:1028F000220EE56E1C0EE56ECDEC13F0050EE12602
:10290000ECD70A0E15EC16F0E4CF01F0E4CF00F09E
:102910001200D9CFE5FFE1CFD9FF00C0E5FF01C02C
:10292000E5FF02C0E5FF03C0E5FF020EDBCF00F0CC
:10293000030EDBCF01F090C402F091C403F0040158
:10294000903F01D0912B0150E56E0250E56E1CECDA
:1029500017F0E652E65290C402F091C403F004016D
:10296000903F01D0912B0050E56E0250E56E1CECBB
:1029700017F0E652E652E4CF03F0E4CF02F0E4CFE2
:1029800001F0E4CF00F0E4CFD9FF1200D9CFE5FF8A
:10299000E1CFD9FF00C0E5FF01C0E5FF02C0E5FFC0
:1029A00003C0E5FF04C0E5FF020EDBCF00F029C441
:1029B00001F0026A014A022A2AC403F0046A0150A3
:1029C000031803E10250041801E001D00ED0000EFC
:1029D00004012925016E026A070E022201C0E9FFE7
:1029E00002C0EAFF00C0EFFF292BE4CF04F0E4CFE0
:1029F00003F0E4CF02F0E4CF01F0E4CF00F0E4CF45
:102A0000D9FF1200D9CFE5FFE1CFD9FF00C0E5FF24
:102A100001C0E5FF02C0E5FF03C0E5FF020EDBCF0A
:102A200000F0016A5CC402F0036A02500026035001
:102A30000122E56A800EE56E0150E56E0050E56EFC
:102A4000CDEC0FF0006EF3CF01F0040EE126600E26
:102A50000026000E012200C0E9FF01C0EAFFEFCF0F
:102A600000F00050E4CF03F0E4CF02F0E4CF01F037
:102A7000E4CF00F0E4CFD9FF120000C0E5FF01C0B1
:102A8000E5FF02C0E5FF010E006ECBEC16F0016E13
:102A900001C002F0015023E00050E56E5DEC19F03A
:102AA000016EE652015010E10A0E005C0BE20A0EC4
:102AB000006EE56E5DEC19F0016EE652015004E126
:102AC000E8680ED0E8680CD00150021802E0E8680F
:102AD00007D0002A1B0E005CD8E3E86801D0E86A42
:102AE000E4CF02F0E4CF01F0E4CF00F01200F3CF26
:102AF000E5FFF4CFE5FFE9CFE5FFEACFE5FFFACF49
:102B0000E5FFFBCFE5FF040127510401366F040107
:102B100028510401376FD650346FD750356FF2A467
:102B200011D00401273F01D0282BF2940401275132
:102B30000401366F040128510401376FD650346FF9
:102B4000D750356FE4CFFBFFE4CFFAFFE4CFEAFFC5
:102B5000E4CFE9FFE4CFF4FFE4CFF3FF110000C0BE
:102B6000E5FF01C0E5FF02C0E5FF03C0E5FF90C43B
:102B700000F091C401F00401903F01D0912B00506E
:102B8000E56E5DEC19F0E652036E026A90C400F047
:102B900091C401F00401903F01D0912B0050E56EEB
:102BA0005DEC19F0E652016A02120150031203C0F3
:102BB000F3FF0250E4CF03F0E4CF02F0E4CF01F0E2
:102BC000E4CF00F01200D9CFE5FFE1CFD9FF00C07C
:102BD000E5FF01C0E5FF02C0E5FF03C0E5FF04C05B
:102BE000E5FF020EDBCF00F0030EDBCF01F0040E99
:102BF000DBCF02F0050EDBCF03F0060EDBCFE9FFE3
:102C0000070EDBCFEAFF080EDBCF04F040EC04F048
:102C1000E4CF04F0E4CF03F0E4CF02F0E4CF01F01E
:102C2000E4CF00F0E4CFD9FF120000C0E5FF01C0FF
:102C3000E5FF02C0E5FF006E390E04012E25016E8E
:102C4000026A040E022201C0E9FF02C0EAFF00C0CE
:102C5000EFFF220E2E5D01E22E2B00500A0A0FE13B
:102C600004012E51E56E800EE56E040EE56E390E00
:102C7000E56E52EC0FF0040EE12604012E6BE4CF5A
:102C800002F0E4CF01F0E4CF00F012000401296B60
:102C900004012A6B04012B698B809490B06A3F0E6B
:102CA000AF6EB886AC8AAC84AC8CAC90AB8CAB8E7F
:102CB0000F012E6B0F01286B0F012B6B0F012C6B7B
:102CC0000F012D6B000EE56A5DEC19F004012D6F0C
:102CD000E6529F989F9A010E04012C6F04018A6BA3
:102CE0008B6B2F0E8C6F6BEC19F01200D9CFE5FFB8
:102CF000E1CFD9FF00C0E5FF01C0E5FF02C0E5FF5D
:102D000003C0E5FF020EDBCF00F0030EDBCF01F0C6
:102D1000040EDBCF02F0050EDBCF03F0060EDBCF97
:102D2000E9FF070EDBCFEAFFC1EC07F0E4CF03F0C9
:102D3000E4CF02F0E4CF01F0E4CF00F0E4CFD9FF1C
:102D40001200040127510401836F0401285104017A
:102D5000846FD650816FD750826F83510401271939
:102D600005E104018451040128190CE004012751F4
:102D70000401836F040128510401846FD650816FD0
:102D8000D750826F84C4E9FF83C4F4FF82C4F3FF89
:102D900004018151120000C0E5FF01C0E5FF0F01F1
:102DA0002C510F01351905E00F012C510F012B1982
:102DB00002E1E86A15D02CCF00F00F012C2B016A3C
:102DC000600E0026000E012200C0E9FF01C0EAFFEC
:102DD000EFCF00F02C51800A02E10F012C6B005064
:102DE000E4CF01F0E4CF00F0120000C0E5FFECEC0E
:102DF00019F00401896B806B8983006A89B3002A0A
:102E00000050010BE844F46E8051FD0BF410806F0C
:102E1000D58ED59CD59AD588D596D594D582D58092
:102E2000F28AF184D08EF28EF28CBA80FF0EBB68EB
:102E3000BA84E4CF00F01200D9CFE5FFE1CFD9FF8B
:102E400000C0E5FF020EDBCF00F0030EDBCFA8FFD2
:102E500000C0A9FFA69EA69CA684F29EF29C550ED9
:102E6000A76EAA0EA76EA682A6A202D00000FCD76B
:102E7000E86AA6B6E82AA694F28EF28CE4CF00F0B7
:102E8000E4CFD9FF1200D9CFE5FFE1CFD9FF00C0D1
:102E9000E5FF01C0E5FF02C0E5FF020EDBCF00F059
:102EA00090C401F091C402F00401903F01D0912B35
:102EB0000050E56E0150E56E1CEC17F0E652E6524C
:102EC000E4CF02F0E4CF01F0E4CF00F0E4CFD9FF8B
:102ED0001200D8CFE5FFE0CFE5FFE56EF3CFE5FFC9
:102EE000F4CFE5FFE9CFE5FFEACFE5FFFACFE5FF55
:102EF000FBCFE5FF29EC0AF0E4CFFBFFE4CFFAFFBC
:102F0000E4CFEAFFE4CFE9FFE4CFF4FFE4CFF3FF3F
:102F1000E450E4CFE0FFE4CFD8FF1000E8AE0AD0E1
:102F2000F3CFEAFFEE50EECFF3FFEECFF4FFEECF9C
:102F3000E9FF1200E8BC05EF1AF0E9CFF6FFF3CF86
:102F4000F7FFF86E0900F5500900F5CFF3FF09000F
:102F5000F5CFF4FF0900F5CFE9FF120000C0E5FF4F
:102F600001C0E5FF0401295104012A1902E1E86AC0
:102F70000FD0000E04012A25006E016A070E0122FF
:102F800000C0E9FF01C0EAFFEFCF00F02A2B00509C
:102F9000E4CF01F0E4CF00F01200F2CFEAFFF29E9E
:102FA000A69EA69CA684E9CFA9FFF3CFAAFFE4CFF3
:102FB000A8FFBEEC19F0F4CFA8FFBEEC19F0F6CFD5
:102FC000A8FFBEEC19F0F7CFA8FFBEEC19F0A6944D
:102FD000EABEF28E1200F2CFF6FFF29EA69EA69CEB
:102FE000E9CFA9FFF3CFAAFFA680A850A94AAA2A31
:102FF000A680A8CFF3FFA94AAA2AA680A8CFF4FFEB
:10300000A94AAA2AA680A8CFEAFFF6BEF28E12002D
:10301000E8AE08D0F3CFEAFFEE50EECFF3FFEECFED
:10302000F4FF1200E8BC07EF1AF0E9CFF6FFF3CF88
:10303000F7FFF86E0900F5500900F5CFF3FF09001E
:10304000F5CFF4FF1200F2CFEAFFF29EA69EA69CF7
:10305000A684E9CFA9FFF3CFAAFFE4CFA8FFBEEC77
:1030600019F0F4CFA8FFBEEC19F0F6CFA8FFBEEC24
:1030700019F0A694EABEF28E1200D9CFE5FFE1CF97
:10308000D9FF00C0E5FF020EDBCF00F000C02DF439
:103090000050E56E000EE56A1CEC17F0E652E652B1
:1030A000E4CF00F0E4CFD9FF1200F2CFF6FFF29E9A
:1030B000A69EA69CE9CFA9FFF3CFAAFFA680A850A1
:1030C000A94AAA2AA680A8CFF3FFA94AAA2AA680BD
:1030D000A8CFF4FFF6BEF28E120000C0E5FF01C0DB
:1030E000E5FF600E0F012C25006E016A000E012223
:1030F00000C0E9FF01C0EAFFEFCF00F00050E4CFCD
:1031000001F0E4CF00F01200D9CFE5FFE1CFD9FF05
:1031100000C0E5FF020EDBCF00F0610E005C05E3AE
:103120007B0E005C02E2010E01D0E86AE4CF00F001
:10313000E4CFD9FF120000C0E5FF01C0E5FF90C455
:1031400000F091C401F00401903F01D0912B005098
:10315000E56E5DEC19F0E652E4CF01F0E4CF00F04B
:103160001200D9CFE5FFE1CFD9FF00C0E5FF020E85
:10317000DBCF00F000C02CF4005004E16BEC19F040
:103180009D9A9D98E4CF00F0E4CFD9FF1200E8AEFD
:1031900006D0F3CFEAFFEE50EECFF3FF1200E8BC0B
:1031A00003EF1AF0E9CFF6FFF3CFF7FFF86E09004F
:1031B000F5500900F5CFF3FF1200F2CFEAFFF29EBF
:1031C000A69EA69CA684E9CFA9FFF3CFAAFFE4CFD1
:1031D000A8FFBEEC19F0F4CFA8FFBEEC19F0A6943E
:1031E000EABEF28E120018EEFFF028EEFFF0F86A49
:1031F000A68EA69CE9680E0EEA6E0068000EED6AC7
:103200000050FDE13DEC13F0DDEC19F0FFD7F2CFFB
:10321000F6FFF29EA69EA69CE9CFA9FFF3CFAAFFD8
:10322000A680A850A94AAA2AA680A8CFF3FFF6BE76
:10323000F28E1200F2CFEAFFF29EA69EA69CA68412
:10324000E9CFA9FFF3CFAAFFE4CFA8FFBEEC19F0A6
:10325000A694EABEF28E1200E8AE04D0F3CFEAFFE5
:10326000EE501200E8BC01EF1AF0E9CFF6FFF3CF01
:10327000F7FFF86E0900F5501200E8AE0BD0F3CF5F
:10328000EAFFE4CFEEFFF4CFEEFFF6CFEEFFF7CF8D
:10329000EEFF1200E8BCFFEF19F01200E8AE09D013
:1032A000F3CFEAFFE4CFEEFFF4CFEEFFF6CFEEFF71
:1032B0001200E8BC09EF1AF01200D9CFE5FFE1CF08
:1032C000D9FF020EDBCFA9FFA69CA69EA680A85020
:1032D000E4CFD9FF1200ACA2FED78B80AE50000025
:1032E000AE50AB98AB88AB869D8A9D981200256442
:1032F0002000F2CFF6FFF29EA69EA69CE9CFA9FF82
:10330000F3CFAAFFA680A850F6BEF28E1200E8AE58
:1033100007D0F3CFEAFFE4CFEEFFF4CFEEFF1200C9
:10332000E8BCFDEF19F01200700ED36E9B8CFF0EFF
:103330009268936894689668626AF19E120000C071
:10334000E5FF3DEC15F0006E005001E1FF00E4CF19
:1033500000F01200E8AE05D0F3CFEAFFE4CFEEFFB5
:103360001200E8BCFBEF19F01200CBEC16F0010ADA
:1033700004E1CBEC16F00401246F1200550EA76E89
:10338000AA0EA76EA682A6B2FED7A94AAA2A010E45
:103390000F01266F1C0E0401906F916B12000F013C
:1033A000266B1C0E0401906F916B120001000C0043
:1033B0000000240400000C000000A8EC10F076ECE3
:1033C00011F0FDD71200F5EC16F046EC16F01200E5
:1033D000ACA2FED7AD6E120094EC19F012000F01F2
:1033E0002C5112000F013651120004012C51120011
:1033F000E8CF7FFF12001AEF19F0DDEF18F0CDEFE4
:1034000017F079EF19F007EF19F0EBEF17F055EF20
:0634100018F023EF18F094
:00000001FF
