:020000041001E9
:1020000000200420F7200110C3200110C52001107A
:10201000C1200110C1200110C1200110C1200110F8
:10202000C1200110C1200110C1200110C7200110E2
:10203000C1200110C1200110C9200110CB200110C6
:10204000CD200110CD200110CD200110CD20011098
:10205000CD200110CD200110CD200110CD20011088
:10206000CD200110CD200110CD200110CD20011078
:10207000CD200110CD200110CD200110CD20011068
:10208000CD200110CD200110CD200110CD20011058
:10209000CD200110CD200110CD200110CD20011048
:1020A000CD200110CD200110CD200110CD20011038
:1020B000CD200110CD200110CD200110CD20011028
:1020C00000BE00BE00BE00BE00BE00BEEFF3058035
:1020D000103800BEF2EB8871F497011014980110CB
:1020E0003421011090A31AE700201F49086006C898
:1020F00081F3088810471D48006800282FD10DA4DF
:102100000ECC002902D000F012F8F9E71849194A5C
:10211000002000E001C19142FCD1174988471749CE
:1021200088471749884700BEFDE701C901C29A42A6
:10213000FBD3704714980110C000002068100020E5
:10214000BCA701100000042000000420BCA701105F
:10215000001004200010042000000000704709480F
:1021600003F098F90047000008ED00E0000000D0FF
:102170006810002048230020B53C0110E18E0110BA
:10218000A93D01105756000006005250ABB36053F2
:10219000C094011006005250861C0302D094011016
:1021A000060052505422A29DDC94011005005250AA
:1021B000DE65F468BCA70110F8B5C0460448054BBD
:1021C00010B5834203D0044B002B00D0984710BDBC
:1021D0006810002068100020000000000648074931
:1021E000091A8B10C90FC91810B5491003D0044B38
:1021F000002B00D0984710BD681000206810002008
:102200000000000010B5074C2378002B09D1FFF720
:10221000D5FF054B002B02D0044800E000BF01238E
:10222000237010BD7811002000000000D091011033
:10223000054B10B5002B03D00449054800E000BF52
:10224000FFF7CCFF10BDC046000000007C1100204D
:10225000D0910110F8B51F4E7468356800F0F6FF94
:102260008C4206D803D03368AB4207D0F8BD854214
:10227000F9D9336805000C00AB42F7D17368A3426B
:10228000F4D10121144A13784B40137018D1D02394
:1022900080221B0692049A61104B1F6800F0D6FF43
:1022A000FA2204000D00002338000021920003F000
:1022B0007BFF00196941002908DB30607160D5E7B8
:1022C000D02380221B0692045A61E5E701200449CD
:1022D0004042F2E770110020781B0020680F0020B8
:1022E000FFFFFF7FF8B5037805000E00012B06D134
:1022F000427893009B180B4A5B001360F8BD0A48B4
:1023000006F016FC002E08D00024084F295D380086
:10231000013406F00DFCB442F8DB0A2006F0ECFBB9
:10232000ECE7C046680F0020D0910110D891011051
:1023300010B50378452B00D010BD411C014806F0B4
:10234000F7FBF9E7DC9101100123D022834012064C
:1023500093629361094A830094464022634419685A
:10236000C0004A40C021114080225201134319602D
:10237000034B9C46052360444360704704C0014002
:1023800000400140024B18688007C00F7047C046EC
:1023900000C00640F8B5EFF3108772B60E4E3368F2
:1023A000002BFCD0BFF35F8FCB08C4180725A446D1
:1023B000C45C01230D40AB4018002040234208D1EB
:1023C000624623431370BFF35F8F306087F310883A
:1023D000F8BD100001F0ECFC2C0100D0F8B5CE46A1
:1023E00047468C4680B5EFF3108872B6214D2C68B5
:1023F000002CFCD0BFF35F8F9A422CD8D408072161
:10240000055D0619012411408C402C421FD0072184
:102410008946063909E0D408055D06194C460F00C7
:102420001440A7403C002F4211D001329342F2D217
:1024300001204042BFF35F8F00220E4B1A6088F3E9
:10244000108800280FDB0CBC90469946F8BD2C4341
:1024500010003470EEE7BFF35F8F00232B6088F32A
:102460001088012040426346002BECD0089801F010
:102470009FFCC0462C0100D00021044B044ABFF34E
:102480005F8F02C39342FAD17047C046000100D06B
:10249000800100D0044A1078431CDBB2172B00D90E
:1024A000102313707047C0466C0F002000B5054B19
:1024B00083B00100009318221F230348FFF78EFF0B
:1024C00003B000BDE49101103016002001238340C9
:1024D000002904D0034A1360034A13607047034A7B
:1024E0001360FBE780E200E000E100E080E100E053
:1024F00001238340014A13607047C04600E200E0B8
:10250000084B10309B688000C358002B07D0064A48
:1025100000209B1A2F229A424041C0B270470020EF
:10252000FCE7C04600ED00E0700F0020024B1030C9
:102530009B688000C058704700ED00E070B50D004A
:10254000EFF3108672B60F4A1368002BFCD0BFF36E
:102550005F8F0D4B10309B6884001B590B4A9342D0
:1025600003D09D4201D001F03BFC074B9B681D51FD
:10257000BFF35F8FBFF35F8F0022024B1A6086F3B9
:10258000108870BD240100D000ED00E0CD200110C6
:10259000F0B557464E464546DE46E0B5894683B01F
:1025A00005001700EFF3108A72B65E4A1368002B1D
:1025B000FCD0BFF35F8F00205B4B18569B46002872
:1025C00000DA6CE05A464400584E2418A40033192F
:1025D00098469B7910351370554BAA009B68019261
:1025E0009B589C469B1B2F2B28D801226146914368
:1025F000CB79BB4208D86AE053009B189B00F318C4
:10260000DD79BD4251D9190006228A56002AF3DA33
:102610000B1D9B46474E43465C46043B1B1B1B055C
:10262000454C5B0D23438B80887141468A714A4635
:10263000424B8E800B60CF718A601BE0404B9C4503
:1026400042D142463F4B023413803F4B3619043B84
:102650009E1B3605384B760D1E433C4B56809380AF
:10266000FF23D771937143464A469A60012342463D
:102670001A43944661462E4B019A9B689950BFF3CA
:102680005F8FBFF35F8F0022264B1A608AF310889A
:1026900003B03CBC90469946A246AB46F0BD01F063
:1026A0009FFB5B46002018568CE70B1D9B468B88D2
:1026B00004345B051B155B4436199E1BE02336056D
:1026C000760D1B021E43A6E701F08AFBB9E74546DB
:1026D0000B001F489B1B5B415843000D194B2B807F
:1026E000A31C9C46B4446546174B0434043B5B1B57
:1026F0001B05114D5B0DAC462B43454636196B80CF
:102700000B1F9E1B6346A87148463605760D1E4377
:102710000A4BAE80EF71A8600B60434613439C46A2
:10272000A8E7C046240100D0751B0020700F0020D0
:1027300000ED00E001BD000000E0FFFF0148804720
:10274000CD20011000A1FFFFA00F002001BDFFFF61
:10275000AAAA0000F0B5DE4657464E464546E0B50B
:102760000C0083B0EFF3108972B6594A1368002B3E
:10277000FCD0BFF35F8F574B9A68030010339F0064
:10278000D559554A9046954232D0A54243D0534E32
:10279000AA1B2F2A2CD80122824092465146504A29
:1027A00012681140019151464E4A1160BFF35F8F8C
:1027B000EFF305829346002A33D101232A009A437E
:1027C00093689C4208D178E04B005B189B00F3189B
:1027D0009968A1422AD01A00062151560029F3DA3D
:1027E000019B002B19D052463F4B1A603C4B1A609C
:1027F000384B9B68DD51BFF35F8FBFF35F8F0022C3
:10280000334B1A6089F3108803B03CBC904699465C
:10281000A246AB46F0BD1500EAE75246314B1A60BE
:10282000E6E79342C9D001F0DBFAC6E70621595624
:10283000002922DB4A005018800034188046A06826
:102840009860E079D871062020569871A0797F2889
:1028500024D8A488F01A6405241544440019E024FF
:102860000005400D24022043988052181F4B92000F
:10287000B6181A781970B271B2E7594600290FD10B
:10288000FF3191711A49918018490A789A71194A51
:102890009B1B5B415A43120D0A70A1E71648E3E700
:1028A000164A1749D21A083A5002400D014399803E
:1028B000144952080A43DA8092E706215156130060
:1028C0000029B7DA5A46002AEAD14546DCE7C04675
:1028D000240100D000ED00E0CD200110700F002099
:1028E00000E100E080E100E080E200E0751B0020F4
:1028F00001BDFFFFAAAA000001BD0000AA0F002031
:1029000000F0FFFF00F8FFFFF0B5EFF305810124B1
:102910000443EFF3108672B6214A1368002BFCD0F3
:10292000BFF35F8F1F4B05001F4AED1A6D416A43CD
:10293000120D1E4D8900AF6852B27F58A7421CD0BD
:102940000621595691421CD012215956914222D04B
:102950001E215956914220D02A21595603249142D2
:1029600010D0134B19781A708171BFF35F8F00225A
:102970000B4B1A6086F31088F0BDAB680D4C5C50B1
:10298000EFE700246100091989005B18FF219971A4
:1029900009499980E5E70124F4E70224F2E7C046FB
:1029A000240100D0700F0020AAAA000000ED00E072
:1029B000751B0020CD20011001BDFFFF054B064A0D
:1029C0001360064A136053609360D36013615361D0
:1029D000936170478080808000E400E004E400E0C0
:1029E00000B5074B83B00100009300220523054882
:1029F000FFF7F4FC002801DB1F23181A03B000BD09
:102A0000009201107D1B0020024B9C46614489000E
:102A1000016070474000003410B50400FFF73AFD34
:102A200001002000FFF7F0FFFF232371BFF35F8F4A
:102A300010BDC04610B50400FFF72CFD01002000BA
:102A4000FFF7E2FFFF23A380BFF35F8F10BDC046F7
:102A500010B504000120FFF729FD034BC3189B00AC
:102A60002360BFF35F8F10BD40000034034B9C46D2
:102A7000614489000160BFF35F8F704740000034FC
:102A800083680B4810B58446614462440901120111
:102A90009A18591854684B6801209C4201D802D0FA
:102AA0000020C0B210BD12680B689A42F9D8F7E74F
:102AB000FFFFFF0F0A4B1968EFF3108072B60A6828
:102AC000002AFCD0BFF35F8F1B68BFF35F8F00222B
:102AD0001A6080F3108840BF002000217047C04674
:102AE000441B0020F8B5574645464E46DE46E0B545
:102AF00099460CAB19780DAB1B78050090469A46A9
:102B00000768002912D1BE7B002E45D074003B68B7
:102B1000A419033C1B195A783100BA73002A00D15A
:102B2000FA7300229A705A701A7003E00E004C007B
:102B30006418033C2C4B00229C46AB6861449C46C5
:102B40004346090161440B604B464B600A9B8B6016
:102B50000B9BCB603B681B199A705A701A707B7B79
:102B60009B46002B2CD032005946B8687B689847AA
:102B70003A68002817D05B4658465B005B4414193E
:102B8000033BA070D118D35C002B00D063705B4670
:102B90000E707B73B34514D030003CBC9046994610
:102BA000A246AB46F8BD5B465B005B44033BD318D3
:102BB0009E701119125D002A00D05A705B460B708E
:102BC0007E7342464B46287D00F0CAFB041E06D0A9
:102BD0005346002B03D13100286800F007FE0E9BFE
:102BE000002BD9D01C70D7E7FFFFFF0FF0B5DE46F2
:102BF00057464E4645460023E0B58BB00893674BD9
:102C00008200D45800239B46099000F01FFB6268A5
:102C100006000F00EFF3108572B61368002BFCD08E
:102C2000BFF35F8F23689C465B7B9946002B00D1E6
:102C300069E0A2685A4B90464B441B0198444346B6
:102C40001A685B6810001900801BB941002900DC7C
:102C500063E0099800F084FB0023002298460023DB
:102C60000692079300239A466368BFF35F8F5A4624
:102C70001A6085F310885346002B08D10028C4D170
:102C80000BB03CBC90469946A246AB46F0BD089BB3
:102C9000414618024B461843D047626806000F00B1
:102CA000EFF3108572B61368002BFCD0BFF35F8F73
:102CB000002F50DB33003B4302D02369002B61D14E
:102CC0002368DA7B002A07D051008A1819688C46DD
:102CD00049466244033A51709A7B002A01D14A4620
:102CE0009A734A46DA734B46E168013BCA5C01328B
:102CF000CA545B4623616368BFF35F8F5A461A600C
:102D000085F3108881E7002300229846002306926D
:102D10000793002300209A46A6E7002902D1002845
:102D200000D096E70021604600F0BEFC43461A68DA
:102D30005B680692079343469B689A464346DB6866
:102D40009846E3684B44013B1B7808931B020343FE
:102D50002361002088E72369002BB1D0069A079BE6
:102D6000921BBB41002B15DB5946049101210391B5
:102D70004946029141460191514620000091FFF7DA
:102D8000B1FEB6E700F062FA32003B0012184B4188
:102D9000002BE9DA0122034B5242E5E7281B002011
:102DA000FFFFFF0FFFFFFF7F10B5144C6368002B80
:102DB00004D00A211248FFF727FE10BD2300114A54
:102DC0001021206800F08AFB032000F033FA032072
:102DD00000F030FB03200C4900F07CFAFFF75AFBAF
:102DE0000A4B9C4603232375D0231B061B686044B3
:102DF0006375074B80006060DC60DAE7B80F002085
:102E0000441B0020812A0110ED2B011040000034EA
:102E1000281B002000487047B80F0020F0B54E4630
:102E20004546DE465746E0B585B0019310AB1B78AA
:102E300080460393002300269946009243465A6831
:102E4000EFF3108B72B61368002BFCD0BFF35F8FCB
:102E500043461D68AC7B002C43D067002B683F19AC
:102E6000033FDB195A78AA73002A00D1EA7342465D
:102E70009E705E701E709268494B94460099019A4C
:102E8000E3181B01634419605A600E9A9A600F9A06
:102E9000DA602B68DB199E705E701E706B7B9A4641
:102EA000002B68D022001900A8686B6898472A6830
:102EB000002853D0534650465B005344D719033B78
:102EC000B870D118D35C002B00D07B7053460C70C7
:102ED0006B73544550D04346DB681B19013B18788F
:102EE00000E0002043465B68BFF35F8F1E608BF3FA
:102EF0001088002C51D04B46002B08D100022043F3
:102F000005B03CBC90469946A246AB46F0BD039B3B
:102F1000002B40D00E9B00200F999847030004001F
:102F20000D000B4337D000290ADA009A019B121BCF
:102F3000AB4100920193002B0ADB039B99467DE78E
:102F400000F084F924184D4100940195002DF4DA25
:102F50000123144C5B4200930194EEE753465B005F
:102F60005344033BD3189C70D119D25D002A00D082
:102F70005A7053460B706C734346187D009A019B40
:102F800000F0EEF981460028A5D0434621001868DC
:102F900000F02CFC9FE70020B2E701204042AFE7A1
:102FA000FFFFFF0FFFFFFF7F407D7047F0B504007C
:102FB0000D0006267642F717C64636196F4100B552
:102FC00084B08F4214D811D000F040F932003B0099
:102FD000121A8B41002B15DC002B3ED0200029005B
:102FE00000F068F904B004BC9046F0BD8642EBD90D
:102FF0000026002700F02AF932003B00121A8B410C
:10300000002BE9DD002302930193154B320000935E
:1030100014483B00FFF702FF0028DFDB002398463F
:10302000BC46114A114F7B6A9C4504D8B96A8E424E
:10303000D4D99C45D2D11168EFF3108072B60B68D9
:10304000002BFCD0BFF35F8F1368BFF35F8F414647
:10305000196080F3108820BFE5E7002ABED0D1E7D1
:10306000B52A0110B80F0020441B00200040054085
:1030700070B5060000F0EAF8FA2204000D00002303
:1030800030000021920003F08FF8001969410029F7
:1030900002DBFFF78BFF70BD012001494042F8E7DA
:1030A000FFFFFF7FF0B5EFF30583CE46474680B5BF
:1030B00005000C0085B0002B12D02C4B0020596A63
:1030C0008C4203D89B6A0130AB4204D305B00CBCE0
:1030D00090469946F0BD611A481E8141C8B2F5E795
:1030E000234E02930193234B0200009330000B0008
:1030F000FFF794FE031EE0DD20BF7168EFF3108739
:1031000072B60A68002AFCD0BFF35F8FDAB2944629
:103110003068427B62451DD0FF221A40510089462B
:103120000168914488464946414403398978002919
:1031300013D0F1681B0A88464244013A1278DBB288
:103140009A420FD07368BFF35F8F00221A6087F333
:103150001088B2E7FF221A40EBE732699342F1D1BF
:103160003161EFE7614600F041FBEBE700400540CD
:10317000B80F0020B52A0110F0B5EFF30582D6464E
:103180004F4646461000C0B51038EFF3108872B6AF
:10319000214C2368002BFCD0BFF35F8F0123190063
:1031A00081401E4D1F006963AA461D4D29601D4DBB
:1031B0002E78AC463500C5402F402B4215D05346E3
:1031C000194D5F6A83005D59AF4218D3174A8E4389
:1031D0009B5862461670BFF35F8F0022226088F30F
:1031E0001088002B06D0984704E0BFF35F8F27605C
:1031F00088F310881CBC90469946A246F0BD0C4B43
:1032000092009C46624413681360BFF35F8F0023F3
:10321000236088F31088EDE7280100D000400540C6
:103220003C7005407B1B0020501B0020181500201F
:10323000D03F054010B50100024A0348FFF7AAF845
:1032400010BDC0461C920110741B0020034B596A2C
:103250000A00986A596A8A42FAD1704700400540CC
:1032600070B504000D00124A536A1900966A536A39
:103270008B42FAD13000190024184D41AB4211D8CD
:103280000ED02B000A494A6A9A42FCD307D1084A59
:1032900002E0516A994202D1916AA142F9D370BD0C
:1032A000A642EED9012301246442E5175B42E9E717
:1032B00000400540064A536A9942FCD807D1044BA6
:1032C00002E05A6A914202D19A6A8242F9D3704767
:1032D0000040054070B504000D00EFF3108672B693
:1032E0001A4A1368002BFCD0BFF35F8F002D1BD050
:1032F0002000FFF71BF9164981420AD02000FFF792
:103300001DF901212000FFF7E1F80123A340114A34
:103310001360114BA400E550BFF35F8F00220B4BED
:103320001A6086F3108870BD0B4BA200D5500122A5
:10333000A2400A4920000B7893430B700449FFF721
:1033400009FA00212000FFF7C1F8E5E7280100D0C5
:103350007931011038600540181500207B1B0020D2
:10336000F0B54F46D6464646C0B507002C4C616ABC
:103370000D00A66A616AA942FAD18B4208D805D02D
:1033800001201CBC90469946A246F0BDB242F7D936
:10339000EFF3108972B6234801680029FCD0BFF30F
:1033A0005F8F01252049BD408C4609781C4C0E00DA
:1033B0002E438846F1B28A46614650460870391D50
:1033C0001A48890065630A51B9000B50216A002030
:1033D000294219D0616A0800A66A616A8142FAD15D
:1033E0008B4219D801D1B24216D8C24516D00C4B27
:1033F0001F201D625D6301230740BB400C4A1E383D
:103400001360634642461A70BFF35F8F0022054B7C
:103410001A6089F31088B4E70020F5E70120F3E78C
:1034200000400540280100D07B1B0020501B0020DD
:1034300080E200E010B5EFF3108472B60A490B6821
:10344000002BFCD0BFF35F8F01238340074A08485D
:10345000136202789A430270BFF35F8F00230B6000
:1034600084F3108810BDC046280100D000400540FC
:103470007B1B002070B505000E001400002924D02D
:10348000002A24D080686B689847296800280ED0ED
:1034900063001B197200033B9219CB18033A9E700C
:1034A00088188A5C002A14D1047030000EE0730082
:1034B0009B196200033B1219CB18033A9C708818C1
:1034C0008A5C002A00D05A700670200070BD080087
:1034D000FCE75A7004703000F8E7C04630B58360EE
:1034E0000023CCB243730133047342608373C4730B
:1034F0000D000068012C06D9421C0133DBB21370A9
:1035000003329C42F9D1FF2129404B005918002376
:1035100040180338437030BDF8B5CE464746060024
:103520000C0080B5002907D04D0003686D18033DDD
:103530005A195778002F04D120000CBC90469946A8
:10354000F8BD7900C919033988464344597889463A
:1035500000215970517073683A00210080689847C3
:103560003368002814D042469A18947059195B5D4C
:10357000002B00D053700F70270049463000FFF732
:10358000CBFF390002003000FFF774FF0400D3E7DF
:10359000424641465D19AF709A185B5C002B00D023
:1035A0006B701470E9E7C046F0B557464546DE46F5
:1035B0004E46E0B50D006B0001685B19DF1E04008C
:1035C000C85D83B00192CA19002850D043001B186F
:1035D000033BCB185E78B446002E1AD1019E002E14
:1035E00042D0E67B002E04D073009B19CB18033B1E
:1035F0005D70A37B002B00D1A573E57300282FD14C
:103600000023537003B03CBC90469946A246AB469B
:10361000F0BD72006244033A89184A78904600224D
:103620004A7091465A70010032002000FFF722FFD5
:1036300043468246002B07D05B0021684344033B8E
:10364000CB185A78002A16D1424651462000FFF77F
:1036500011FF2168019BCA19002BC2D10028CFD0CD
:1036600043001B18033BCB1800219970C8E7019B4E
:10367000002BB6D1C4E750008018033809184878E9
:10368000834648464870587041462000FFF7F2FED6
:10369000594680462000FFF73FFF414602002000C8
:1036A000FFF7E8FE8046CFE7F0B54E464546DE46DA
:1036B0005746E0B5467B040075000068AD19033D30
:1036C00083B00191415D4219002952D04B005B1833
:1036D000033BC3185F78BC46002F1CD1019D002D11
:1036E00044D0E57B002D04D06B005B19C318033B6D
:1036F0005E70A37B002B00D1A673E673002931D145
:10370000002330005370617303B03CBC904699466F
:10371000A246AB46F0BD7A006244033A8018427874
:1037200093460022427091465A7020003A00FFF7FB
:10373000A1FE5B468046002B07D05B0021685B44FE
:10374000033BCB185A78002A17D15A46414620002D
:10375000FFF790FE019B010020684219002BC0D1A9
:103760000029CDD04B005B18033BC3180020987094
:10377000C6E7019B002BB4D1C2E750008018033884
:1037800009184878824648464870587059462000C3
:10379000FFF770FE53468346002B07D05B0021687D
:1037A0005344033BCB185A78002A06D15946524657
:1037B0002000FFF75FFE8346C7E7500080180338FC
:1037C000091848464F784870587051462000FFF756
:1037D00051FE390081462000FFF79EFE4946020057
:1037E0002000FFF747FE8246E0E7C04670B50400C0
:1037F00000292CD0437B8B422ED00568480040180E
:10380000033828188278002A21D053009B18033BE4
:10381000EA5CEE188A4202D11BE0002A08D053006D
:103820009B18033BEB185A788A42F6D142785A70BB
:1038300000230122837043702000FFF7B5FE617BF7
:1038400002002000FFF716FE6073012000E0002058
:1038500070BD43783370EBE701221900FFF7A4FE37
:1038600060730120F4E7C04630B50C2083B000F04F
:10387000B9F9FEF787FD00280ED0994B994A1A60D6
:103880005A609A60DA601A615A619A61DA611A6262
:10389000954A5A6203B030BD944CA06700F0F6F927
:1038A0000122934B1A60636C012BFCD10322914BD4
:1038B0001A608E4A936B012BFCD1013301218E4A91
:1038C0008E480093043300F03DF905238C4A0093A1
:1038D00001218C4800F036F98B4B5A68FF2A02D838
:1038E000802252005A6080227D4C824B2169120155
:1038F000854D1A60002907D0606901F021FE431C44
:103900005800C0180338FDD2E0217F4B02201A680E
:103910001140802252012A43116019684840032156
:103920000140116004219A681142FCD0802280215C
:1039300092012A4309011160802252005A60734BA0
:103940002361734B5968FF2900D85A6003227048DD
:10395000674B01211A60020093681942FCD0E025F0
:1039600013681D4080235B0103431D6012684A40B9
:103970000321114019600221654A93681942FCD065
:10398000802380219B010343090119608021614B41
:10399000490051606361604B5A68FF2A00D8596042
:1039A00080225E4BE16912015B4D1A60002907D04D
:1039B000606901F0C5FD431C5800C0180338FDD2F2
:1039C000E02255490B681A4080235B012B431A60A3
:1039D000802380229B012B4312011A608022414BDD
:1039E00052004A60E3614E4B5968FF2900D85A6083
:1039F00080224C4B216A1201494D1A60002907D0E0
:103A0000606901F09DFD431C5800C0180338FDD2C9
:103A1000E02243490B681A4080235B012B431A6064
:103A2000802380229B012B4312011A608023802275
:103A30005B004B602B4BD20223623B4B5968914297
:103A400000D25A608022394B616A1201364D1A60E9
:103A5000002907D0606901F073FD431C5800C018AD
:103A60000338FDD2E02230490B681A4080235B0105
:103A70002B431A60802380229B012B4312011A6082
:103A80008023DB024B60184B6362294B5A68FF2A84
:103A900002D8802252005A608022264BA16912016E
:103AA000234D1A60002907D0606901F049FD431CCD
:103AB0005800C0180338FDD2E0221D490B681A4097
:103AC00080235B012B431A60802380229B012B43C0
:103AD00012011A6080235B004B600E4BA361D9E694
:103AE00034160020006CDC021BB700000080004090
:103AF0003CB0004030B00040002F685900800240C8
:103B0000008C864700C0024030800040001BB70098
:103B10003C800040405973075480004054B000403E
:103B20006080004060B000406C8000406CB000409D
:103B30004880004048B00040014B8000C0587047AA
:103B400034160020F8B50400214817001D000E00AF
:103B500001F0F6FC0100380001F0F2FC069A2B049B
:103B6000120313432268002A21DB1A4AA218514289
:103B70004A41802149018C4652420A40164962441A
:103B80000A6016490A60164917008D68AF43FBD1D9
:103B9000C021221D8901114321222660A0600A60F4
:103BA0002268002AFCDAE36008230B60F8BD3F229C
:103BB00021680A40B242D8D1A2681205120D824291
:103BC000D3D1EE21E268C9020A409A42CDD1EDE795
:103BD000001BB7000040FDBF00E0004000F00040C7
:103BE00000C000408023024A9B000343D362704719
:103BF0000080054010B5140080221B4BD2051A60CE
:103C000000281AD00123194A1843194BDA61194ABE
:103C100042401A62596298628022134BD2051A60A0
:103C20001549164A1160E022D2041A60002C07D10F
:103C30008022134B12061A6010BD0D4BD861EBE7C2
:103C400080236201121B9200121912015B049A4236
:103C500000D30C4A0C4B1A60054B5A608022084B6B
:103C6000D2051A60E8E7C04600B00540D3C007B0EF
:103C7000008005402D3FF84FFCFF01000820014067
:103C800000A00540FFFFFF00181B0020AA23064AE2
:103C90001B0113602F230549D360054B196053683E
:103CA000002BFCDA7047C0460040024000B0FA002A
:103CB000006002402C4B2D4A70B51A602C4A2D4BE7
:103CC0002D491A6010008B689843FBD12B4C2C4B6C
:103CD0009C4209D2013B1D1BAD080135AD002D19D9
:103CE00008CC9847AC42FBD1FFF7BEFD254A214BDB
:103CF0001A60214A9368DB018033FBD14022224BBA
:103D0000224C234D9A675A671A67DA66AC4208D28A
:103D100023682000002B21D00834FEF78BFEAC4234
:103D2000F6D31C4C1C4DA168C022280002F0ACFA4E
:103D3000A560FEF7A1FBFEF741FEFFF735F8174C33
:103D4000174B9C4209D2013B1D1BAD080135AD004C
:103D50002D1908CC9847A542FBD170BD0834FEF759
:103D60005BFEAC42D4D3DCE700E00040BFCDFBFEFD
:103D7000FE7F3C0000F0004000C000404C100020DE
:103D80005C100020FFFFFF0100F001404410002004
:103D90004C10002000ED00E0000000205C1000202E
:103DA0006810002000BEFDE710B5FFF7FBFFC0461E
:103DB0000FB400B5084883B002F0BEFB049B002B93
:103DC00007D005A91800019101F044FB034802F057
:103DD000B3FB0120FFF7E6FF40920110149701109A
:103DE00010B50148FFF7E4FF509201109A4200D24B
:103DF000885470477047C046F8B557464E46DE4671
:103E00004546E0B51F000A9B05009B460D9B0E0032
:103E1000914692469B0718D10B9B0C9A934214D261
:103E200013000B9AB8469B1A4B444C460F000600F1
:103E30001D0022004346013439002020B047AC4227
:103E4000F7D1AA4635003E0047460B9B002B38D0E1
:103E50009A441C00D04653461A1B5B46013C185D31
:103E600031003B00A847002CF5D10D9B9B0721D5C5
:103E700043464A469C1A0C9BA3421BD93A009A46D9
:103E80004F469146E2194B46310020200134A847A5
:103E90005445F7D343460C99DB1B0133B946002246
:103EA000994203D343464A1E4A44D21A4346904697
:103EB0000133984440463CBC90469946A246AB46E6
:103EC000F8BDD046D1E7C046F0B54F464646D64687
:103ED000C0B584B098460EAB1B78129F99469446A5
:103EE0000D9C109B119EBA0725D4002E69D19C42CF
:103EF00000D3C2E001223A4092461F2C00D9BBE019
:103F00000C9A551E302201E0202C03D001342A5592
:103F1000A342F9D85246002A0DD0B4420BD21F2C2E
:103F200062D80C9A551E302201E0202C5CD001345E
:103F30002A55B442F9D1FA0635D57A055DD4002C5C
:103F400057D10F9B102B00D17CE00F9B022B00D18F
:103F50008DE030230C9A012413704B46002B27D0A0
:103F60002D230C9A135501340C9B62460093039742
:103F7000434602960194FFF73FFF04B01CBC9046F5
:103F80009946A246F0BDBB0663D4202CECD00C9B16
:103F90001A19013478231370202CE5D030220C9BA1
:103FA0001B191A700134202CDED04B46002BD7D1C0
:103FB0007B0735D43B07D7D520230C9A1355013402
:103FC000D2E7012215003D40AA463A4220D04A4697
:103FD000002A2AD10C323A4227D19C429DD21F2C72
:103FE00000D88DE7202E19D92024FA06BCD57A05F1
:103FF00003D4A3421BD0A64219D00F9B102BC2D0D2
:10400000022BC9D1202CAFD00C9B1B19013440E0EE
:104010009C4200D38FE71F2C00D871E720248AE749
:104020002B230C9A135501349EE7013ED5E7631EFE
:10403000012C00D185E70F9A102A20D0022A25D022
:104040001C00ABE7BB060DD478230C9A0124137037
:10405000A4E7202C00D187E758220C9B1B191A706B
:10406000013499E758230C9A0124137096E70C9AAF
:1040700060330124137091E7202400265BE7023CA3
:10408000BA06E9D40C9A12191C0083E70C9A9246DE
:10409000534462221A707FE710B5002800D110BD8A
:1040A00002F0FEF9FBE7C0460B0010B5002802D075
:1040B00049681B68984710BDF0B5DE46574645462F
:1040C0004E46E0B59BB09B46249B0A909846259BA4
:1040D0000B910C924046424619009A4601F0F9FCB9
:1040E000002800D0E8E00122404651467F4B524272
:1040F00001F0EAFC002800D0DEE0012240465146F3
:104100007B4B524201F0CAFC002800D0D4E00022D0
:1041100000234046514601F0C1FC002800D0CAE10E
:104120005346C14609938023289ADB001A400E9219
:10413000289A1A4201D1062326934C46099B234311
:1041400000D0D9E0289B002600271B0500D4AEE153
:1041500000230D93269B19000D9B994200DCB0E1D2
:10416000C81A431E26938023289ADB001A43002393
:10417000002528920D93279B0024AB4200D95C1B9D
:104180000223289A1A400E92289A134203D06B42B7
:104190006B415B421C400D9B002B07D048460999A0
:1041A00032003B0001F019FC8146099100220023F6
:1041B0004046514601F072FC002805D080200006E0
:1041C0008446099961440991289A4A4B0A9E1340F2
:1041D0004A460493269B0B990293099B03940092F1
:1041E000019330005B460C9A884600F0A1F9040068
:1041F000002D72D0289B220098061F23C0179843D9
:1042000041465B466530B0470D9B671CDA179C182A
:10421000DB0F98466B1E99460025544001E0202D87
:1042200013D00AAA94461F23200063440A210135B3
:104230005E1901F085F93031317020000A2101F05A
:104240007FF926000400092EE9D8052306934B4682
:104250000593002304930A33039343463A000A9ECE
:104260000B9F029312AB009339005B46300001951F
:10427000FFF72AFE0E9B0400002B2ED00C9B279AE2
:10428000C51AAA4229D93C008146984617004346E0
:1042900021005A1920205B460135B047AF42F6D8BD
:1042A0004C460C992798631A01330022984200D398
:1042B0000AE10134141910E0289B42460493279B1D
:1042C0000B990393269B0A980293534600920193FD
:1042D0005B460C9A00F02CF9040020001BB03CBC9B
:1042E00090469946A246AB46F0BDC046FFFFEF7F21
:1042F000FFFFEFFFFFF7FFFF764B099D9C4668002D
:10430000400D604401F0F8FB734A744B01F083FBED
:10431000734A744B01F058FB2B03734A1B0B1A436F
:1043200006000F00714B110048460022099501F06C
:1043300042FB6F4A6F4B01F06EFB02000B00300036
:10434000390001F041FB01F0EFFB0D9001F0D4FBCF
:10435000694A6A4B04000D0001F05DFB0022684BC6
:1043600001F032FB01F0E0FB664A0600664B2000DC
:10437000290001F050FB040030000D000F9601F001
:10438000BBFB624A624B01F046FB02000B002000BF
:10439000290001F010FB02000B0006000F0001F0E5
:1043A0003AFB320004000D003B003000390001F000
:1043B0000BFB002210901191564B2000290001F0B8
:1043C0000CFB0022544B01F0FFFA02000B0020000E
:1043D000290001F002FB0022504B01F0F5FA020027
:1043E0000B002000290001F0F8FA0D0080213200B6
:1043F0003B000400C905002001F0DDFA02000B00BB
:104400002000290001F0E0FA02000B001098119939
:1044100001F0E3FA0022344B01F0D6FA404A0F9B38
:104420009446634400221B0501F0F5FA06000F00D4
:1044300002000B004846099901F030FB00280AD021
:104440000D9B3000013B39000D930022324B01F0EF
:10445000C4FA06000F00C6250D99330063318D4262
:10446000AD4128996D420435090500D483E63B43EC
:1044700000D16FE6099C484621002A4A2A4B01F0E8
:104480001BFB002808D0002248462100274B01F0E2
:1044900005FB002800D05DE6269B002B00D16AE6D4
:1044A0000E9B5A1E9341269AD31A269363E6002345
:1044B00004250D935FE680231B065344C1460993F0
:1044C00031E6002326934EE60A008446013A624410
:1044D000121BEEE601FCFFFFFB799F501344D33F14
:1044E000B3C8608B288AC63F0000F03F0000F83F49
:1044F00061436F63A787D23F71A379094F930A4045
:104500000000E03F1655B5BBB16B0240EF39FAFE33
:10451000422EE63F00002C400000244000001840DE
:10452000FF0300002D431CEBE2361A3F80842E412E
:10453000F0B54E46DE4657464546E0B597B099463B
:10454000209E219F229B8346984607910C923B0018
:1045500032003000390001F0BCFA002800D0C1E17F
:10456000012230003900CA4B524201F097FA00286C
:1045700000D0E0E0012230003900C64B524201F089
:10458000A3FA002800D0B6E0002230003900C24B68
:1045900001F09AFA002800D098E00022300039009B
:1045A000BE4B01F07BFA002800D08FE000220023F0
:1045B0003000390001F072FA002800D0B0E000238A
:1045C0000D93249B5B0501D40623984608AB9C46BB
:1045D0001722002430234146624404E0013413557D
:1045E0000139202C01D00929F8D88846300039003B
:1045F00001F09AFA4346DA00A94B05009B181A68A5
:104600005B680892099301F077FA02000B00300012
:10461000390001F0D0F9089A099B01F0FCF90A90E1
:104620000B9101F0A5FA824601F062FA02000B003C
:104630000A980B9901F0BFF900229A4B0A900B914E
:1046400001F042FA002800D1C0E001239C46E24478
:10465000504601F04DFA02000B000898099901F04C
:1046600023FA002802D000239A4601354346002B46
:1046700069D008AB17269C4608956644554614E059
:1046800001235B4243440A2128009A4600F058FF68
:10469000013430313719397028000A2100F050FFF9
:1046A000092D00D8D5E0D0460500202CE8D1032301
:1046B000249A1340012B00D100E10EAB9846249BB5
:1046C00001940393239B029343461EE0249B584688
:1046D0000493239B00960197039343460C9A0293FD
:1046E00007994B46FFF7E8FC17B03CBC904699464B
:1046F000A246AB46F0BD249B5B070ED403226A4B57
:1047000024990192039123990291009358464B46B4
:104710000C9A0799FFF770FBE6E70422634BEFE77B
:104720003B0032000020002101F045F90123060082
:104730000F000D9345E7249B0393239B02930423CF
:1047400001935B4BE1E7280001F0D6F902000B0072
:104750003000390001F02FF9524B002206000F0003
:1047600001F09CF90EAB984600280AD100223000D7
:1047700039004C4B01F0A8F9002802D1EB0700D515
:104780000135202C32D008AA944617232800634410
:104790000A2101341E1900F0ABFE303128003170BF
:1047A0000A2100F0A5FE051EEBD10323249A134035
:1047B000012B00D191E01F2C00D980E70D9B002B2D
:1047C0003BD02D2342461355013478E700220A9846
:1047D0000B99344B01F062F9002800D046E75346AC
:1047E000002B67D101239C46E2443FE70323249A30
:1047F0001340012B00D062E7239B002B00D15EE722
:104800000D9B002B03D1249A0C33134202D0239B1F
:10481000013B2393239B9C42CDD208AB9C4617229D
:10482000302362441F2C06D82399013413558C423F
:10483000C1D0202CF8D1202441E7249B5B0721D450
:10484000249B1B0700D43AE720234246135501342A
:1048500035E75746089D202C37D0220030214046AE
:10486000002F08D00132B154202A43D0D3431B1962
:104870001B18002BF6D10EAB98462E234146541C34
:104880008B547EE72B2342461355013417E7C0466D
:10489000FFFFEFFFFFFFEF7F65CDCD4165CDCDC1C0
:1048A000589401100000E03F5C92011060920110EA
:1048B0006C920110DB0700D4D8E693E7239B002B12
:1048C00000D1FAE60EAB98469AE70323249A1340E8
:1048D000012B00D0F1E60EAB9846239B002B00D1B4
:1048E00069E78DE7249B0393239B029303230193A2
:1048F000064B0AE70323249A20241340012B00D0FF
:10490000DBE6239B2024002BDCD1D6E66892011045
:10491000F0B5DE464E4657464546E0B59FB01C0012
:10492000289B93460993CF4ACF4B894608901A603B
:10493000002900D116E2002320789A46002800D1F1
:1049400018E226001D004C460AE02A006F1C5B4658
:10495000089D2100A8473D000136307800287AD014
:104960002528F2D110239A46083B9946043B9846E5
:10497000023B00219C46721C107816000300203B6D
:10498000DBB2102B03D8B94F9B00FB589F460300A6
:10499000303B092B3CD900230A932A2800D171E02F
:1049A000002398462E2847D00300683BDBB2122B29
:1049B0001FD8AF4A9B00D3589F46012301321943A9
:1049C000DAE7634601321943D6E743460132194319
:1049D000D2E7534601321943CEE74B460132194321
:1049E000CAE770786C2800D1BFE280235B001943CE
:1049F00001360300253BDBB2532BA6D89D4A9B0012
:104A0000D3589F4680235B00707819430136F0E746
:104A100000270300B800C01901364000C0183378E1
:104A200030381A00303A0700092AF3D90A901800E2
:104A3000002398462E28B7D180237078DB001943D5
:104A40000300303B721C092B00D895E12A2800D1C5
:104A5000A6E11600A8E7A146AA462C00D34503D834
:104A600001235B425B449A465B465246494600201E
:104A7000089DA84720001FB03CBC90469946A2461E
:104A8000AB46F0BD099B40CB0A96002E03DB507865
:104A90000993561C84E72838014370420A90099311
:104AA0005078561C7CE7782800D1D4E1582800D1F2
:104AB00068E26F2800D152E3622800D1D8E11023C8
:104AC0000A009A430B92692801D000F0A2FC0A2345
:104AD0000C934B0500D4D5E101230B9A9A430B921A
:104AE000692800D1CEE1642800D1CBE10B9A802364
:104AF00011009B0019408A461A4200D032E38023FD
:104B000011005B00194089461A4201D000F002FCF6
:104B100013005B0600D510E30B9B1B0601D400F0CD
:104B20006EFC099B04CB1204120C92460993534667
:104B3000002B00D064E30B9A1033110099430B91C2
:104B4000520500D45CE3002399460B9B06930A9B15
:104B50000593434604930C9B03930023DEE2707895
:104B6000682800D107E280230136194341E78023FA
:104B70009B007078194301363BE7462800D174E169
:104B80000722099B0491073393430A9A1900039261
:104B9000424602920CC908980092019309912A009A
:104BA0005B462100FFF7C4FC01360500D5E6099BF2
:104BB0001A0008CA9146002B00D105E121221143B9
:104BC0008A460EA884461F216144099500220F27BA
:104BD000A4460D0002E0202A0CD00B003C001C4033
:104BE00020003730092C00D807380132A8541909A1
:104BF0000F2BF0D86446099DF0E08B0700D4D1E17B
:104C0000099B2A0099466B1C98464B4601CB210014
:104C10009946089F5B46C0B2B8470A9B9C466544CC
:104C2000012B00D890E2B2465E464746A846089D52
:104C30003A003300013721002020A8474745F7D12B
:104C4000B3464B4656463D000993013685E62A0099
:104C50006F1C5B46089D21002520A84701363D00BA
:104C60007BE6C04611490110D41A0020749201104D
:104C7000B892011004930110099B04CB9946434656
:104C80000992002B00D097E013789C46002B00D1AE
:104C9000B3E302235B425A1C099B924618000A9F09
:104CA0000B92504402E0834200D169E15A7801330B
:104CB000002AF8D1099A0A979B1A0B9380230A00BD
:104CC000DB001A400C92194204D00B9B434501D9DA
:104CD00043460B9302231A000A400D920B4200D167
:104CE00084E16046002823D00C9B002B00D124E1F6
:104CF000A844C246099B57465B1B9846089BB24690
:104D00002A0026005C469B4609E023003100551C22
:104D1000D8474346585D002800D13FE12A0097421A
:104D2000F3D1A3463D00340056460D9B002B69D0BD
:104D30000B9B0A99A846994264D98C466544ED1AA2
:104D4000089B47469A46B04626005C463A00230038
:104D5000013731002020D047AF42F7D1A3463400BD
:104D600046464FE0D24B2078089300239A4600280D
:104D700000D0E6E5002471E6434606000A9F98004D
:104D8000C018013240008019167803003000303816
:104D9000303B0928F3D93000984616000A9703E6FD
:104DA000099B023604CB9046D2434046D2171040AE
:104DB000804609933078F7E513789C46002B00D1A4
:104DC0001AE34346013B66E7102208009043113284
:104DD000104382460022490500D4F2E6534606936A
:104DE000082305934346049310230393002302935F
:104DF00016AB019200932A005B4621000898FFF74A
:104E000063F805004B4601360993A6E5202302000E
:104E10009A43472A04D180231B0119430223984354
:104E2000452801D1202319430722099B0491073308
:104E300093430A9A19000392424602920CC90898B9
:104E40000092019309912A005B462100FFF734F993
:104E50000136050081E510230C930C230A009A43C8
:104E60000B924B0500D43BE636E62023194387E638
:104E700002230C930B910B996428EED10B9B5B05DD
:104E800000D529E60B9A802311009B0019408A4621
:104E90001A4200D0CEE0802311005B001940894601
:104EA0001A4200D0DBE113005B0600D51DE10B9B2D
:104EB00009991B0600D499E208C91BB2D8171A1821
:104EC000424092B209919246DA0F1292002B09D118
:104ED000802310220B99DB000B4091430B91002B98
:104EE00000D012E10B9A6123920600D541230EA94E
:104EF0001F228C46DBB262440A3B57461395A246FA
:104F00004D460C9CB1460D9316000AE03033DBB2DF
:104F100001357355A74200D21CE1202D00D119E1C3
:104F200007002100380000F00BFBCBB20929EDD9B6
:104F30000D9A94466344DBB2EAE7099B5F465B1B2C
:104F400098460A9BB3469A462600089C2A003B00D6
:104F50003100A04743460135585D0028F6D153463D
:104F600034000A935E46BB46DFE6C0239B00B07860
:104F7000194302363DE5C023B0781943023638E5BF
:104F80000A979BE60C230A009A4314331A43102312
:104F90000B920C934B0500D4A8E59DE5A346340085
:104FA0005646C2E60A9A012A00D82EE26B1E9F18C6
:104FB000089BB046994626005C462A00230001352E
:104FC00031002020C847BD42F7D1A34634004646F1
:104FD000099B3A0001CB210098467D1C5B46089F47
:104FE000C0B2B847434601360993B6E40B9A0A9813
:104FF000531C904200D80AE243199B1A1F00089BD9
:10500000B24626005C469B462A002300013531004B
:105010002020D847BD42F7D10A9BA34601330B930A
:10502000099B34001B7856469C466046002800D0F9
:105030005AE6E7E60722099B073393430132944679
:105040009C4462465F6809921A68FB17109311939B
:1050500010981199030053400E930B007B400F935F
:1050600094460E9A0F9B121A8B410E920F93FB0FD0
:105070006246129300233A439A463DD00B9A61232D
:10508000920600D541230022DBB20EA90A3B8C46D2
:1050900091460D9343461F326244139515964D4633
:1050A0000E9E0F9FA14690460C9C14930FE0C046A5
:1050B000F53D01103032D2B2434601355A55BA455A
:1050C00000D17CE1202D00D17CE106000F00220000
:1050D00000233000390000F071FAD2B2092AE9D970
:1050E0000D9B9C466244D2B2E6E7FF23099904C9AE
:1050F00013401A000991E6E60B9A10331100994308
:105100000B915205BAD5002399460B9B06930A9B37
:105110000593434604930C9B0393129B02934B46C7
:10512000019316AB2A00009321005B460898FEF716
:10513000CBFE01360500FFF710FCFF22099B02CBD6
:1051400011408A460993F2E44B46454609930136DD
:10515000FFF703FC4E465446A946139DD5E70823A6
:105160000C9387E60722099B073393430132944649
:105170009C44624609921A685B6810009A461300C4
:105180005246134307D10B9A1033110099430B91E8
:10519000520500D5D7E40B9A6123920600D541232E
:1051A0000022DBB20EA90A3B8C4691460D93434682
:1051B0001F32624457461295A2464D460400B1463E
:1051C00090460C9E13930DE03032D2B24346013527
:1051D0005A550023BB4200D1FDE0202D00D1FDE057
:1051E00004000F00320000232000390000F0E6F92F
:1051F000D2B2092AE8D90D9B9C466244D2B2E5E7B7
:105200000B9A6123920600D54123DBB20EA90A3B1B
:105210001F228C460D9323006244544612951700BA
:105220004D469A46B1460C9E08E03033DBB201355C
:105230007B55B4420ED3202D0CD004003100200049
:1052400000F07EF9CBB20929EFD90D9A9446634458
:10525000DBB2ECE74E465446A946129D75E4099B25
:105260001A0008CAD91713925A184A409146DA0F01
:105270001292002B08D1802310220B99DB000B40E7
:1052800091430B91002B2BD10B9A6123920600D5F1
:1052900041230EAA1F279446DBB20A3B0D956744B3
:1052A00055460993A2464C46B1460C9E08E0303361
:1052B000DBB201357B55B4420ED3202D0CD0040057
:1052C0003100200000F03CF9CBB20929EFD9099A4E
:1052D00094466344DBB2ECE74E465446AA460D9D25
:1052E0000B9B2A0006930A9B2100059343460493D7
:1052F0000C9B08980393129B01360293534601932B
:1053000016AB00935B46FEF7DFFD139B0500099388
:10531000FFF723FB099B04CB91461293002A08D187
:10532000802310220B99DB000B4091430B91002B43
:105330002BD10B9A6123920600D541230EAA1F2779
:105340009446DBB20A3B0D95674455460993A24645
:105350004C46B1460C9E08E03033DBB201357B553C
:10536000B4420ED3202D0CD004003100200000F0F8
:10537000E7F8CBB20929EFD9099A94466344DBB226
:10538000ECE74E465446AA460D9D0B9B2A00069319
:105390000A9B21000593434604930C9B08980393B2
:1053A000002302935346019316AB00935B46FEF72E
:1053B0008BFD129B050009930136FFF7CEFAB4422C
:1053C00000D87FE6149B4C460E960F97A946984648
:1053D000159E139D99E6A64200D8FEE6139B4E4605
:1053E0009846A9465446129DFFF7AFFB08C9D81747
:1053F0001A184240099166E500230B935EE4099B6D
:1054000004CB92460993FFF792FB2F00E0E50B9344
:105410000BE6063B0C932EE500B583B0009313001A
:105420000A0001000248FFF773FA03B000BDC0464E
:10543000ED3D011000B585B003910121029000936C
:10544000034813004A4202A9FFF762FA05B000BD03
:10545000A940011010B5094A0300146884B0002C5B
:1054600008D0012200910648524203A9A04701201A
:1054700004B010BD01F060F80020F9E7D41A002054
:105480009940011001480421014B1847E00F00200A
:10549000B5540110142310B50100188804331B887B
:1054A000984710BD162310B50100188802331B88D9
:1054B000984710BDF0B5C64600B5002916D0142394
:1054C000040001259846182789004618434621689C
:1054D00018883B88984701C4431E984140420540C4
:1054E000A642F3D1280004BC9046F0BD0125F9E79F
:1054F000124A936F9B0815D29066D166002905D099
:10550000FFE7FFE7FFE7516F106F704704B5802199
:105510000906C2175140002800D0C84303F010FE0E
:10552000002104BDF0B5146E556E576F166FFFF76E
:10553000E3FF1466556657671667F0BD000000D09C
:10554000114A936F9B0813D210665166002905D04B
:10555000FFE7FFE7FFE7516F106F704704B50028C2
:1055600001D00020C04303F0EBFD002104BDC04684
:10557000F0B5146E556E576F166FFFF7E5FF1466A2
:10558000556657671667F0BD000000D094464A4A3A
:10559000926F9208624601D228E0C046F0B5464EAE
:1055A000346E756E776F366F00F020F89446424A7D
:1055B00014665566576716676246F0BD94463E4AC4
:1055C000926F9208624601D254E0C046F0B53A4E5E
:1055D000346E756E776F366F00F04CF89446364A2D
:1055E00014665566576716676246F0BD002B24DBCC
:1055F00011D000293EDA00B5C943404200D1013143
:1056000000F038F8C943404200D10131DB43524237
:1056100000D1013300BD002AEBD1002801D10029BF
:1056200005D00020C90FC90701D1C043410800B50A
:1056300003F06EFD0022002300BD00B500290ADB47
:10564000DB43524200D1013300F014F8C943404219
:1056500000D1013100BDC943404200D10131DB43DB
:10566000524200D1013300F005F8DB43524200D131
:10567000013300BD002923D1002B18D1002A0CD002
:10568000BC460D4F38667A6600210023FFE7FFE72E
:10569000FFE77A6F386F67467047002801D00748E8
:1056A000010000B503F034FD0022002300BD02001C
:1056B0000B00002000217047000000D0FFFFFFFF1B
:1056C000002B00D0BFE0130C28D1002AE7D080B413
:1056D000114F39667A66FFE7FFE730B4040C7B6F41
:1056E000396F1B0423433B667A66FFE7FFE7FFE75A
:1056F000C04684B27B6F3D6F1B0423433B667A66D2
:10570000FFE7FFE7C04600232C042D0C7A6F386FAB
:1057100000196941B0BC7047000000D0F0B5944654
:105720000025140E01D112020835140F01D1120107
:105730000435940F01D192000235D40F01D15200EB
:105740000135D40B0134254F7C66254C3C660E0C8C
:1057500093B2FFE7FFE7FFE73C6F6643360C770342
:10576000BE467343DF0B5B04C01AB941130C73438D
:10577000DB18C91ACE086643360CB64493B273439D
:105780001F0F1B01C01AB941130C73431F0B1B05DC
:10579000C01AB941860D8F023E436643360C092D6F
:1057A00024DB520A7243801A7703460A6643360C9A
:1057B00016235B1BDE40DF40BF1964466643821B35
:1057C0007046043506330100D940A840C01900D303
:1057D0000131A24206D20023F0BD0000000000D03B
:1057E000FFFFFFFF121B0130F3D3F1E709277F1BF7
:1057F000FE406446A2B27243801A00D20139220CE4
:105800007243130C1204821A99410B00704604353E
:1058100013370100F940A840801900D30131002B53
:1058200002D1A2420AD2F0BD013000D30131121BD5
:10583000FAD2013BF8D1A24200D2F0BD013000D330
:105840000131121BF7E7F0B51C0C00D080E00CB45E
:1058500000251C0A04D11B02160E33431202083520
:105860001C0B04D11B01160F3343120104359C0B92
:1058700004D19B00960F334392000235DC0B02D11A
:1058800092185B4101351C00971864410134464F62
:105890007C66464C3C660E0CFFE7FFE7FFE7C04620
:1058A0003C6F6643360C7703BE4697B27743C01B06
:1058B00000D20139C01B00D201399FB27743C91B06
:1058C000C91B170C77437E04FF0B801BB941CE0820
:1058D0006643360C0C2D33DBB644120B1F053A43DE
:1058E0001B0B97B27743C01B00D201399FB277439D
:1058F000C91B170C77433E043F0C801BB941860D32
:105900008F023E43664329277F1BFE400C3D7746AE
:10591000AF40BF1930BCA2B2ABB272437343801A1E
:105920009941220C7243130C1204801A994102000F
:105930000B000137001BA941F9D2781E0021F0BDF0
:105940000C277F1BFE4077467F0BAF40FF19E0E737
:1059500000245D1C07D0144F7D663966FFE7FFE722
:10596000FFE7FFE73C6F95B29EB265436643401B7D
:10597000B141150C1E0C6543664336042F0C3E43A3
:105980002D04401BB141994204D202000B002000BB
:105990000021F0BD01D19042F7D3801A9941013422
:1059A0009942F2D3F6E70000000000D0FFFFFFFFAE
:1059B00048404140484018B41B4B5B68FC4601938B
:1059C00008BD04DF7B5C011018B4174B1B68FC4654
:1059D000019308BD00DF855C01109446134A926F65
:1059E000920809D2624618B40F4BDB68FC4601935B
:1059F00008BD0CDF3D5F01100C4AF0B5146E556E0A
:105A0000576F166F6246FFF7EEFF084A1466556639
:105A100057671667F0BD18B4034B9B68FC460193AB
:105A200008BD08DFE15D0110801B0020000000D0F0
:105A3000FFB550404240504059404B40594000E073
:105A4000FFB5154F4C00640D03D0BC4204D10C03CC
:105A500014D80020090D09055C00640D03D0BC4278
:105A600004D11C030AD800221B0D1B0501264B4044
:105A700009D44B4003D58B4200D18242FFBD9942ED
:105A8000FCD19042FFBD0B43DB1803431343F5D019
:105A9000C9434918FFBD0000FF07000000B5FFF72C
:105AA000CFFF804100BDC04600B5FFF7C9FF01D957
:105AB000002000BD012000BD00B5FFF7B9FF01D9EE
:105AC000002000BD012000BD00B5FFF7B1FF8041FF
:105AD00000BD012040054A00121804D85A001218CF
:105AE00001D8002070470120704700207047000057
:105AF0000021002805D17047C1174840401AFAD04C
:105B0000C90713B5064B1B6898470CBC441CA24040
:105B10001005120B0349091B09051943114310BD58
:105B2000401B00201F04000010B54C00620D8023B4
:105B3000D218DB00D21A5B057E2A10DD9E3A13DAFA
:105B4000CC170903490819435242D140640001347B
:105B50001532202A05DAD0400843604310BD0020EA
:105B600010BD0846604310BDC80FC018013810BDF5
:105B700018B4044B5B6AFC46019308BD24DFED605A
:105B800001100000801B0020132370B51D78012D2B
:105B900015D010DD2748FFF785FC274C0100802237
:105BA000200000F071FB022D06D02448FFF772FCA4
:105BB000234B186070BD204C224AA264F5E72E00EA
:105BC0001D4C204AA3085B421E401D422FD03300CB
:105BD00022602020B1006118801B0A604A608A6040
:105BE000CA600A614A618A61CA610A624A628A625B
:105BF000CA620A634A638A63CA630A644A648A643B
:105C0000CA640A654A658A65CA650A664A668A661A
:105C1000CA660A674A674008102803D18A67CA67BC
:105C2000A264C2E71E339B00E250A264BDE70023DA
:105C3000CFE7C04653440000801B00204C330000D7
:105C4000401B0020495C011007B5604601880A0A24
:105C50000230DF2AFAD1C9B2820804D30288408810
:105C60000004104300E00068014A5050039007BD53
:105C7000801B00200FB403BC0CBCF0B50124E4076A
:105C8000634000E0F0B50C0DCF0F661E3605891B92
:105C9000640503D3C943404200D30131640D03D0EE
:105CA000661CF60A07D0E41B00207F00791C8907D8
:105CB0008912803C24031D0DDF0F6E1E36059B1BD1
:105CC0006D0503D3DB43524200D301336D0D03D086
:105CD0006E1CF60A07D0ED1B00227F007B1C9B0781
:105CE0009B12803D2D032F1B661B58D4A446202EEB
:105CF00046DA20371400BC401D00BD40F24033415D
:105D00002A4380185941CB0F05D0C943C043002214
:105D100064425041514162464D0D28D10D0D07D1CD
:105D200000281FD0241940414941013A0D0DF9D0F6
:105D3000640006D3013000D30131002C01D14008AA
:105D40004000013A0BD4941CE40A04D1120511441A
:105D5000DB071944F0BDD907204B194300E0D907F0
:105D60000020F0BD0029DDD1002CDBD1F0BD0132D7
:105D7000C6074008CD0728434908002EE1D0D9E7DF
:105D80003C2E29DA203E40371400BC4000D00124CC
:105D9000F24014431A00BB401C43D317ACE7AC4697
:105DA000202F08DA20360400B4400D00B540F8403A
:105DB00039412843A5E73C2F0CDA203F4036040048
:105DC000B44000D00124F84004430800B1400C4323
:105DD000C117EAE710001900002494E70000F07FE3
:105DE000F0B50C0D661E3605891BE60A6405640DC8
:105DF00002D0651CED0A04D0002001210905803C79
:105E00002403A4461C0D671E3F05DB1BE70A64053F
:105E1000640D02D0651CED0A04D0002201231B058D
:105E2000803C24037740644497B484B296B27443B0
:105E3000070C7E43150C6F4380B26843361802D3BB
:105E4000012000043F183004350C00197D418446C0
:105E500088B29AB250430C0C62431F0C7C438EB242
:105E60007E43921902D301263604A4191604170C96
:105E70003618674101BC81B29AB25143040C6243A7
:105E80001B0C5C4380B25843121802D3012000045B
:105E900024181004130C401863412D185E41002093
:105EA000474106BC88B293B258430C0C6343120CB2
:105EB000544389B251435B1802D301210904641889
:105EC00019041A0C091862416D1856410020474107
:105ED00018BCF902720D1143F0026A0D1043ED0275
:105EE0000A0D03D16D1940414941013B124E9B1BE4
:105EF0007600B3420ED26D0007D301300026714107
:105F00006646354301D1400840001B05C918E40727
:105F10002144F0BD0BDA013306D1013004D1013147
:105F20004F0D01D04908F2E7E1070020F0BD01362E
:105F300031050020EBE70000FF030000F0B51C0D69
:105F4000671E3F05DB1BE70A6405640D02D0661C73
:105F5000F60A04D0002201231B05803C2403D0252F
:105F60002D060026F6432E661E096E66CE0FF61924
:105F7000B44649004F0D02D07E1CF60A03D0002023
:105F80000021403F3F033E1BB600B444013F7F0564
:105F9000C91B49082E6F013676089C02950D2543D2
:105FA0007543ED137543AD1301356D10F603761B84
:105FB0000CB4CC02450D2C43A2B2B3B25A43270C09
:105FC0007B43350C6F43A4B26C431B1902D30124ED
:105FD00024043F191C041D0CA4187D4124196D4193
:105FE000009A91B2ACB26143170C7C432B0C5F4317
:105FF00092B25A43A41802D301221204BF182204F9
:10600000230C52187B41019C6C431B19520ED90181
:106010000A434401A01A81B2B2B2514303145A4355
:10602000360C734387B27743D617D21900277E41C7
:1060300036049B191704160C7F185E417316ED1871
:10604000F301002680337541A90F06D16400690A67
:10605000E8055B0A184309D22FE0042294448033F8
:106060007541A90AA8059B0A184326D34041494116
:106070002404009A019B0D005543641B4343E41A1A
:1060800095B286B27543170C7E43030C5F4392B200
:106090005A43B61802D301221204BF183204330C3B
:1060A00052197B4152429C41002C02D40022013003
:1060B00051414008CA071043490802B06246D70759
:1060C0009210084BD218084B9A4203D21205891835
:1060D000C919F0BD0020002A01DC3900F0BD0133F0
:1060E0001905F5E7FD030000FE070000002200B5DA
:1060F000203200F004F8080000BD000000220B155B
:106100000AD410B5944600F031F81414013400DAC2
:106110000021CB17144C2047002000217047624417
:10612000343A0CD40C2A07DA0400914090405242D1
:106130002032D440214310BDD843D94310BD203272
:1061400007D40C469440524220321141D0402043A3
:1061500010BD0800C917203203D45242203210412A
:1061600010BD1800190010BD1F6101100A0DCC0FE1
:10617000531E1B05C91A520503D3C943404200D31D
:106180000131520D03D0531CDB0A07D0121B002033
:106190006400611C89078912803A1203014BD21AEC
:1061A00070470000FF03000051434343C9188C4669
:1061B000110C83B24B4310B4040C614392B280B211
:1061C000504362431C041B0C001910BC59411304BA
:1061D000120CC0185141614470470000132310B5E0
:1061E00012481C78FFF75EF90100012C0AD003DD8C
:1061F00080220F4800F048F80E48FFF74BF90E4B8D
:10620000186010BD0A4C5422200000F03DF80B4BE2
:106210006365A365E36523666366A366E366236738
:106220006367A367E3672362E361E5E75346000022
:10623000801C00204C330000401B002041620110F4
:1062400007B5604601880A0A0230DF2AFAD1C9B2CE
:10625000820804D3028840880004104300E00068EC
:10626000014A5050039007BD801C002001480421C2
:10627000014B1847F00F0020B5540110014B1B686B
:1062800018470000F00F0020014B5B681847000022
:10629000F00F0020030010B508001B68110098479C
:1062A00010BDC046F8B54746CE4680B5437D0700D1
:1062B0000D001600002B37D000240020002A1EDD20
:1062C0004B1E98461B4B9946002C2BD043461B5D1A
:1062D0000D3B5A425341DBB22A5D0A2A13D00134E6
:1062E000A642F1DC864203DD311A3B682818984744
:1062F000AD19013D2B780D3B5A4253413B750CBC07
:1063000090469946F8BD002BE9D1A04203DA211A44
:106310003B6828189847484602213B680134984753
:106320002000DDE73B7DD7E7036811002800984790
:10633000E5E7C0460C950110F0B5C6460C000968AB
:10634000060000B5802906D04B1C23606418267116
:1063500004BC9046F0BD0F4B1D68002D16D0231DC8
:1063600098460D4F02E02D69002D0FD02B68002BB1
:10637000F9D03B68002B01D0AB42F4D12800414654
:106380002268FFF78FFF2D69002DEFD10123002137
:10639000DBE7C046C8160020D0160020F0B5DE4668
:1063A00057464E464546E0B585B017001C0006002E
:1063B0000D00FCF74BFF0023324A12184B41002B13
:1063C0005BDB314908008A4602F0DAFE01906B1C63
:1063D00003D1300002F002FE0500002C28D12B4B27
:1063E00098462B4B1C68002C15D0002F23D1294F29
:1063F00002E02469002C0ED02368002BF9D03B6802
:10640000002B01D0A342F4D120002A003100C04764
:106410002469002CF0D1019B002B2AD1681E8541F4
:10642000E8B205B03CBC90469946A246AB46F0BDEA
:10643000194B9846D5E7174B994602ABDF1D0A2347
:106440009B4602E02469002CE5D02368002BF9D09C
:106450004B461B68002B01D0A342F3D12A00310028
:106460002000C0475B460122390020003B70C04736
:10647000E8E7504602F044FED0E70122074B5242C3
:106480009FE7C04640420F0044100020A562011063
:10649000C8160020D016002095620110FFFFFF7F74
:1064A000F0B5CE46474680B583B06B460500DE1D8D
:1064B0003070FCF7CBFE00231A4A12184B41002B18
:1064C0002CDB19490800884602F05AFE174B0700DA
:1064D0001C68002C16D0164B994602E02469002C4B
:1064E00010D02368002BF9D04B461B68002B01D03D
:1064F000A342F3D1200001223100FFF7D3FE24692B
:10650000002CEED1002F05D1280003B00CBC904622
:106510009946F0BD404602F0F3FDF5E70122054B38
:106520005242CEE740420F0044100020C81600201F
:10653000D0160020FFFFFF7F70B5040002F04EFD73
:1065400000230100050001222000FFF727FF084B70
:106550001C68002C06D06368002B05D0984724697E
:10656000002CF8D1280070BD2469002CF3D1F9E784
:10657000C81600200A4A1368002B05D10CE01A0047
:106580001B691032002B07D09842F8D1002902D1A4
:1065900003691360016170470029FCD01060FAE7BD
:1065A000C8160020F0B5CE46474680B5A5B0040019
:1065B0000D00FCF74BFE00232A4A12184B41002B1A
:1065C00049DB294E300002F0DBFD00230700039376
:1065D00022002B00254803A9FEF72CFF039B8046D1
:1065E000002B14D1224B1C68002C06D06368002BB2
:1065F0000BD098472469002CF8D1002F27D14046B2
:1066000025B00CBC90469946F0BD2469ECE7184BC8
:106610001D689946002D22D0164C02E02D69002DF0
:1066200011D02B68002BF9D02368002B01D09D429C
:10663000F4D1039B28001A0004A90193FFF732FE4E
:106640002D69002DEDD14B4603951C68CCE7300039
:1066500002F056FDD3E70122074B5242B1E7039502
:10666000CBE7C04640420F004410002039630110C0
:10667000C8160020D0160020FFFFFF7F0FB400B522
:1066800083B004A901C90191FFF78CFF03B008BCD6
:1066900004B0184710B500F027FA10BDF0B5CE468B
:1066A0004746040080B583B0FCF7D0FD26000027E4
:1066B00036184F41002F32DB3D001B4B99461B4BD8
:1066C00098464B461C68002C03D117E02469002C27
:1066D00014D043461B68002B01D0A342F6D1A36817
:1066E000002BF3D0012101A898470028EEDD6B466E
:1066F000187903B00CBC90469946F0BD0C4B5A6A11
:10670000AA4207D39B6AB34201D2AA4202D0012017
:106710004042EEE701200021FCF7A2FDD1E701266F
:10672000044D7642C9E7C046C8160020D0160020A6
:1067300000400540FFFFFF7F7047C0460022014B2D
:106740001A707047771B00204B790020FF2B0BD16C
:106750008B79002B08D1CB79012B05D1082A03D9DD
:106760008A78024B09301A707047C046771B0020A8
:106770000120704770B5012909D115495379107965
:1067800009781B0203430020994202D070BD01200A
:10679000FCE75378012B08D0022BF7D100206422AC
:1067A0000021FDF727FA0120F0E79478D278050060
:1067B00012021443D20502D5620A93401D00054817
:1067C000FEF768FE7F210300214028009847C0465D
:1067D000771B0020554200000123037000487047DA
:1067E000109501104A780B7812021A438B7810B575
:1067F0001B041A43CB781B0613439622D200934204
:1068000000D010BD0348FEF745FE0021030008003C
:106810009847C04655420000024B1860024B196071
:106820007047C046281600202C16002010B5024BD9
:106830001878FBF75DFE10BD791B0020114B70B579
:106840001A68002A1AD0EFF3108172B61068002877
:10685000FCD0BFF35F8F00220B48596002701B68A9
:10686000BFF35F8F1A6081F3108800240025074B67
:106870001878FBF73DFE2900200070BDFA240025A2
:10688000A400F4E7201B00207A1B0020791B0020C5
:1068900070B5040000200E0001F00EFB002835D07A
:1068A000002001F021FB002830D0FCF7CFFC0023B2
:1068B000184A12184B41002B24DB174D280002F018
:1068C0005FFC002822D0002001F0F6FA00280BD14E
:1068D000012000210324404200F0D8FC644228003B
:1068E00002F00EFC200070BD002001F0FDFA00282F
:1068F000EED021003200002001F002FB041EEED198
:10690000033CECE70122054B5242D6E703246442E4
:10691000E8E7C04640420F00481B0020FFFFFF7F12
:10692000F8B5DE46574680B505000C00FCF78EFC36
:106930000023364A12184B41002B5ADB3449080019
:106940008A4602F01DFC002803D10CBC92469B46EF
:10695000F8BD002001F0B0FA00284ED00026002C2F
:1069600043DD2C4B9B4614E0A919002001F03CFBB1
:10697000070001200021404200F088FC002001F0C7
:10698000F7FAFCF763FC234BF61918605960B44220
:106990002BDD002001F042FBA71B0200B84200DD06
:1069A0003A00002AE0D101200021404200F06EFCB4
:1069B000002001F0DDFA002001F07EFA002814D05A
:1069C000002001F02BFB0028E1D1FCF73FFC5B46E7
:1069D0000F001A685B68002184460F4812184B416B
:1069E0009F4202D8D3D19445D1D9504602F088FBBA
:1069F000ABE70122094B5242A0E700200021054BE2
:106A000018605960504602F07BFB9EE740420F0041
:106A1000481B00206811002020A10700FFFFFF7F16
:106A200010B5244C84B00021200002F091FB002816
:106A30001CD1214B1A68002A16D0EFF3108172B6D0
:106A400010680028FCD0BFF35F8F01241B485960F9
:106A500002781B68D2B20470BFF35F8F0020186009
:106A600081F31088002A0AD004B010BD0120002153
:106A7000404200F00BFC200002F042FBF4E7FCF780
:106A8000C9F90400FCF7E2FBFA2200239200121875
:106A90004B41002B09DB01210291002101910849A2
:106AA00020000091FCF7BAF9DEE70122054B5242C3
:106AB000F1E7C046481B0020201B00207A1B002065
:106AC0003D680110FFFFFF7F054B10B518680028D7
:106AD00004D0044B0022196801F052F810BDC046E2
:106AE000281600202C160020D02310B51B0684B0D9
:106AF0001C68FCF78FF9FCF757FAA04202D000207F
:106B000004B010BD264B1B7801F09AFC2548FBF71A
:106B100083FF0120FBF764FFFF23234C23492070F0
:106B20001840FBF70BFD20780121FBF7CFFC052077
:106B3000FBF7E6FC002822D1FCF76CF90400FCF717
:106B400085FBFA220023920012184B41002B22DB16
:106B50000121029100210191154920000091FCF7CB
:106B60005DF90822040000211248FFF787FB002C82
:106B7000C5DB11480121FFF7FDFC0120C0E7002221
:106B80000E490520FBF704FDFBF784FC01000948D2
:106B9000FBF76CFFEDE70122094B5242D8E7C046F4
:106BA00010980110481B0020791B0020216A011059
:106BB0003D680110201B0020001000202D680110EE
:106BC000FFFFFF7F00487047C895011000487047DD
:106BD0007495011070B5040016480378002B20D07E
:106BE000002C06D1C1241448144BA4004380048017
:106BF00070BD052C1CD8124B0F48A400E558811C11
:106C0000002304E001330A800231132B0DD0EA5C2B
:106C1000DCB2002AF6D1C023013464009B001C437F
:106C2000E5E7112100F016F8DAE7CA24A400DEE750
:106C30000020DDE7601B0020A016002009040000F2
:106C4000DC95011010B5024800F0E2F810BDC04616
:106C5000381B002030B54B1E012900D1B0E06B4A33
:106C600011780D112C0030349F2900D9ABE004704D
:106C7000012B00D1C7E00F21147821400C003034E3
:106C8000092900DDA1E04470022B00D1BBE051785E
:106C90000D112C0030349F2900D999E08470032B0A
:106CA00000D1B0E00F21547821400C003034092984
:106CB00000DD8FE0C470042B00D1A4E091780D11A9
:106CC0002C0030349F2900D987E00471052B00D1B6
:106CD00099E00F21947821400C003034092900DD1F
:106CE0007DE04471062B00D18DE0D1780D112C0090
:106CF00030349F2900D975E08471072B00D182E0E0
:106D00000F21D47821400C003034092900DD6BE0DC
:106D1000C471082B00D176E011790D112C003034AC
:106D20009F2964D80472092B00D16CE00F211479DB
:106D300021400C00303409295BDC44720A2B62D0FC
:106D400051790D112C0030349F2955D884720B2BAA
:106D500059D00F21547921400C00303409294DDCE1
:106D6000C4720C2B4FD091790D112C0030349F2917
:106D700000D9073404730D2B45D00F21947921409D
:106D80000C003034092901DD37310C0044730E2B1F
:106D900039D0D1790D112C0030349F2900D9073416
:106DA00084730F2B2FD0D1790F220A401100373175
:106DB000092A01DC30321100C173102B23D01030AE
:106DC0000023037030BD073451E737310C005AE718
:106DD000073463E737310C006CE7073475E7373168
:106DE0000C007EE7073487E737310C0090E7073463
:106DF00098E737310C00A0E70734A7E737310C00DC
:106E0000C4720C2BAFD1C018DAE7C046381B002083
:106E100030B5002589B004000922002101A80095A1
:106E2000FFF72CFA0922002105A80495FFF726FA9E
:106E30004B236A466846137004A90D2202F058F9E4
:106E40001521082220006944FFF71EFA09B030BD61
:106E500010B501210520FBF739FB10BD10B500224C
:106E60000021024800F05CF910BDC046F416002075
:106E70008022024B5202DA647047C0460020115053
:106E8000F0B5C64600B5060000F024F90C231C4DF1
:106E9000FF22AB6705201B49FBF77AFB402398468E
:106EA000194C402200212000FFF7E8F94146002359
:106EB0000127002221202183144967706380E27634
:106EC000A1600B6022545F30608440462087053803
:106ED0000F4922540F4A6360E160A262136063624B
:106EE000E16202F05DF980239B052F64EB6490233F
:106EF000094A3000EA50FFF7BBFF04BC9046F0BDE2
:106F0000000011501D060020D416002084001050EF
:106F1000000110508000105010D001000B785B066B
:106F200002D14B78052B00D070478A78014B1A604C
:106F3000FAE7C04600001150F0B5C64600B5CC785F
:106F400088780A794B797F21A40701401B02C50983
:106F500013434F00A20F1400324E7A195201B21897
:106F6000907001206840507000205B055B0DD07070
:106F70001383D4768046CA00012D33D02A48844634
:106F8000880162448446B444604682604046106092
:106F9000002933D0254AC9009046624641445160D9
:106FA0003F223F339343022C00D15B0020487A19E3
:106FB00001685201B218D1601E4ACB1803605140DB
:106FC0005340802288465201934228D84346A40663
:106FD0001C4380237F197F011B06F6191C4373682D
:106FE0001C6011E014488446880162448446B4441D
:106FF0006046826240461060002909D100236D017D
:10700000761973600D4BF360012004BC9046F0BD0F
:10701000084AC9009046624641445162C0E7FCF705
:10702000DFFED3E7D4160020840010500400105077
:107030001C1B002000001050800010500001105058
:1070400010B502F0ADF810BD10B57F200C00204047
:107050004000E409110000191A00034B4001C01858
:1070600000F05EF8012010BDD41600207F23180028
:1070700010B508400B420BD0C909802240004018CF
:107080000649400140181201002102F099F810BD94
:107090000223034AC9095B1A9366EEE7D41600205F
:1070A000002011507F23180010B508400B4200D17A
:1070B00010BD00234000C909411804484901401887
:1070C00000220349C37002F07BF8F1E7D4160020D8
:1070D000FFF7FFFF80220D4B520410B51A600C4BD6
:1070E0000C491A6010008B689843FBD10A4C9C2213
:1070F00000212000FFF7C2F880220021520107483A
:10710000FFF7BCF80923636710BDC04600E00040EC
:1071100000F0004000C0004000001150000010507E
:1071200070B5837E04000D001600002B19D10023DA
:107130002100E3820133A682A3762561A01C1B31C6
:1071400001F0CEFF002804D080219023084A890254
:10715000D150200001F0E4FF002805D0012323775F
:1071600070BD02F025F8E2E7200002F011F8F7E721
:1071700000201150024B5878431E9841C0B270470E
:10718000BC140020024B18784007C00F7047C0465F
:10719000BC140020034B1878FF38431E9841C0B23E
:1071A0007047C0463C100020F8B5CE46474680B533
:1071B0002C4E050033780120FF2B03D00CBC9046E9
:1071C0009946F8BD532200212748FFF757F8274C6E
:1071D0002000FBF721FC264B1C60264C20001430BD
:1071E000FBF736FC200001F0F1FB234B234F1C6022
:1071F000234B9846002B04D03800FFF7EDFA214BC3
:107200001860424600243B78002A23D01E4A90464C
:107210001C4A9146A34212D80FD1434698470134E5
:107220003B78E4B2A342F5D228003570FFF728FE80
:107230002800FFF70DFE0120C0E70020BEE74A4608
:107240001268630094461B19DB006344002BF4D0E2
:107250001B68E3E700F0EEFE3B780020002BADD189
:10726000E2E7C0463C100020BC140020741400204B
:10727000101500202010002014150020711B002084
:10728000D96701109411002035800110F0B5DE4659
:1072900057464E464546E0B58DB001F0D7F8002878
:1072A00000D10FE1C74BC84D9946C84B09AC9B466E
:1072B0002E687269EFF3108172B61368002BFCD050
:1072C000BFF35F8FB1613000210001F0C9F972692D
:1072D000B369BFF35F8F0021116083F3108800282A
:1072E00000D1EFE06378082BE2D84A469B00D358E0
:1072F0009F466368002BDBD0A0689847D8E77F22C1
:107300002179B24E0A405000CB093618F6183000E9
:1073100001273030C378BB43C370C3780337BB4306
:10732000C370002A00D1F2E0A94AF37C002A06D0FB
:10733000A84A1278934200D260E19B1ADBB2002B7C
:1073400000D0BFE0A44E62792078A368B047AFE7D1
:107350005B4601221B78012113435A4613703323E5
:107360005846D25C5E468A43C254C25C04208243C3
:10737000F2540133F25C8A43F254F25C8243F254D9
:10738000237800209A4600F007FD602223791A40F6
:10739000602A0DD0402A00D1BFE0DB06DB0E012BB6
:1073A00000D136E1022B00D1D4E0002B00D1C3E0A4
:1073B00020780021FFF75AFE80212078FFF756FE43
:1073C00076E7824E3378DB0700D471E7834B002BDE
:1073D00000D16DE700E000BF6AE77C4E3378DB0741
:1073E00000D465E77E4B002B00D161E730780007C1
:1073F000C00F00E000BF5BE7764B754A9846002659
:1074000027781B78002A00D179E0764A92469E427E
:107410005FD319D1744B38009847434601361B7827
:10742000F6B2B342F3D2694E532200213000FEF788
:1074300025FF1022FF21F01CFEF720FF3000202244
:10744000FF211330FEF71AFF00F09CFC674B002B66
:1074500000D12DE700E000BF2AE75E4B5C4A98466A
:10746000002627781B78002A1FD05E4A92469E424B
:107470003AD321D15C4B38009847434601361B78FC
:10748000F6B2B342F3D2514E532200213000FEF740
:10749000F5FE1022FF21F01CFEF7F0FE3000202246
:1074A000FF211330FEF7EAFE07E0380000F000FE8F
:1074B00043461B78002BE6D0444E00F063FC237952
:1074C000B370F5E60DB03CBC90469946A246AB467B
:1074D000F0BD52461268730094469B19DB0063446A
:1074E000002BB1D05B6896E7524612687300944651
:1074F0009B19DB006344002BDED05B68BBE73800E0
:1075000000F0D6FD43461B78002B9DD18BE76279B6
:107510002078A36800F054FCCAE63548002800D162
:1075200046E700F039FC012150460AAA00E000BFFE
:10753000002800D0BCE63BE7202A00D19EE0002ACC
:1075400000D035E76379092B00D931E7294A9B0040
:10755000D3589F467023217A0B4200D028E7584623
:107560000F330B405B00CE09C018194F8019C07C47
:10757000002F06D0174F3F78B84200D2A0E0C01BC2
:10758000C0B2002800D096E0002A00D047E11A4F90
:107590000220627990468243012A00D142E14246AC
:1075A000002A00D004E75B449E193036F37808AA1D
:1075B0009B07DB0F02321380504602230AA900F01A
:1075C00085FB75E65C96011014150020BC140020A4
:1075D000D9670110711B0020A98201100000000072
:1075E0000000000094110020B18001100000000094
:1075F0000000000080960110E89601105A00D31890
:10760000B14ADB001268D318002B00D15AE71E697B
:1076100099E6237A0F2B00D9CAE6AC4A5B44DB78A3
:10762000002A05D0AA4A127893425ED39B1ADBB295
:10763000002B00D0BCE6A748A74E00F0ADFB01210F
:107640005046F3680AAA9847002800D030E6602226
:10765000160023791E401A4200D0A9E663790A3B3E
:10766000012B00D9A4E600F097FB63790A2B00D127
:1076700020E150460AA900F011FB19E6237A0F2BEE
:1076800000D995E6914A5B44DB78002A06D0904AFF
:107690001278934200D2E6E09B1ADBB2002B00D0B6
:1076A00086E68C488C4E00F077FB01215046F3684B
:1076B0000AAA98473CE70027002A00D168E777E646
:1076C00047003818804FC0003F683F18002A00D19B
:1076D0005EE7002F00D16BE6F86800F05DFB01214A
:1076E0005046FB680AAA984722E7774A5E00F318DB
:1076F0001668DB00F618002E00D159E6F0689CE70A
:10770000A279029273789A4207D07378002B00D046
:1077100047E1029B002B00D0EAE05B46029A50460C
:107720000AA95A7000F0BAFAC2E5737808AA0232C0
:107730001370504601230AA900F0C8FAB8E5E088A2
:10774000030AC0B20F2B00D932E664499A008A5866
:1077500097460AA800F026FB5046A179FFF77EFB6A
:107760000222337813433370A2E5E388012B00D063
:107770001EE60822337893435A46137079E70220B5
:10778000317808AB9A1C8B068908DB0F01400B434C
:1077900011E7E388012B00D00AE60822337813436F
:1077A000EAE74F4B002B00D102E600E000BF021ECB
:1077B00000D1FDE5D37891781B020B4350460AA90E
:1077C00000F084FAB4E6474B002B00D1F0E500E06E
:1077D00000BF021E00D1EBE5504613780AA900F065
:1077E00075FAA5E62189FFF7F5F9021EF4D1DFE568
:1077F000022B00D113E13C4B002B00D1D8E500E077
:1078000000BF0200002A00D1D2E5D3E7FFF7DAF982
:10781000122302000AA9504600F058FA88E62D48C3
:107820002D4F5AE7E288002A08D142465B449E1950
:107830003036F378012A21D09B072ED5002F00D1B6
:1078400036E5F86800F0A8FAFB680AAA012150465C
:107850009847002000F0A0FA34235A46D35CDB0797
:1078600000D525E505E7184A5E00F3181668DB0029
:10787000F618002E00D19BE5F06814E79B07DDD5D4
:107880001A4B1878FFF70EFC0222F3789343424616
:10789000F370F3789343F370D0E7144B1878FFF745
:1078A000E5FB0222F37813430122F370F3781343CC
:1078B000F370C3E708AB9A1C504601230AA916705F
:1078C00000F004FAF4E4C04694110020D9670110D6
:1078D000711B0020C5810110E8960110A8960110C7
:1078E0000000000000000000000000003C1000202C
:1078F000581EC0B2FFF76AF9002800D158E5437856
:107900000693022B00D053E50121C2793026931152
:1079100052110B400A4012015B0113435A46127880
:107920000700B24313435A461370C37882781B0290
:107930001343C318093704930791049BBB4200D833
:10794000ACE0079A7B7801920B2B03D1FB78019373
:107950003B78FF187B78042B00D029E50026049B98
:10796000584ADB1B9BB20393574B05931B78B242DB
:1079700063D0B846B34256D800D019E5534B544FA4
:1079800041465046039A9847082803D9039A8242F1
:1079900000D38AE0059B01361B78F6B2B342E9D2E8
:1079A00006E55046FFF74CFBB378464A0193464B39
:1079B000002698461B78002A0DD0464FB34225D8A2
:1079C00020D1454B50469847434601361B78F6B2C6
:1079D000B342F3D206E0504600F06AFB43461B7800
:1079E000002B0FD1532200215846FEF747FC5B467F
:1079F0001022FF21D81CFEF741FC2022FF2137482E
:107A0000FEF73CFC5B46019A9A7082E618233A68BE
:107A1000734394466344002BF4D05B68D2E7FFF7CE
:107A2000D5F80200EEE62B4B1F6818237343FF18AE
:107A3000002F00D1BCE4BB68A2E7039B39001A0009
:107A40005046984600F04AFB082800D8B0E4424669
:107A5000824200D2ACE41E4B9846019B012B28D0F9
:107A600000220AE0BB78D318DBB25B44D978FF2947
:107A700000D09DE40132DE70D2B2019B9A42F1D176
:107A80008046330002003900144800F063FD059B76
:107A900047441B78B34200D34FE789E4104B002BD7
:107AA00000D13AE600E000BF37E63B004746984683
:107AB000D3E74246054B92689A42D1D1069B019387
:107AC000CEE7C046D9670110711B0020DD80011090
:107AD000E896011094110020B1800110CF1400200D
