:020000040000FA
:10000000A5EF18F0C96E1200AFEF14F00000000069
:10001000FF000000FFFF0000F8EF16F0D9CFE5FF6A
:10002000E1CFD9FF00C0E5FF01C0E5FF02C0E5FF59
:1000300003C0E5FF04C0E5FF05C0E5FF06C0E5FF1E
:1000400007C0E5FF08C0E5FF09C0E5FF0AC0E5FFFE
:100050000BC0E5FF0CC0E5FF0DC0E5FF0EC0E5FFDE
:100060000FC0E5FF10C0E5FF11C0E5FF12C0E5FFBE
:1000700013C0E5FF14C0E5FF15C0E5FF16C0E5FF9E
:1000800017C0E5FF18C0E5FF19C0E5FF1AC0E5FF7E
:100090001BC0E5FF1CC0E5FF1DC0E5FF1EC0E5FF5E
:1000A000020EDBCF00F0030EDBCF01F0040EDBCF3E
:1000B00002F0050EDBCF03F0060EDBCF04F0070ED7
:1000C000DBCF05F0080EDBCF06F0090EDBCF07F023
:1000D0000A0EDBCF08F0096A0A6A02C00DF00D5063
:1000E000800A0DE102500401346F0150336F00505B
:1000F000326F040E016E320E006E800E026E03C06F
:10010000E9FF04C0F3FF0550DEEC18F00B6E0B5056
:10011000D8B4FCEF03F00B50250A02E0E3EF03F044
:100120000C6A0D6A0E6A0F6A106A0A0E116E126A64
:10013000136A146A200E156E1668176A2B0E186E55
:10014000032A02E3044A052A03C0E9FF04C0F3FFBF
:100150000550DEEC18F0196E250A13E11950E56E12
:100160000250E56E0150E56E0050E56EC6EC0EF0F3
:10017000040EE126094A0A2A032A02E3044A052A50
:10018000BED71950300A06E1300E156E032A02E37D
:10019000044A052A03C0E9FF04C0F3FF0550DEEC62
:1001A00018F02D0A06E1010E146E032A02E3044A38
:1001B000052A03C0E9FF04C0F3FF0550DEEC18F088
:1001C000200A08E1010E176E200E186E032A02E3C2
:1001D000044A052A03C0E9FF04C0F3FF0550DEEC22
:1001E00018F02B0A06E1010E176E032A02E3044AF7
:1001F000052A03C0E9FF04C0F3FF0550DEEC18F048
:10020000196E800F4F0F2DE31950800F460F29E212
:1002100003C019F004C01AF005C01BF019C0E9FFB3
:100220001AC0F3FF1B50DEEC18F01C6E800F500F4D
:1002300012E31C50800F460F0EE213500A0DF3CF4D
:100240001DF01D501C26D00E1C24136E192A02E32B
:100250001A4A1B2AE3D719C003F01AC004F01BC0C6
:1002600005F003C0E9FF04C0F3FF0550DEEC18F011
:100270002E0A2EE1032A02E3044A052A166A03C065
:1002800019F004C01AF005C01BF019C0E9FF1AC02C
:10029000F3FF1B50DEEC18F01C6E800F500F12E3C2
:1002A0001C50800F460F0EE216500A0DF3CF1DF0C2
:1002B0001D501C26D00E1C24166E192A02E31A4A61
:1002C0001B2AE3D719C003F01AC004F01BC005F0C5
:1002D00003C0E9FF04C0F3FF0550DEEC18F0196E0F
:1002E0006C0A07E1010E0C6E032A02E3044A052A98
:1002F00009D01950680A06E1010E0E6E032A02E3C6
:10030000044A052A03C0E9FF04C0F3FF0550DEECF0
:1003100018F0750A06E1010E106E032A02E3044A82
:10032000052A03C0E9FF04C0F3FF0550DEEC18F016
:10033000196E730A05E1010E0D6E200E156E3FD089
:100340001950780A03E1100E116E39D01950580A6D
:1003500005E1100E116E010E126E31D01950630AB4
:1003600002E1116A2CD019506F0A03E1080E116ED8
:1003700026D01950660A03E1010E0F6E20D01950E5
:10038000640A1DE01950690A1AE0105005E0FF0EDA
:1003900003260422052213D01950E56E0250E56EA3
:1003A0000150E56E0050E56EC6EC0EF0040EE1263D
:1003B000094A0A2A032A02E3044A052AA0D60D5054
:1003C00021E00650030F0D6E000E0720196E000E7F
:1003D00008201A6E0DC006F019C007F01AC008F008
:1003E000FD0E0D26FF0E19221A220DC0E9FF19C0BD
:1003F000F3FF1A50BAEC17F00D6EF3CF19F0F4CFEB
:100400001AF032D10F50D8B43ED00650040F0F6E00
:10041000000E07201B6E000E08201C6E0FC006F099
:100420001BC007F01CC008F0FC0E0F26FF0E1B229D
:100430001C220FC0E9FF1BC0F3FF1C5040EC17F05B
:100440000F6EF3CF1BF0F4CF1CF0E9CF1DF0040EBC
:10045000196E000E0D6E800E1A6E1650E56E240E8B
:10046000E56E040EE56E000EE56E1D50E56E1C5047
:10047000E56E1B50E56E0F50E56E17EC09F0080EA7
:10048000E1261668F1D016680C5023E00650040FE0
:100490000C6E000E07200F6E000E08201B6E0CC0A5
:1004A00006F00FC007F01BC008F0FC0E0C26FF0E74
:1004B0000F221B220CC0E9FF0FC0F3FF1B5040ECC2
:1004C00017F00C6EF3CF0FF0F4CF1BF0E9CF1CF058
:1004D0006AD00E5032E00650020F0E6E000E07205A
:1004E0001D6E000E08201E6E0EC006F01DC007F027
:1004F0001EC008F0FE0E0E26FF0E1D221E220EC08C
:10050000E9FF1DC0F3FF1E5079EC18F00E6E0EC00F
:100510000CF0E86A0EBEFF0E0F6E1B6E1C6E1150C3
:100520000A0A03E11050D8B43ED00C500E6E0EC033
:100530000CF00F6A1B6A1C6A36D00650020F0E6E52
:10054000000E07201D6E000E08201E6E0EC006F065
:100550001DC007F01EC008F0FE0E0E26FF0E1D2265
:100560001E220EC0E9FF1DC0F3FF1E5079EC18F0EB
:100570000E6EF3CF1DF00EC00CF01DC00FF0E86A38
:100580001DBEFF0E1B6E1C6E11500A0A02E11050B8
:100590000AE00C500E6E0F501D6E0EC00CF01DC008
:1005A0000FF01B6A1C6A040E196E010E0D6E800E90
:1005B0001A6E1150D8B440D0105013E01150E56EAF
:1005C000040EE56E010EE56E1C50E56E1B50E56EE7
:1005D0000F50E56E0C50E56E2BEC0BF0070EE1268C
:1005E00012D01150E56E040EE56E010EE56E1C5042
:1005F000E56E1B50E56E0F50E56E0C50E56E0BEC92
:1006000011F0070EE12617502FE00DC0E9FF19C0C9
:10061000F3FF1A50DEEC18F02D0A26E0FF0E0D262F
:1006200019221A2218C0E5FF0DC0E9FF19C0F3FF17
:100630001A505CEC19F018D00CC0E5FF0DC0E9FFB2
:1006400019C0F3FF1A505CEC19F00D50010F0C6E3D
:10065000000E19200E6E000E1A20E56A0CC0E9FF8C
:100660000EC0F3FF5CEC19F00DC00CF019C00EF0D9
:100670001AC00FF013C010F0105010E00CC0E9FFCA
:100680000EC0F3FF0F50DEEC18F0176E175006E0A7
:100690000C2A02E30E4A0F2A1006EED710C013F000
:1006A00014501EE109C00CF00AC00EF010C00FF08B
:1006B0000F5010E01550E56E0250E56E0150E56EEA
:1006C0000050E56EC6EC0EF0040EE1260C4A0E2A30
:1006D0000F06EED70CC009F00EC00AF00FC013F0E1
:1006E00016C00CF00DC00DF019C00EF01AC00FF0BE
:1006F00009C010F00AC015F00DC0E9FF0EC0F3FFED
:100700000F50DEEC18F0166E1650D8B43ED00CC068
:1007100016F0176A161E171E1650171005E00CC0AB
:1007200016F00C06165031E00DC0E9FF0EC0F3FFC5
:100730000F50DEEC18F0116E125010E01150E56E03
:1007400036EC18F0166EE652165004E01150166E94
:10075000169A02D011C016F016C011F01150E56EB5
:100760000250E56E0150E56E0050E56EC6EC0EF0ED
:10077000040EE1260D2A02E30E4A0F2A104A152A1A
:100780001350D8B4B9D71306B7D710C009F015C0A5
:100790000AF014502BE010C00CF015C00DF013C07F
:1007A0000EF00E501FE0200EE56E0250E56E015077
:1007B000E56E0050E56EC6EC0EF0040EE1260C4A24
:1007C0000D2A0E06EED70B50E56E0250E56E015075
:1007D000E56E0050E56EC6EC0EF0040EE126094A07
:1007E0000A2A04D00CC009F00DC00AF0032A02E363
:1007F000044A052A7FEF00F00AC0F3FF0950E4CF56
:100800001EF0E4CF1DF0E4CF1CF0E4CF1BF0E4CFEA
:100810001AF0E4CF19F0E4CF18F0E4CF17F0E4CFEA
:1008200016F0E4CF15F0E4CF14F0E4CF13F0E4CFEA
:1008300012F0E4CF11F0E4CF10F0E4CF0FF0E4CFEA
:100840000EF0E4CF0DF0E4CF0CF0E4CF0BF0E4CFEA
:100850000AF0E4CF09F0E4CF08F0E4CF07F0E4CFEA
:1008600006F0E4CF05F0E4CF04F0E4CF03F0E4CFEA
:1008700002F0E4CF01F0E4CF00F0E4CFD9FF1200A2
:1008800005C0E5FF06C0E5FF07C0E5FF08C0E5FFBE
:1008900009C0E5FF0AC0E5FF0BC0E5FF0CC0E5FF9E
:1008A0000DC0E5FF0EC0E5FF0FC0E5FF10C0E5FF7E
:1008B00011C0E5FF12C0E5FF13C0E5FF14C0E5FF5E
:1008C00015C0E5FF16C0E5FF17C0E5FF18C0E5FF3E
:1008D00019C0E5FF1AC0E5FF1BC0E5FF1CC0E5FF1E
:1008E0001DC0E5FF000E00B0050F066AF60F02E31B
:1008F000062AFCD70A0F056E042E03D0FB0F01E376
:10090000062A065000B0020F00B2050F076AF60F64
:1009100002E3072AFCD70A0F066E042E03D0FB0F52
:1009200001E3072A075000B0060F00B2020F00B41F
:10093000050F086AF60F02E3082AFCD70A0F076EB4
:10094000042E03D0FB0F01E3082A085000B2010F68
:1009500000B4020F00B6050F096AF60F02E3092A78
:10096000FCD70A0F086E042E03D0FB0F01E3092AFF
:10097000095000B0090F00B2080F00B4060F00B60E
:10098000020F00B8050F0A6AF60F02E30A2AFCD725
:100990000A0F096E042E03D0FB0F01E30A2A0A5046
:1009A00000B0030F00B2070F00B4050F00B6010F2F
:1009B00000B8020F00BA050F0B6AF60F02E30B2A0C
:1009C000FCD70A0F0A6E042E03D0FB0F01E30B2A9B
:1009D0000B5000B0050F00B4010F00B6030F00B8B4
:1009E000060F00BA020F00BC050F0C6AF60F02E3F7
:1009F0000C2AFCD70A0F0B6E042E03D0FB0F01E369
:100A00000C2A0C5000B0070F00B2050F00BA010FFE
:100A100000BC020F00BE050F0D6AF60F02E30D2A9F
:100A2000FCD70A0F0C6E042E03D0FB0F01E30D2A36
:100A30000D5000B0070F00B2050F00B4010F00B653
:100A4000020F00B8040F00BA080F00BC060F00BE6A
:100A5000020F01B0050F0E6AF60F02E30E2AFCD753
:100A60000A0F0D6E042E03D0FB0F01E30E2A0E5069
:100A700000B0040F00B2090F00B4090F00B6080F50
:100A800000B8060F00BA020F00BC050F00BE010F30
:100A900001B0020F01B2050F0F6AF60F02E30F2A31
:100AA000FCD70A0F0E6E042E03D0FB0F01E30F2AB2
:100AB0000F5000B0040F00B2080F00B4070F00B6CB
:100AC000050F00B8010F00BA030F00BC060F00BEEF
:100AD000030F01B0060F01B2020F01B4050F106A37
:100AE000F60F02E3102AFCD70A0F0F6E042E03D074
:100AF000FB0F01E3102A105000B0060F00B2020FE6
:100B000000B4050F00B6010F00B8030F00BA060FBE
:100B100000BC020F00BE050F01B2010F01B4020FAD
:100B200001B6050F116AF60F02E3112AFCD70A0F6E
:100B3000106E042E03D0FB0F01E3112A115000B0F8
:100B4000040F00B2090F00B4080F00B6070F00B879
:100B5000040F00BA080F00BC070F00BE040F01B05D
:100B6000090F01B2080F01B4060F01B6020F01B858
:100B7000050F126AF60F02E3122AFCD70A0F116E54
:100B8000042E03D0FB0F01E3122A125000B4010F10
:100B900000B6030F00B8070F00BA040F00BC090F1E
:100BA00000BE090F01B0080F01B2070F01B4050F15
:100BB00001B6010F01B8020F01BA050F136AF60F53
:100BC00002E3132AFCD70A0F126E042E03D0FB0F88
:100BD00001E3132A135000B0060F00B2020F00B455
:100BE000040F00B6080F00B8060F00BA030F00BCD0
:100BF000060F00BE030F01B0070F01B2050F01B4CD
:100C0000010F01B6030F01B8060F01BA020F01BCB4
:100C1000050F146AF60F02E3142AFCD70A0F136EAD
:100C2000042E03D0FB0F01E3142A145000B0090F67
:100C300000B2090F00B4080F00B6060F00B8030F8A
:100C400000BA070F00BC040F00BE090F01B0080F67
:100C500001B2070F01B4050F01BA010F01BC020F69
:100C600001BE050F156AF60F02E3152AFCD70A0F1D
:100C7000146E042E03D0FB0F01E3152A155000B0AB
:100C8000050F00B2010F00B4030F00B6070F00B844
:100C9000050F00BC010F00BE020F01B0050F01B22D
:100CA000010F01B4030F01B6070F01B8040F01BA19
:100CB000080F01BC060F01BE020F02B0050F166A35
:100CC000F60F02E3162AFCD70A0F156E042E03D086
:100CD000FB0F01E3162A165000B2010F00B4020FF9
:100CE00000B6040F00B8090F00BA090F00BC080FC6
:100CF00000BE060F01B0020F01B2050F01B8010FCF
:100D000001BA020F01BC050F01BE010F02B0020FB4
:100D100002B2050F176AF60F02E3172AFCD70A0F73
:100D2000166E042E03D0FB0F01E3172A175000BAEA
:100D3000010F00BC030F00BE070F01B0050F01B487
:100D4000010F01B6020F01B8040F01BA080F01BC70
:100D5000060F01BE030F02B0060F02B2020F02B46B
:100D6000050F186AF60F02E3182AFCD70A0F176E50
:100D7000042E03D0FB0F01E3182A185001B0010F15
:100D800001B2030F01B4060F01B6020F01B8040F40
:100D900001BA080F01BC070F01BE050F02B2010F17
:100DA00002B4020F02B6050F196AF60F02E3192A00
:100DB000FCD70A0F186E042E03D0FB0F01E3192A8B
:100DC000195001B6010F01B8020F01BA040F01BC9E
:100DD000090F01BE090F02B0090F02B2080F02B4D9
:100DE000060F02B6020F02B8050F1A6AF60F02E3E9
:100DF0001A2AFCD70A0F196E042E03D0FB0F01E349
:100E00001A2A1A5001BE010F02B0030F02B2070FD7
:100E100002B4050F02B6010F02B8020F02BA050FA5
:100E20001B6AF60F02E31B2AFCD70A0F1A6E042E68
:100E300003D0FB0F01E31B2A1B5002B4010F02B6C3
:100E4000030F02B8060F02BA020F02BC050F1C6A9C
:100E5000F60F02E31C2AFCD70A0F1B6E042E03D0E8
:100E6000FB0F01E31C2A1C5002BA010F02BC020F47
:100E700002BE050F1D6AF60F02E31D2AFCD70A0FFA
:100E80001C6E042E03D0FB0F01E31D2A300FEE6E03
:100E90001B50300FEE6E1A50300FEE6E1950300F9F
:100EA000EE6E1850300FEE6E1750300FEE6E16507B
:100EB000300FEE6E1550300FEE6E1450300FEE6E98
:100EC0001350300FEE6E1250300FEE6E1150300F87
:100ED000EE6E1050300FEE6E0F50300FEE6E0E5063
:100EE000300FEE6E0D50300FEE6E0C50300FEE6E78
:100EF0000B50300FEE6E0A50300FEE6E0950300F6F
:100F0000EE6E0850300FEE6E0750300FEE6E06504A
:100F1000300FEE6E0550300FEE6E170EE4CF1DF061
:100F2000E4CF1CF0E4CF1BF0E4CF1AF0E4CF19F0CB
:100F3000E4CF18F0E4CF17F0E4CF16F0E4CF15F0CB
:100F4000E4CF14F0E4CF13F0E4CF12F0E4CF11F0CB
:100F5000E4CF10F0E4CF0FF0E4CF0EF0E4CF0DF0CB
:100F6000E4CF0CF0E4CF0BF0E4CF0AF0E4CF09F0CB
:100F7000E4CF08F0E4CF07F0E4CF06F0E4CF05F0CB
:100F8000120000C0E5FF01C0E5FF02C0E5FF03C09D
:100F9000E5FF04C0E5FF05C0E5FF06C0E5FF07C0AB
:100FA000E5FF08C0E5FF09C0E5FF0AC0E5FF0BC08B
:100FB000E5FF0CC0E5FF0DC0E5FF0EC0E5FF000E2C
:100FC00000B0010F00B2020F00B4040F00B6080F0A
:100FD00000B8060F00BA020F00BC040F00BE080FD5
:100FE00001B0060F01B2020F01B4040F01B6080FE1
:100FF00001B8060F01BA020F01BC040F01BE080FB1
:1010000002B0060F02B2020F02B4040F02B6080FBC
:1010100002B8060F02BA020F02BC040F02BE080F8C
:10102000056AF60F02E3052AFCD70A0F046E055085
:1010300000B8010F00BA030F00BC060F00BE020F7C
:1010400001B0050F01B2010F01B4020F01B6040F88
:1010500001B8090F01BA090F01BC080F01BE060F44
:1010600002B0030F02B2070F02B4040F02B6080F5A
:1010700002B8070F02BA050F066AF60F02E3062A46
:10108000FCD70A0F056E065000BE010F01B0020F1B
:1010900001B2050F01BA010F01BC030F01BE070F1A
:1010A00002B0050F02B4010F02B6020F02B8050F1D
:1010B00002BA010F02BC030F02BE060F076AF60F49
:1010C00002E3072AFCD70A0F066E075001B4010F8E
:1010D00001B6020F01B8040F01BA080F01BC060FD8
:1010E00001BE020F02B0050F02B2010F02B4020FDF
:1010F00002B6040F02B8080F02BA070F02BC040FB1
:1011000002BE080F086AF60F02E3082AFCD70A0F8E
:10111000076E085001BC010F01BE030F02B0060F9D
:1011200002B2030F02B4060F02B6020F02B8040F98
:1011300002BA090F02BC090F02BE080F096AF60FB6
:1011400002E3092AFCD70A0F086E095002B2010F08
:1011500002B4020F02B6050F02BC010F02BE030F5C
:101160000A6AF60F02E30A2AFCD70A0F096E0A5030
:1011700002B8010F02BA020F02BC040F02BE080F30
:101180000B6AF60F02E30B2AFCD70A0F0A6E0B500C
:101190000E6A0EE10A5010E1095012E1085014E104
:1011A000075016E1065018E105501AE104501CD012
:1011B0000E2A300FEE6E0A500E2A300FEE6E0950D6
:1011C0000E2A300FEE6E08500E2A300FEE6E0750CA
:1011D0000E2A300FEE6E06500E2A300FEE6E0550BE
:1011E0000E2A300FEE6E04500E2A300FEE6E0E50A7
:1011F000E4CF0EF0E4CF0DF0E4CF0CF0E4CF0BF031
:10120000E4CF0AF0E4CF09F0E4CF08F0E4CF07F030
:10121000E4CF06F0E4CF05F0E4CF04F0E4CF03F030
:10122000E4CF02F0E4CF01F0E4CF00F01200D9CF18
:10123000E5FFE1CFD9FF00C0E5FF01C0E5FF02C037
:10124000E5FF03C0E5FF04C0E5FF05C0E5FF06C0FC
:10125000E5FF07C0E5FF08C0E5FF09C0E5FF0AC0DC
:10126000E5FF0BC0E5FF020EDBCF00F0030EDBCF86
:1012700001F0040EDBCF02F0050EDBCF03F0060E0B
:10128000DBCF04F0070EDBCF05F0080EDBCF06F056
:10129000090EDBCF07F006C008F0060608500EE086
:1012A00006500424086EE86A06BEE8680520096E48
:1012B00008C0E9FF09C0EAFFEF6AEDD7005004015A
:1012C0008A6F01508B6F02508C6F03508D6F8AC4F0
:1012D00000F08BC401F08CC402F08DC403F0066AE8
:1012E000086A096A800E03140A6E065007E1085066
:1012F00005E1095003E10A50800A01E012D0039E83
:10130000005004018A6F01508B6F02508C6F0350A4
:101310008D6F04C0E9FF05C0EAFF2D0EEF6E044A91
:10132000052A04018C358D357E08006E8A51016EC8
:101330008B51026E7F0E8C15036E066A038E086A4F
:10134000096A0A6A0B6A005019E0D88000AED8908A
:101350000EE30850082609360A360B3603BE08800D
:1013600001500126023603360636002AECD7D89003
:1013700006320332023201320006E5D70850091066
:101380000A100B1012E00550E56E0450E56E0B508C
:10139000E56E0A50E56E0950E56E0850E56EDDEC2D
:1013A00015F0006E060EE12608D004C0E9FF05C066
:1013B000EAFF300EEF6E010E006E00500426E86A60
:1013C00000BEE8680522075028E004C0E9FF05C018
:1013D000EAFF2E0EEF6E002A044A052A075018086D
:1013E000E56E0550E56E0450E56E0650E56E03505F
:1013F000E56E0250E56E0150E56E1BEC15F0016ED6
:10140000070EE1260150002607500426E86A05224F
:1014100004C0E9FF05C0EAFFEF6A0050E4CF0BF01B
:10142000E4CF0AF0E4CF09F0E4CF08F0E4CF07F00E
:10143000E4CF06F0E4CF05F0E4CF04F0E4CF03F00E
:10144000E4CF02F0E4CF01F0E4CF00F0E4CFD9FF25
:10145000120000C0E5FF01C0E5FF04012951D8B426
:10146000F5D09DA81DD09EA81BD00F012B510F01B8
:10147000281905E11DEC19F00F01286BE7D0000ECB
:101480000F012B25006E016A0F0E012200C0E9FF3B
:1014900001C0EAFFEFCF24FF2B2B24CFADFFD6D026
:1014A0009EAAD4D0ABA205D00F0129811DEC19F062
:1014B000CDD0ABA405D00F0129831DEC19F0C6D007
:1014C000ABA03ED0AECF24FF800E04012A110F0145
:1014D000241904E10F012989AB96B8D00F012451DA
:1014E00004E0245104012A1927E10F012999AB9640
:1014F0000F01245103E00F01299702D00F01298722
:1015000024CF2DFF26CF2EFF0F0126050F012F6FB1
:10151000600E0F012E25006E016A000E012200C030
:10152000E9FF01C0EAFF24CFEFFF2E2B2E51800AE6
:1015300002E10F012E6B8AD00F012999AB8686D06C
:10154000AECF24FF0F0129A919D0800E04012A1162
:101550000F01241911E18B909D9AAB980F0128512E
:1015600004E1AD6A1DEC19F007D000CFADFF010E0C
:101570000F012B6F9D886AD0AB8668D00F01245174
:101580000F012D270F012E510F012F191BE10F0104
:101590002D510CE12ECF26FF0F0129B712D08B90D1
:1015A0009D9AAB98AD6A1DEC19F00BD00F012985FF
:1015B00029B707D08B909D9AAB98010EAD6E1DECAC
:1015C00019F044D00F012E510F01271908E10F0126
:1015D00027510F01261903E01DEC19F037D026CF53
:1015E00000F0016A004A012AE56A800EE56E0150AA
:1015F000E56E0050E56ECAEC0FF0006E040EE126B9
:1016000000500F01256F0F012E190CE11F0E0F0165
:1016100024150F012F6F2F2B2F2B0F0126510F0198
:101620002F272F9F2ECF00F00F012E2B016A600E67
:101630000026000E012200C0E9FF01C0EAFF24CF0E
:10164000EFFF2E51800A02E10F012E6BE4CF01F073
:10165000E4CF00F01200D9CFE5FFE1CFD9FF00C001
:10166000E5FF01C0E5FF02C0E5FF03C0E5FF04C0E0
:10167000E5FF05C0E5FF06C0E5FF07C0E5FF08C0C0
:10168000E5FF09C0E5FF0AC0E5FF0BC0E5FF0CC0A0
:10169000E5FF0DC0E5FF0EC0E5FF0FC0E5FF020E40
:1016A000DBCF00F0030EDBCF01F0040EDBCF02F046
:1016B000050EDBCF03F0060EDBCF04F0070EDBCF09
:1016C00005F0080EDBCF06F0200E076E086A06C094
:1016D00009F00A6A0B6A0C6AE56AE56AE56A09506C
:1016E000E56E0350E56E0250E56E0150E56E005068
:1016F000E56E07EC0CF00D6E080EE126300E0D269F
:101700003A0E0D5C05E30D500E6E270E0E240D6E85
:10171000FF0E07260822E00E07240E6E000E08209A
:101720000F6E0EC0E9FF0FC0EAFF0DC0EFFF0C50B7
:10173000E56E0B50E56E0A50E56E0950E56E0350FC
:10174000E56E0250E56E0150E56E0050E56E27EC47
:101750000DF0006EF3CF01F0F4CF02F0E9CF03F00B
:10176000080EE1260050011002100310D8A4AFD7D4
:1017700007C000F008C001F004C002F005C003F08B
:1017800000C004F001C005F0004A012AE00E042662
:10179000000E052204C0E9FF05C0EAFFEFCF04F008
:1017A00002C0E9FF03C0EAFF04C0EFFF024A032AB8
:1017B000000E015C02E1200E005CE2E302C0E9FFE2
:1017C00003C0EAFF000EEF6AE4CF0FF0E4CF0EF0A3
:1017D000E4CF0DF0E4CF0CF0E4CF0BF0E4CF0AF04F
:1017E000E4CF09F0E4CF08F0E4CF07F0E4CF06F04F
:1017F000E4CF05F0E4CF04F0E4CF03F0E4CF02F04F
:10180000E4CF01F0E4CF00F0E4CFD9FF1200D9CF4C
:10181000E5FFE1CFD9FF00C0E5FF01C0E5FF02C051
:10182000E5FF03C0E5FF04C0E5FF05C0E5FF06C016
:10183000E5FF07C0E5FF08C0E5FF09C0E5FF0AC0F6
:10184000E5FF020EDBCF00F0030EDBCF01F0040E4C
:10185000DBCF02F0050EDBCF03F0060EDBCF04F08A
:10186000070EDBCF05F0080EDBCF06F0090EDBCF4D
:1018700007F0086A096A0750800BE8440A6E0A50AC
:101880001BE1045004260536063607360750035C74
:1018900008E10650025C05E10550015C02E10450DC
:1018A000005C06E2D890073206320532043204D0DA
:1018B000092A09C008F0DFD70750035C08E1065089
:1018C000025C05E10550015C02E10450005C08E3A4
:1018D0000450005E0550015A0650025A0750035A40
:1018E000D890073206320532043208C009F00806E3
:1018F0000950E2E103C0E9FF02C0F4FF01C0F3FFB9
:101900000050E4CF0AF0E4CF09F0E4CF08F0E4CFD0
:1019100007F0E4CF06F0E4CF05F0E4CF04F0E4CF25
:1019200003F0E4CF02F0E4CF01F0E4CF00F0E4CF25
:10193000D9FF120000C0E5FF01C0E5FF03C0E5FFCD
:1019400004C0E5FF05C0E5FF06C0E5FF07C0E5FFF1
:1019500008C0E5FF09C0E5FF0AC0E5FF0BC0E5FFD1
:1019600035C400F036C401F00401353F01D0362BF8
:101970000050E56E0FEC19F0E652076E046A056A36
:10198000066A35C400F036C401F00401353F01D0C9
:10199000362B0050E56E0FEC19F0E6520B6A0A6E1A
:1019A000086A0850041205120A5006120B5007125A
:1019B00035C400F036C401F00401353F01D0362BA8
:1019C0000050E56E0FEC19F0E652036E006A03C09A
:1019D00001F0E86A03BEFF0E086E096E00500412A3
:1019E00001500512085006120950071235C400F0C4
:1019F00036C401F00401353F01D0362B0050E56EAE
:101A00000FEC19F0E652016A041201500512061299
:101A1000071207C0E9FF06C0F4FF05C0F3FF04503A
:101A2000E4CF0BF0E4CF0AF0E4CF09F0E4CF08F004
:101A3000E4CF07F0E4CF06F0E4CF05F0E4CF04F004
:101A4000E4CF03F0E4CF01F0E4CF00F01200D9CFEF
:101A5000E5FFE1CFD9FF00C0E5FF01C0E5FF02C00F
:101A6000E5FF03C0E5FF04C0E5FF05C0E5FF06C0D4
:101A7000E5FF07C0E5FF08C0E5FF09C0E5FF0AC0B4
:101A8000E5FF0BC0E5FF0CC0E5FF0DC0E5FF020E52
:101A9000DBCF00F0030EDBCF01F0040EDBCF02F052
:101AA000050EDBCF03F0060EDBCF04F0070EDBCF15
:101AB00005F0080EDBCF06F0090EDBCF07F0086A51
:101AC000096A0A6A0B6A200E0C6E0350800BE84408
:101AD0000D6E0050002601360236033608500826E7
:101AE00009360A360B360D50D8A4088007500B5C17
:101AF00008E106500A5C05E10550095C02E104506A
:101B0000085C09E30450085E0550095A06500A5A59
:101B100007500B5A00800C2ED8D703C0E9FF02C033
:101B2000F4FF01C0F3FF0050E4CF0DF0E4CF0CF060
:101B3000E4CF0BF0E4CF0AF0E4CF09F0E4CF08F0F3
:101B4000E4CF07F0E4CF06F0E4CF05F0E4CF04F0F3
:101B5000E4CF03F0E4CF02F0E4CF01F0E4CF00F0F3
:101B6000E4CFD9FF120000C0E5FF01C0E5FF02C0CD
:101B7000E5FF03C0E5FF04C0E5FF0F0127510F019A
:101B8000261901E15CD027CF00F0002A009E600EEC
:101B90000024016E026A000E022201C0E9FF02C0A9
:101BA000EAFFEFCF31FF1F0E0F01311727CF30FFB4
:101BB00031510F013027302B302B309F32EC16F093
:101BC000016E015003E1016A012A01D0016A32EC81
:101BD00016F00F01316F800E3115026E1F0E311598
:101BE000036E03C004F003C031FF045003E126CFAD
:101BF00027FF38D001501BE002501FE032EC16F0F6
:101C0000006E0F0131070050420A17E000504E0AE3
:101C100003E100EC13F011D00050460A03E151EC4F
:101C200019F00BD00050490A08E1FF0006D027CF79
:101C300032FF0250D8B4ACEC16F030CF27FF0401CD
:101C400026510401271906E00F01285103E13DEC5C
:101C50000EF008D08BB006D00F01285103E1ACB2D2
:101C60001DEC19F0E4CF04F0E4CF03F0E4CF02F070
:101C7000E4CF01F0E4CF00F0120000C0E5FF01C0A6
:101C8000E5FF02C0E5FF03C0E5FFACA276D060EC43
:101C900017F0006E005005E10401276B0401266B6C
:101CA0006CD027C401F00050012660EC17F0026EE2
:101CB00000060250230A1FE1010E005CD8A05BD091
:101CC00060EC17F0026E690A03E17EEC15F053D068
:101CD0000250720A03E11DEC19F04DD00250730A54
:101CE00001E049D08B80AB869D8A9D98AE50AE5066
:101CF000AB98AB8840D00250430A05E00250420A3C
:101D000001E039D001D0008E00C02AFF00500F0141
:101D1000006F010E0F012B6F04012751011814E011
:101D200060EC17F0026E0F012A27000E0F012B2521
:101D3000006E036A0F0E032200C0E9FF03C0EAFF32
:101D400002C0EFFF2B2BE8D7000E0F012B25006EF2
:101D5000026A0F0E02220F012A1D036E032A00C021
:101D6000E9FF02C0EAFF03C0EFFF0F012B2B2BCFCF
:101D700028FF0401916B01C027F4E4CF03F0E4CF06
:101D800002F0E4CF01F0E4CF00F01200D9CFE5FF7C
:101D9000E1CFD9FF00C0E5FF01C0E5FF02C0E5FFCC
:101DA00003C0E5FF04C0E5FF05C0E5FF06C0E5FF91
:101DB00007C0E5FF020EDBCF00F0030EDBCF01F022
:101DC000040EDBCF02F0050EDBCF03F002C006F0FD
:101DD0000650046E800A33E100C0E9FF01C0F3FF42
:101DE0000250BAEC17F0056EF3CF06F0F4CF07F00F
:101DF00003C0E5FF05C0E9FF06C0F3FF07505CEC38
:101E000019F000C0E9FF01C0F3FF0250BAEC17F06F
:101E1000056EF3CF06F0F4CF07F0052A02E3064A79
:101E2000072A05C0E5FF06C0F4FF07C0F6FF00C0A3
:101E3000E9FF01C0F3FF025000EC19F01DD004AA25
:101E40001BD0047A045004E10350A3EC19F014D021
:101E50000450010A04E1035002EC00F00DD00450DC
:101E60000F0A04E103504DEC15F006D004500E0AA1
:101E700003E10350B3EC19F0E4CF07F0E4CF06F030
:101E8000E4CF05F0E4CF04F0E4CF03F0E4CF02F0B8
:101E9000E4CF01F0E4CF00F0E4CFD9FF1200D9CFB6
:101EA000E5FFE1CFD9FF00C0E5FF01C0E5FF02C0BB
:101EB000E5FF03C0E5FF04C0E5FF05C0E5FF06C080
:101EC000E5FF07C0E5FF020EDBCF00F0030EDBCF1E
:101ED00001F0040EDBCF02F0050EDBCF03F027C4C8
:101EE00028F4040126510401285F280703C004F0E8
:101EF000056A030E0426D8B0052A28C406F0076A2E
:101F00000750800FF36E0550800FF35C02E1045020
:101F1000065C02E2E8682BD0020E035C02E2E86A8B
:101F200026D003060350E56EFEEC13F0E652046A79
:101F30000350045C14E204500024056EE86A01209A
:101F4000066EE86A022005C0E9FF06C0F3FFDEEC7A
:101F500018F0042AE56EFEEC13F0E652E9D727C428
:101F600028F4040126510401285F2807E86AE4CF19
:101F700007F0E4CF06F0E4CF05F0E4CF04F0E4CFBF
:101F800003F0E4CF02F0E4CF01F0E4CF00F0E4CFBF
:101F9000D9FF1200D9CFE5FFE1CFD9FF00C0E5FF9F
:101FA00001C0E5FF02C0E5FF03C0E5FF04C0E5FF97
:101FB00005C0E5FF06C0E5FF020EDBCF00F0030E13
:101FC000DBCF01F0040EDBCF02F0050EDBCF03F018
:101FD000D88001AED890046A0436045007E0011C92
:101FE000066E001C056E054A062A04D000C005F0E6
:101FF00001C006F0D88003AED89007E3031C016E41
:10200000021C006E004A012A04D002C000F003C086
:1020100001F00150E56E0050E56E0650E56E05508A
:10202000E56E6EEC11F0006EF3CF01F0040EE126C8
:1020300004500AE0011C036E001C026E024A032ACF
:1020400003C0F3FF025003D001C0F3FF0050E4CF00
:1020500006F0E4CF05F0E4CF04F0E4CF03F0E4CFE2
:1020600002F0E4CF01F0E4CF00F0E4CFD9FF12009A
:10207000D9CFE5FFE1CFD9FF00C0E5FF01C0E5FF03
:1020800002C0E5FF03C0E5FF04C0E5FF05C0E5FFB2
:10209000020EDBCF00F0030EDBCF01F0040EDBCF2E
:1020A00002F0050EDBCF03F035C404F036C405F0B2
:1020B0000401353F01D0362B0350E56E0450E56E28
:1020C00085EC16F0E652E65235C404F036C405F04D
:1020D0000401353F01D0362B0250056EE56E0450E9
:1020E000E56E85EC16F0E652E65235C404F036C4CF
:1020F00005F00401353F01D0362B0150056EE56E29
:102100000450E56E85EC16F0E652E65235C404F054
:1021100036C405F00401353F01D0362B0050E56E82
:102120000450E56E85EC16F0E652E652E4CF05F079
:10213000E4CF04F0E4CF03F0E4CF02F0E4CF01F009
:10214000E4CF00F0E4CFD9FF1200D9CFE5FFE1CF13
:10215000D9FF00C0E5FF01C0E5FF02C0E5FF03C0F5
:10216000E5FF04C0E5FF05C0E5FF06C0E5FF020E80
:10217000DBCF00F0030EDBCF01F0040EDBCF02F06B
:102180000401375119E19AEC0CF0036EF3CF04F01F
:10219000F4CF05F0E9CF06F003C0E5FF04C0F4FF7B
:1021A00005C0F6FF06C0F7FF00C0E9FF01C0F3FF5E
:1021B0000250EFEC18F01ED004013751010A1AE169
:1021C00000C0E9FF01C0F3FF025040EC17F0006EC1
:1021D000F3CF01F0F4CF02F0E9CF03F00350E56E46
:1021E0000250E56E0150E56E0050E56E38EC10F0DF
:1021F000040EE126E4CF06F0E4CF05F0E4CF04F0CE
:10220000E4CF03F0E4CF02F0E4CF01F0E4CF00F03C
:10221000E4CFD9FF1200D9CFE5FFE1CFD9FF00C04D
:10222000E5FF01C0E5FF02C0E5FF03C0E5FF04C014
:10223000E5FF05C0E5FF06C0E5FF020EDBCF00F0BD
:10224000030EDBCF01F0040EDBCF02F0050EDBCF77
:1022500003F0060EDBCF04F0070EDBCF05F0080E0F
:10226000DBCF06F0D88003AED89015E306500A0AFB
:1022700012E104C0E9FF05C0EAFF2D0EEF6E044A2B
:10228000052A031E021E011E006C05E1012A03E15E
:10229000022AD8B4032A0650E56E0550E56E0450B4
:1022A000E56E0350E56E0250E56E0150E56E00509C
:1022B000E56E2BEC0BF0070EE126E4CF06F0E4CF41
:1022C00005F0E4CF04F0E4CF03F0E4CF02F0E4CF74
:1022D00001F0E4CF00F0E4CFD9FF1200D9CFE5FF41
:1022E000E1CFD9FF00C0E5FF01C0E5FF02C0E5FF77
:1022F00003C0E5FF04C0E5FF05C0E5FF06C0E5FF3C
:10230000020EDBCF00F0030EDBCF01F0040EDBCFBB
:1023100002F0050EDBCF03F0046A056A0350800B60
:10232000E844066E065011E10250022603360350BF
:10233000015C02E10250005C04E2D89003320232F8
:1023400004D0052A05C004F0E9D70350015C02E17E
:102350000250005C04E30250005E0350015AD89022
:102360000332023204C005F004060550EEE101C05C
:10237000F3FF0050E4CF06F0E4CF05F0E4CF04F023
:10238000E4CF03F0E4CF02F0E4CF01F0E4CF00F0BB
:10239000E4CFD9FF120000C0E5FF01C0E5FF02C095
:1023A000E5FF03C0E5FF27CF00F0016A32CF02F05E
:1023B000036A0250005E0350015AE56A800EE56E22
:1023C0000150E56E0050E56ECAEC0FF0006E040E91
:1023D000E126000632CF01F0430E4DEC15F0200E41
:1023E0004DEC15F00050800F7F0F20E3600E0124AC
:1023F000026E036A000E032202C0E9FF03C0EAFF77
:10240000EFCF02F0E56A0250E56E000EE56E320E87
:10241000E56E520EE56E42EC13F0050EE126012A40
:102420000150800A01E1016A0006DCD7E4CF03F025
:10243000E4CF02F0E4CF01F0E4CF00F01200D9CFF6
:10244000E5FFE1CFD9FF00C0E5FF01C0E5FF02C015
:10245000E5FF03C0E5FF04C0E5FF020EDBCF00F09F
:10246000030EDBCF01F0040EDBCF02F00401375185
:1024700011E1E7EC14F0036EF3CF04F003C0E5FFC5
:1024800004C0F4FF00C0E9FF01C0F3FF025039ECC3
:1024900019F016D004013751010A12E100C0E9FF1A
:1024A00001C0F3FF025079EC18F0006EF3CF01F099
:1024B0000150E56E0050E56EC1EC13F0E652E652B5
:1024C000E4CF04F0E4CF03F0E4CF02F0E4CF01F076
:1024D000E4CF00F0E4CFD9FF1200FE0EF66E320E0C
:1024E000F76E000EF86E0900F550056E0900F55004
:1024F000066E04E1056702D0BAEF12F00900F5504C
:10250000006E0900F550016E0900F550026E0900D9
:102510000900F550E96E0900F550EA6E090009005E
:102520000900F550036E0900F550046E090009001A
:10253000F6CF07F0F7CF08F0F8CF09F000C0F6FFAC
:1025400001C0F7FF02C0F8FF035002E1045007E0AA
:102550000900F550EE6E0306F8E20406F9D707C04D
:10256000F6FF08C0F7FF09C0F8FF050601E20606FE
:1025700079EF12F0120000C0E5FF01C0E5FF72A282
:102580003AD0A4A838D004012C51FF0A03E12D5100
:10259000FF0A01E007D09BEC19F0736A04012C6B71
:1025A0002D6B29D004012C512D1108E19FEC19F05D
:1025B000736A010E04012C6F2D6B1DD02CC400F02A
:1025C0002DC401F004012C3F01D02D2B000E00265C
:1025D000080E012200C0E9FF01C0EAFFEFCF73FF40
:1025E00004012C5103E12D51010A01E004D0FF0E3A
:1025F00004012C692D69E4CF01F0E4CF00F0120052
:1026000000C0E5FF01C0E5FF02C0E5FF32EC16F0B7
:10261000006E32EC16F0016E0050026ED00E0224F5
:10262000006E0A0E005C05E30050026EF90E0224F3
:10263000006E0150026ED00E0224016E0A0E015C83
:1026400005E30150026EF90E0224016E080E005CD3
:1026500012E2100E015CD8B00ED00038F00B01244D
:10266000006E75EC14F0016E015005E10050E56E4E
:10267000EFEC17F0E652E4CF02F0E4CF01F0E4CF44
:1026800000F01200D9CFE5FFE1CFD9FF00C0E5FF90
:1026900001C0E5FF02C0E5FF020ED924006E000E66
:1026A000DA20016E800E026E030E0026000E01225B
:1026B00002220250E56E0150E56E0050E56E040EF8
:1026C000DBCFE5FF030EDBCFE5FF020EDBCFE5FF3F
:1026D00004019051E56E8F51E56E8E51E56E0EEC62
:1026E00000F0006EF3CF01F0090EE12601C0F3FF08
:1026F0000050E4CF02F0E4CF01F0E4CF00F0E4CFEB
:10270000D9FF1200D9CFE5FFE1CFD9FF00C0E5FF27
:1027100001C0E5FF02C0E5FF03C0E5FF020EDBCF0D
:1027200000F0030EDBCF01F0040EDBCF02F004015A
:1027300037510DE14DEC18F0036E03C0E5FF00C00A
:10274000E9FF01C0F3FF02505CEC19F00FD0040167
:102750003751010A0BE100C0E9FF01C0F3FF02504D
:10276000DEEC18F0E56ED2EC16F0E652E4CF03F0A2
:10277000E4CF02F0E4CF01F0E4CF00F0E4CFD9FFE2
:102780001200D9CFE5FFE1CFD9FF00C0E5FF01C0BE
:10279000E5FF02C0E5FF03C0E5FF020EDBCF00F05E
:1027A000030EDBCF01F035C402F036C403F00401A0
:1027B000353F01D0362B0150E56E0250E56E85ECB9
:1027C00016F0E652E65235C402F036C403F00401B6
:1027D000353F01D0362B0050E56E0250E56E85EC9A
:1027E00016F0E652E652E4CF03F0E4CF02F0E4CF75
:1027F00001F0E4CF00F0E4CFD9FF1200D9CFE5FF1C
:10280000E1CFD9FF00C0E5FF01C0E5FF02C0E5FF51
:1028100003C0E5FF04C0E5FF020EDBCF00F026C4D5
:1028200001F0026A014A022A27C403F0046A015037
:10283000031803E10250041801E001D00ED0000E8D
:1028400004012625016E026A070E022201C0E9FF7B
:1028500002C0EAFF00C0EFFF262BE4CF04F0E4CF74
:1028600003F0E4CF02F0E4CF01F0E4CF00F0E4CFD6
:10287000D9FF1200D9CFE5FFE1CFD9FF00C0E5FFB6
:1028800001C0E5FF02C0E5FF03C0E5FF020EDBCF9C
:1028900000F0016A32CF02F0036A025000260350B2
:1028A0000122E56A800EE56E0150E56E0050E56E8E
:1028B000CAEC0FF0006EF3CF01F0040EE126600EBB
:1028C0000026000E012200C0E9FF01C0EAFFEFCFA1
:1028D00000F00050E4CF03F0E4CF02F0E4CF01F0C9
:1028E000E4CF00F0E4CFD9FF120000C0E5FF01C043
:1028F000E5FF02C0E5FF010E006E32EC16F0016E3E
:1029000001C002F0015023E00050E56E0FEC19F019
:10291000016EE652015010E10A0E005C0BE20A0E55
:10292000006EE56E0FEC19F0016EE652015004E105
:10293000E8680ED0E8680CD00150021802E0E868A0
:1029400007D0002A1B0E005CD8E3E86801D0E86AD3
:10295000E4CF02F0E4CF01F0E4CF00F01200F3CFB7
:10296000E5FFF4CFE5FFE9CFE5FFEACFE5FFFACFDA
:10297000E5FFFBCFE5FF040124510401836F04014F
:1029800025510401846FD650816FD750826FF2A415
:1029900011D00401243F01D0252BF29404012451CD
:1029A0000401836F040125510401846FD650816FA7
:1029B000D750826FE4CFFBFFE4CFFAFFE4CFEAFF0A
:1029C000E4CFE9FFE4CFF4FFE4CFF3FF110000C050
:1029D000E5FF01C0E5FF02C0E5FF03C0E5FF35C428
:1029E00000F036C401F00401353F01D0362B005011
:1029F000E56E0FEC19F0E652036E026A35C400F082
:102A000036C401F00401353F01D0362B0050E56E8D
:102A10000FEC19F0E652016A02120150031203C0D2
:102A2000F3FF0250E4CF03F0E4CF02F0E4CF01F073
:102A3000E4CF00F01200D9CFE5FFE1CFD9FF00C00D
:102A4000E5FF01C0E5FF02C0E5FF03C0E5FF04C0EC
:102A5000E5FF020EDBCF00F0030EDBCF01F0040E2A
:102A6000DBCF02F0050EDBCF03F0060EDBCFE9FF74
:102A7000070EDBCFEAFF080EDBCF04F040EC04F0DA
:102A8000E4CF04F0E4CF03F0E4CF02F0E4CF01F0B0
:102A9000E4CF00F0E4CFD9FF120000C0E5FF01C091
:102AA000E5FF02C0E5FF006E390E04012B25016E23
:102AB000026A040E022201C0E9FF02C0EAFF00C060
:102AC000EFFF220E2B5D01E22B2B00500A0A0FE1D3
:102AD00004012B51E56E800EE56E040EE56E390E95
:102AE000E56E4FEC0FF0040EE12604012B6BE4CFF2
:102AF00002F0E4CF01F0E4CF00F012000401266BF5
:102B00000401276B040128698B809490B06A3F0E02
:102B1000AF6EB886AC8AAC84AC8CAC90AB8CAB8E10
:102B20000F01296B0F01236B0F01266B0F01276B20
:102B30000F01286B000EE56A0FEC19F004012A6FF3
:102B4000E6529F989F9A010E0401296F04018E6B33
:102B50008F6B2F0E906F1DEC19F0120000C0E5FF77
:102B600001C0E5FF02C0E5FF03C0E5FF006A016A9E
:102B7000000E0024026E080E0120036E02C0E9FF61
:102B800003C0EAFFEF6A004A012A0150800F7F0F5D
:102B900002E1000E005CECE38A8C939C7086728AE2
:102BA0007284728C7280718EE4CF03F0E4CF02F0F5
:102BB000E4CF01F0E4CF00F01200D9CFE5FFE1CF80
:102BC000D9FF00C0E5FF01C0E5FF02C0E5FF03C07B
:102BD000E5FF020EDBCF00F0030EDBCF01F0040EA9
:102BE000DBCF02F0050EDBCF03F0060EDBCFE9FFF3
:102BF000070EDBCFEAFFC1EC07F0E4CF03F0E4CF30
:102C000002F0E4CF01F0E4CF00F0E4CFD9FF1200EE
:102C1000040124510401876F040125510401886FC8
:102C2000D650856FD750866F87510401241905E16E
:102C300004018851040125190CE004012451040108
:102C4000876F040125510401886FD650856FD750D6
:102C5000866F88C4E9FF87C4F4FF86C4F3FF0401CC
:102C60008551120000C0E5FF01C0E5FF0F012751AB
:102C70000F01301905E00F0127510F01261902E15C
:102C8000E86A15D027CF00F00F01272B016A600EEC
:102C90000026000E012200C0E9FF01C0EAFFEFCFCD
:102CA00000F02751800A02E10F01276B0050E4CFAA
:102CB00001F0E4CF00F01200D9CFE5FFE1CFD9FF5A
:102CC00000C0E5FF01C0E5FF02C0E5FF020EDBCF5B
:102CD00000F0030EDBCF01F0040EDBCF02F000505A
:102CE00001100AE0000E0026080E012200C0E9FFD4
:102CF00001C0EAFF02C0EFFFE4CF02F0E4CF01F031
:102D0000E4CF00F0E4CFD9FF1200D9CFE5FFE1CF47
:102D1000D9FF00C0E5FF020EDBCF00F0030EDBCFD2
:102D2000A8FF00C0A9FFA69EA69CA684F29EF29CC6
:102D3000550EA76EAA0EA76EA682A6A202D000000C
:102D4000FCD7E86AA6B6E82AA694F28EF28CE4CF05
:102D500000F0E4CFD9FF120000C0E5FF01C0E5FF9D
:102D600002C0E5FF32EC16F01E0A15E132EC16F057
:102D7000026E016A32EC16F0006A0126005002224F
:102D800032EC16F0E56E0250E56E0150E56E5CEC3B
:102D900016F0030EE126E4CF02F0E4CF01F0E4CF19
:102DA00000F01200D9CFE5FFE1CFD9FF00C0E5FF69
:102DB00001C0E5FF02C0E5FF020EDBCF00F035C425
:102DC00001F036C402F00401353F01D0362B00502B
:102DD000E56E0150E56E85EC16F0E652E652E4CF62
:102DE00002F0E4CF01F0E4CF00F0E4CFD9FF12000D
:102DF000D8CFE5FFE0CFE5FFE56EF3CFE5FFF4CFF9
:102E0000E5FFE9CFE5FFEACFE5FFFACFE5FFFBCF2E
:102E1000E5FF29EC0AF0E4CFFBFFE4CFFAFFE4CFB3
:102E2000EAFFE4CFE9FFE4CFF4FFE4CFF3FFE4509F
:102E3000E4CFE0FFE4CFD8FF100000C0E5FFA7EC2F
:102E400019F00401896B806B8983006A89B3002AB9
:102E50000050010BE844F46E8051FD0BF410806FBC
:102E6000D58ED59CD59AD588D596D594D582D58042
:102E7000F28AF184D08EF28EF28CE4CF00F0120050
:102E8000E8AE0AD0F3CFEAFFEE50EECFF3FFEECF7D
:102E9000F4FFEECFE9FF1200E8BCC0EF19F0E9CF74
:102EA000F6FFF3CFF7FFF86E0900F5500900F5CFF4
:102EB000F3FF0900F5CFF4FF0900F5CFE9FF120099
:102EC00000C0E5FF01C0E5FF0401265104012719F8
:102ED00002E1E86A0FD0000E04012725006E016AA6
:102EE000070E012200C0E9FF01C0EAFFEFCF00F0AA
:102EF000272B0050E4CF01F0E4CF00F01200F2CF16
:102F0000EAFFF29EA69EA69CA684E9CFA9FFF3CF76
:102F1000AAFFE4CFA8FF67EC19F0F4CFA8FF67EC95
:102F200019F0F6CFA8FF67EC19F0F7CFA8FF67EC10
:102F300019F0A694EABEF28E1200F2CFF6FFF29ECE
:102F4000A69EA69CE9CFA9FFF3CFAAFFA680A85012
:102F5000A94AAA2AA680A8CFF3FFA94AAA2AA6802E
:102F6000A8CFF4FFA94AAA2AA680A8CFEAFFF6BEF6
:102F7000F28E1200E8AE08D0F3CFEAFFEE50EECFAB
:102F8000F3FFEECFF4FF1200E8BCC2EF19F0E9CF77
:102F9000F6FFF3CFF7FFF86E0900F5500900F5CF03
:102FA000F3FF0900F5CFF4FF1200F2CFEAFFF29E23
:102FB000A69EA69CA684E9CFA9FFF3CFAAFFE4CFE3
:102FC000A8FF67EC19F0F4CFA8FF67EC19F0F6CF73
:102FD000A8FF67EC19F0A694EABEF28E1200D9CFD2
:102FE000E5FFE1CFD9FF00C0E5FF020EDBCF00F027
:102FF00000C02AF40050E56E000EE56A85EC16F07C
:10300000E652E652E4CF00F0E4CFD9FF1200F2CF4F
:10301000F6FFF29EA69EA69CE9CFA9FFF3CFAAFFDA
:10302000A680A850A94AAA2AA680A8CFF3FFA94A39
:10303000AA2AA680A8CFF4FFF6BEF28E120000C026
:10304000E5FF01C0E5FF600E0F012725006E016A54
:10305000000E012200C0E9FF01C0EAFFEFCF00F03F
:103060000050E4CF01F0E4CF00F01200D9CFE5FF2B
:10307000E1CFD9FF00C0E5FF020EDBCF00F0610E0B
:10308000005C05E37B0E005C02E2010E01D0E86A01
:10309000E4CF00F0E4CFD9FF120000C0E5FF01C08B
:1030A000E5FF35C400F036C401F00401353F01D01E
:1030B000362B0050E56E0FEC19F0E652E4CF01F02C
:1030C000E4CF00F01200D9CFE5FFE1CFD9FF00C077
:1030D000E5FF020EDBCF00F000C029F4005004E150
:1030E0001DEC19F09D9A9D98E4CF00F0E4CFD9FF34
:1030F0001200E8AE06D0F3CFEAFFEE50EECFF3FFBA
:103100001200E8BCBEEF19F0E9CFF6FFF3CFF7FFEE
:10311000F86E0900F5500900F5CFF3FF1200F2CF69
:10312000EAFFF29EA69EA69CA684E9CFA9FFF3CF54
:10313000AAFFE4CFA8FF67EC19F0F4CFA8FF67EC73
:1031400019F0A694EABEF28E12001AEEFFF02AEEF3
:10315000FFF0F86AA68EA69CE9680E0EEA6E00687B
:10316000000EED6A0050FDE16DEC12F086EC19F0F6
:10317000FFD7F2CFF6FFF29EA69EA69CE9CFA9FF4D
:10318000F3CFAAFFA680A850A94AAA2AA680A8CF52
:10319000F3FFF6BEF28E1200F2CFEAFFF29EA69E79
:1031A000A69CA684E9CFA9FFF3CFAAFFE4CFA8FF8E
:1031B00067EC19F0A694EABEF28E1200E8AE04D0D5
:1031C000F3CFEAFFEE501200E8BCBCEF19F0E9CFF4
:1031D000F6FFF3CFF7FFF86E0900F5501200E8AEE6
:1031E0000BD0F3CFEAFFE4CFEEFFF4CFEEFFF6CF44
:1031F000EEFFF7CFEEFF1200E8BCBAEF19F01200B5
:10320000E8AE09D0F3CFEAFFE4CFEEFFF4CFEEFF54
:10321000F6CFEEFF1200E8BCC4EF19F01200D9CFD0
:10322000E5FFE1CFD9FF020EDBCFA9FFA69CA69E4A
:10323000A680A850E4CFD9FF1200ACA2FED78B80A5
:10324000AE500000AE50AB98AB88AB869D8A9D987F
:10325000120025642000F2CFF6FFF29EA69EA69CE7
:10326000E9CFA9FFF3CFAAFFA680A850F6BEF28E41
:103270001200E8AE07D0F3CFEAFFE4CFEEFFF4CFC1
:10328000EEFF1200E8BCB8EF19F01200700ED36E1A
:103290009B8CFF0E9268936894689668626AF19EB0
:1032A000120000C0E5FF75EC14F0006E005001E163
:1032B000FF00E4CF00F01200E8AE05D0F3CFEAFF44
:1032C000E4CFEEFF1200E8BCB6EF19F01200550E85
:1032D000A76EAA0EA76EA682A6B2FED7A94AAA2AF0
:1032E000010E0401376F1C0E0401356F366B12009E
:1032F0000401376B1C0E0401356F366B12000100A0
:103300000C000000240400000B00000091EC19F0F8
:103310008CEC19F0FDD71200B3EC0DF0BBEC12F001
:10332000120096EC19F0AEEC15F012001DEC17F03F
:103330007EEC15F01200766AA50E756E1200766AA4
:103340003F0E756E1200ACA2FED7AD6E120046ECB9
:1033500019F012000F01275112000F013151120014
:10336000040129511200E8CF7FFF1200CCEF18F0C2
:103370008FEF18F07FEF17F02BEF19F0B9EF18F07F
:0C3380009DEF17F007EF18F0D5EF17F0E5
:00000001FF
