:020000040000FA
:040000003DEF18F0C8
:04000800C3EF1BF037
:0400180012EF1BF0D8
:06002A0000C0E5FF01C06B
:10003000E5FF02C0E5FF03C0E5FF04C0E5FF05C022
:10004000E5FF06C0E5FF07C0E5FF08C0E5FF09C002
:10005000E5FF0AC0E5FF0BC0E5FF02012951D8B456
:10006000BAEF04F00201349734952AC200F0010E71
:10007000016EC0C602F00250230A02E0F8EF02F05F
:10008000020E005CD8A0BAEF04F0C1C603F0035022
:10009000530A01E084D00050040A02E0BAEF04F0F1
:1000A0000601C251046ED00E04260A0E045C05E35C
:1000B0000450056EF90E0524046E0601C351056E49
:1000C000D00E05260A0E055C05E30550066EF90EF6
:1000D0000624056E100E045CD8B0BAEF04F0100EC2
:1000E000055CD8B0BAEF04F00438F00B066E05508A
:1000F000046E065004260450D8B4BAEF04F0800E03
:10010000045CD8B0BAEF04F00438E8441F0B056E65
:10011000C00E0524066E076A000E072206C0E9FF1E
:1001200007C0EAFFEFCF08F00450096E070E09166A
:10013000010E0A6E09500DE006E6E86CD8900A360A
:10014000010FFDE306D0D8900ABED8800A32010F15
:10015000FBE30A50081206C0E9FF07C0EAFF08C027
:10016000EFFF066AD00E0526000E062205C0E9FF45
:1001700006C0EAFFEFCF07F00A1E07500A1605C0B7
:10018000E9FF06C0EAFF0AC0EFFF04500201315D3B
:10019000D8B0BAEF04F004C031F2BAEF04F0035063
:1001A000430A01E07AD00050040A02E0BAEF04F0FA
:1001B0000601C251046ED00E04260A0E045C05E34B
:1001C0000450056EF90E0524046E0601C351056E38
:1001D000D00E05260A0E055C05E30550066EF90EE5
:1001E0000624056E100E045CD8B0BAEF04F0100EB1
:1001F000055CD8B0BAEF04F00438F00B066E055079
:10020000046E065004260450D8B4BAEF04F0800EF1
:10021000045CD8B0BAEF04F00438E8441F0B056E54
:10022000D00E0524066E076A000E072206C0E9FFFD
:1002300007C0EAFFEFCF08F0070E0416010E096EA3
:1002400004500DE006E6E86CD8900936010FFDE396
:1002500006D0D89009BED8800932010FFBE3091CF3
:10026000046E081606C0E9FF07C0EAFF08C0EFFFEA
:10027000066AC00E0526000E062205C0E9FF06C06C
:10028000EAFFEFCF07F00750041605C0E9FF06C0EC
:10029000EAFF04C0EFFFBAEF04F00350690A0EE171
:1002A000000EE56E250EE56EE80EE56E15EC1AF013
:1002B000030EE126E5EC17F0BAEF04F003504C0A08
:1002C00001E093D0000EE56E250EE56EFA0EE56EA8
:1002D00015EC1AF0030EE1262BC206F0020EE56EB5
:1002E000340EE56EE56A0650E56E000EE56E260EEC
:1002F000E56E0C0EE56E15EC1AF0070EE126046AA9
:10030000010E056E05500201315DD8A067D0053899
:10031000E8441F0B066EC00E0624076E086A000E26
:10032000082207C0E9FF08C0EAFFEFCF07F0070E79
:100330000514086E010E096E0A6A085006E0E86CA2
:10034000D89009360A36010FFCE30B6A09500716EC
:100350000A500B1607500B10D8B43ED0076AD00EC7
:100360000626000E072206C0E9FF07C0EAFFEFCF0E
:1003700006F0076A0650091607500A1609500A10B7
:10038000D880E866D890096A09360950D880E866AE
:10039000D890096A0936066A09BE066805C007F0E2
:1003A0000650E56E0950E56EE56A0750E56E000EF1
:1003B000E56E260EE56E320EE56E15EC1AF0070EB0
:1003C000E126042A04C006F006500F0B05E10A0ED0
:1003D000E56E28EC1DF0E652052A94D70A0EE56E6C
:1003E00028EC1DF0E652BAEF04F00350460A14E17F
:1003F0000201349902012B6BAB9894809D9A9D98D1
:10040000000EE56E260EE56E3A0EE56E15EC1AF05E
:10041000030EE126BAEF04F00350560A0CE1000E79
:10042000E56E260EE56E520EE56E15EC1AF0030E23
:10043000E126BAEF04F00350520A01E048D0000E62
:10044000E56A1AEC1DF0046EE65204C005F0066A77
:100450000F0E05160650800F800F02E10A0E055C94
:1004600007E20550300F076E000E0620086E06D01A
:100470000550370F076E000E0620086E04380F0B6C
:10048000046E0A0E045C08E204C005F0066A300E31
:100490000526D8B0062A07D0096A0450370F056E22
:1004A000000E0920066E0850E56E0750E56E0650F6
:1004B000E56E0550E56E000EE56E260EE56E8C0EBF
:1004C000E56E15EC1AF0070EE126BAEF04F00350C2
:1004D000570A33E10601C251046ED00E04260A0EFB
:1004E000045C05E30450056EF90E0524046E060154
:1004F000C351056ED00E05260A0E055C05E30550B6
:10050000066EF90E0624056E100E045CD8B0BAEF24
:1005100004F0100E055CD8B0BAEF04F00438F00B0C
:10052000066E055006260650E56E000EE56A9DEC47
:1005300012F0E652E652BAEF04F00350450A20E109
:10054000020E046E02012A51045C13E2C00E042460
:10055000056E066A060E0622042A05C0E9FF06C0DB
:10056000EAFFEFCF05F00550E56E28EC1DF0E652EE
:10057000E9D70A0EE56E28EC1DF0E652BAEF04F05A
:100580000350440A02E0BAEF04F00050040A02E00B
:10059000BAEF04F00601C251036ED00E03260A0E14
:1005A000035C05E30350046EF90E0424036E060198
:1005B000C351046ED00E04260A0E045C05E30450F9
:1005C000056EF90E0524046E100E035CD8B0BAEF68
:1005D00004F0100E045CD8B0BAEF04F00338F00B4E
:1005E000056E0450036E0550032402012F6FC2D123
:1005F0000250210A01E042D00050036E0306010EB2
:10060000035CD8A0B7D1010E0201366F0001606B08
:100610000201376BC1C604F00450420A0FE00450D7
:10062000490A0CE004504E0A09E00450520A06E060
:100630000450500A03E00450460A15E102013485D3
:100640000450460A0DE102013489000EE56E260EC3
:10065000E56E960EE56E15EC1AF0030EE126BED09F
:1006600002013499BBD00450620A01E083D1020E2A
:10067000016E0350046E0404036EB0D0020134A96D
:1006800069D0010E0201366F0050046E042A045036
:100690000001606F04C037F2600E02013625046E5F
:1006A000056A000E052204C0E9FF05C0EAFF02C08A
:1006B000EFFF0250020137270201362B010E046EB4
:1006C00002012A51045C20E2600E02013625056E0B
:1006D000066A000E0622C00E0424076E086A060E83
:1006E0000822042A07C0E9FF08C0EAFFEFCF07F09D
:1006F00005C0E9FF06C0EAFF07C0EFFF075002018F
:1007000037270201362BDCD7600E02013625046E36
:10071000056A000E05220201371D066E062A04C076
:10072000E9FF05C0EAFF06C0EFFF02013651046E83
:1007300004280201386F0201396BAB9894909D9A9E
:1007400060C0ADFF010E0201366F040E02012B6F77
:100750009D8810D1030E005CD8A00CD1D00E0226CB
:100760000A0E025C05E30250046EF90E0424026EC8
:10077000020E016E0601C151046ED00E04260A0E4F
:10078000045C05E30450056EF90E0524046E100E9A
:10079000025CD8B0EFD0100E045CD8B0EBD00238B9
:1007A000F00B056E0450026E0550022602AE03D017
:1007B0000201348502D002013495029E0250D8B461
:1007C000D9D0010E0201366F02500001606F02C0E5
:1007D00037F2FE0E0024036E02013487020134A5B5
:1007E00004D0800E0310006E03D003407F0B006E18
:1007F000600E02013625026E036A000E032202C05B
:10080000E9FF03C0EAFF00C0EFFF005002013727F5
:100810000201362B020134A527D001C000F00201ED
:100820002A51005CD8B07DD0600E02013625026EE0
:10083000036A000E0322C00E0024046E056A060E31
:100840000522002A04C0E9FF05C0EAFFEFCF04F04B
:1008500002C0E9FF03C0EAFF04C0EFFF0450020139
:1008600037270201362BDBD702012A51015CD8B0B1
:1008700058D001C000F00128026E036AC00E0026A5
:10088000060E032200C0E9FF03C0EAFFEFCF00F02D
:10089000D00E00260A0E005C05E30050036EF90E30
:1008A0000324006E02012A51025CD8B063D002C05A
:1008B00003F00228016E026AC00E0326060E022211
:1008C00003C0E9FF02C0EAFFEFCF03F0D00E03241C
:1008D000026E0A0E025C05E30250036EF90E032459
:1008E000026E100E005CD8B045D0100E025CD8B07D
:1008F00041D00038F00B036E02500326600E020157
:100900003625006E026A000E022200C0E9FF02C016
:10091000EAFF03C0EFFF0350020137270201362B25
:10092000A3D7600E02013625006E016A000E012277
:100930000201371D026E022A00C0E9FF01C0EAFF72
:1009400002C0EFFF02013651006E00280201386F2D
:100950000201396BAB9894909D9AAC8060C035F2DF
:1009600060C0ADFFAC90010E0201366F020E0201B5
:100970002B6F9D8802012A6B0201296BE4CF0BF0DB
:10098000E4CF0AF0E4CF09F0E4CF08F0E4CF07F0B9
:10099000E4CF06F0E4CF05F0E4CF04F0E4CF03F0B9
:1009A000E4CF02F0E4CF01F0E4CF00F01200D9CFA1
:1009B000E5FFE1CFD9FF00C0E5FF01C0E5FF02C0C0
:1009C000E5FF03C0E5FF04C0E5FF05C0E5FF06C085
:1009D000E5FF07C0E5FF08C0E5FF09C0E5FF0AC065
:1009E000E5FF0BC0E5FF0CC0E5FF0DC0E5FF0EC045
:1009F000E5FF0FC0E5FF10C0E5FF11C0E5FF12C025
:100A0000E5FF13C0E5FF14C0E5FF15C0E5FF16C004
:100A1000E5FF17C0E5FF18C0E5FF19C0E5FF1AC0E4
:100A2000E5FF1BC0E5FF1CC0E5FF1DC0E5FF1EC0C4
:100A3000E5FF020EDBCF00F0030EDBCF01F0040E6A
:100A4000DBCF02F0050EDBCF03F0060EDBCF04F0A8
:100A5000070EDBCF05F0080EDBCF06F0090EDBCF6B
:100A600007F00A0EDBCF08F0096A0A6A02C00DF02F
:100A70000D50800A0DE1025002010B6F01500A6F08
:100A80000050096F020E016E090E006E800E026E9C
:100A900003C0E9FF04C0F3FF0550ACEC1CF00B6E83
:100AA0000B50D8B48DEF08F00B50250A02E074EF1C
:100AB00008F00C6A0D6A0E6A0F6A106A0A0E116E4F
:100AC000126A136A146A200E156E1668176A2B0EC6
:100AD000186E032A02E3044A052A03C0E9FF04C092
:100AE000F3FF0550ACEC1CF0196E250A13E1195008
:100AF000E56E0250E56E0150E56E0050E56EBDEC0E
:100B000015F0040EE126094A0A2A032A02E3044AE0
:100B1000052ABED71950300A06E1300E156E032A99
:100B200002E3044A052A03C0E9FF04C0F3FF0550AD
:100B3000ACEC1CF02D0A06E1010E146E032A02E350
:100B4000044A052A03C0E9FF04C0F3FF0550ACECDA
:100B50001CF0200A08E1010E176E200E186E032A01
:100B600002E3044A052A03C0E9FF04C0F3FF05506D
:100B7000ACEC1CF02B0A06E1010E176E032A02E30F
:100B8000044A052A03C0E9FF04C0F3FF0550ACEC9A
:100B90001CF0196E310E195C2BE33A0E195C28E239
:100BA00003C019F004C01AF005C01BF019C0E9FF1A
:100BB0001AC0F3FF1B50ACEC1CF01C6E300E1C5C1A
:100BC00011E33A0E1C5C0EE213500A0DF3CF1DF038
:100BD0001C501D26D00E1D24136E192A02E31A4A3A
:100BE0001B2AE4D719C003F01AC004F01BC005F09B
:100BF00003C0E9FF04C0F3FF0550ACEC1CF02E0A63
:100C00002DE1032A02E3044A052A166A03C019F0FB
:100C100004C01AF005C01BF019C0E9FF1AC0F3FFA9
:100C20001B50ACEC1CF01C6E300E1C5C11E33A0E39
:100C30001C5C0EE216500A0DF3CF1DF01C501D2651
:100C4000D00E1D24166E192A02E31A4A1B2AE4D775
:100C500019C003F01AC004F01BC005F003C0E9FF7F
:100C600004C0F3FF0550ACEC1CF0196E6C0A07E1F0
:100C7000010E0C6E032A02E3044A052A09D019501A
:100C8000680A06E1010E0E6E032A02E3044A052AF1
:100C900003C0E9FF04C0F3FF0550ACEC1CF0750A7B
:100CA00006E1010E106E032A02E3044A052A03C07E
:100CB000E9FF04C0F3FF0550ACEC1CF0196E730A99
:100CC00005E1010E0D6E200E156E3FD01950780A09
:100CD00003E1100E116E39D01950580A05E1100EBB
:100CE000116E010E126E31D01950630A02E1116AC1
:100CF0002CD019506F0A03E1080E116E26D019503E
:100D0000660A03E1010E0F6E20D01950640A1DE03F
:100D10001950690A1AE0105005E0FF0E032604225C
:100D2000052213D01950E56E0250E56E0150E56EB4
:100D30000050E56EBDEC15F0040EE126094A0A2AC2
:100D4000032A02E3044A052AA3D60D5021E00650E7
:100D5000030F0D6E000E0720196E000E08201A6E8C
:100D60000DC006F019C007F01AC008F0FD0E0D26E0
:100D7000FF0E19221A220DC0E9FF19C0F3FF1A5005
:100D8000DEEC1BF00D6EF3CF19F0F4CF1AF0FDD0AE
:100D90000F500DE0000E1A6E110E196EA20E0D6EA0
:100DA000040E0626000E072208221668EED01668EA
:100DB0000C5023E00650040F0C6E000E07200F6E3F
:100DC000000E08201B6E0CC006F00FC007F01BC001
:100DD00008F0FC0E0C26FF0E0F221B220CC0E9FFB0
:100DE0000FC0F3FF1B5086EC1BF00C6EF3CF0FF01F
:100DF000F4CF1BF0E9CF1CF067D00E502FE0065067
:100E0000020F0E6E000E07201D6E000E08201E6ED3
:100E10000EC006F01DC007F01EC008F0FE0E0E2624
:100E2000FF0E1D221E220EC0E9FF1DC0F3FF1E5043
:100E30006EEC1CF00E6E0EC00CF00F6A1B6A1C6A82
:100E400011500A0A03E11050D8B43ED00C500E6E77
:100E50000EC00CF00F6A1B6A1C6A36D00650020FD7
:100E60000E6E000E07201D6E000E08201E6E0EC0B6
:100E700006F01DC007F01EC008F0FE0E0E26FF0E85
:100E80001D221E220EC0E9FF1DC0F3FF1E506EEC96
:100E90001CF00E6EF3CF1DF00EC00CF01DC00FF055
:100EA000E86A1DBEFF0E1B6E1C6E11500A0A02E19D
:100EB00010500AE00C500E6E0F501D6E0EC00CF05C
:100EC0001DC00FF01B6A1C6A000E196EE10E0D6E3C
:100ED000800E1A6E1150D8B440D0105013E011504B
:100EE000E56E000EE56EE10EE56E1C50E56E1B50E2
:100EF000E56E0F50E56E0C50E56EC1EC11F0070E7B
:100F0000E12612D01150E56E000EE56EE10EE56EA1
:100F10001C50E56E1B50E56E0F50E56E0C50E56EF3
:100F200025EC17F0070EE12617502FE00DC0E9FF62
:100F300019C0F3FF1A50ACEC1CF02D0A26E0FF0E8E
:100F40000D2619221A2218C0E5FF0DC0E9FF19C0AD
:100F5000F3FF1A5041EC1DF018D00CC0E5FF0DC096
:100F6000E9FF19C0F3FF1A5041EC1DF00D50010FBD
:100F70000C6E000E19200E6E000E1A20E56A0CC0D1
:100F8000E9FF0EC0F3FF41EC1DF00DC00CF019C0DD
:100F90000EF01AC00FF013C010F0105010E00CC08B
:100FA000E9FF0EC0F3FF0F50ACEC1CF0176E1750AA
:100FB00006E00C2A02E30E4A0F2A1006EED710C0F4
:100FC00013F014501EE109C00CF00AC00EF010C05E
:100FD0000FF00F5010E01550E56E0250E56E015015
:100FE000E56E0050E56EBDEC15F0040EE1260C4AEE
:100FF0000E2A0F06EED70CC009F00EC00AF00FC083
:1010000013F016C00CF00DC00DF019C00EF01AC090
:101010000FF009C010F00AC015F00DC0E9FF0EC0B6
:10102000F3FF0F50ACEC1CF0166E1650D8B43ED047
:101030000CC016F0176A161E171E1650171005E082
:101040000CC016F00C06165031E00DC0E9FF0EC0C2
:10105000F3FF0F50ACEC1CF0116E125010E0115069
:10106000E56E41EC1CF0166EE652165004E0DF0E01
:101070001114166E02D011C016F016C011F01150E6
:10108000E56E0250E56E0150E56E0050E56EBDEC78
:1010900015F0040EE1260D2A02E30E4A0F2A104A2B
:1010A000152A1350D8B4B9D71306B7D710C009F012
:1010B00015C00AF014502BE010C00CF015C00DF054
:1010C00013C00EF00E501FE0200EE56E0250E56ECC
:1010D0000150E56E0050E56EBDEC15F0040EE12602
:1010E0000C4A0D2A0E06EED70B50E56E0250E56E47
:1010F0000150E56E0050E56EBDEC15F0040EE126E2
:10110000094A0A2A04D00CC009F00DC00AF0032ACB
:1011100002E3044A052A48EF05F00AC0F3FF09502C
:10112000E4CF1EF0E4CF1DF0E4CF1CF0E4CF1BF0C1
:10113000E4CF1AF0E4CF19F0E4CF18F0E4CF17F0C1
:10114000E4CF16F0E4CF15F0E4CF14F0E4CF13F0C1
:10115000E4CF12F0E4CF11F0E4CF10F0E4CF0FF0C1
:10116000E4CF0EF0E4CF0DF0E4CF0CF0E4CF0BF0C1
:10117000E4CF0AF0E4CF09F0E4CF08F0E4CF07F0C1
:10118000E4CF06F0E4CF05F0E4CF04F0E4CF03F0C1
:10119000E4CF02F0E4CF01F0E4CF00F0E4CFD9FFD8
:1011A00012003C4E4F20464C4F41543E0000D9CFD8
:1011B000E5FFE1CFD9FF00C0E5FF01C0E5FF02C0B8
:1011C000E5FF03C0E5FF04C0E5FF05C0E5FF06C07D
:1011D000E5FF07C0E5FF08C0E5FF09C0E5FF0AC05D
:1011E000E5FF0BC0E5FF0CC0E5FF020ED924006E41
:1011F000000EDA20016E800E026E030E0026000E35
:1012000001220222020EDBCF03F0030EDBCF04F03B
:10121000040EDBCF05F003C0E9FF04C0F3FF055067
:10122000ACEC1CF0066E0DC0E5FF0EC0E5FF0FC074
:10123000E5FF0350010F0D6E000E04200E6E000E30
:1012400005200F6E020E0DC0DBFF030E0EC0DBFF8C
:10125000040E0FC0DBFFE4CF0FF0E4CF0EF0E4CFBD
:101260000DF006C003F00650D8B481EF0BF0035028
:10127000250A06E00350E56E28EC1DF0E652C2D7C1
:10128000036A046A020EDBCF05F0030EDBCF06F023
:10129000040EDBCF07F005C0E9FF06C0F3FF0750DF
:1012A000ACEC1CF0086E0DC0E5FF0EC0E5FF0FC0F2
:1012B000E5FF0550010F0D6E000E06200E6E000EAC
:1012C00007200F6E020E0DC0DBFF030E0EC0DBFF0A
:1012D000040E0FC0DBFFE4CF0FF0E4CF0EF0E4CF3D
:1012E0000DF00850300A31E1020EDBCF05F0030E9D
:1012F000DBCF06F0040EDBCF07F005C0E9FF06C028
:10130000F3FF0750ACEC1CF0086E0DC0E5FF0EC0FB
:10131000E5FF0FC0E5FF0550010F0D6E000E062022
:101320000E6E000E07200F6E020E0DC0DBFF030EC7
:101330000EC0DBFF040E0FC0DBFFE4CF0FF0E4CFE5
:101340000EF0E4CF0DF0010E036E300E085CD8A055
:1013500065D03A0E085CD8B061D0046A020EDBCFCB
:1013600005F0030EDBCF06F0040EDBCF07F0300EE6
:10137000085C39E33A0E085C36E20450096E094411
:10138000E844FC0B09260944FE0B0A6E08500A26A5
:10139000D00E0A24046E05C0E9FF06C0F3FF075013
:1013A000ACEC1CF0086E052A02E3064A072A0DC0C1
:1013B000E5FF0EC0E5FF0FC0E5FF05C00DF006C05C
:1013C0000EF007C00FF0020E0DC0DBFF030E0EC0C3
:1013D000DBFF040E0FC0DBFFE4CF0FF0E4CF0EF015
:1013E000E4CF0DF0C4D70DC0E5FF0EC0E5FF0FC080
:1013F000E5FF05C00DF006C00EF007C00FF0020EAD
:101400000DC0DBFF030E0EC0DBFF040E0FC0DBFFC1
:10141000E4CF0FF0E4CF0EF0E4CF0DF0000E0201A8
:10142000016FED0E006F800E026F00C205F001C269
:1014300006F002C207F00201226B085001E161D1FF
:101440000850250A01E1FAD0096A0850580A01E15A
:10145000092A0950D8A472D00850630A01E1ADD01E
:101460000A6A0850640A01E10A2A0A500CE108508D
:10147000730A01E1C2D00850750A05E00850780AE5
:1014800001E15CD0E0D00050020F086E000E012098
:101490000B6E000E02200C6E08C000F00BC001F0B5
:1014A0000CC002F0FE0E0826FF0E0B220C22085084
:1014B00008C0E9FF0BC0F3FF0C506EEC1CF00201FA
:1014C000106FF3CF11F20A5014E01051086E115151
:1014D0000A6ED8800AAED8900CE30A1C116F081C63
:1014E000106F103F01D0112B2D0EE56EBBEC1AF0E2
:1014F000E652270EE56E100EE56E55EC1AF0E65238
:10150000E652030EE56EE80EE56E55EC1AF0E65273
:10151000E652E56A640EE56E55EC1AF0E652E652C4
:10152000E56A0A0EE56E55EC1AF0E652E652020143
:101530001051E56E89EC1AF0E65285D009C021F20F
:101540000050020F086E000E0120096E000E0220EE
:101550000A6E08C000F009C001F00AC002F0FE0ED9
:101560000826FF0E09220A2208C0E9FF09C0F3FF7E
:101570000A506EEC1CF00201106FF3CF11F2100E46
:10158000E56E000EE56A55EC1AF0E652E652010EE1
:10159000E56E000EE56A55EC1AF0E652E652E56A91
:1015A000100EE56E55EC1AF0E652E65202011051AB
:1015B000E56E89EC1AF0E65246D00050020F086E34
:1015C000000E0120096E000E02200A6E08C000F015
:1015D00009C001F00AC002F0FE0E0826FF0E092223
:1015E0000A2208C0E9FF09C0F3FF0A50ACEC1CF066
:1015F000E56EBBEC1AF0E65226D00050030F086EE1
:10160000000E0120096E000E02200A6E08C000F0D4
:1016100009C001F00AC002F0FD0E0826FF0E0922E3
:101620000A2208C0E9FF09C0F3FF0A50DEEC1BF0F4
:10163000056EF3CF06F0F4CF07F005D0250EE56E6A
:10164000BBEC1AF0E65200C208F001C209F002C277
:101650000AF0E56A08C0E9FF09C0F3FF0A5041EC4F
:101660001DF005C000F206C001F207C002F200C280
:1016700008F001C209F002C20AF008C0E9FF09C07F
:10168000F3FF0A50ACEC1CF0086E0201002B03E3E0
:10169000013F01D0022B085004E0045002E0040690
:1016A000E6D704C008F0040608500DE0035003E03C
:1016B000300E086E02D0200E086E0850E56E28EC41
:1016C0001DF0E652EED705C003F006C004F007C0D7
:1016D00005F003C0E9FF04C0F3FF0550ACEC1CF0BB
:1016E000066E032A02E3044A052A06C007F00650E4
:1016F000D8B402EF09F00750E56E28EC1DF0E65271
:10170000E8D7E4CF0CF0E4CF0BF0E4CF0AF0E4CF5D
:1017100009F0E4CF08F0E4CF07F0E4CF06F0E4CF1F
:1017200005F0E4CF04F0E4CF03F0E4CF02F0E4CF1F
:1017300001F0E4CF00F0E4CFD9FF120000C0E5FFD4
:1017400001C0E5FF02C0E5FF03C0E5FF04C0E5FFFF
:1017500005C0E5FF06C0E5FF020134AB0BD0349BAA
:10176000000EE56E250EE56ED40EE56E15EC1AF052
:10177000030EE126020134AD0BD0349D000EE56E60
:10178000250EE56EDE0EE56E15EC1AF0030EE12671
:1017900002012C5102E1FAEF0DF0010E02012C5D65
:1017A000D8A0F8EF0DF0060E2C5DD8B0F8EF0DF0D4
:1017B0002C05006EFA6AFB6A0034FA36E834FA3611
:1017C000FC0BD20FE56E170EFA22000EFB22E4503E
:1017D000F96EF3EF0BF086EF0CF01BEF0DF065EFF9
:1017E0000DF0AFEF0DF002013539E8441F0B006E2C
:1017F000016AD00E0026000E012200C0E9FF01C0E0
:10180000EAFFEFCF02F035C203F0070E0316010E18
:10181000046E000E056E035006E0E86CD8900436A6
:101820000536010FFCE302C003F0066A03500416FC
:101830000650051604500510D8A4DAD1020135511E
:10184000036E070E0316010E046E03500DE006E64C
:10185000E86CD8900436010FFDE306D0D89004BEA2
:10186000D8800432010FFBE30250041200C0E9FFEC
:1018700001C0EAFF04C0EFFF0A0EE56E28EC1DF080
:10188000E652730EE56E28EC1DF0E652430EE56E4F
:1018900028EC1DF0E652020135390F0B006E0A0EDE
:1018A000005C05E20050016E300E012603D0370EB9
:1018B0000024016E0150E56E28EC1DF0E65235C2A1
:1018C00000F0016A0F0E00160150800F800F02E138
:1018D0000A0E005C08E202013551006E0F0E001680
:1018E000300E002608D002013551016E0F0E011690
:1018F000370E0124006E0050E56E28EC1DF0E65214
:101900000A0EE56E28EC1DF0E65272D1020135395F
:10191000E8441F0B006E016AD00E0026000E012263
:1019200000C0E9FF01C0EAFFEFCF02F035C203F0CB
:10193000070E0316010E046E000E056E035006E03E
:10194000E86CD89004360536010FFCE302C003F0C2
:10195000066A035004160650051604500510D8B444
:1019600047D102013551036E070E0316010E046EB6
:1019700003500DE006E6E86CD8900436010FFDE355
:1019800006D0D89004BED8800432010FFBE3041CBB
:10199000036E0250031600C0E9FF01C0EAFF03C056
:1019A000EFFF0A0EE56E28EC1DF0E652730EE56EB1
:1019B00028EC1DF0E652630EE56E28EC1DF0E652B1
:1019C000020135390F0B006E0A0E005C05E2005073
:1019D000016E300E012603D0370E0024016E015037
:1019E000E56E28EC1DF0E65235C200F0016A0F0EDC
:1019F00000160150800F800F02E10A0E005C08E221
:101A000002013551006E0F0E0016300E002608D070
:101A100002013551016E0F0E0116370E0124006EC2
:101A20000050E56E28EC1DF0E6520A0EE56E28EC3B
:101A30001DF0E652DDD00A0EE56E28EC1DF0E652F0
:101A4000730EE56E28EC1DF0E652780EE56E28EC7C
:101A50001DF0E652020135390F0B006E0A0E005CD4
:101A600005E20050016E300E012603D0370E00242F
:101A7000016E0150E56E28EC1DF0E65235C200F013
:101A8000016A0F0E00160150800F800F02E10A0E4E
:101A9000005C08E202013551006E0F0E0016300E98
:101AA000002608D002013551016E0F0E0116370EC7
:101AB0000124006E0050E56E28EC1DF0E6520A0E7F
:101AC000E56E28EC1DF0E65293D00A0EE56E28EC88
:101AD0001DF0E652730EE56E28EC1DF0E652610E25
:101AE000E56E28EC1DF0E652020135390F0B006E51
:101AF0000A0E005C05E20050016E300E012603D094
:101B0000370E0024016E0150E56E28EC1DF0E65200
:101B100035C200F0016A0F0E00160150800F800FD1
:101B200002E10A0E005C08E202013551006E0F0E60
:101B30000016300E002608D002013551016E0F0E3E
:101B40000116370E0124006E0050E56E28EC1DF0E2
:101B5000E6520A0EE56E28EC1DF0E65249D00A0E58
:101B6000E56E28EC1DF0E652730EE56E28EC1DF0D4
:101B7000E652540EE56E28EC1DF0E65202013539AE
:101B80000F0B006E0A0E005C05E20050016E300E75
:101B9000012603D0370E0024016E0150E56E28ECBB
:101BA0001DF0E65235C200F0016A0F0E001601501A
:101BB000800F800F02E10A0E005C08E2020135513D
:101BC000006E0F0E0016300E002608D002013551AF
:101BD000016E0F0E0116370E0124006E0050E56EE7
:101BE00028EC1DF0E6520A0EE56E28EC1DF0E652D8
:101BF00002012C6BE4CF06F0E4CF05F0E4CF04F053
:101C0000E4CF03F0E4CF02F0E4CF01F0E4CF00F042
:101C1000120000C0E5FF01C0E5FF02C0E5FF03C000
:101C2000E5FF6C50D8A438D100C400F0016A3C0E26
:101C30000016016A013401320032013401320032EF
:101C400000500D0A01E0E8D07F0E04010415046F76
:101C50007F0E0015006F02011D6B02011E6B020159
:101C60001F6B41C500F000C0FBF00050050A09E100
:101C7000010E02011E6F040E0201206F42C51AF20E
:101C800088D00050060A03E191EC14F082D0005095
:101C9000090A2EE1010E02011E6F42C51BF202016C
:101CA0001B5104E1040E0201206F73D0050E0201E6
:101CB000206F1E0E716E600E04010E6F040E0F6F0A
:101CC000400E04010C6F1E0E726E400E0401116F67
:101CD000000E126F050E136F880E0401106F200E98
:101CE0000401166F040E176F400E0401146F51D0DB
:101CF0000050080A12E1010E02011E6F440E02019B
:101D00001B250001FD6FFE6B310EFE23FF6B000EE5
:101D1000FF23010E02011F6F3CD0005003E149EC8C
:101D200016F037D00050010A03E00050030A03E127
:101D3000C2EC16F02ED000500A0A0EE1010E02018C
:101D40001E6F420E0001FD6F310EFE6F000EFF6F21
:101D5000010E02011F6F1DD000500B0A06E000505B
:101D6000200A03E00050220A04E1010E02011E6F66
:101D700010D00050210A0DE1C80E0001FD6F310E98
:101D8000FE6F000EFF6F070E02011F6F010E0201B2
:101D90001E6F02011E510CE1100E0401016F400E76
:101DA000026F050E036F840E0401006F046F32D0C2
:101DB000050140AF1DD01FC200F0016A0150475D10
:101DC00002E10050465D02E246C51FF288EC17F0C2
:101DD000020E02011D6F100E0401016F400E026F12
:101DE000050E036F800E0401006FC80E046F12D041
:101DF000010E02011D6F0401056BC80E0401046F82
:101E0000100E0401016F800E026F050E036FC80EE5
:101E10000401006F6D9862D002011D51010A01E0BA
:101E200038D00401015102011F27800E02010C6FFE
:101E3000050E0D6F01C41CF21CC200F002011C074C
:101E400000501DE00EC200F00FC201F00CC202F003
:101E50000DC203F002C0E9FF03C0EAFFEFCF02F0BA
:101E600002010C3F01D00D2B00C0E9FF01C0EAFFC9
:101E700002C0EFFF02010E3F01D00F2BDDD704019E
:101E800000AD03D0880E006F29D0C80E0401006F8A
:101E900025D0EDEC1CF022D06C50040A1FE16E50EE
:101EA0000BE102012051040A07E142C56EFF6E50AA
:101EB00003E1030E0201206F02011D51020A0CE131
:101EC00088EC17F0040104AD03D0880E046F06D02F
:101ED000C80E0401046F02D0EDEC1CF0E4CF03F057
:101EE000E4CF02F0E4CF01F0E4CF00F0120000C034
:101EF000E5FF01C0E5FF02C0E5FFABA202D0020191
:101F0000348BABA402D00201348D02012B51010AA3
:101F100001E038D09DBA0BD09EA208D04CEC1DF049
:101F20009D921F0ECA6E6A0ECC6E9E9244D19EAADE
:101F300028D0030ECA6E9D929E92AECF00F0AB9851
:101F400094809D9A9D98005019E00201392B030E50
:101F5000395D11E2AB9894909D9AAC8060C035F2E7
:101F600060C0ADFFAC90010E0201366F020E02019F
:101F70002B6F9D8820D1040E02012C6F02012B6B68
:101F80001AD119D102012B51030A01E068D09DBA80
:101F90000BD09EA208D04CEC1DF09D921F0ECA6E75
:101FA0006A0ECC6E9E9207D19EAA58D0AECF00F09A
:101FB000800E02012D25016E026A060E022201C06A
:101FC000E9FF02C0EAFF00C0EFFF2D2B6A0ECC6EC6
:101FD0009E922D51010A1EE102013A6B3F0E001440
:101FE00002012E6F2E2B00500EE1030ECA6E9D9241
:101FF0009E92AB9894809D9A9D9802012B6B010E46
:1020000002012C6F07D000AE03D00201348302D04E
:1020100002013493005002013A2702012D510201BE
:102020002E5D1BE2030ECA6E9D929E92AB98948029
:102030009D9A9D9802012B6B02013A5109E1020120
:102040002D0702013481010E02012C6FAD6A05D00B
:10205000030E02012C6F010EAD6EADD0ACD00201AB
:102060002B51020A01E04ED09EA212D0020136513D
:10207000020138190DE1030ECA6E9D929E92020173
:102080002B6B4CEC1DF0AB9894809D9A9D9893D04F
:102090009EB801D090D0030ECA6E9D929E9236C219
:1020A00000F00201362B016A600E0026000E0122AC
:1020B00000C0E9FF01C0EAFFEFCFADFF36510201DA
:1020C00038191FE19D98020134A70BD09D92070E8D
:1020D000CA6ED00ECC6E9E929D82010E02012B6FB5
:1020E00010D0020134A906D04CEC1DF0050E0201FF
:1020F0002B6F07D09D92070ECA6ED00ECC6E9E92AB
:102100009D8259D002012B51040A29E1030ECA6EA7
:102110009D929E929EA84FD036C200F00201362BAF
:10212000016A600E0026000E012200C0E9FF01C016
:10213000EAFFEFCFADFF3651020138190FE19D984C
:102140009D92070ECA6ED00ECC6E9E929D82050E99
:1021500002012B6F02012E6B02012D6B2CD00201AC
:102160002B51050A1FE19DBA09D09EA206D04CEC66
:102170001DF0030ECA6E9D929E921DD09EAA11D094
:10218000AECF00F0800E02012D25016E026A060E10
:10219000022201C0E9FF02C0EAFF00C0EFFF2D2BC1
:1021A0000AD009D002012B5106E1030ECA6E9D929E
:1021B0009E929D989D9AE4CF02F0E4CF01F0E4CF87
:1021C00000F0120000C0E5FF01C0E5FF9EEC0BF03F
:1021D00002012B51050A28E102012D5102012E199D
:1021E0001CE002012D5102012E1915E02EC200F053
:1021F00002012E2B016A800E0026060E012200C06D
:10220000E9FF01C0EAFFEFCF00F00050E56E28ECD7
:102210001DF0E652E6D75DEC1DF002012951D8B45D
:10222000A8D015EC00F0A5D0F29E02012B51D8A445
:1022300060D0030ECA6E9D929E920201295103E066
:1022400015EC00F096D0020134B193D002012F5169
:1022500002013B5DD8A08DD03B6B0201322B325185
:102260000201315D07E2010E0201326F020E02012E
:10227000336F03D002013335333702013239E8447A
:102280001F0B006E016AC00E0026000E012200C066
:10229000E9FF01C0EAFFEFCF00F002013351001661
:1022A0000050D8B466D002012E6B02012D6B0201E2
:1022B0003A6BAC80AB9894909D9A9EEC0BF0F29C9C
:1022C00032C235F232C200F0800E0010AD6EAC901A
:1022D00032C200F0800E0010AD6E9D92070ECA6EE5
:1022E000D00ECC6E9E929D82030E02012B6FF28C5B
:1022F00040D002012B51010A27E19DAA3AD09EA2AB
:1023000038D0030ECA6E9D929E92AB9894809D9A8F
:102310009D980201392B395D11E2AB9894909D9AFA
:10232000AC8060C035F260C0ADFFAC90010E020120
:10233000366F020E02012B6F9D881BD0050E020125
:102340002C6F02012B6B15D002012B51030A11E1F6
:102350009DAA0FD09EA20DD0030ECA6E9D929E9292
:10236000020E02012C6FAB9894809D9A9D980201F9
:102370002B6BF28E57EC13F0E4CF01F0E4CF00F0BA
:102380001200D9CFE5FFE1CFD9FF00C0E5FF01C0C2
:10239000E5FF02C0E5FF03C0E5FF04C0E5FF05C09F
:1023A000E5FF06C0E5FF07C0E5FF08C0E5FF09C07F
:1023B000E5FF0AC0E5FF0BC0E5FF0CC0E5FF0DC05F
:1023C000E5FF0EC0E5FF0FC0E5FF020EDBCF00F01A
:1023D000030EDBCF01F0040EDBCF02F0050EDBCFE6
:1023E00003F0060EDBCF04F0070EDBCF05F0080E7E
:1023F000DBCF06F0200E076E086A06C009F00A6AF5
:102400000B6A0C6AE56AE56AE56A0950E56E0350F5
:10241000E56E0250E56E0150E56E0050E56EF4EC9D
:1024200013F00D6E080EE126300E0D263A0E0D5CEF
:1024300005E30D500E6E270E0E240D6EFF0E0726BF
:102440000822A00E07240E6E000E08200F6E0EC08C
:10245000E9FF0FC0EAFF0DC0EFFF0C50E56E0B5017
:10246000E56E0A50E56E0950E56E0350E56E0250C8
:10247000E56E0150E56E0050E56E2DEC15F0006E36
:10248000F3CF01F0F4CF02F0E9CF03F0080EE1261C
:102490000050011002100310D8A4AFD707C000F0FD
:1024A00008C001F004C002F005C003F000C004F051
:1024B00001C005F0004A012AA00E0426000E0522E4
:1024C00004C0E9FF05C0EAFFEFCF04F002C0E9FF56
:1024D00003C0EAFF04C0EFFF024A032A000E015CBA
:1024E00002E1200E005CE2E302C0E9FF03C0EAFF64
:1024F000000EEF6AE4CF0FF0E4CF0EF0E4CF0DF062
:10250000E4CF0CF0E4CF0BF0E4CF0AF0E4CF09F015
:10251000E4CF08F0E4CF07F0E4CF06F0E4CF05F015
:10252000E4CF04F0E4CF03F0E4CF02F0E4CF01F015
:10253000E4CF00F0E4CFD9FF1200D9CFE5FFE1CF1F
:10254000D9FF00C0E5FF01C0E5FF02C0E5FF020EB4
:10255000DBCF00F0030EDBCFA8FF00C0A9FFA69ED3
:10256000A69CA684F29E550EA76EAA0EA76EA68202
:10257000A6A202D00000FCD7A6A610D0000E026EC4
:10258000250E016EB20E006E0250E56E0150E56E32
:102590000050E56E15EC1AF0030EE126A694F28EBB
:1025A000E4CF02F0E4CF01F0E4CF00F0E4CFD9FFB4
:1025B00012004552524F523A2077726974696E6721
:1025C00020746F20454550524F4D206661696C65FF
:1025D00064210A004F4552522021210A000046453D
:1025E00052522021210A00007320667261697365CE
:1025F00020696E69742E2E2E0A000A73206672619D
:10260000697365206C6F67203A0A00004672616941
:1026100073655374617465203A202564203B20461D
:1026200072616973655374617475733A2025640A25
:10263000000025643A256420000051756974206209
:102640006F6F746C6F61646572206D6F64652E0AC4
:1026500000007356205573624672616973652032BB
:102660002E312E352028537061726554696D654C8A
:102670006162732F534443432920412E526F757377
:102680007365617520323031360A00007349442584
:102690006325630A0000456E74657220626F6F7473
:1026A0006C6F61646572206D6F64652E0A0000C0F6
:1026B000E5FF01C0E5FF02C0E5FF03C0E5FF020141
:1026C00034A189D0020132390F0B006E020134B3FC
:1026D0000086300E00263A0E005C05E30050016EC5
:1026E000070E0124006E0050E56E28EC1DF0E65246
:1026F00002013251006E0F0E0016300E00263A0E07
:10270000005C05E30050016E070E0124006E0050CE
:10271000E56E28EC1DF0E652020134A31AD0010E3A
:10272000006E02012D51005CD8B04AD0800E00240A
:10273000016E026A060E0222002A01C0E9FF02C0F1
:10274000EAFFEFCF01F00150E56E28EC1DF0E652F4
:10275000E8D7010E006E02012D51005C31E2800EBF
:102760000024016E026A060E0222002A01C0E9FF5F
:1027700002C0EAFFEFCF01F001380F0B026E300EFE
:1027800002263A0E025C05E30250036E070E032494
:10279000026E0250E56E28EC1DF0E6520F0E011697
:1027A000300E01263A0E015C05E30150026E070E61
:1027B0000224016E0150E56E28EC1DF0E652CBD7E5
:1027C0000A0EE56E28EC1DF0E65202012D6B0201A7
:1027D0002E6B02013491E4CF03F0E4CF02F0E4CF9A
:1027E00001F0E4CF00F01200D9CFE5FFE1CFD9FF2F
:1027F00000C0E5FF01C0E5FF02C0E5FF03C0E5FF43
:1028000004C0E5FF05C0E5FF06C0E5FF07C0E5FF22
:1028100008C0E5FF09C0E5FF0AC0E5FF020EDBCFF7
:1028200000F0030EDBCF01F0040EDBCF02F0050E4B
:10283000DBCF03F0060EDBCF04F0070EDBCF05F095
:10284000080EDBCF06F0090EDBCF07F0086A045054
:1028500005100610071005E1E968F468F368E868F8
:1028600047D0096A0750800BE8440A6E0A501BE102
:10287000045004260536063607360750035C08E187
:102880000650025C05E10550015C02E10450005C69
:1028900006E2D890073206320532043204D0092A03
:1028A00009C008F0DFD70750035C08E10650025C5E
:1028B00005E10550015C02E10450005C08E30450AE
:1028C000005E0550015A0650025A0750035AD8902C
:1028D000073206320532043208C009F008060950F2
:1028E000E2E103C0E9FF02C0F4FF01C0F3FF0050C2
:1028F000E4CF0AF0E4CF09F0E4CF08F0E4CF07F02A
:10290000E4CF06F0E4CF05F0E4CF04F0E4CF03F029
:10291000E4CF02F0E4CF01F0E4CF00F0E4CFD9FF40
:10292000120000C0E5FF01C0E5FF02C0E5FF03C0E3
:10293000E5FF04C0E5FF05014051800A01E082D0B7
:1029400043C500F042C501F00050010A1AE1010E32
:1029500002011E6F260E0001FD6F310EFE6F000E8C
:10296000FF6FFDC002F0FEC003F0FFC004F002C024
:10297000F6FF03C0F7FF04C0F8FF0900F5CF1FF210
:1029800061D00050060A0EE1010E02011E6F380EE2
:102990000001FD6F310EFE6F000EFF6F0A0E020187
:1029A0001F6F50D00050020A1CE1010E02011E6F81
:1029B000000E0001FF6F310EFE6F4A0EFD6F020F19
:1029C000026E000EFE21036E000EFF21046E02C097
:1029D000F6FF03C0F7FF04C0F8FF0900F5CF1FF2B0
:1029E00031D00050030A2EE1010E02011E6F01508A
:1029F00008E18E0E0001FD6F310EFE6F000EFF6FBD
:102A000012D00150010A08E1920E0001FD6F310E53
:102A1000FE6F000EFF6F07D0A80E0001FD6F310E94
:102A2000FE6F000EFF6FFDC000F0FEC001F0FFC0A2
:102A300002F000C0F6FF01C0F7FF02C0F8FF090076
:102A4000F5CF1FF2E4CF04F0E4CF03F0E4CF02F0BF
:102A5000E4CF01F0E4CF00F01200D9CFE5FFE1CFE1
:102A6000D9FF00C0E5FF01C0E5FF02C0E5FF03C0DC
:102A7000E5FF04C0E5FF05C0E5FF06C0E5FF07C0B0
:102A8000E5FF08C0E5FF09C0E5FF0AC0E5FF0BC090
:102A9000E5FF0CC0E5FF0DC0E5FF020EDBCF00F047
:102AA000030EDBCF01F0040EDBCF02F0050EDBCF0F
:102AB00003F0060EDBCF04F0070EDBCF05F0080EA7
:102AC000DBCF06F0090EDBCF07F0086A096A0A6A55
:102AD0000B6A200E0C6E0350800BE8440D6E005004
:102AE00000260136023603360850082609360A3613
:102AF0000B360D50D8A4088007500B5C08E1065037
:102B00000A5C05E10550095C02E10450085C09E338
:102B10000450085E0550095A06500A5A07500B5ACD
:102B200000800C040D6E0DC00CF00D50D4E103C0FC
:102B3000E9FF02C0F4FF01C0F3FF0050E4CF0DF045
:102B4000E4CF0CF0E4CF0BF0E4CF0AF0E4CF09F0CF
:102B5000E4CF08F0E4CF07F0E4CF06F0E4CF05F0CF
:102B6000E4CF04F0E4CF03F0E4CF02F0E4CF01F0CF
:102B7000E4CF00F0E4CFD9FF1200D9CFE5FFE1CFD9
:102B8000D9FF00C0E5FF01C0E5FF02C0E5FF03C0BB
:102B9000E5FF04C0E5FF05C0E5FF06C0E5FF07C08F
:102BA000E5FF020EDBCF00F0030EDBCF01F0040ED9
:102BB000DBCF02F0050EDBCF03F002C006F00650BB
:102BC000046E800A33E100C0E9FF01C0F3FF025048
:102BD000DEEC1BF0056EF3CF06F0F4CF07F003C078
:102BE000E5FF05C0E9FF06C0F3FF075041EC1DF00B
:102BF00000C0E9FF01C0F3FF0250DEEC1BF0056EE0
:102C0000F3CF06F0F4CF07F0052A02E3064A072ABD
:102C100005C0E5FF06C0F4FF07C0F6FF00C0E9FFEE
:102C200001C0F3FF02500BEC1DF020D004C000F0F7
:102C300000AA1CD0007A0050046E04E103506BEC33
:102C40001DF014D00450010A04E1035074EC1DF08F
:102C50000DD004500F0A04E1035028EC1DF006D0FB
:102C600004500E0A03E103506FEC1DF0E4CF07F0AF
:102C7000E4CF06F0E4CF05F0E4CF04F0E4CF03F0B6
:102C8000E4CF02F0E4CF01F0E4CF00F0E4CFD9FFCD
:102C9000120000C0E5FF01C0E5FF02C0E5FF03C070
:102CA000E5FF04C0E5FF1F0E05014015006E005052
:102CB0000BE1010E02011E6F480E0001FD6F310E87
:102CC000FE6F000EFF6F4DD00050010A0BE1420E67
:102CD0000001FD6F310EFE6F000EFF6F010E02014D
:102CE0001E6F3FD00050020A01E03BD00F0E0501DD
:102CF0004415006E800E4415016E010E02011E6F18
:102D0000000E026E040E036EE56A0050E56EE56A81
:102D1000080EE56E38EC19F0006EF3CF04F0040EE7
:102D2000E1260050022402010E6F045003200F6FB1
:102D3000015004E0040E0E2701E30F2B0EC200F039
:102D40000FC201F000C0E9FF01C0EAFFEFCF00F0C1
:102D500000A407D0460E0001FD6F310EFE6F000E7D
:102D6000FF6F02011E5103E0020E02011F6FE4CF4C
:102D700004F0E4CF03F0E4CF02F0E4CF01F0E4CFBD
:102D800000F0120000C0E5FF01C0E5FF02C0E5FF52
:102D900003C0E5FF04C0E5FF1F0E0501401542C555
:102DA00001F0020A01E046D00F0E05014415006E45
:102DB000800E4415026E0150D8A43CD00050D8B407
:102DC00039D0010E02011E6F000E016E040E036E5B
:102DD000E56A0050E56EE56A080EE56E38EC19F01C
:102DE000006EF3CF04F0040EE1260050012402012E
:102DF0000E6F045003200F6F025004E0040E0E27E4
:102E000001E30F2B05014151030A03E1840E006E1B
:102E100007D00250010A02E1006A02D0880E006E5B
:102E20000EC201F00FC202F001C0E9FF02C0EAFFCA
:102E300000C0EFFFE4CF04F0E4CF03F0E4CF02F0F2
:102E4000E4CF01F0E4CF00F01200D9CFE5FFE1CFED
:102E5000D9FF00C0E5FF01C0E5FF02C0E5FF03C0E8
:102E6000E5FF04C0E5FF05C0E5FF06C0E5FF020E73
:102E7000DBCF00F0030EDBCF01F0040EDBCF02F05E
:102E8000050EDBCF03F0060EDBCF04F0070EDBCF21
:102E900005F0080EDBCF06F0D88003AED89015E31E
:102EA00006500A0A12E104C0E9FF05C0EAFF2D0E30
:102EB000EF6E044A052A031E021E011E006C05E186
:102EC000012A03E1022AD8B4032A0650E56E055010
:102ED000E56E0450E56E0350E56E0250E56E01505C
:102EE000E56E0050E56EC1EC11F0070EE126E4CF6F
:102EF00006F0E4CF05F0E4CF04F0E4CF03F0E4CF34
:102F000002F0E4CF01F0E4CF00F0E4CFD9FF1200EB
:102F100000C0E5FF01C0E5FF02C0E5FF03C0E5FF1B
:102F200004C0E5FF100E02011F5D03E21FC200F0A6
:102F300002D0100E006EFC0E04010415046F005048
:102F40000401056F800E066F050E076F0050020129
:102F50001F5F800E02010E6F050E0F6F00C01CF286
:102F60001CC200F002011C07005024E00EC200F059
:102F70000FC201F0FDC002F0FEC003F0FFC004F07C
:102F800002C0F6FF03C0F7FF04C0F8FF0900F5CF49
:102F900002F00001FD2B03E3FE3F01D0FF2B00C038
:102FA000E9FF01C0EAFF02C0EFFF02010E3F01D0BE
:102FB0000F2BD6D7E4CF04F0E4CF03F0E4CF02F038
:102FC000E4CF01F0E4CF00F0120000C0E5FF01C043
:102FD000E5FF0201296B02012A6B0201346B020139
:102FE0002B6B02012C6B02012D6B02012E6B020177
:102FF0002F6B080EB86EE56A2F0EE56E3E0ED1EC13
:1030000019F0E652E65202013C83CA6ACA82CA80BB
:10301000CB68CA84AB9894909D9A0201306BC00E25
:1030200002013025006E016A000E012200C0E9FF96
:1030300001C0EAFFEF6AD00E3025006E016A000E73
:10304000012200C0E9FF01C0EAFFEF6A302B100E39
:10305000305DE5E3040E0201316F010E0201326FB3
:10306000020E0201336F9D929F829F889F8AF28E8B
:10307000E4CF01F0E4CF00F0120011EEFFF021EEFA
:10308000FFF0F86AA68EA69CE9680E0EEA6E00684C
:10309000ED6A0050FDE1C80EF66E3A0EF76E000EB6
:1030A000F86E0900F5CF05F00900F5CF06F034D031
:1030B0000900F5CF00F00900F5CF01F00900F5CFC8
:1030C00002F009000900F5CFE9FF0900F5CFEAFF9A
:1030D000090009000900F5CF03F00900F5CF04F05D
:1030E00009000900F6CF07F0F7CF08F0F8CF09F094
:1030F00000C0F6FF01C0F7FF02C0F8FF03D00900CF
:10310000F5CFEEFF0306FBE20406F9E207C0F6FF87
:1031100008C0F7FF09C0F8FF0506CAE20606C8E2C4
:1031200088EC19F0FFD71201000202000010D80449
:1031300062EF0001010000010A0600020200001017
:10314000010000000001010001000902430002012A
:1031500000C0320904000001020201000524001031
:1031600001052401010104240202052406000107CF
:1031700005810308000A09040100020A0000020791
:10318000050202400000070582024000000004031F
:10319000090416034D006500740061006C007500A1
:1031A0002E006E006500740020034600720061006E
:1031B000690073006500200050006900650064002C
:1031C0002000550053004200802500000000080048
:1031D00000C0E5FF006A6FBE002A0050010A09E046
:1031E0000201205106E0006A6DB2002A0050010A77
:1031F00001E13BD068A01CD069A01AD06A6A686A55
:103200009F0E6B6E2B0E696E6E6A160E706E006AE4
:1032100068B6002A0050010A02E16896F8D76D9856
:10322000EDEC1CF002011B6B030E0201206F689095
:1032300068AC02D069BC689C68AA0CD069AA0AD0A4
:10324000006A70B0002A0050010A03E1EDEC1CF0A6
:103250007090689A68A202D069B2689268A605D098
:1032600069A603D009EC0EF06896E4CF00F01200D6
:10327000D9CFE5FFE1CFD9FF00C0E5FF01C0E5FFF1
:1032800002C0E5FF03C0E5FF020EDBCF00F0030E36
:10329000DBCF01F0040EDBCF02F0050EDBCF03F035
:1032A00000500201146F0150156F02500201166F99
:1032B0000350176F0201145102011603F4CF01F0FD
:1032C000F3CF00F000500201186F0150196F020196
:1032D000145102011703F3CF00F00201155102014E
:1032E0001603F3CF01F00150002602011951002608
:1032F0000050196F19C2F3FF1851E4CF03F0E4CF67
:1033000002F0E4CF01F0E4CF00F0E4CFD9FF1200E7
:10331000F9EC1BF08B948B920201036B046B2F0E64
:10332000056F58EC1CF08B84D08EA29AF28CF28E32
:1033300002012051050A02E08B82FAD7E5EC17F072
:103340000201295121E1BDEC1CF0006E00501CE08F
:1033500061EC1BF0006E0A0A04E1010E0201296F04
:1033600013D03F0E02012A5DEEE22AC201F02A2BA1
:10337000026AC00E0126060E022201C0E9FF02C049
:10338000EAFF00C0EFFFDFD7006A68BC002A0050E8
:10339000010A03E1EAEC1AF0689CE2EC10F0D0D7E5
:1033A0001200D9CFE5FFE1CFD9FF00C0E5FF01C092
:1033B000E5FF02C0E5FF006E020EDBCF01F0030E59
:1033C000DBCF02F0AC6AAB6A00B0AC8800A202D0DE
:1033D000AC8CAB8C00A401D0AC8E00A602D0AB8824
:1033E00001D0AB8A00A803D0AC84B88601D0B896CF
:1033F0009E9800AC02D09D8A01D09D9A9E9A00AE04
:1034000002D09D8801D09D980250B06E0150AF6EE1
:10341000948C948EAC8AAB8EE4CF02F0E4CF01F0B2
:10342000E4CF00F0E4CFD9FF1200D9CFE5FFE1CF20
:10343000D9FF00C0E5FF01C0E5FF02C0E5FF020EB5
:10344000D924006E000EDA20016E800E026E030E8B
:103450000026000E012202220250E56E0150E56EA8
:103460000050E56E040EDBCFE5FF030EDBCFE5FF7A
:10347000020EDBCFE5FF02010551E56E0451E56E5A
:103480000351E56ED7EC04F0006EF3CF01F0090EA6
:10349000E12601C0F3FF0050E4CF02F0E4CF01F0D9
:1034A000E4CF00F0E4CFD9FF1200D9CFE5FFE1CFA0
:1034B000D9FF00C0E5FF01C0E5FF02C0E5FF020E35
:1034C000DBCF00F0030EDBCF01F0026A01500201F6
:1034D000115D02E10050105D07E300500201105F32
:1034E0000150115B022AF2D702C000F00201225102
:1034F00002E1025005E00050E56E89EC1AF0E65258
:10350000E4CF02F0E4CF01F0E4CF00F0E4CFD9FF44
:103510001200D9CFE5FFE1CFD9FF00C0E5FF01C020
:10352000E5FF03C0E5FF020EDBCF00F00A0E005CF2
:1035300003E2300E016E0CD00201215103E0410E76
:10354000036E02D0610E036EF60E032603C001F077
:10355000005001260150E56EBBEC1AF0E652010E58
:103560000201226FE4CF03F0E4CF01F0E4CF00F0DA
:10357000E4CFD9FF1200D9CFE5FFE1CFD9FF00C0DA
:10358000E5FF01C0E5FF02C0E5FF03C0E5FF020E55
:10359000DBCF00F000C201F001C202F002C203F072
:1035A00000C0E5FF01C0E9FF02C0F3FF035041EC9A
:1035B0001DF00201002B03E3013F01D0022BE4CFF9
:1035C00003F0E4CF02F0E4CF01F0E4CF00F0E4CF69
:1035D000D9FF120000C0E5FF28C200F00201282B2D
:1035E0000050C80A13E10201286B006A8BB2002A5E
:1035F0000050D880E866D890006A00360050010B71
:10360000E844F46E8B50FD0BF4108B6E02013B29E5
:10361000006E00C03BF2005002E1FF0E3B69E4CFB8
:1036200000F01200D8CFE5FFE0CFE5FFE56EF3CF65
:10363000E5FFF4CFE5FFE9CFE5FFEACFE5FFFACFFD
:10364000E5FFFBCFE5FFA1AA03D0E8EC18F0A19AB3
:10365000E4CFFBFFE4CFFAFFE4CFEAFFE4CFE9FFDA
:10366000E4CFF4FFE4CFF3FFE450E4CFE0FFE4CF96
:10367000D8FF100000C0E5FF01C0E5FF02C0E5FF74
:10368000006EA6EC1BF0016E0150FBE1F9C001F0E9
:103690000001F92B026A200E0126040E022201C04D
:1036A000E9FF02C0EAFF00C0EFFF400EF95DD8B0AD
:1036B0005DEC1DF0E4CF02F0E4CF01F0E4CF00F0C8
:1036C000120000C0E5FF01C0E5FFBDEC1CF0006E7C
:1036D0000050FBE0FAC000F00001FA2B016A000E76
:1036E0000026050E012200C0E9FF01C0EAFFEFCF6E
:1036F00000F0040111510001FA5DD8B0FCEC1CF09F
:103700000050E4CF01F0E4CF00F01200E8AE0AD0A0
:10371000F3CFEAFFEE50EECFF3FFEECFF4FFEECFA4
:10372000E9FF1200E8BC7EEF1DF0E9CFF6FFF3CF12
:10373000F7FFF86E0900F5500900F5CFF3FF090017
:10374000F5CFF4FF0900F5CFE9FF120000C0E5FF57
:1037500001C0E5FF14C400F0016A800E0016016A82
:1037600000500110D880E866D890006A00360050FA
:10377000D880E866D890006A00360050E4CF01F0A7
:10378000E4CF00F01200F3CFE5FFF4CFE5FFE9CF7F
:10379000E5FFEACFE5FFFACFE5FFFBCFE5FF77ECEA
:1037A0000FF0E4CFFBFFE4CFFAFFE4CFEAFFE4CF72
:1037B000E9FFE4CFF4FFE4CFF3FF1100E8AE08D057
:1037C000F3CFEAFFEE50EECFF3FFEECFF4FF12009F
:1037D000E8BC7AEF1DF0E9CFF6FFF3CFF7FFF86E04
:1037E0000900F5500900F5CFF3FF0900F5CFF4FF0C
:1037F000120000C0E5FF8B6A94689492006A94B24C
:10380000002A0050010BE844E844F46E9450FB0B8E
:10381000F410946E8B948B9294808B90E4CF00F094
:103820001200F2CFF6FFF29EA69EA69CE9CFA9FF5A
:10383000A680A850A92AA680A8CFF3FFA92AA6800F
:10384000A8CFF4FFA92AA680A8CFEAFFF6BEF28E81
:103850001200F2CFEAFFF29EA69EA69CA684E9CFB4
:10386000A9FFE4CFA8FF55EC1DF0F4CFA8FF55EC5D
:103870001DF0F6CFA8FF55EC1DF0A694EABEF28E1F
:103880001200D9CFE5FFE1CFD9FF00C0E5FF020E5E
:10389000DBCF00F0610E005C05E37B0E005C02E212
:1038A000010E01D0E86AE4CF00F0E4CFD9FF1200A6
:1038B000140E6F6E0201206B02011B6B6DB606D0F9
:1038C0006D6A696A6D86010E0201206F686A696A15
:1038D0006980020E0201206FA08A1200E8AE06D0B5
:1038E000F3CFEAFFEE50EECFF3FF1200E8BC78EF23
:1038F0001DF0E9CFF6FFF3CFF7FFF86E0900F550A2
:103900000900F5CFF3FF120000C0E5FF006E005084
:103910000CE000500401156F040114AD03D0880EB3
:10392000146F03D0C80E0401146FE4CF00F012002E
:10393000F2CFF6FFF29EA69EA69CE9CFA9FFA68035
:10394000A850A92AA680A8CFF3FFA92AA680A8CFAD
:10395000F4FFF6BEF28E1200E8AE04D0F3CFEAFF19
:10396000EE501200E8BC76EF1DF0E9CFF6FFF3CF82
:10397000F7FFF86E0900F5501200040110AF02D0F5
:10398000E86A0AD0040111510001FA5D04E3FCEC7D
:103990001CF0E86A01D0010E1200F2CFF6FFF29E91
:1039A000A69EA69CE9CFA9FFA680A850A92AA6801A
:1039B000A8CFF3FFF6BEF28E1200F2CFEAFFF29E1E
:1039C000A69EA69CA684E9CFA9FFE4CFA8FF55EC4C
:1039D0001DF0A694EABEF28E120002011D6B100EBD
:1039E0000401016F400E026F050E036F880E040183
:1039F000006F046B6D9812000001FA6B400E040119
:103A0000116F040110AD03D0880E106F03D0C80EE3
:103A10000401106F1200E8AE09D0F3CFEAFFE4CF43
:103A2000EEFFF4CFEEFFF6CFEEFF1200E8BC80EF22
:103A30001DF01200D9CFE5FFE1CFD9FF020EDBCF99
:103A4000A9FFA69CA69EA680A850E4CFD9FF12008D
:103A500000C0E5FF006E3AEC1BF000500A0A02E1DC
:103A60005DEC1DF0E4CF00F01200F2CFF6FFF29E05
:103A7000A69EA69CE9CFA9FFA680A850F6BEF28E0E
:103A80001200E8AE05D0F3CFEAFFE4CFEEFF12005C
:103A9000E8BC7CEF1DF01200ACA2FED7AE50AB9894
:103AA000AB889D8A9D9894801200550EA76EAA0E31
:103AB000A76EA682A6B2FED7A94A0001F95184ECEE
:103AC0001CF00001F96B12000100E43A0000F9005B
:103AD000000004000000ACA2FED7AD6E1200E8CFDB
:103AE0007FFF120000000000C96E120035EF1DF0CC
:103AF000CDEF1CF098EF1CF0DDEF1CF011EF1CF087
:043B000029EF1CF09D
:020000040030CA
:04000000200E301E80
:020005008380F6
:060008000FC00FE00F40E5
:00000001FF
