:020000040000FA
:10000000C9EF13F0C96E120093EF10F09AEC0DF0E7
:100010000CEC0AF0FDD7120001EF12F0D9CFE5FF8A
:10002000E1CFD9FF00C0E5FF01C0E5FF02C0E5FF59
:1000300003C0E5FF04C0E5FF05C0E5FF06C0E5FF1E
:1000400007C0E5FF08C0E5FF09C0E5FF0AC0E5FFFE
:100050000BC0E5FF0CC0E5FF0DC0E5FF0EC0E5FFDE
:100060000FC0E5FF10C0E5FF11C0E5FF12C0E5FFBE
:1000700013C0E5FF14C0E5FF15C0E5FF16C0E5FF9E
:1000800017C0E5FF18C0E5FF19C0E5FF1AC0E5FF7E
:100090001BC0E5FF1CC0E5FF1DC0E5FF1EC0E5FF5E
:1000A000020EDBCF00F0030EDBCF01F0040EDBCF3E
:1000B00002F0050EDBCF03F0060EDBCF04F0070ED7
:1000C000DBCF05F0080EDBCF06F0090EDBCF07F023
:1000D0000A0EDBCF08F0096A0A6A02C00DF00D5063
:1000E000800A0DE102500F01356F0150346F00504E
:1000F000336F0F0E016E330E006E800E026E03C062
:10010000E9FF04C0F3FF055013EC14F00B6E0B5025
:10011000D8B4C4EF03F00B50250A02E0ABEF03F0B4
:100120000C6A0D6A0E6A0F6A106A0A0E116E126A64
:10013000136A146A200E156E1668176A2B0E186E55
:10014000032A02E3044A052A03C0E9FF04C0F3FFBF
:10015000055013EC14F0196E250A13E11950E56EE1
:100160000250E56E0150E56E0050E56E80EC09F03E
:10017000040EE126094A0A2A032A02E3044A052A50
:10018000BED71950300A06E1300E156E032A02E37D
:10019000044A052A03C0E9FF04C0F3FF055013EC2D
:1001A00014F02D0A06E1010E146E032A02E3044A3C
:1001B000052A03C0E9FF04C0F3FF055013EC14F057
:1001C000200A08E1010E176E200E186E032A02E3C2
:1001D000044A052A03C0E9FF04C0F3FF055013ECED
:1001E00014F02B0A06E1010E176E032A02E3044AFB
:1001F000052A03C0E9FF04C0F3FF055013EC14F017
:10020000196E310E195C2BE33A0E195C28E203C01B
:1002100019F004C01AF005C01BF019C0E9FF1AC09C
:10022000F3FF1B5013EC14F01C6E300E1C5C11E33A
:100230003A0E1C5C0EE213500A0DF3CF1DF01C5059
:100240001D26D00E1D24136E192A02E31A4A1B2AFA
:10025000E4D719C003F01AC004F01BC005F003C0B6
:10026000E9FF04C0F3FF055013EC14F02E0A2DE152
:10027000032A02E3044A052A166A03C019F004C0DF
:100280001AF005C01BF019C0E9FF1AC0F3FF1B509C
:1002900013EC14F01C6E300E1C5C11E33A0E1C5C67
:1002A0000EE216500A0DF3CF1DF01C501D26D00E85
:1002B0001D24166E192A02E31A4A1B2AE4D719C014
:1002C00003F01AC004F01BC005F003C0E9FF04C02E
:1002D000F3FF055013EC14F0196E6C0A07E1010EE0
:1002E0000C6E032A02E3044A052A09D01950680A51
:1002F00006E1010E0E6E032A02E3044A052A03C03A
:10030000E9FF04C0F3FF055013EC14F0750A06E191
:10031000010E106E032A02E3044A052A03C0E9FF16
:1003200004C0F3FF055013EC14F0196E730A05E1D5
:10033000010E0D6E200E156E3FD01950780A03E1A4
:10034000100E116E39D01950580A05E1100E116EB9
:10035000010E126E31D01950630A02E1116A2CD0DD
:1003600019506F0A03E1080E116E26D01950660A63
:1003700003E1010E0F6E20D01950640A1DE01950E0
:10038000690A1AE0105005E0FF0E03260422052238
:1003900013D01950E56E0250E56E0150E56E005025
:1003A000E56E80EC09F0040EE126094A0A2A032AC8
:1003B00002E3044A052AA3D60D5021E00650030F9C
:1003C0000D6E000E0720196E000E08201A6E0DC06B
:1003D00006F019C007F01AC008F0FD0E0D26FF0E3A
:1003E00019221A220DC0E9FF19C0F3FF1A50C4ECFC
:1003F00012F00D6EF3CF19F0F4CF1AF0FDD00F50BC
:100400000DE0000E1A6E080E196E100E0D6E040E21
:100410000626000E072208221668EED016680C5039
:1004200023E00650040F0C6E000E07200F6E000E26
:1004300008201B6E0CC006F00FC007F01BC008F0B0
:10044000FC0E0C26FF0E0F221B220CC0E9FF0FC072
:10045000F3FF1B504AEC12F00C6EF3CF0FF0F4CF09
:100460001BF0E9CF1CF067D00E502FE00650020FB2
:100470000E6E000E07201D6E000E08201E6E0EC0B0
:1004800006F01DC007F01EC008F0FE0E0E26FF0E7F
:100490001D221E220EC0E9FF1DC0F3FF1E509DEC61
:1004A00013F00E6E0EC00CF00F6A1B6A1C6A11501E
:1004B0000A0A03E11050D8B43ED00C500E6E0EC0A4
:1004C0000CF00F6A1B6A1C6A36D00650020F0E6EC3
:1004D000000E07201D6E000E08201E6E0EC006F0D6
:1004E0001DC007F01EC008F0FE0E0E26FF0E1D22D6
:1004F0001E220EC0E9FF1DC0F3FF1E509DEC13F03D
:100500000E6EF3CF1DF00EC00CF01DC00FF0E86AA8
:100510001DBEFF0E1B6E1C6E11500A0A02E1105028
:100520000AE00C500E6E0F501D6E0EC00CF01DC078
:100530000FF01B6A1C6A0F0E196E240E0D6E800ED2
:100540001A6E1150D8B440D0105013E01150E56E1F
:100550000F0EE56E240EE56E1C50E56E1B50E56E29
:100560000F50E56E0C50E56E2DEC05F0070EE12600
:1005700012D01150E56E0F0EE56E240EE56E1C5084
:10058000E56E1B50E56E0F50E56E0C50E56EDAEC33
:100590000CF0070EE12617502FE00DC0E9FF19C03F
:1005A000F3FF1A5013EC14F02D0A26E0FF0E0D266F
:1005B00019221A2218C0E5FF0DC0E9FF19C0F3FF88
:1005C0001A508CEC14F018D00CC0E5FF0DC0E9FFF8
:1005D00019C0F3FF1A508CEC14F00D50010F0C6E83
:1005E000000E19200E6E000E1A20E56A0CC0E9FFFD
:1005F0000EC0F3FF8CEC14F00DC00CF019C00EF01F
:100600001AC00FF013C010F0105010E00CC0E9FF3A
:100610000EC0F3FF0F5013EC14F0176E175006E0E6
:100620000C2A02E30E4A0F2A1006EED710C013F070
:1006300014501EE109C00CF00AC00EF010C00FF0FB
:100640000F5010E01550E56E0250E56E0150E56E5A
:100650000050E56E80EC09F0040EE1260C4A0E2AEB
:100660000F06EED70CC009F00EC00AF00FC013F051
:1006700016C00CF00DC00DF019C00EF01AC00FF02E
:1006800009C010F00AC015F00DC0E9FF0EC0F3FF5D
:100690000F5013EC14F0166E1650D8B43ED00CC0A8
:1006A00016F0176A161E171E1650171005E00CC01C
:1006B00016F00C06165031E00DC0E9FF0EC0F3FF36
:1006C0000F5013EC14F0116E125010E01150E56E43
:1006D0005AEC13F0166EE652165004E0DF0E1114B9
:1006E000166E02D011C016F016C011F01150E56E52
:1006F0000250E56E0150E56E0050E56E80EC09F0A9
:10070000040EE1260D2A02E30E4A0F2A104A152A8A
:100710001350D8B4B9D71306B7D710C009F015C015
:100720000AF014502BE010C00CF015C00DF013C0EF
:100730000EF00E501FE0200EE56E0250E56E0150E7
:10074000E56E0050E56E80EC09F0040EE1260C4ADF
:100750000D2A0E06EED70B50E56E0250E56E0150E5
:10076000E56E0050E56E80EC09F0040EE126094AC2
:100770000A2A04D00CC009F00DC00AF0032A02E3D3
:10078000044A052A7FEF00F00AC0F3FF0950E4CFC6
:100790001EF0E4CF1DF0E4CF1CF0E4CF1BF0E4CF5B
:1007A0001AF0E4CF19F0E4CF18F0E4CF17F0E4CF5B
:1007B00016F0E4CF15F0E4CF14F0E4CF13F0E4CF5B
:1007C00012F0E4CF11F0E4CF10F0E4CF0FF0E4CF5B
:1007D0000EF0E4CF0DF0E4CF0CF0E4CF0BF0E4CF5B
:1007E0000AF0E4CF09F0E4CF08F0E4CF07F0E4CF5B
:1007F00006F0E4CF05F0E4CF04F0E4CF03F0E4CF5B
:1008000002F0E4CF01F0E4CF00F0E4CFD9FF120012
:100810003C4E4F20464C4F41543E000000C0E5FF87
:1008200001C0E5FF02C0E5FF03C0E5FF04012E5152
:10083000D8B40AD19DA81DD09EA81BD004014C514C
:100840000401491905E141EC14F00401496BFCD0A5
:10085000000E04014C25006E016A040E012200C046
:10086000E9FF01C0EAFFEFCF45F44C2B45C4ADFFD3
:10087000EBD09EAAE9D0ABA205D004014A8141EC9D
:1008800014F0E2D0ABA405D004014A8341EC14F08B
:10089000DBD0ABA048D0AECF45F42FC400F0016A46
:1008A000008E45C402F0036A0250001803E10350B1
:1008B000011801E004D004014A89AB96C5D00401B7
:1008C000455104E0455104012F1929E104014A99D9
:1008D000AB960401455103E004014A9702D004019C
:1008E0004A8745C44EF447C44FF404014751006E93
:1008F00000040401506F600E04014F25006E016A70
:10090000000E012200C0E9FF01C0EAFF45C4EFFF6D
:100910004F2B4F51800A02E104014F6B95D0040127
:100920004A99AB8691D0AECF45F404014AA921D0B3
:100930002FC400F0016A008E45C402F0036A025021
:10094000001803E10350011801E011D08B909D9A2B
:10095000AB980401495104E1AD6A41EC14F007D0B1
:1009600000C4ADFF010E04014C6F9D886DD0AB86B5
:100970006BD00401455104014E2704014F5104017D
:1009800050191BE104014E510CE14FC447F404011E
:100990004AB712D08B909D9AAB98AD6A41EC14F097
:1009A0000BD004014A854AB707D08B909D9AAB982B
:1009B000010EAD6E41EC14F047D004014F5104011B
:1009C000481908E1040148510401471903E041ECCA
:1009D00014F03AD047C400F0016A004A012AE56ADF
:1009E000800EE56E0150E56E0050E56E9AEC0BF05E
:1009F000006E040EE12600500401466F04014F19F9
:100A00000FE145C400F01F0E00140401506F006E8A
:100A1000020E0024506F0401475104015027509FDB
:100A20004FC400F004014F2B016A600E0026000E37
:100A3000012200C0E9FF01C0EAFF45C4EFFF4F51AA
:100A4000800A02E104014F6BE4CF03F0E4CF02F02F
:100A5000E4CF01F0E4CF00F01200D9CFE5FFE1CF01
:100A6000D9FF00C0E5FF01C0E5FF02C0E5FF03C0FC
:100A7000E5FF04C0E5FF05C0E5FF06C0E5FF07C0D0
:100A8000E5FF08C0E5FF09C0E5FF0AC0E5FF0BC0B0
:100A9000E5FF0CC0E5FF0DC0E5FF0EC0E5FF0FC090
:100AA000E5FF020EDBCF00F0030EDBCF01F0040EFA
:100AB000DBCF02F0050EDBCF03F0060EDBCF04F038
:100AC000070EDBCF05F0080EDBCF06F0200E076E19
:100AD000086A06C009F00A6A0B6A0C6AE56AE56AE8
:100AE000E56A0950E56E0350E56E0250E56E01506F
:100AF000E56E0050E56E09EC06F00D6E080EE1267D
:100B0000300E0D263A0E0D5C05E30D500E6E270ECD
:100B10000E240D6EFF0E07260822E00E07240E6E2F
:100B2000000E08200F6E0EC0E9FF0FC0EAFF0DC0D7
:100B3000EFFF0C50E56E0B50E56E0A50E56E095064
:100B4000E56E0350E56E0250E56E0150E56E005013
:100B5000E56ED6EC07F0006EF3CF01F0F4CF02F0B3
:100B6000E9CF03F0080EE126005001100210031037
:100B7000D8A4AFD707C000F008C001F004C002F04D
:100B800005C003F000C004F001C005F0004A012ACE
:100B9000E00E0426000E052204C0E9FF05C0EAFFAE
:100BA000EFCF04F002C0E9FF03C0EAFF04C0EFFF8B
:100BB000024A032A000E015C02E1200E005CE2E31F
:100BC00002C0E9FF03C0EAFF000EEF6AE4CF0FF0B6
:100BD000E4CF0EF0E4CF0DF0E4CF0CF0E4CF0BF057
:100BE000E4CF0AF0E4CF09F0E4CF08F0E4CF07F057
:100BF000E4CF06F0E4CF05F0E4CF04F0E4CF03F057
:100C0000E4CF02F0E4CF01F0E4CF00F0E4CFD9FF6D
:100C10001200D9CFE5FFE1CFD9FF00C0E5FF01C049
:100C2000E5FF02C0E5FF03C0E5FF04C0E5FF05C026
:100C3000E5FF06C0E5FF07C0E5FF08C0E5FF09C006
:100C4000E5FF0AC0E5FF020EDBCF00F0030EDBCFAD
:100C500001F0040EDBCF02F0050EDBCF03F0060E31
:100C6000DBCF04F0070EDBCF05F0080EDBCF06F07C
:100C7000090EDBCF07F0086A0450051006100710B4
:100C800005E1E968F468F368E86847D0096A075045
:100C9000800BE8440A6E0A501BE104500426053616
:100CA000063607360750035C08E10650025C05E192
:100CB0000550015C02E10450005C06E2D890073266
:100CC00006320532043204D0092A09C008F0DFD701
:100CD0000750035C08E10650025C05E10550015C29
:100CE00002E10450005C08E30450005E0550015A24
:100CF0000650025A0750035AD8900732063205327E
:100D0000043208C009F008060950E2E103C0E9FF17
:100D100002C0F4FF01C0F3FF0050E4CF0AF0E4CFBB
:100D200009F0E4CF08F0E4CF07F0E4CF06F0E4CF19
:100D300005F0E4CF04F0E4CF03F0E4CF02F0E4CF19
:100D400001F0E4CF00F0E4CFD9FF120000C0E5FFCE
:100D500001C0E5FF02C0E5FF03C0E5FF04C0E5FFF9
:100D6000040148510401471901E16DD048C400F065
:100D70000050016E0128006E009E600E0024016E7E
:100D8000026A000E022201C0E9FF02C0EAFFEFCFB3
:100D900052F41F0E0401521748C451F45251040179
:100DA00051275151016E020E0124516F519F8AEC5F
:100DB00011F0016E015003E1016A012A01D0016ABC
:100DC0008AEC11F00401526F52C402F0800E021638
:100DD00052C403F01F0E031603C004F003C052F404
:100DE000045003E147C448F441D0015021E00250CF
:100DF00028E08AEC11F0006E04015251016E0104EA
:100E0000526F0050420A03E16AEC14F01AD000500D
:100E10004E0A03E1E4EC0EF014D00050460A03E160
:100E200081EC14F00ED00050490A0BE1FF0009D00C
:100E300048C453F4025003E094EC0AF002D0DFEC13
:100E400012F051C448F404012B5104012C1906E09E
:100E50000401495103E141EC07F008D08BB006D002
:100E60000401495103E1ACB241EC14F0E4CF04F0C9
:100E7000E4CF03F0E4CF02F0E4CF01F0E4CF00F0E0
:100E8000120000C0E5FF01C0E5FF02C0E5FF03C09E
:100E9000E5FF04C0E5FFACA27ED06AEC12F0006E64
:100EA000005005E104012C6B04012B6B74D02CC4A1
:100EB00001F0005001266AEC12F0026E0050036E41
:100EC0000304006E0250230A1FE1010E005CD8A04B
:100ED00060D06AEC12F0026E690A03E130EC11F0A6
:100EE00058D00250720A03E141EC14F052D0025083
:100EF000730A01E04ED08B80AB869D8A9D98AE50E0
:100F0000AE50AB98AB8845D00250430A05E0025082
:100F1000420A01E03ED006D000C003F0046A038E0E
:100F20000350006E00C04BF400500401006F010E2E
:100F300004014C6F04012C51011814E06AEC12F00A
:100F4000026E04014B27000E04014C25006E036A5B
:100F5000040E032200C0E9FF03C0EAFF02C0EFFF56
:100F60004C2BE8D7000E04014C25006E026A040EDB
:100F7000022204014B1D036E032A00C0E9FF02C0D8
:100F8000EAFF03C0EFFF04014C2B4CC449F40F01EE
:100F9000366B01C02CF4E4CF04F0E4CF03F0E4CFCF
:100FA00002F0E4CF01F0E4CF00F01200D9CFE5FF6A
:100FB000E1CFD9FF00C0E5FF01C0E5FF02C0E5FFBA
:100FC00003C0E5FF04C0E5FF05C0E5FF06C0E5FF7F
:100FD00007C0E5FF08C0E5FF09C0E5FF0AC0E5FF5F
:100FE0000BC0E5FF0CC0E5FF0DC0E5FF020EDBCF37
:100FF00000F0030EDBCF01F0040EDBCF02F0050E94
:10100000DBCF03F0060EDBCF04F0070EDBCF05F0DD
:10101000080EDBCF06F0090EDBCF07F0086A096A7D
:101020000A6A0B6A200E0C6E0350800BE8440D6EAA
:1010300000500026013602360336085008260936CD
:101040000A360B360D50D8A4088007500B5C08E117
:1010500006500A5C05E10550095C02E10450085C99
:1010600009E30450085E0550095A06500A5A075011
:101070000B5A00800C040D6E0DC00CF00D50D4E125
:1010800003C0E9FF02C0F4FF01C0F3FF0050E4CF4A
:101090000DF0E4CF0CF0E4CF0BF0E4CF0AF0E4CF96
:1010A00009F0E4CF08F0E4CF07F0E4CF06F0E4CF96
:1010B00005F0E4CF04F0E4CF03F0E4CF02F0E4CF96
:1010C00001F0E4CF00F0E4CFD9FF120000C0E5FF4B
:1010D00001C0E5FF03C0E5FF04C0E5FF05C0E5FF73
:1010E00006C0E5FF07C0E5FF08C0E5FF09C0E5FF52
:1010F0000AC0E5FF0BC0E5FF36C400F037C401F0BD
:101100000401363F01D0372B0050E56E33EC14F06C
:10111000E652076E046A056A066A36C400F037C4F0
:1011200001F00401363F01D0372B0050E56E33EC5F
:1011300014F0E6520B6A0A6E086A0850041205128F
:101140000A5006120B50071236C400F037C401F0E3
:101150000401363F01D0372B0050E56E33EC14F01C
:10116000E652036E006A03C001F0E86A03BEFF0E98
:10117000086E096E00500412015005120850061244
:101180000950071236C400F037C401F00401363F9D
:1011900001D0372B0050E56E33EC14F0E652016AB3
:1011A0000412015005120612071207C0E9FF06C01B
:1011B000F4FF05C0F3FF0450E4CF0BF0E4CF0AF0D6
:1011C000E4CF09F0E4CF08F0E4CF07F0E4CF06F075
:1011D000E4CF05F0E4CF04F0E4CF03F0E4CF01F076
:1011E000E4CF00F01200D9CFE5FFE1CFD9FF00C076
:1011F000E5FF01C0E5FF02C0E5FF03C0E5FF04C055
:10120000E5FF05C0E5FF06C0E5FF07C0E5FF020EEC
:10121000DBCF00F0030EDBCF01F0040EDBCF02F0DA
:10122000050EDBCF03F003C004F0056A0350D8B409
:1012300054D000C0E9FF01C0F3FF025013EC14F0DA
:10124000066E430A08E1010E056E03C006F0076A48
:10125000068E0650036E0406002A02E3014A022AA3
:101260008B909D9AAB989D989EA8FED7AC80AD6A56
:1012700000009EA8FED7AC9003C0ADFF00009EA862
:10128000FED7055004E0420EAD6E032604D0620E78
:10129000AD6E620E0326045015E000009EA8FED736
:1012A00000C0E9FF01C0F3FF025013EC14F0056E1B
:1012B00005C0ADFF055003260406002A02E3014ADB
:1012C000022AE9D700009EA8FED7031CAD6EAD2A06
:1012D00000009EA8FED741EC14F0E4CF07F0E4CF65
:1012E00006F0E4CF05F0E4CF04F0E4CF03F0E4CF60
:1012F00002F0E4CF01F0E4CF00F0E4CFD9FF120018
:10130000D9CFE5FFE1CFD9FF00C0E5FF01C0E5FF80
:1013100002C0E5FF03C0E5FF04C0E5FF05C0E5FF2F
:1013200006C0E5FF07C0E5FF020EDBCF00F0030EAD
:10133000DBCF01F0040EDBCF02F0050EDBCF03F0B4
:1013400002C006F00650046E800A33E100C0E9FFD7
:1013500001C0F3FF0250C4EC12F0056EF3CF06F0AB
:10136000F4CF07F003C0E5FF05C0E9FF06C0F3FFB7
:1013700007508CEC14F000C0E9FF01C0F3FF0250ED
:10138000C4EC12F0056EF3CF06F0F4CF07F0052A97
:1013900002E3064A072A05C0E5FF06C0F4FF07C0BE
:1013A000F6FF00C0E9FF01C0F3FF025024EC14F087
:1013B00020D004C000F000AA1CD0007A0050046EB7
:1013C00004E10350C3EC14F014D00450010A04E10A
:1013D000035002EC00F00DD004500F0A04E103505A
:1013E000FFEC10F006D004500E0A03E10350D3ECDA
:1013F00014F0E4CF07F0E4CF06F0E4CF05F0E4CF3B
:1014000004F0E4CF03F0E4CF02F0E4CF01F0E4CF46
:1014100000F0E4CFD9FF120000C0E5FF01C0E5FFF6
:1014200002C0E5FF03C0E5FFA6EC06F060EC11F09A
:10143000006EF3CF01F0F4CF02F0E9CF03F0040126
:101440003251005E3351015A3451025A3551035A18
:10145000039E3F0E035C08E1FF0E025C05E1FF0EF8
:10146000015C02E1FF0E005CD8B055D060EC11F0D9
:10147000F3CF01F0F4CF02F0E9CF03F0880F0401BD
:10148000326F130E0120336F000E0220346F000EF6
:101490000320356F04012451006E0028246F0401DD
:1014A00023510401245DD8A036D0246B04012551BA
:1014B000006E0028256F0401265127112CE004013D
:1014C0002851D880E866D890006A00360050286F0E
:1014D000430E0401816F4C0E826F04012851D880A5
:1014E000E866D890006A00360050D880E866D89048
:1014F000006A0036300E002600500401836F030E90
:10150000E56E800EE56E040EE56E810EE56EF3EC81
:1015100008F0040EE126E4CF03F0E4CF02F0E4CFBC
:1015200001F0E4CF00F0120000C0E5FF01C0E5FFCC
:1015300002C0E5FF03C0E5FF04C0E5FF8AEC11F03F
:10154000006E4C0A08E18AEC11F0300A02E08B824E
:1015500063D08B9261D00050450A29E1000EE56E00
:101560001B0EE56EE60EE56E26EC0FF0030EE1268F
:10157000CDEC14F0016E0104006E00C001F001C05A
:1015800002F0010602500FE08AEC11F0E56AE56E08
:10159000000EE56E1B0EE56EE80EE56E26EC0FF014
:1015A000050EE126ECD70A0EFFEC10F035D0005006
:1015B000530A32E1430E0401396FCDEC14F0016E91
:1015C0000104006E0B0E005C02E30A0E006E010EB9
:1015D000016E00C002F00006025012E001C002F0ED
:1015E000012A036A390E0226040E03228AEC11F046
:1015F000046E02C0E9FF03C0EAFF04C0EFFFE9D7B1
:101600000150E56E800EE56E040EE56E390EE56E56
:10161000F3EC08F0040EE126E4CF04F0E4CF03F08D
:10162000E4CF02F0E4CF01F0E4CF00F01200D9CF14
:10163000E5FFE1CFD9FF00C0E5FF01C0E5FF02C033
:10164000E5FF03C0E5FF04C0E5FF05C0E5FF06C0F8
:10165000E5FF07C0E5FF020EDBCF00F0030EDBCF96
:1016600001F0040EDBCF02F0050EDBCF03F02CC43B
:101670002DF404012B5104012D5F2D51046E04043F
:101680002D6F03C004F0056A030E0426D8B0052AA6
:101690002DC406F0076A0750800FF36E0550800FC7
:1016A000F35C02E10450065C02E2E86830D0020E0E
:1016B000035C02E2E86A2BD00350046E0404036E5C
:1016C000E56EE2EC0FF0E652046A0350045C14E2AB
:1016D00004500024056EE86A0120066EE86A0220C4
:1016E00005C0E9FF06C0F3FF13EC14F0042AE56E11
:1016F000E2EC0FF0E652E9D72CC42DF404012B5193
:1017000004012D5F2D51006E00042D6FE86AE4CFB7
:1017100007F0E4CF06F0E4CF05F0E4CF04F0E4CF27
:1017200003F0E4CF02F0E4CF01F0E4CF00F0E4CF27
:10173000D9FF1200D9CFE5FFE1CFD9FF00C0E5FF07
:1017400001C0E5FF02C0E5FF03C0E5FF04C0E5FFFF
:1017500005C0E5FF06C0E5FF020EDBCF00F0030E7B
:10176000DBCF01F0040EDBCF02F0050EDBCF03F080
:10177000D88001AED890046A0436045007E0011CFA
:10178000066E001C056E054A062A04D000C005F04E
:1017900001C006F0D88003AED89007E3031C016EA9
:1017A000021C006E004A012A04D002C000F003C0EF
:1017B00001F00150E56E0050E56E0650E56E0550F3
:1017C000E56E3DEC0DF0006EF3CF01F0040EE12666
:1017D00004500AE0011C036E001C026E024A032A38
:1017E00003C0F3FF025003D001C0F3FF0050E4CF69
:1017F00006F0E4CF05F0E4CF04F0E4CF03F0E4CF4B
:1018000002F0E4CF01F0E4CF00F0E4CFD9FF120002
:10181000D9CFE5FFE1CFD9FF00C0E5FF01C0E5FF6B
:1018200002C0E5FF03C0E5FF04C0E5FF05C0E5FF1A
:10183000020EDBCF00F0030EDBCF01F0040EDBCF96
:1018400002F0050EDBCF03F036C404F037C405F018
:101850000401363F01D0372B0350E56E0450E56E8E
:1018600026EC12F0E652E65236C404F037C405F016
:101870000401363F01D0372B0250056EE56E04504F
:10188000E56E26EC12F0E652E65236C404F037C498
:1018900005F00401363F01D0372B0150E56E0450AE
:1018A000E56E26EC12F0E652E65236C404F037C478
:1018B00005F00401363F01D0372B0050E56E04508F
:1018C000E56E26EC12F0E652E652E4CF05F0E4CFE6
:1018D00004F0E4CF03F0E4CF02F0E4CF01F0E4CF72
:1018E00000F0E4CFD9FF1200D9CFE5FFE1CFD9FF57
:1018F00000C0E5FF01C0E5FF02C0E5FF03C0E5FF52
:1019000004C0E5FF05C0E5FF06C0E5FF020EDBCF22
:1019100000F0030EDBCF01F0040EDBCF02F0040178
:10192000915119E166EC08F0036EF3CF04F0F4CFA7
:1019300005F0E9CF06F003C0E5FF04C0F4FF05C0E1
:10194000F6FF06C0F7FF00C0E9FF01C0F3FF025039
:1019500002EC14F01ED004019151010A1AE100C0FA
:10196000E9FF01C0F3FF02504AEC12F0006EF3CF22
:1019700001F0F4CF02F0E9CF03F00350E56E02501E
:10198000E56E0150E56E0050E56E08EC0CF0040EBB
:10199000E126E4CF06F0E4CF05F0E4CF04F0E4CF95
:1019A00003F0E4CF02F0E4CF01F0E4CF00F0E4CFA5
:1019B000D9FF1200D9CFE5FFE1CFD9FF00C0E5FF85
:1019C00001C0E5FF02C0E5FF03C0E5FF04C0E5FF7D
:1019D00005C0E5FF06C0E5FF020EDBCF00F0030EF9
:1019E000DBCF01F0040EDBCF02F0050EDBCF03F0FE
:1019F000060EDBCF04F0070EDBCF05F0080EDBCFC1
:101A000006F0D88003AED89015E306500A0A12E11A
:101A100004C0E9FF05C0EAFF2D0EEF6E044A052A57
:101A2000031E021E011E006C05E1012A03E1022AC9
:101A3000D8B4032A0650E56E0550E56E0450E56EF5
:101A40000350E56E0250E56E0150E56E0050E56E04
:101A50002DEC05F0070EE126E4CF06F0E4CF05F00B
:101A6000E4CF04F0E4CF03F0E4CF02F0E4CF01F0E0
:101A7000E4CF00F0E4CFD9FF1200D9CFE5FFE1CFEA
:101A8000D9FF00C0E5FF01C0E5FF02C0E5FF03C0CC
:101A9000E5FF04C0E5FF05C0E5FF06C0E5FF020E57
:101AA000DBCF00F0030EDBCF01F0040EDBCF02F042
:101AB000050EDBCF03F0046A056A0350800BE8448F
:101AC000066E065011E10250022603360350015CF7
:101AD00002E10250005C04E2D8900332023204D0EA
:101AE000052A05C004F0E9D70350015C02E1025069
:101AF000005C04E30250005E0350015AD8900332A8
:101B0000023204C005F004060550EEE101C0F3FF07
:101B10000050E4CF06F0E4CF05F0E4CF04F0E4CFCA
:101B200003F0E4CF02F0E4CF01F0E4CF00F0E4CF23
:101B3000D9FF120000C0E5FF01C0E5FF02C0E5FFCC
:101B400003C0E5FF05C0E5FFBEEC14F094928B9254
:101B500060EC11F0F3CF01F0F4CF02F0E9CF03F025
:101B6000880F0401326F130E0120336F000E022024
:101B7000346F000E0320356F9280800E006E0F0EC2
:101B8000016E0F0E036E380E002603500122800EE8
:101B9000026E0F0E036E800E005E0350015A0F0E90
:101BA000056E380E0226055003220F0E056E800EBC
:101BB000025E0550035A02C0E9FF03C0EAFFEFCFFF
:101BC00002F0029000C0E9FF01C0EAFF02C0EFFF8F
:101BD000E4CF05F0E4CF03F0E4CF02F0E4CF01F06E
:101BE000E4CF00F0120043002563000000C0E5FFD1
:101BF00001C0E5FF02C0E5FF03C0E5FF48C400F0F7
:101C0000016A53C402F0036A0250005E0350015A95
:101C1000E56A800EE56E0150E56E0050E56E9AECC7
:101C20000BF0006E040EE126000653C401F0430ED3
:101C3000FFEC10F0200EFFEC10F0005020E0600EE2
:101C40000124026E036A000E032202C0E9FF03C0F2
:101C5000EAFFEFCF02F0E56A0250E56E000EE56E96
:101C6000280EE56E9A0EE56E26EC0FF0050EE126C5
:101C7000012A0150800A01E1016A0006DED7E4CFA3
:101C800003F0E4CF02F0E4CF01F0E4CF00F0120063
:101C9000D9CFE5FFE1CFD9FF00C0E5FF01C0E5FFE7
:101CA00002C0E5FF03C0E5FF04C0E5FF020EDBCF85
:101CB00000F0030EDBCF01F0040EDBCF02F00401D5
:101CC000915111E1CBEC10F0036EF3CF04F003C09F
:101CD000E5FF04C0F4FF00C0E9FF01C0F3FF0250BC
:101CE0005DEC14F016D004019151010A12E100C01C
:101CF000E9FF01C0F3FF02509DEC13F0006EF3CF3B
:101D000001F00150E56E0050E56EA5EC0FF0E652D3
:101D1000E652E4CF04F0E4CF03F0E4CF02F0E4CFE6
:101D200001F0E4CF00F0E4CFD9FF12006E0EF66EA2
:101D3000290EF76E000EF86E0900F550056E0900C9
:101D4000F550066E04E1056702D0E3EF0EF00900DE
:101D5000F550006E0900F550016E0900F550026E55
:101D600009000900F550E96E0900F550EA6E090016
:101D700009000900F550036E0900F550046E0900D2
:101D80000900F6CF07F0F7CF08F0F8CF09F000C050
:101D9000F6FF01C0F7FF02C0F8FF035002E1045054
:101DA00007E00900F550EE6E0306F8E20406F9D7E5
:101DB00007C0F6FF08C0F7FF09C0F8FF050601E2FB
:101DC0000606A2EF0EF0120000C0E5FF01C0E5FF1D
:101DD00002C0E5FF8AEC11F0006E8AEC11F0016E92
:101DE0000050026ED00E0224006E0A0E005C05E365
:101DF0000050026EF90E0224006E0150026ED00EE9
:101E00000224016E0A0E015C05E30150026EF90E18
:101E10000224016E080E005C12E2100E015CD8B0C4
:101E20000ED00038F00B0124006E59EC10F0016E5A
:101E3000015005E10050E56E13EC13F0E652E4CFDB
:101E400002F0E4CF01F0E4CF00F01200D9CFE5FFBB
:101E5000E1CFD9FF00C0E5FF01C0E5FF02C0E5FF0B
:101E6000020ED924006E000EDA20016E800E026E82
:101E7000030E0026000E012202220250E56E0150E0
:101E8000E56E0050E56E040EDBCFE5FF030EDBCF01
:101E9000E5FF020EDBCFE5FF04019051E56E8F51A7
:101EA000E56E8E51E56E0EEC00F0006EF3CF01F0A2
:101EB000090EE12601C0F3FF0050E4CF02F0E4CFA9
:101EC00001F0E4CF00F0E4CFD9FF1200D9CFE5FF55
:101ED000E1CFD9FF00C0E5FF01C0E5FF02C0E5FF8B
:101EE00003C0E5FF020EDBCF00F0030EDBCF01F0F5
:101EF000040EDBCF02F0040191510DE171EC13F0FF
:101F0000036E03C0E5FF00C0E9FF01C0F3FF02500C
:101F10008CEC14F00FD004019151010A0BE100C0C8
:101F2000E9FF01C0F3FF025013EC14F0E56EDBECA7
:101F300011F0E652E4CF03F0E4CF02F0E4CF01F079
:101F4000E4CF00F0E4CFD9FF1200D9CFE5FFE1CF15
:101F5000D9FF00C0E5FF01C0E5FF02C0E5FF03C0F7
:101F6000E5FF020EDBCF00F0030EDBCF01F036C43D
:101F700002F037C403F00401363F01D0372B015083
:101F8000E56E0250E56E26EC12F0E652E65236C4DB
:101F900002F037C403F00401363F01D0372B005064
:101FA000E56E0250E56E26EC12F0E652E652E4CF02
:101FB00003F0E4CF02F0E4CF01F0E4CF00F0E4CF8F
:101FC000D9FF1200D9CFE5FFE1CFD9FF00C0E5FF6F
:101FD00001C0E5FF02C0E5FF03C0E5FF04C0E5FF67
:101FE000020EDBCF00F02BC401F0026A014A022A84
:101FF0002CC403F0046A0150031803E102500418D2
:1020000001E001D00ED0000E04012B25016E026A02
:10201000010E022201C0E9FF02C0EAFF00C0EFFF8B
:102020002B2BE4CF04F0E4CF03F0E4CF02F0E4CFB5
:1020300001F0E4CF00F0E4CFD9FF1200D9CFE5FFE3
:10204000E1CFD9FF00C0E5FF01C0E5FF02C0E5FF19
:1020500003C0E5FF020EDBCF00F0016A53C402F0BB
:10206000036A0250002603500122E56A800EE56EE5
:102070000150E56E0050E56E9AEC0BF0006EF3CF68
:1020800001F0040EE126600E0026000E012200C0C1
:10209000E9FF01C0EAFFEFCF00F00050E4CF03F00A
:1020A000E4CF02F0E4CF01F0E4CF00F0E4CFD9FFB9
:1020B000120000C0E5FF01C0E5FF02C0E5FF010E10
:1020C000006E8AEC11F0016E01C002F0015023E0B5
:1020D0000050E56E33EC14F0016EE652015010E151
:1020E0000A0E005C0BE20A0E006EE56E33EC14F093
:1020F000016EE652015004E1E8680ED0E8680CD0A9
:102100000150021802E0E86807D0002A1B0E005CAC
:10211000D8E3E86801D0E86AE4CF02F0E4CF01F048
:10212000E4CF00F01200F3CFE5FFF4CFE5FFE9CFF5
:10213000E5FFEACFE5FFFACFE5FFFBCFE5FF0401BE
:1021400029510401876F04012A510401886FD65078
:10215000856FD750866FF2A411D00401293F01D0BA
:102160002A2BF294040129510401876F04012A519A
:102170000401886FD650856FD750866FE4CFFBFF80
:10218000E4CFFAFFE4CFEAFFE4CFE9FFE4CFF4FFC6
:10219000E4CFF3FF110000C0E5FF01C0E5FF02C07E
:1021A000E5FF03C0E5FF36C400F037C401F00401C9
:1021B000363F01D0372B0050E56E33EC14F0E65279
:1021C000036E026A36C400F037C401F00401363FE2
:1021D00001D0372B0050E56E33EC14F0E652016A63
:1021E00002120150031203C0F3FF0250E4CF03F0C8
:1021F000E4CF02F0E4CF01F0E4CF00F0120000C021
:10220000E5FF01C0E5FF02C0E5FF006E000E04011E
:102210003025016E026A0F0E022201C0E9FF02C0E2
:10222000EAFF00C0EFFF220E305D01E2302B0050CC
:102230000A0A0FE104013051E56E800EE56E0F0EC3
:10224000E56E000EE56E17EC0BF0040EE1260401BE
:10225000306BE4CF02F0E4CF01F0E4CF00F01200E5
:1022600004012B6B04012C6B04012D698B8094906D
:10227000B06A3F0EAF6EB886AC8AAC84AC8CAC90C2
:10228000AB8CAB8E04014A6B0401446B0401476BB9
:102290000401486B0401496B000EE56A33EC14F04D
:1022A00004012F6FE6529F989F9A010E04012E6F32
:1022B00004018E6B8F6B2F0E906F41EC14F01200A7
:1022C0000401295104018C6F04012A5104018D6F0E
:1022D000D6508A6FD7508B6F8C510401291905E1B4
:1022E00004018D5104012A190CE004012951040153
:1022F0008C6F04012A5104018D6FD6508A6FD7501C
:102300008B6F8DC4E9FF8CC4F4FF8BC4F3FF040111
:102310008A51120000C0E5FF01C0E5FF04014851E9
:102320000401511905E0040148510401471902E173
:10233000E86A15D048C400F00401482B016A600E19
:102340000026000E012200C0E9FF01C0EAFFEFCF26
:1023500000F04851800A02E10401486B0050E4CFCC
:1023600001F0E4CF00F0120000C0E5FFC7EC14F06C
:102370000401896B806B8983006A89B3002A00504D
:10238000010BE844F46E8051FD0BF410806FD58E84
:10239000D59CD59AD588D596D594D582D580F28A04
:1023A000F184D08EF28EF28CBA80FF0EBB68BA84B4
:1023B000E4CF00F01200D9CFE5FFE1CFD9FF00C094
:1023C000E5FF01C0E5FF02C0E5FF020EDBCF00F034
:1023D00036C401F037C402F00401363F01D0372B78
:1023E0000050E56E0150E56E26EC12F0E652E65222
:1023F000E4CF02F0E4CF01F0E4CF00F0E4CFD9FF66
:102400001200D8CFE5FFE0CFE5FFE56EF3CFE5FFA3
:10241000F4CFE5FFE9CFE5FFEACFE5FFFACFE5FF2F
:10242000FBCFE5FF0EEC04F0E4CFFBFFE4CFFAFFB7
:10243000E4CFEAFFE4CFE9FFE4CFF4FFE4CFF3FF1A
:10244000E450E4CFE0FFE4CFD8FF1000D9CFE5FFA0
:10245000E1CFD9FF00C0E5FF020EDBCF00F0030E95
:10246000DBCFA8FF00C0A9FFA69EA69CA684F29E73
:10247000F29C550EA76EAA0EA76EA682A6A202D047
:102480000000FCD7A694F28EF28CE4CF00F0E4CFEB
:10249000D9FF1200E8AE0AD0F3CFEAFFEE50EECF3C
:1024A000F3FFEECFF4FFEECFE9FF1200E8BCDAEF66
:1024B00014F0E9CFF6FFF3CFF7FFF86E0900F550FF
:1024C0000900F5CFF3FF0900F5CFF4FF0900F5CFC0
:1024D000E9FF120000C0E5FF01C0E5FF04012B5138
:1024E00004012C1902E1E86A0FD0000E04012C252A
:1024F000006E016A010E012200C0E9FF01C0EAFF7F
:10250000EFCF00F02C2B0050E4CF01F0E4CF00F02F
:102510001200F2CFEAFFF29EA69EA69CA684E9CF07
:10252000A9FFF3CFAAFFE4CFA8FF97EC14F0F4CFF4
:10253000A8FF97EC14F0F6CFA8FF97EC14F0F7CFB4
:10254000A8FF97EC14F0A694EABEF28E1200F2CF28
:10255000F6FFF29EA69EA69CE9CFA9FFF3CFAAFFA5
:10256000A680A850A94AAA2AA680A8CFF3FFA94A04
:10257000AA2AA680A8CFF4FFA94AAA2AA680A8CF93
:10258000EAFFF6BEF28E1200E8AE08D0F3CFEAFF03
:10259000EE50EECFF3FFEECFF4FF1200E8BCE2EF17
:1025A00014F0E9CFF6FFF3CFF7FFF86E0900F5500E
:1025B0000900F5CFF3FF0900F5CFF4FF120000C0CA
:1025C000E5FF8AEC11F0006E010A04E00050020AF7
:1025D00006E00CD08AEC11F00401236F07D08AECDE
:1025E00011F0006E00C026F40401276BE4CF00F068
:1025F0001200F2CFEAFFF29EA69EA69CA684E9CF27
:10260000A9FFF3CFAAFFE4CFA8FF97EC14F0F4CF13
:10261000A8FF97EC14F0F6CFA8FF97EC14F0A6945F
:10262000EABEF28E1200D9CFE5FFE1CFD9FF00C09C
:10263000E5FF020EDBCF00F000C02FF40050E56E86
:10264000000EE56A26EC12F0E652E652E4CF00F006
:10265000E4CFD9FF1200F2CFF6FFF29EA69EA69C11
:10266000E9CFA9FFF3CFAAFFA680A850A94AAA2ABA
:10267000A680A8CFF3FFA94AAA2AA680A8CFF4FF74
:10268000F6BEF28E120000C0E5FF01C0E5FF600E4D
:1026900004014825006E016A000E012200C0E9FF16
:1026A00001C0EAFFEFCF00F00050E4CF01F0E4CF2B
:1026B00000F01200D9CFE5FFE1CFD9FF00C0E5FF60
:1026C000020EDBCF00F0610E005C05E37B0E005CC8
:1026D00002E2010E01D0E86AE4CF00F0E4CFD9FFB6
:1026E000120000C0E5FF01C0E5FF36C400F037C4AA
:1026F00001F00401363F01D0372B0050E56E33EC7A
:1027000014F0E652E4CF01F0E4CF00F01200D9CF8C
:10271000E5FFE1CFD9FF00C0E5FF020EDBCF00F0FF
:1027200000C02EF4005004E141EC14F09D9A9D98F5
:10273000E4CF00F0E4CFD9FF1200E8AE06D0F3CF2B
:10274000EAFFEE50EECFF3FF1200E8BCD8EF14F032
:10275000E9CFF6FFF3CFF7FFF86E0900F550090057
:10276000F5CFF3FF1200F2CFEAFFF29EA69EA69CE1
:10277000A684E9CFA9FFF3CFAAFFE4CFA8FF97EC87
:1027800014F0F4CFA8FF97EC14F0A694EABEF28EF2
:10279000120012EEFFF022EEFFF0F86AA68EA69C61
:1027A000E9680E0EEA6E0068000EED6A0050FDE169
:1027B00096EC0EF006EC00F0FFD7F2CFF6FFF29E9B
:1027C000A69EA69CE9CFA9FFF3CFAAFFA680A8509A
:1027D000A94AAA2AA680A8CFF3FFF6BEF28E12005D
:1027E000F2CFEAFFF29EA69EA69CA684E9CFA9FF9F
:1027F000F3CFAAFFE4CFA8FF97EC14F0A694EABEAB
:10280000F28E1200E8AE0BD0F3CFEAFFE4CFEEFF7A
:10281000F4CFEEFFF6CFEEFFF7CFEEFF1200E8BCED
:10282000DCEF14F01200E8AE04D0F3CFEAFFEE5074
:102830001200E8BCD6EF14F0E9CFF6FFF3CFF7FFB4
:10284000F86E0900F5501200E8AE09D0F3CFEAFFA8
:10285000E4CFEEFFF4CFEEFFF6CFEEFF1200E8BCC0
:10286000E4EF14F01200D9CFE5FFE1CFD9FF020E5B
:10287000DBCFA9FFA69CA69EA680A850E4CFD9FFD7
:102880001200ACA2FED78B80AE500000AE50AB98C9
:10289000AB88AB869D8A9D98120025642000F2CFFC
:1028A000F6FFF29EA69EA69CE9CFA9FFF3CFAAFF52
:1028B000A680A850F6BEF28E1200E8AE07D0F3CF85
:1028C000EAFFE4CFEEFFF4CFEEFF1200E8BCE0EF4A
:1028D00014F012008AEC11F04C0A07E18AEC11F0B6
:1028E000300A02E08B8201D08B921200700ED36E00
:1028F0009B8CFF0E9268936894689668626AF19E5A
:10290000120000C0E5FF59EC10F0006E005001E12C
:10291000FF00E4CF00F01200E8AE05D0F3CFEAFFED
:10292000E4CFEEFF1200E8BCDEEF14F01200550E0B
:10293000A76EAA0EA76EA682A6B2FED7A94AAA2A99
:10294000C8000000000000000000FF0000000000C0
:10295000010E0401916F1C0E0401366F376B1200DB
:102960000401916B1C0E0401366F376B12000100DD
:1029700040290000230400000F000000B4EC11F017
:1029800030EC11F01200ACA2FED7AD6E120076EC66
:1029900014F01200040148511200040152511200B7
:1029A00004012E511200E8CF7FFF12004FEF14F008
:1029B000DDEF13F0A7EF12F089EF12F0F0EF13F054
:0C29C000B3EF13F02BEF13F0F9EF12F05F
:020000040030CA
:010006008574
:00000001FF
