:020000040000FA
:10000000BDEF12F0C96E120087EF0EF00000000085
:10001000FF000000FF03000099EF10F0D9CFE5FFCB
:10002000E1CFD9FF00C0E5FF01C0E5FF02C0E5FF59
:1000300003C0E5FF04C0E5FF05C0E5FF06C0E5FF1E
:1000400007C0E5FF08C0E5FF09C0E5FF0AC0E5FFFE
:100050000BC0E5FF0CC0E5FF0DC0E5FF0EC0E5FFDE
:100060000FC0E5FF10C0E5FF11C0E5FF12C0E5FFBE
:1000700013C0E5FF14C0E5FF15C0E5FF16C0E5FF9E
:1000800017C0E5FF18C0E5FF19C0E5FF1AC0E5FF7E
:100090001BC0E5FF1CC0E5FF1DC0E5FF1EC0E5FF5E
:1000A000020EDBCF00F0030EDBCF01F0040EDBCF3E
:1000B00002F0050EDBCF03F0060EDBCF04F0070ED7
:1000C000DBCF05F0080EDBCF06F0090EDBCF07F023
:1000D0000A0EDBCF08F0096A0A6A02C00DF00D5063
:1000E000800A0DE102500F01326F0150316F005054
:1000F000306F0F0E016E300E006E800E026E03C068
:10010000E9FF04C0F3FF0550F6EC12F00B6E0B5044
:10011000D8B4C4EF03F00B50250A02E0ABEF03F0B4
:100120000C6A0D6A0E6A0F6A106A0A0E116E126A64
:10013000136A146A200E156E1668176A2B0E186E55
:10014000032A02E3044A052A03C0E9FF04C0F3FFBF
:100150000550F6EC12F0196E250A13E11950E56E00
:100160000250E56E0150E56E0050E56EB9EC08F006
:10017000040EE126094A0A2A032A02E3044A052A50
:10018000BED71950300A06E1300E156E032A02E37D
:10019000044A052A03C0E9FF04C0F3FF0550F6EC4A
:1001A00012F02D0A06E1010E146E032A02E3044A3E
:1001B000052A03C0E9FF04C0F3FF0550F6EC12F076
:1001C000200A08E1010E176E200E186E032A02E3C2
:1001D000044A052A03C0E9FF04C0F3FF0550F6EC0A
:1001E00012F02B0A06E1010E176E032A02E3044AFD
:1001F000052A03C0E9FF04C0F3FF0550F6EC12F036
:10020000196E310E195C2BE33A0E195C28E203C01B
:1002100019F004C01AF005C01BF019C0E9FF1AC09C
:10022000F3FF1B50F6EC12F01C6E300E1C5C11E359
:100230003A0E1C5C0EE213500A0DF3CF1DF01D5058
:100240001C26D00E1C24136E192A02E31A4A1B2AFC
:10025000E4D719C003F01AC004F01BC005F003C0B6
:10026000E9FF04C0F3FF0550F6EC12F02E0A2DE171
:10027000032A02E3044A052A166A03C019F004C0DF
:100280001AF005C01BF019C0E9FF1AC0F3FF1B509C
:10029000F6EC12F01C6E300E1C5C11E33A0E1C5C86
:1002A0000EE216500A0DF3CF1DF01D501C26D00E85
:1002B0001C24166E192A02E31A4A1B2AE4D719C015
:1002C00003F01AC004F01BC005F003C0E9FF04C02E
:1002D000F3FF0550F6EC12F0196E6C0A07E1010EFF
:1002E0000C6E032A02E3044A052A09D01950680A51
:1002F00006E1010E0E6E032A02E3044A052A03C03A
:10030000E9FF04C0F3FF0550F6EC12F0750A06E1B0
:10031000010E106E032A02E3044A052A03C0E9FF16
:1003200004C0F3FF0550F6EC12F0196E730A05E1F4
:10033000010E0D6E200E156E3FD01950780A03E1A4
:10034000100E116E39D01950580A05E1100E116EB9
:10035000010E126E31D01950630A02E1116A2CD0DD
:1003600019506F0A03E1080E116E26D01950660A63
:1003700003E1010E0F6E20D01950640A1DE01950E0
:10038000690A1AE0105005E0FF0E03260422052238
:1003900013D01950E56E0250E56E0150E56E005025
:1003A000E56EB9EC08F0040EE126094A0A2A032A90
:1003B00002E3044A052AA3D60D5021E00650030F9C
:1003C0000D6E000E0720196E000E08201A6E0DC06B
:1003D00006F019C007F01AC008F0FD0E0D26FF0E3A
:1003E00019221A220DC0E9FF19C0F3FF1A50D2ECEE
:1003F00011F00D6EF3CF19F0F4CF1AF0FDD00F50BD
:100400000DE0000E1A6E080E196E100E0D6E040E21
:100410000626000E072208221668EED016680C5039
:1004200023E00650040F0C6E000E07200F6E000E26
:1004300008201B6E0CC006F00FC007F01BC008F0B0
:10044000FC0E0C26FF0E0F221B220CC0E9FF0FC072
:10045000F3FF1B5058EC11F00C6EF3CF0FF0F4CFFC
:100460001BF0E9CF1CF067D00E502FE00650020FB2
:100470000E6E000E07201D6E000E08201E6E0EC0B0
:1004800006F01DC007F01EC008F0FE0E0E26FF0E7F
:100490001D221E220EC0E9FF1DC0F3FF1E5091EC6D
:1004A00012F00E6E0EC00CF00F6A1B6A1C6A11501F
:1004B0000A0A03E11050D8B43ED00C500E6E0EC0A4
:1004C0000CF00F6A1B6A1C6A36D00650020F0E6EC3
:1004D000000E07201D6E000E08201E6E0EC006F0D6
:1004E0001DC007F01EC008F0FE0E0E26FF0E1D22D6
:1004F0001E220EC0E9FF1DC0F3FF1E5091EC12F04A
:100500000E6EF3CF1DF00EC00CF01DC00FF0E86AA8
:100510001DBEFF0E1B6E1C6E11500A0A02E1105028
:100520000AE00C500E6E0F501D6E0EC00CF01DC078
:100530000FF01B6A1C6A0F0E196E240E0D6E800ED2
:100540001A6E1150D8B440D0105013E01150E56E1F
:100550000F0EE56E240EE56E1C50E56E1B50E56E29
:100560000F50E56E0C50E56E10EC05F0070EE1261D
:1005700012D01150E56E0F0EE56E240EE56E1C5084
:10058000E56E1B50E56E0F50E56E0C50E56E64ECA9
:100590000BF0070EE12617502FE00DC0E9FF19C040
:1005A000F3FF1A50F6EC12F02D0A26E0FF0E0D268E
:1005B00019221A2218C0E5FF0DC0E9FF19C0F3FF88
:1005C0001A5074EC13F018D00CC0E5FF0DC0E9FF11
:1005D00019C0F3FF1A5074EC13F00D50010F0C6E9C
:1005E000000E19200E6E000E1A20E56A0CC0E9FFFD
:1005F0000EC0F3FF74EC13F00DC00CF019C00EF038
:100600001AC00FF013C010F0105010E00CC0E9FF3A
:100610000EC0F3FF0F50F6EC12F0176E175006E005
:100620000C2A02E30E4A0F2A1006EED710C013F070
:1006300014501EE109C00CF00AC00EF010C00FF0FB
:100640000F5010E01550E56E0250E56E0150E56E5A
:100650000050E56EB9EC08F0040EE1260C4A0E2AB3
:100660000F06EED70CC009F00EC00AF00FC013F051
:1006700016C00CF00DC00DF019C00EF01AC00FF02E
:1006800009C010F00AC015F00DC0E9FF0EC0F3FF5D
:100690000F50F6EC12F0166E1650D8B43ED00CC0C7
:1006A00016F0176A161E171E1650171005E00CC01C
:1006B00016F00C06165031E00DC0E9FF0EC0F3FF36
:1006C0000F50F6EC12F0116E125010E01150E56E62
:1006D0004EEC12F0166EE652165004E0DF0E1114C6
:1006E000166E02D011C016F016C011F01150E56E52
:1006F0000250E56E0150E56E0050E56EB9EC08F071
:10070000040EE1260D2A02E30E4A0F2A104A152A8A
:100710001350D8B4B9D71306B7D710C009F015C015
:100720000AF014502BE010C00CF015C00DF013C0EF
:100730000EF00E501FE0200EE56E0250E56E0150E7
:10074000E56E0050E56EB9EC08F0040EE1260C4AA7
:100750000D2A0E06EED70B50E56E0250E56E0150E5
:10076000E56E0050E56EB9EC08F0040EE126094A8A
:100770000A2A04D00CC009F00DC00AF0032A02E3D3
:10078000044A052A7FEF00F00AC0F3FF0950E4CFC6
:100790001EF0E4CF1DF0E4CF1CF0E4CF1BF0E4CF5B
:1007A0001AF0E4CF19F0E4CF18F0E4CF17F0E4CF5B
:1007B00016F0E4CF15F0E4CF14F0E4CF13F0E4CF5B
:1007C00012F0E4CF11F0E4CF10F0E4CF0FF0E4CF5B
:1007D0000EF0E4CF0DF0E4CF0CF0E4CF0BF0E4CF5B
:1007E0000AF0E4CF09F0E4CF08F0E4CF07F0E4CF5B
:1007F00006F0E4CF05F0E4CF04F0E4CF03F0E4CF5B
:1008000002F0E4CF01F0E4CF00F0E4CFD9FF120012
:100810003C4E4F20464C4F41543E000000C0E5FF87
:1008200001C0E5FF04013E51D8B4F5D09DA81DD00C
:100830009EA81BD0040149510401461905E135EC7D
:1008400013F00401466BE7D0000E04014925006E49
:10085000016A040E012200C0E9FF01C0EAFFEFCFE8
:1008600035FF492B35CFADFFD6D09EAAD4D0ABA251
:1008700005D00401478135EC13F0CDD0ABA405D0F1
:100880000401478335EC13F0C6D0ABA03ED0AECF09
:1008900035FF800E04013F110F01351904E10401F9
:1008A0004789AB96B8D00F01355104E035510401AA
:1008B0003F1927E104014799AB960F01355103E039
:1008C0000401479702D00401478735CF4BF444C455
:1008D0004CF40401440504014D6F600E04014C25E5
:1008E000006E016A000E012200C0E9FF01C0EAFFAC
:1008F00035CFEFFF4C2B4C51800A02E104014C6BC9
:100900008AD004014799AB8686D0AECF35FF04016B
:1009100047A919D0800E04013F110F01351911E1CB
:100920008B909D9AAB980401465104E1AD6A35EC79
:1009300013F007D000C4ADFF010E0401496F9D887C
:100940006AD0AB8668D00F01355104014B270401F2
:100950004C5104014D191BE104014B510CE14CC4F5
:1009600044F4040147B712D08B909D9AAB98AD6ABE
:1009700035EC13F00BD00401478547B707D08B90B7
:100980009D9AAB98010EAD6E35EC13F044D0040186
:100990004C510401451908E1040145510401441971
:1009A00003E035EC13F037D044C400F0016A004A8C
:1009B000012AE56A800EE56E0150E56E0050E56E95
:1009C000BDEC09F0006E040EE12600500F01366FF9
:1009D00004014C190CE11F0E0F01351504014D6F78
:1009E0004D2B4D2B0401445104014D274D9F4CC408
:1009F00000F004014C2B016A600E0026000E01225B
:100A000000C0E9FF01C0EAFF35CFEFFF4C51800A7B
:100A100002E104014C6BE4CF01F0E4CF00F01200DE
:100A2000D9CFE5FFE1CFD9FF00C0E5FF01C0E5FF69
:100A300002C0E5FF03C0E5FF04C0E5FF05C0E5FF18
:100A400006C0E5FF07C0E5FF08C0E5FF09C0E5FFF8
:100A50000AC0E5FF0BC0E5FF0CC0E5FF0DC0E5FFD8
:100A60000EC0E5FF0FC0E5FF020EDBCF00F0030E66
:100A7000DBCF01F0040EDBCF02F0050EDBCF03F07D
:100A8000060EDBCF04F0070EDBCF05F0080EDBCF40
:100A900006F0200E076E086A06C009F00A6A0B6AA3
:100AA0000C6AE56AE56AE56A0950E56E0350E56E91
:100AB0000250E56E0150E56E0050E56EECEC05F07D
:100AC0000D6E080EE126300E0D263A0E0D5C05E384
:100AD0000D500E6E270E0E240D6EFF0E07260822F7
:100AE000E00E07240E6E000E08200F6E0EC0E9FF08
:100AF0000FC0EAFF0DC0EFFF0C50E56E0B50E56E26
:100B00000A50E56E0950E56E0350E56E0250E56E41
:100B10000150E56E0050E56E89EC06F0006EF3CFF3
:100B200001F0F4CF02F0E9CF03F0080EE126005007
:100B3000011002100310D8A4AFD707C000F008C0FE
:100B400001F004C002F005C003F000C004F001C0D1
:100B500005F0004A012AE00E0426000E052204C01A
:100B6000E9FF05C0EAFFEFCF04F002C0E9FF03C0D0
:100B7000EAFF04C0EFFF024A032A000E015C02E113
:100B8000200E005CE2E302C0E9FF03C0EAFF000EB2
:100B9000EF6AE4CF0FF0E4CF0EF0E4CF0DF0E4CF36
:100BA0000CF0E4CF0BF0E4CF0AF0E4CF09F0E4CF8F
:100BB00008F0E4CF07F0E4CF06F0E4CF05F0E4CF8F
:100BC00004F0E4CF03F0E4CF02F0E4CF01F0E4CF8F
:100BD00000F0E4CFD9FF1200D9CFE5FFE1CFD9FF74
:100BE00000C0E5FF01C0E5FF02C0E5FF03C0E5FF6F
:100BF00004C0E5FF05C0E5FF06C0E5FF07C0E5FF4F
:100C000008C0E5FF09C0E5FF0AC0E5FF020EDBCF23
:100C100000F0030EDBCF01F0040EDBCF02F0050E77
:100C2000DBCF03F0060EDBCF04F0070EDBCF05F0C1
:100C3000080EDBCF06F0090EDBCF07F0086A045080
:100C400005100610071005E1E968F468F368E86824
:100C500047D0096A0750800BE8440A6E0A501BE12E
:100C6000045004260536063607360750035C08E1B3
:100C70000650025C05E10550015C02E10450005C95
:100C800006E2D890073206320532043204D0092A2F
:100C900009C008F0DFD70750035C08E10650025C8A
:100CA00005E10550015C02E10450005C08E30450DA
:100CB000005E0550015A0650025A0750035AD89058
:100CC000073206320532043208C009F0080609501E
:100CD000E2E103C0E9FF02C0F4FF01C0F3FF0050EE
:100CE000E4CF0AF0E4CF09F0E4CF08F0E4CF07F056
:100CF000E4CF06F0E4CF05F0E4CF04F0E4CF03F056
:100D0000E4CF02F0E4CF01F0E4CF00F0E4CFD9FF6C
:100D10001200D9CFE5FFE1CFD9FF00C0E5FF01C048
:100D2000E5FF02C0E5FF03C0E5FF04C0E5FF05C025
:100D3000E5FF06C0E5FF07C0E5FF08C0E5FF09C005
:100D4000E5FF0AC0E5FF0BC0E5FF0CC0E5FF0DC0E5
:100D5000E5FF020EDBCF00F0030EDBCF01F0040E47
:100D6000DBCF02F0050EDBCF03F0060EDBCF04F085
:100D7000070EDBCF05F0080EDBCF06F0090EDBCF48
:100D800007F0086A096A0A6A0B6A200E0C6E0350A3
:100D9000800BE8440D6E0050002601360236033603
:100DA0000850082609360A360B360D50D8A408809C
:100DB00007500B5C08E106500A5C05E10550095C30
:100DC00002E10450085C09E30450085E0550095A2A
:100DD00006500A5A07500B5A00800C040D6E0DC0C5
:100DE0000CF00D50D4E103C0E9FF02C0F4FF01C0D4
:100DF000F3FF0050E4CF0DF0E4CF0CF0E4CF0BF0A4
:100E0000E4CF0AF0E4CF09F0E4CF08F0E4CF07F034
:100E1000E4CF06F0E4CF05F0E4CF04F0E4CF03F034
:100E2000E4CF02F0E4CF01F0E4CF00F0E4CFD9FF4B
:100E3000120000C0E5FF01C0E5FF03C0E5FF04C0EC
:100E4000E5FF05C0E5FF06C0E5FF07C0E5FF08C0F8
:100E5000E5FF09C0E5FF0AC0E5FF0BC0E5FF90C450
:100E600000F091C401F00401903F01D0912B00509B
:100E7000E56E27EC13F0E652076E046A056A066A0F
:100E800090C400F091C401F00401903F01D0912B77
:100E90000050E56E27EC13F0E6520B6A0A6E086A02
:100EA0000850041205120A5006120B50071290C483
:100EB00000F091C401F00401903F01D0912B00504B
:100EC000E56E27EC13F0E652036E006A03C001F0F2
:100ED000E86A03BEFF0E086E096E0050041201504E
:100EE0000512085006120950071290C400F091C470
:100EF00001F00401903F01D0912B0050E56E27ECEA
:100F000013F0E652016A041201500512061207128C
:100F100007C0E9FF06C0F4FF05C0F3FF0450E4CFAB
:100F20000BF0E4CF0AF0E4CF09F0E4CF08F0E4CF0F
:100F300007F0E4CF06F0E4CF05F0E4CF04F0E4CF0F
:100F400003F0E4CF01F0E4CF00F0120000C0E5FFB1
:100F500001C0E5FF02C0E5FF03C0E5FF04C0E5FFF7
:100F6000040145510401441901E15CD045C400F07D
:100F7000002A009E600E0024016E026A000E02220A
:100F800001C0E9FF02C0EAFFEFCF4FF41F0E0401DA
:100F90004F1745C44EF44F5104014E274E2B4E2B94
:100FA0004E9F48EC10F0016E015003E1016A012AE6
:100FB00001D0016A48EC10F004014F6F800E4F150C
:100FC000026E1F0E4F15036E03C004F003C04FF4F2
:100FD000045003E144C445F438D001501BE00250F2
:100FE0001FE048EC10F0006E04014F070050420A69
:100FF00017E000504E0A03E112EC0DF011D0005042
:10100000460A03E169EC13F00BD00050490A08E1ED
:10101000FF0006D045C450F40250D8B490EC13F051
:101020004EC445F404013B5104013C1906E004019F
:10103000465103E130EC08F008D08BB006D0040133
:10104000465103E1ACB235EC13F0E4CF04F0E4CF49
:1010500003F0E4CF02F0E4CF01F0E4CF00F012009F
:1010600000C0E5FF01C0E5FF02C0E5FF03C0E5FFEA
:10107000ACA276D078EC11F0006E005005E10401CE
:101080003C6B04013B6B6CD03CC401F0005001266A
:1010900078EC11F0026E00060250230A1FE1010EE7
:1010A000005CD8A05BD078EC11F0026E690A03E115
:1010B000C3EC0FF053D00250720A03E135EC13F089
:1010C0004DD00250730A01E049D08B80AB869D8AD7
:1010D0009D98AE50AE50AB98AB8840D00250430ABA
:1010E00005E00250420A01E039D001D0008E00C074
:1010F00048F400500401006F010E0401496F04011F
:101100003C51011814E078EC11F0026E04014827FC
:10111000000E04014925006E036A040E032200C07C
:10112000E9FF03C0EAFF02C0EFFF492BE8D7000E3A
:1011300004014925006E026A040E02220401481DC2
:10114000036E032A00C0E9FF02C0EAFF03C0EFFFFD
:101150000401492B49C446F40F01336B01C03CF430
:10116000E4CF03F0E4CF02F0E4CF01F0E4CF00F0ED
:101170001200D9CFE5FFE1CFD9FF00C0E5FF01C0E4
:10118000E5FF02C0E5FF03C0E5FF04C0E5FF05C0C1
:10119000E5FF06C0E5FF07C0E5FF020EDBCF00F06C
:1011A000030EDBCF01F0040EDBCF02F0050EDBCF28
:1011B00003F002C006F00650046E800A33E100C05E
:1011C000E9FF01C0F3FF0250D2EC11F0056EF3CF3E
:1011D00006F0F4CF07F003C0E5FF05C0E9FF06C045
:1011E000F3FF075074EC13F000C0E9FF01C0F3FFF8
:1011F0000250D2EC11F0056EF3CF06F0F4CF07F0F9
:10120000052A02E3064A072A05C0E5FF06C0F4FFE7
:1012100007C0F6FF00C0E9FF01C0F3FF025018EC61
:1012200013F01DD004AA1BD0047A045004E103502B
:10123000B0EC13F014D00450010A04E1035002ECA6
:1012400000F00DD004500F0A04E1035061EC0FF0E0
:1012500006D004500E0A03E10350C9EC13F0E4CFAA
:1012600007F0E4CF06F0E4CF05F0E4CF04F0E4CFDC
:1012700003F0E4CF02F0E4CF01F0E4CF00F0E4CFDC
:10128000D9FF1200D9CFE5FFE1CFD9FF00C0E5FFBC
:1012900001C0E5FF02C0E5FF03C0E5FF04C0E5FFB4
:1012A00005C0E5FF06C0E5FF07C0E5FF020EDBCF86
:1012B00000F0030EDBCF01F0040EDBCF02F0050ED1
:1012C000DBCF03F03CC43DF404013B5104013D5F1E
:1012D0003D0703C004F0056A030E0426D8B0052AB2
:1012E0003DC406F0076A0750800FF36E0550800F6B
:1012F000F35C02E10450065C02E2E8682BD0020EC7
:10130000035C02E2E86A26D003060350E56E10ECA7
:101310000EF0E652046A0350045C14E20450002408
:10132000056EE86A0120066EE86A022005C0E9FF42
:1013300006C0F3FFF6EC12F0042AE56E10EC0EF096
:10134000E652E9D73CC43DF404013B5104013D5F42
:101350003D07E86AE4CF07F0E4CF06F0E4CF05F0FC
:10136000E4CF04F0E4CF03F0E4CF02F0E4CF01F0E7
:10137000E4CF00F0E4CFD9FF1200D9CFE5FFE1CFF1
:10138000D9FF00C0E5FF01C0E5FF02C0E5FF03C0D3
:10139000E5FF04C0E5FF05C0E5FF06C0E5FF020E5E
:1013A000DBCF00F0030EDBCF01F0040EDBCF02F049
:1013B000050EDBCF03F0D88001AED890046A043666
:1013C000045007E0011C066E001C056E054A062A43
:1013D00004D000C005F001C006F0D88003AED8905C
:1013E00007E3031C016E021C006E004A012A04D0B0
:1013F00002C000F003C001F00150E56E0050E56E40
:101400000650E56E0550E56EC7EC0BF0006EF3CFAD
:1014100001F0040EE12604500AE0011C036E001CDA
:10142000026E024A032A03C0F3FF025003D001C038
:10143000F3FF0050E4CF06F0E4CF05F0E4CF04F072
:10144000E4CF03F0E4CF02F0E4CF01F0E4CF00F00A
:10145000E4CFD9FF1200D9CFE5FFE1CFD9FF00C01B
:10146000E5FF01C0E5FF02C0E5FF03C0E5FF04C0E2
:10147000E5FF05C0E5FF020EDBCF00F0030EDBCF7A
:1014800001F0040EDBCF02F0050EDBCF03F090C4B9
:1014900004F091C405F00401903F01D0912B03505A
:1014A000E56E0450E56E34EC11F0E652E65290C45D
:1014B00004F091C405F00401903F01D0912B02503B
:1014C000056EE56E0450E56E34EC11F0E652E6521E
:1014D00090C404F091C405F00401903F01D0912B19
:1014E0000150056EE56E0450E56E34EC11F0E652E5
:1014F000E65290C404F091C405F00401903F01D07D
:10150000912B0050E56E0450E56E34EC11F0E6527C
:10151000E652E4CF05F0E4CF04F0E4CF03F0E4CFEB
:1015200002F0E4CF01F0E4CF00F0E4CFD9FF1200E5
:10153000D9CFE5FFE1CFD9FF00C0E5FF01C0E5FF4E
:1015400002C0E5FF03C0E5FF04C0E5FF05C0E5FFFD
:1015500006C0E5FF020EDBCF00F0030EDBCF01F08B
:10156000040EDBCF02F00401375119E119EC07F04A
:10157000036EF3CF04F0F4CF05F0E9CF06F003C01B
:10158000E5FF04C0F4FF05C0F6FF06C0F7FF00C08A
:10159000E9FF01C0F3FF025007EC13F01ED0040175
:1015A0003751010A1AE100C0E9FF01C0F3FF025000
:1015B00058EC11F0006EF3CF01F0F4CF02F0E9CF58
:1015C00003F00350E56E0250E56E0150E56E0050E9
:1015D000E56E2BEC0AF0040EE126E4CF06F0E4CF32
:1015E00005F0E4CF04F0E4CF03F0E4CF02F0E4CF61
:1015F00001F0E4CF00F0E4CFD9FF120000C0E5FF16
:1016000001C0E5FF7EA25BD004014151421103E11C
:101610004169030E426FFF0E0401412742234151ED
:10162000006E4251016E04012451015C02E123511C
:10163000005C02E28B8201D08B9204014151006E6A
:101640004251016E04012651015C02E12551005C0A
:1016500002E2898001D0899004014151006E42511B
:10166000016E04012851015C02E12751005C02E295
:10167000898201D0899204014151006E4251016E6C
:1016800004012A51015C02E12951005C02E28984D3
:1016900001D0899404014151006E4251016E040150
:1016A0002C51015C02E12B51005C02E2898801D0DF
:1016B00089980F015069F30E0F014F6F7E92E4CFAE
:1016C00001F0E4CF00F01200D9CFE5FFE1CFD9FF60
:1016D00000C0E5FF01C0E5FF02C0E5FF03C0E5FF74
:1016E00004C0E5FF05C0E5FF06C0E5FF020EDBCF45
:1016F00000F0030EDBCF01F0040EDBCF02F0050E8D
:10170000DBCF03F0060EDBCF04F0070EDBCF05F0D6
:10171000080EDBCF06F0D88003AED89015E3065054
:101720000A0A12E104C0E9FF05C0EAFF2D0EEF6EC0
:10173000044A052A031E021E011E006C05E1012A4F
:1017400003E1022AD8B4032A0650E56E0550E56E7F
:101750000450E56E0350E56E0250E56E0150E56EF3
:101760000050E56E10EC05F0070EE126E4CF06F020
:10177000E4CF05F0E4CF04F0E4CF03F0E4CF02F0CF
:10178000E4CF01F0E4CF00F0E4CFD9FF1200D9CFCD
:10179000E5FFE1CFD9FF00C0E5FF01C0E5FF02C0D2
:1017A000E5FF03C0E5FF04C0E5FF05C0E5FF06C097
:1017B000E5FF020EDBCF00F0030EDBCF01F0040EDD
:1017C000DBCF02F0050EDBCF03F0046A056A03509D
:1017D000800BE844066E065011E1025002260336E3
:1017E0000350015C02E10250005C04E2D890033235
:1017F000023204D0052A05C004F0E9D70350015C89
:1018000002E10250005C04E30250005E0350015A02
:10181000D8900332023204C005F004060550EEE110
:1018200001C0F3FF0050E4CF06F0E4CF05F0E4CFB1
:1018300004F0E4CF03F0E4CF02F0E4CF01F0E4CF12
:1018400000F0E4CFD9FF120000C0E5FF01C0E5FFC2
:1018500002C0E5FF03C0E5FF45C400F0016A50C4C3
:1018600002F0036A0250005E0350015AE56A800EDE
:10187000E56E0150E56E0050E56EBDEC09F0006EBE
:10188000040EE126000650C401F0430E61EC0FF097
:10189000200E61EC0FF0005020E0600E0124026E7B
:1018A000036A000E032202C0E9FF03C0EAFFEFCF84
:1018B00002F0E56A0250E56E000EE56E260EE56E5A
:1018C000820EE56E54EC0DF0050EE126012A015062
:1018D000800A01E1016A0006DED7E4CF03F0E4CF1D
:1018E00002F0E4CF01F0E4CF00F01200D9CFE5FF21
:1018F000E1CFD9FF00C0E5FF01C0E5FF02C0E5FF71
:1019000003C0E5FF04C0E5FF020EDBCF00F0030ECD
:10191000DBCF01F0040EDBCF02F00401375111E1FF
:10192000FBEC0EF0036EF3CF04F003C0E5FF04C040
:10193000F4FF00C0E9FF01C0F3FF025051EC13F0C7
:1019400016D004013751010A12E100C0E9FF01C0BD
:10195000F3FF025091EC12F0006EF3CF01F0015052
:10196000E56E0050E56ED3EC0DF0E652E652E4CFA2
:1019700004F0E4CF03F0E4CF02F0E4CF01F0E4CFD1
:1019800000F0E4CFD9FF12003C0EF66E270EF76E82
:10199000000EF86E0900F550056E0900F550066E50
:1019A00004E1056702D011EF0DF00900F550006E5B
:1019B0000900F550016E0900F550026E090009009A
:1019C000F550E96E0900F550EA6E090009000900BA
:1019D000F550036E0900F550046E09000900F6CFBA
:1019E00007F0F7CF08F0F8CF09F000C0F6FF01C00C
:1019F000F7FF02C0F8FF035002E1045007E00900BE
:101A0000F550EE6E0306F8E20406F9D707C0F6FFBC
:101A100008C0F7FF09C0F8FF050601E20606D0EF8F
:101A20000CF0120000C0E5FF01C0E5FF02C0E5FFB9
:101A300048EC10F0006E48EC10F0016E0050026EA1
:101A4000D00E0224006E0A0E005C05E30050026E08
:101A5000F90E0224006E0150026ED00E0224016EB7
:101A60000A0E015C05E30150026EF90E0224016EBC
:101A7000080E005C12E2100E015CD8B00ED00038E7
:101A8000F00B0124006EC1EC0EF0016E015005E177
:101A90000050E56E07EC12F0E652E4CF02F0E4CF1E
:101AA00001F0E4CF00F01200D9CFE5FFE1CFD9FF7C
:101AB00000C0E5FF01C0E5FF02C0E5FF020ED9242A
:101AC000006E000EDA20016E800E026E030E0026FC
:101AD000000E012202220250E56E0150E56E005018
:101AE000E56E040EDBCFE5FF030EDBCFE5FF020E54
:101AF000DBCFE5FF04018C51E56E8B51E56E8A5119
:101B0000E56E0EEC00F0006EF3CF01F0090EE12659
:101B100001C0F3FF0050E4CF02F0E4CF01F0E4CFC6
:101B200000F0E4CFD9FF1200D9CFE5FFE1CFD9FF14
:101B300000C0E5FF01C0E5FF02C0E5FF03C0E5FF0F
:101B4000020EDBCF00F0030EDBCF01F0040EDBCF83
:101B500002F0040137510DE165EC12F0036E03C091
:101B6000E5FF00C0E9FF01C0F3FF025074EC13F081
:101B70000FD004013751010A0BE100C0E9FF01C099
:101B8000F3FF0250F6EC12F0E56E0EEC11F0E652A7
:101B9000E4CF03F0E4CF02F0E4CF01F0E4CF00F0B3
:101BA000E4CFD9FF1200D9CFE5FFE1CFD9FF00C0C4
:101BB000E5FF01C0E5FF02C0E5FF03C0E5FF020E3F
:101BC000DBCF00F0030EDBCF01F090C402F091C434
:101BD00003F00401903F01D0912B0150E56E0250BB
:101BE000E56E34EC11F0E652E65290C402F091C476
:101BF00003F00401903F01D0912B0050E56E02509C
:101C0000E56E34EC11F0E652E652E4CF03F0E4CF97
:101C100002F0E4CF01F0E4CF00F0E4CFD9FF1200EE
:101C2000D9CFE5FFE1CFD9FF00C0E5FF01C0E5FF57
:101C300002C0E5FF03C0E5FF04C0E5FF020EDBCFF5
:101C400000F03BC401F0026A014A022A3CC403F0DE
:101C5000046A0150031803E10250041801E001D0A6
:101C60000ED0000E04013B25016E026A070E02220F
:101C700001C0E9FF02C0EAFF00C0EFFF3B2BE4CF49
:101C800004F0E4CF03F0E4CF02F0E4CF01F0E4CFBE
:101C900000F0E4CFD9FF1200D9CFE5FFE1CFD9FFA3
:101CA00000C0E5FF01C0E5FF02C0E5FF03C0E5FF9E
:101CB000020EDBCF00F0016A50C402F0036A02504A
:101CC000002603500122E56A800EE56E0150E56EA4
:101CD0000050E56EBDEC09F0006EF3CF01F0040E8C
:101CE000E126600E0026000E012200C0E9FF01C0BF
:101CF000EAFFEFCF00F00050E4CF03F0E4CF02F0B2
:101D0000E4CF01F0E4CF00F0E4CFD9FF1200F3CF2D
:101D1000E5FFF4CFE5FFE9CFE5FFEACFE5FFFACF36
:101D2000E5FFFBCFE5FF040139510401836F040196
:101D30003A510401846FD650816FD750826FF2A45C
:101D400011D00401393F01D03A2BF29404013951EA
:101D50000401836F04013A510401846FD650816FEE
:101D6000D750826FBAEC13F0E4CFFBFFE4CFFAFF59
:101D7000E4CFEAFFE4CFE9FFE4CFF4FFE4CFF3FFE1
:101D8000110000C0E5FF01C0E5FF02C0E5FF010E44
:101D9000006E48EC10F0016E01C002F0015023E02B
:101DA0000050E56E27EC13F0016EE652015010E191
:101DB0000A0E005C0BE20A0E006EE56E27EC13F0D3
:101DC000016EE652015004E1E8680ED0E8680CD0DC
:101DD0000150021802E0E86807D0002A1B0E005CE0
:101DE000D8E3E86801D0E86AE4CF02F0E4CF01F07C
:101DF000E4CF00F0120000C0E5FF01C0E5FF02C023
:101E0000E5FF03C0E5FF90C400F091C401F00401B8
:101E1000903F01D0912B0050E56E27EC13F0E65275
:101E2000036E026A90C400F091C401F00401903F77
:101E300001D0912B0050E56E27EC13F0E652016AB9
:101E400002120150031203C0F3FF0250E4CF03F06B
:101E5000E4CF02F0E4CF01F0E4CF00F01200D9CFDC
:101E6000E5FFE1CFD9FF00C0E5FF01C0E5FF02C0FB
:101E7000E5FF03C0E5FF020EDBCF00F0030EDBCF72
:101E800001F0040EDBCF02F00050020DF450036E9F
:101E9000F3CF00F0230E0026040E032200C0E9FF5A
:101EA00003C0EAFF01C0EEFF02C0EFFFE4CF03F082
:101EB000E4CF02F0E4CF01F0E4CF00F0E4CFD9FFAB
:101EC000120000C0E5FF01C0E5FF02C0E5FF006EA3
:101ED000000E04014025016E026A0F0E022201C0AD
:101EE000E9FF02C0EAFF00C0EFFF220E405D01E201
:101EF000402B00500A0A0FE104014051E56E800EAC
:101F0000E56E0F0EE56E000EE56E42EC09F0040E74
:101F1000E1260401406BE4CF02F0E4CF01F0E4CF0E
:101F200000F0120000C0E5FF01C0E5FF02C0E5FFC0
:101F3000006A0050020DF450026EF3CF01F0230E40
:101F40000126040E022201C0E9FF02C0EAFFEE6A88
:101F5000EF6A002A080E005CECE30F014E6B0F01E4
:101F60004E894E8B4E837F824E817E927D829492EB
:101F70009290929292949298E4CF02F0E4CF01F082
:101F8000E4CF00F0120004013B6B04013C6B040140
:101F90003D698B809490B06A3F0EAF6EB886AC8A74
:101FA000AC84AC8CAC90AB8CAB8E0401476B0F0156
:101FB000346B0401446B0401456B0401466B000E55
:101FC000E56A27EC13F004013F6FE6529F989F9A51
:101FD000010E04013E6F04018A6B8B6B2F0E8C6F18
:101FE00035EC13F0120000C0E5FF01C0E5FF02C0B0
:101FF000E5FF04C0E5FF48EC10F0006E080E005C41
:1020000014E248EC10F0016A026E48EC10F0046A29
:102010000126045002220250E56E0150E56E005088
:10202000E56E2FEC0FF0030EE126E4CF04F0E4CFD1
:1020300002F0E4CF01F0E4CF00F0120004013951C6
:102040000401876F04013A510401886FD650856FEF
:10205000D750866F87510401391905E10401885171
:1020600004013A190CE0040139510401876F04019D
:102070003A510401886FD650856FD750866F88C457
:10208000E9FF87C4F4FF86C4F3FF04018551120001
:1020900000C0E5FF01C0E5FF0401455104014E19F0
:1020A00005E0040145510401441902E1E86A15D034
:1020B00045C400F00401452B016A600E0026000EA5
:1020C000012200C0E9FF01C0EAFFEFCF00F0455157
:1020D000800A02E10401456B0050E4CF01F0E4CF37
:1020E00000F0120000C0E5FF01C0E5FF02C0E5FFFF
:1020F000ABEC13F094928B921EEC10F0F3CF00F047
:10210000F4CF01F0E9CF02F0880F0401336F130E12
:102110000020346F000E0120356F000E0220366F54
:1021200092EC0FF0E4CF02F0E4CF01F0E4CF00F046
:102130001200D8CFE5FFE0CFE5FFE56EF3CFE5FF76
:10214000F4CFE5FFE9CFE5FFEACFE5FFFACFE5FF02
:10215000FBCFE5FF0EEC04F0B7EC13F0E4CFFBFF90
:10216000E4CFFAFFE4CFEAFFE4CFE9FFE4CFF4FFE6
:10217000E4CFF3FFE450E4CFE0FFE4CFD8FF10005A
:1021800000C0E5FFB4EC13F00401896B806B898318
:10219000006A89B3002A0050010BE844F46E8051B4
:1021A000FD0BF410806FD58ED59CD59AD588D59629
:1021B000D594D582D580F28AF184D08EF28EF28CBD
:1021C000BA80FF0EBB68BA84E4CF00F01200D9CF0A
:1021D000E5FFE1CFD9FF00C0E5FF01C0E5FF020E3A
:1021E000DBCF00F00050020DF450016EF3CF00F091
:1021F000230E0026040E012200C0E9FF01C0EAFF01
:10220000EECF00F0EFCF01F001C0F3FF0050E4CFBC
:1022100001F0E4CF00F0E4CFD9FF1200D9CFE5FF01
:10222000E1CFD9FF00C0E5FF01C0E5FF02C0E5FF37
:10223000020EDBCF00F090C401F091C402F0040163
:10224000903F01D0912B0050E56E0150E56E34ECCB
:1022500011F0E652E652E4CF02F0E4CF01F0E4CF11
:1022600000F0E4CFD9FF1200D9CFE5FFE1CFD9FFCD
:1022700000C0E5FF020EDBCF00F0030EDBCFA8FFAE
:1022800000C0A9FFA69EA69CA684F29EF29C550EB5
:10229000A76EAA0EA76EA682A6A202D00000FCD747
:1022A000A694F28EF28CE4CF00F0E4CFD9FF1200B6
:1022B000E8AE0AD0F3CFEAFFEE50EECFF3FFEECF59
:1022C000F4FFEECFE9FF1200E8BCD6EF13F0E9CF40
:1022D000F6FFF3CFF7FFF86E0900F5500900F5CFD0
:1022E000F3FF0900F5CFF4FF0900F5CFE9FF120075
:1022F00000C0E5FF01C0E5FF04013B5104013C19AA
:1023000002E1E86A0FD0000E04013C25006E016A6C
:10231000070E012200C0E9FF01C0EAFFEFCF00F085
:102320003C2B0050E4CF01F0E4CF00F01200F2CFDC
:10233000EAFFF29EA69EA69CA684E9CFA9FFF3CF52
:10234000AAFFE4CFA8FF7FEC13F0F4CFA8FF7FEC47
:1023500013F0F6CFA8FF7FEC13F0F7CFA8FF7FECC8
:1023600013F0A694EABEF28E1200F2CFF6FFF29EB0
:10237000A69EA69CE9CFA9FFF3CFAAFFA680A850EE
:10238000A94AAA2AA680A8CFF3FFA94AAA2AA6800A
:10239000A8CFF4FFA94AAA2AA680A8CFEAFFF6BED2
:1023A000F28E1200E8AE08D0F3CFEAFFEE50EECF87
:1023B000F3FFEECFF4FF1200E8BCD8EF13F0E9CF43
:1023C000F6FFF3CFF7FFF86E0900F5500900F5CFDF
:1023D000F3FF0900F5CFF4FF1200F2CFEAFFF29EFF
:1023E000A69EA69CA684E9CFA9FFF3CFAAFFE4CFBF
:1023F000A8FF7FEC13F0F4CFA8FF7FEC13F0F6CF2B
:10240000A8FF7FEC13F0A694EABEF28E1200D9CF9B
:10241000E5FFE1CFD9FF00C0E5FF020EDBCF00F002
:1024200000C03FF40050E56E000EE56A34EC11F098
:10243000E652E652E4CF00F0E4CFD9FF1200F2CF2B
:10244000F6FFF29EA69EA69CE9CFA9FFF3CFAAFFB6
:10245000A680A850A94AAA2AA680A8CFF3FFA94A15
:10246000AA2AA680A8CFF4FFF6BEF28E120000C002
:10247000E5FF01C0E5FF600E04014525006E016A1D
:10248000000E012200C0E9FF01C0EAFFEFCF00F01B
:102490000050E4CF01F0E4CF00F01200D9CFE5FF07
:1024A000E1CFD9FF00C0E5FF020EDBCF00F0610EE7
:1024B000005C05E37B0E005C02E2010E01D0E86ADD
:1024C000E4CF00F0E4CFD9FF120000C0E5FF01C067
:1024D000E5FF90C400F091C401F00401903F01D0E9
:1024E000912B0050E56E27EC13F0E652E4CF01F09B
:1024F000E4CF00F01200D9CFE5FFE1CFD9FF00C053
:10250000E5FF020EDBCF00F000C03EF4005004E116
:1025100035EC13F09D9A9D98E4CF00F0E4CFD9FFFD
:102520001200E8AE06D0F3CFEAFFEE50EECFF3FF95
:102530001200E8BCD4EF13F0E9CFF6FFF3CFF7FFBA
:10254000F86E0900F5500900F5CFF3FF1200F2CF45
:10255000EAFFF29EA69EA69CA684E9CFA9FFF3CF30
:10256000AAFFE4CFA8FF7FEC13F0F4CFA8FF7FEC25
:1025700013F0A694EABEF28E120018EEFFF028EED9
:10258000FFF0F86AA68EA69CE9680E0EEA6E006857
:10259000000EED6A0050FDE1C4EC0CF0A5EC13F068
:1025A000FFD7F2CFF6FFF29EA69EA69CE9CFA9FF29
:1025B000F3CFAAFFA680A850A94AAA2AA680A8CF2E
:1025C000F3FFF6BEF28E1200F2CFEAFFF29EA69E55
:1025D000A69CA684E9CFA9FFF3CFAAFFE4CFA8FF6A
:1025E0007FEC13F0A694EABEF28E1200E8AE04D09F
:1025F000F3CFEAFFEE501200E8BCD2EF13F0E9CFC0
:10260000F6FFF3CFF7FFF86E0900F5501200E8AEC1
:102610000BD0F3CFEAFFE4CFEEFFF4CFEEFFF6CF1F
:10262000EEFFF7CFEEFF1200E8BCD0EF13F0120080
:10263000E8AE09D0F3CFEAFFE4CFEEFFF4CFEEFF30
:10264000F6CFEEFF1200E8BCDAEF13F01200D9CF9C
:10265000E5FFE1CFD9FF020EDBCFA9FFA69CA69E26
:10266000A680A850E4CFD9FF1200ACA2FED78B8081
:10267000AE500000AE50AB98AB88AB869D8A9D985B
:10268000120025642000F2CFF6FFF29EA69EA69CC3
:10269000E9CFA9FFF3CFAAFFA680A850F6BEF28E1D
:1026A0001200E8AE07D0F3CFEAFFE4CFEEFFF4CF9D
:1026B000EEFF1200E8BCCEEF13F01200700ED36EE6
:1026C0009B8CFF0E9268936894689668626AF19E8C
:1026D000120000C0E5FFC1EC0EF0006E005001E1F9
:1026E000FF00E4CF00F01200E8AE05D0F3CFEAFF20
:1026F000E4CFEEFF1200E8BCCCEF13F01200550E51
:10270000A76EAA0EA76EA682A6B2FED7A94AAA2ACB
:10271000010E0401376F1C0E0401906F916B1200C3
:1027200048EC10F0320A02E1F3EC0FF01200040161
:10273000376B1C0E0401906F916B120001000C00AE
:102740000000390400000B00000072EC10F0BDEC3A
:1027500013F0FDD71200C0EC10F0C3EC0FF0120024
:10276000ACA2FED7AD6E12005EEC13F01200DCECF2
:1027700013F01200FEEC0AF01200A6EC07F01200B3
:1027800004014551120004014F51120004013E5151
:102790001200E8CF7FFF1200E4EF12F0A7EF12F073
:1027A00097EF11F043EF13F0D1EF12F0B5EF11F006
:0A27B0001FEF12F0EDEF11F0120020
:00000001FF
