:020000040000FA
:10000000FFEF14F0C69A1200FCEF0DF01000000094
:1000100000FF00000000000016EF13F0D9CFE5FF4D
:10002000E1CFD9FF00C0E5FF01C0E5FF02C0E5FF59
:1000300003C0E5FF04C0E5FF05C0E5FF06C0E5FF1E
:1000400007C0E5FF08C0E5FF09C0E5FF0AC0E5FFFE
:100050000BC0E5FF0CC0E5FF0DC0E5FF0EC0E5FFDE
:100060000FC0E5FF10C0E5FF11C0E5FF12C0E5FFBE
:1000700013C0E5FF14C0E5FF15C0E5FF16C0E5FF9E
:1000800017C0E5FF18C0E5FF19C0E5FF1AC0E5FF7E
:100090001BC0E5FF1CC0E5FF1DC0E5FF1EC0E5FF5E
:1000A000020EDBCF00F0030EDBCF01F0040EDBCF3E
:1000B00002F0050EDBCF03F0060EDBCF04F0070ED7
:1000C000DBCF05F0080EDBCF06F0090EDBCF07F023
:1000D0000A0EDBCF08F0096A0A6A02C00DF00D5063
:1000E000800A0DE1025004018C6F01508B6F0050AB
:1000F0008A6F040E016E8A0E006E800E026E03C0BF
:10010000E9FF04C0F3FF05505AEC15F00B6E0B50DD
:10011000D8B4C4EF03F00B50250A02E0ABEF03F0B4
:100120000C6A0D6A0E6A0F6A106A0A0E116E126A64
:10013000136A146A200E156E1668176A2B0E186E55
:10014000032A02E3044A052A03C0E9FF04C0F3FFBF
:1001500005505AEC15F0196E250A13E11950E56E99
:100160000250E56E0150E56E0050E56EE3EC08F0DC
:10017000040EE126094A0A2A032A02E3044A052A50
:10018000BED71950300A06E1300E156E032A02E37D
:10019000044A052A03C0E9FF04C0F3FF05505AECE6
:1001A00015F02D0A06E1010E146E032A02E3044A3B
:1001B000052A03C0E9FF04C0F3FF05505AEC15F00F
:1001C000200A08E1010E176E200E186E032A02E3C2
:1001D000044A052A03C0E9FF04C0F3FF05505AECA6
:1001E00015F02B0A06E1010E176E032A02E3044AFA
:1001F000052A03C0E9FF04C0F3FF05505AEC15F0CF
:10020000196E310E195C2BE33A0E195C28E203C01B
:1002100019F004C01AF005C01BF019C0E9FF1AC09C
:10022000F3FF1B505AEC15F01C6E300E1C5C11E3F2
:100230003A0E1C5C0EE213500A0DF3CF1DF01C5059
:100240001D26D00E1D24136E192A02E31A4A1B2AFA
:10025000E4D719C003F01AC004F01BC005F003C0B6
:10026000E9FF04C0F3FF05505AEC15F02E0A2DE10A
:10027000032A02E3044A052A166A03C019F004C0DF
:100280001AF005C01BF019C0E9FF1AC0F3FF1B509C
:100290005AEC15F01C6E300E1C5C11E33A0E1C5C1F
:1002A0000EE216500A0DF3CF1DF01C501D26D00E85
:1002B0001D24166E192A02E31A4A1B2AE4D719C014
:1002C00003F01AC004F01BC005F003C0E9FF04C02E
:1002D000F3FF05505AEC15F0196E6C0A07E1010E98
:1002E0000C6E032A02E3044A052A09D01950680A51
:1002F00006E1010E0E6E032A02E3044A052A03C03A
:10030000E9FF04C0F3FF05505AEC15F0750A06E149
:10031000010E106E032A02E3044A052A03C0E9FF16
:1003200004C0F3FF05505AEC15F0196E730A05E18D
:10033000010E0D6E200E156E3FD01950780A03E1A4
:10034000100E116E39D01950580A05E1100E116EB9
:10035000010E126E31D01950630A02E1116A2CD0DD
:1003600019506F0A03E1080E116E26D01950660A63
:1003700003E1010E0F6E20D01950640A1DE01950E0
:10038000690A1AE0105005E0FF0E03260422052238
:1003900013D01950E56E0250E56E0150E56E005025
:1003A000E56EE3EC08F0040EE126094A0A2A032A66
:1003B00002E3044A052AA3D60D5021E00650030F9C
:1003C0000D6E000E0720196E000E08201A6E0DC06B
:1003D00006F019C007F01AC008F0FD0E0D26FF0E3A
:1003E00019221A220DC0E9FF19C0F3FF1A5014ECAC
:1003F00014F00D6EF3CF19F0F4CF1AF0FDD00F50BA
:100400000DE0000E1A6E080E196E100E0D6E040E21
:100410000626000E072208221668EED016680C5039
:1004200023E00650040F0C6E000E07200F6E000E26
:1004300008201B6E0CC006F00FC007F01BC008F0B0
:10044000FC0E0C26FF0E0F221B220CC0E9FF0FC072
:10045000F3FF1B505CEC13F00C6EF3CF0FF0F4CFF6
:100460001BF0E9CF1CF067D00E502FE00650020FB2
:100470000E6E000E07201D6E000E08201E6E0EC0B0
:1004800006F01DC007F01EC008F0FE0E0E26FF0E7F
:100490001D221E220EC0E9FF1DC0F3FF1E50D3EC2B
:1004A00014F00E6E0EC00CF00F6A1B6A1C6A11501D
:1004B0000A0A03E11050D8B43ED00C500E6E0EC0A4
:1004C0000CF00F6A1B6A1C6A36D00650020F0E6EC3
:1004D000000E07201D6E000E08201E6E0EC006F0D6
:1004E0001DC007F01EC008F0FE0E0E26FF0E1D22D6
:1004F0001E220EC0E9FF1DC0F3FF1E50D3EC14F006
:100500000E6EF3CF1DF00EC00CF01DC00FF0E86AA8
:100510001DBEFF0E1B6E1C6E11500A0A02E1105028
:100520000AE00C500E6E0F501D6E0EC00CF01DC078
:100530000FF01B6A1C6A040E196E240E0D6E800EDD
:100540001A6E1150D8B440D0105013E01150E56E1F
:10055000040EE56E240EE56E1C50E56E1B50E56E34
:100560000F50E56E0C50E56E2FEC05F0070EE126FE
:1005700012D01150E56E040EE56E240EE56E1C508F
:10058000E56E1B50E56E0F50E56E0C50E56E42ECCB
:100590000CF0070EE12617502FE00DC0E9FF19C03F
:1005A000F3FF1A505AEC15F02D0A26E0FF0E0D2627
:1005B00019221A2218C0E5FF0DC0E9FF19C0F3FF88
:1005C0001A50C7EC15F018D00CC0E5FF0DC0E9FFBC
:1005D00019C0F3FF1A50C7EC15F00D50010F0C6E47
:1005E000000E19200E6E000E1A20E56A0CC0E9FFFD
:1005F0000EC0F3FFC7EC15F00DC00CF019C00EF0E3
:100600001AC00FF013C010F0105010E00CC0E9FF3A
:100610000EC0F3FF0F505AEC15F0176E175006E09E
:100620000C2A02E30E4A0F2A1006EED710C013F070
:1006300014501EE109C00CF00AC00EF010C00FF0FB
:100640000F5010E01550E56E0250E56E0150E56E5A
:100650000050E56EE3EC08F0040EE1260C4A0E2A89
:100660000F06EED70CC009F00EC00AF00FC013F051
:1006700016C00CF00DC00DF019C00EF01AC00FF02E
:1006800009C010F00AC015F00DC0E9FF0EC0F3FF5D
:100690000F505AEC15F0166E1650D8B43ED00CC060
:1006A00016F0176A161E171E1650171005E00CC01C
:1006B00016F00C06165031E00DC0E9FF0EC0F3FF36
:1006C0000F505AEC15F0116E125010E01150E56EFB
:1006D00090EC14F0166EE652165004E0DF0E111482
:1006E000166E02D011C016F016C011F01150E56E52
:1006F0000250E56E0150E56E0050E56EE3EC08F047
:10070000040EE1260D2A02E30E4A0F2A104A152A8A
:100710001350D8B4B9D71306B7D710C009F015C015
:100720000AF014502BE010C00CF015C00DF013C0EF
:100730000EF00E501FE0200EE56E0250E56E0150E7
:10074000E56E0050E56EE3EC08F0040EE1260C4A7D
:100750000D2A0E06EED70B50E56E0250E56E0150E5
:10076000E56E0050E56EE3EC08F0040EE126094A60
:100770000A2A04D00CC009F00DC00AF0032A02E3D3
:10078000044A052A7FEF00F00AC0F3FF0950E4CFC6
:100790001EF0E4CF1DF0E4CF1CF0E4CF1BF0E4CF5B
:1007A0001AF0E4CF19F0E4CF18F0E4CF17F0E4CF5B
:1007B00016F0E4CF15F0E4CF14F0E4CF13F0E4CF5B
:1007C00012F0E4CF11F0E4CF10F0E4CF0FF0E4CF5B
:1007D0000EF0E4CF0DF0E4CF0CF0E4CF0BF0E4CF5B
:1007E0000AF0E4CF09F0E4CF08F0E4CF07F0E4CF5B
:1007F00006F0E4CF05F0E4CF04F0E4CF03F0E4CF5B
:1008000002F0E4CF01F0E4CF00F0E4CFD9FF120012
:100810003C4E4F20464C4F41543E000000C0E5FF87
:1008200001C0E5FF02C0E5FF03C0E5FF0F0129514C
:10083000D8B40CD19DA81DD09EA81BD00F01325159
:100840000F01301905E188EC15F00F01306BFED077
:10085000000E0F013225006E016A040E012200C055
:10086000E9FF01C0EAFFEFCF90F4322B90C4ADFF57
:10087000EDD09DAAEBD09EAAE9D0ABA205D00F0186
:10088000318188EC15F0E2D0ABA405D00F013183A3
:1008900088EC15F0DBD0ABA048D0AECF90F42ACFD7
:1008A00000F0016A008E90C402F0036A0250001842
:1008B00003E10350011801E004D00F013189AB9628
:1008C000C5D00401905104E090510F012A1929E18B
:1008D0000F013199AB960401905103E00F0131975C
:1008E00002D00F01318790C435FF2ECF36FF0F01A4
:1008F0002E51006E00040401396F600E0F01362581
:10090000006E016A000E012200C0E9FF01C0EAFF8B
:1009100090C4EFFF362B3651800A02E10F01366B8F
:1009200095D00F013199AB8691D0AECF90F40F01E5
:1009300031A921D02ACF00F0016A008E90C402F0C4
:10094000036A0250001803E10350011801E011D0BE
:100950009D9AAB9894900F01305104E1AD6A88ECF8
:1009600015F007D000C4ADFF010E0F01326F9D8856
:100970006DD0AB866BD0040190510F0135270F016C
:100980003651040139191BE10F0135510CE136CF05
:100990002EFF0F0131B712D09D9AAB989490AD6A9B
:1009A00088EC15F00BD00F01318531B707D09D9A37
:1009B000AB989490010EAD6E88EC15F047D00F0106
:1009C00036510F012F1908E10F012F510F012E1978
:1009D00003E088EC15F03AD02ECF00F0016A004A0F
:1009E000012AE56A800EE56E0150E56E0050E56E65
:1009F00002EC0BF0006E040EE12600500401916F32
:100A00000F0136190FE190C400F01F0E001404010D
:100A1000396F006E020E0024396F0F012E51040150
:100A20003927399F36CF00F00F01362B016A600E4F
:100A30000026000E012200C0E9FF01C0EAFF90C4B9
:100A4000EFFF3651800A02E10F01366BE4CF03F06D
:100A5000E4CF02F0E4CF01F0E4CF00F01200D9CFF0
:100A6000E5FFE1CFD9FF00C0E5FF01C0E5FF02C00F
:100A7000E5FF03C0E5FF04C0E5FF05C0E5FF06C0D4
:100A8000E5FF07C0E5FF08C0E5FF09C0E5FF0AC0B4
:100A9000E5FF0BC0E5FF0CC0E5FF0DC0E5FF0EC094
:100AA000E5FF0FC0E5FF020EDBCF00F0030EDBCF4A
:100AB00001F0040EDBCF02F0050EDBCF03F0060ED3
:100AC000DBCF04F0070EDBCF05F0080EDBCF06F01E
:100AD000200E076E086A06C009F00A6A0B6A0C6AE3
:100AE000E56AE56AE56A0950E56E0350E56E025075
:100AF000E56E0150E56E0050E56E0BEC06F00D6EF4
:100B0000080EE126300E0D263A0E0D5C05E30D5061
:100B10000E6E270E0E240D6EFF0E07260822E00E25
:100B200007240E6E000E08200F6E0EC0E9FF0FC0E6
:100B3000EAFF0DC0EFFF0C50E56E0B50E56E0A505A
:100B4000E56E0950E56E0350E56E0250E56E01500A
:100B5000E56E0050E56E39EC07F0006EF3CF01F062
:100B6000F4CF02F0E9CF03F0080EE12600500110A7
:100B700002100310D8A4AFD707C000F008C001F0DE
:100B800004C002F005C003F000C004F001C005F08D
:100B9000004A012AE00E0426000E052204C0E9FFE7
:100BA00005C0EAFFEFCF04F002C0E9FF03C0EAFF8F
:100BB00004C0EFFF024A032A000E015C02E1200E8E
:100BC000005CE2E302C0E9FF03C0EAFF000EEF6A47
:100BD000E4CF0FF0E4CF0EF0E4CF0DF0E4CF0CF053
:100BE000E4CF0BF0E4CF0AF0E4CF09F0E4CF08F053
:100BF000E4CF07F0E4CF06F0E4CF05F0E4CF04F053
:100C0000E4CF03F0E4CF02F0E4CF01F0E4CF00F052
:100C1000E4CFD9FF1200D9CFE5FFE1CFD9FF00C063
:100C2000E5FF01C0E5FF02C0E5FF03C0E5FF04C02A
:100C3000E5FF05C0E5FF06C0E5FF07C0E5FF08C00A
:100C4000E5FF09C0E5FF0AC0E5FF020EDBCF00F0BB
:100C5000030EDBCF01F0040EDBCF02F0050EDBCF7D
:100C600003F0060EDBCF04F0070EDBCF05F0080E15
:100C7000DBCF06F0090EDBCF07F0086A0450051041
:100C80000610071005E1E968F468F368E86847D0E2
:100C9000096A0750800BE8440A6E0A501BE10450B1
:100CA00004260536063607360750035C08E1065071
:100CB000025C05E10550015C02E10450005C06E2C3
:100CC000D890073206320532043204D0092A09C00E
:100CD00008F0DFD70750035C08E10650025C05E12D
:100CE0000550015C02E10450005C08E30450005E22
:100CF0000550015A0650025A0750035AD89007323D
:100D000006320532043208C009F008060950E2E153
:100D100003C0E9FF02C0F4FF01C0F3FF0050E4CFBD
:100D20000AF0E4CF09F0E4CF08F0E4CF07F0E4CF15
:100D300006F0E4CF05F0E4CF04F0E4CF03F0E4CF15
:100D400002F0E4CF01F0E4CF00F0E4CFD9FF1200CD
:100D5000D9CFE5FFE1CFD9FF00C0E5FF01C0E5FF36
:100D600002C0E5FF03C0E5FF04C0E5FF06C0E5FFE4
:100D7000020EDBCF00F0030EDBCF01F0040EDBCF61
:100D800002F03F0EC716C66AC56A0050C61201506F
:100D9000C7129488820E006E0F0E016E0F0E046E45
:100DA000380E0026045001220F0E046E800E005EE5
:100DB0000450015A820E036E0F0E046E0F0E066E63
:100DC000380E0326065004220F0E066E800E035EB8
:100DD0000650045A03C0E9FF04C0EAFFEFCF03F056
:100DE000039800C0E9FF01C0EAFF03C0EFFF94864B
:100DF000820E006E0F0E016E0F0E046E380E00266E
:100E0000045001220F0E046E800E005E0450015A41
:100E1000820E036E0F0E046E0F0E066E380E032642
:100E2000065004220F0E066E800E035E0650045A12
:100E300003C0E9FF04C0EAFFEFCF03F0039600C050
:100E4000E9FF01C0EAFF03C0EFFF02C0C8FFC68A86
:100E50009E96A196E4CF06F0E4CF04F0E4CF03F031
:100E6000E4CF02F0E4CF01F0E4CF00F0E4CFD9FF0B
:100E70001200D9CFE5FFE1CFD9FF00C0E5FF01C0E7
:100E8000E5FF02C0E5FF03C0E5FF04C0E5FF05C0C4
:100E9000E5FF06C0E5FF07C0E5FF08C0E5FF09C0A4
:100EA000E5FF0AC0E5FF0BC0E5FF0CC0E5FF0DC084
:100EB000E5FF020EDBCF00F0030EDBCF01F0040EE6
:100EC000DBCF02F0050EDBCF03F0060EDBCF04F024
:100ED000070EDBCF05F0080EDBCF06F0090EDBCFE7
:100EE00007F0086A096A0A6A0B6A200E0C6E035042
:100EF000800BE8440D6E00500026013602360336A2
:100F00000850082609360A360B360D50D8A408803A
:100F100007500B5C08E106500A5C05E10550095CCE
:100F200002E10450085C09E30450085E0550095AC8
:100F300006500A5A07500B5A00800C040D6E0DC063
:100F40000CF00D50D4E103C0E9FF02C0F4FF01C072
:100F5000F3FF0050E4CF0DF0E4CF0CF0E4CF0BF042
:100F6000E4CF0AF0E4CF09F0E4CF08F0E4CF07F0D3
:100F7000E4CF06F0E4CF05F0E4CF04F0E4CF03F0D3
:100F8000E4CF02F0E4CF01F0E4CF00F0E4CFD9FFEA
:100F9000120000C0E5FF01C0E5FF03C0E5FF04C08B
:100FA000E5FF05C0E5FF06C0E5FF07C0E5FF08C097
:100FB000E5FF09C0E5FF0AC0E5FF0BC0E5FF87C4F8
:100FC00000F088C401F00401873F01D0882B005055
:100FD000E56E7AEC15F0E652076E046A056A066A59
:100FE00087C400F088C401F00401873F01D0882B3A
:100FF0000050E56E7AEC15F0E6520B6A0A6E086A4C
:101000000850041205120A5006120B50071287C42A
:1010100000F088C401F00401873F01D0882B005004
:10102000E56E7AEC15F0E652036E006A03C001F03B
:10103000E86A03BEFF0E086E096E005004120150EC
:101040000512085006120950071287C400F088C420
:1010500001F00401873F01D0882B0050E56E7AEC47
:1010600015F0E652016A0412015005120612071229
:1010700007C0E9FF06C0F4FF05C0F3FF0450E4CF4A
:101080000BF0E4CF0AF0E4CF09F0E4CF08F0E4CFAE
:1010900007F0E4CF06F0E4CF05F0E4CF04F0E4CFAE
:1010A00003F0E4CF01F0E4CF00F0120000C0E5FF50
:1010B00001C0E5FF02C0E5FF03C0E5FF0F012F51AE
:1010C0000F012E1901E163D02FCF00F0002A009EFE
:1010D000016A600E0026000E012200C0E9FF01C077
:1010E000EAFFEFCF3BF41F0E04013B172FCF3AF47A
:1010F0003B5104013A273A51006E020E00243A6F28
:101100003A9F4FEC12F0006E005003E1006A002A93
:1011100001D0006A4FEC12F004013B6F3BC401F0B8
:10112000800E01163BC402F01F0E021602C003F02F
:1011300002C03BF4035003E12ECF2FFF3BD0005001
:101140001EE0015022E04FEC12F0006E04013B5112
:10115000026E02043B6F0050420A17E000504E0A34
:1011600003E1E8EC0EF011D00050460A03E1BCECBC
:1011700015F00BD00050490A08E1FF0006D02FCF30
:101180003CF40150D8B407EC11F03AC42FFF0F0122
:1011900026510F01271906E00F01305103E16FECD2
:1011A00009F008D094B006D00F01305103E1ACB281
:1011B00088EC15F0E4CF03F0E4CF02F0E4CF01F0C7
:1011C000E4CF00F01200D9CFE5FFE1CFD9FF00C096
:1011D000E5FF01C0E5FF02C0E5FF03C0E5FF04C075
:1011E000E5FF05C0E5FF06C0E5FF07C0E5FF020E0D
:1011F000DBCF00F0030EDBCF01F0040EDBCF02F0FB
:10120000050EDBCF03F002C006F00650046E800A24
:1012100033E100C0E9FF01C0F3FF025014EC14F009
:10122000056EF3CF06F0F4CF07F003C0E5FF05C06D
:10123000E9FF06C0F3FF0750C7EC15F000C0E9FF57
:1012400001C0F3FF025014EC14F0056EF3CF06F06A
:10125000F4CF07F0052A02E3064A072A05C0E5FF96
:1012600006C0F4FF07C0F6FF00C0E9FF01C0F3FFAE
:1012700002506BEC15F020D004C000F000AA1CD086
:10128000007A0050046E04E1035014EC16F014D000
:101290000450010A04E103502AEC16F00DD004506A
:1012A0000F0A04E10350A0EC11F006D004500E0A1E
:1012B00003E1035027EC16F0E4CF07F0E4CF06F08B
:1012C000E4CF05F0E4CF04F0E4CF03F0E4CF02F084
:1012D000E4CF01F0E4CF00F0E4CFD9FF120000C06A
:1012E000E5FF01C0E5FF02C0E5FF03C0E5FFACA2DA
:1012F00077D07CEC13F0006E005005E10F01276BF6
:101300000F01266B6DD027CF01F0005001267CEC39
:1013100013F0026E00060250230A1FE1010E005C6A
:10132000D8A05CD07CEC13F0036E690A03E16FEC8B
:1013300011F054D00350720A03E188EC15F04ED03E
:101340000350730A01E04AD09480AB869D8A9D9831
:10135000AE50AE50AB98AB8841D00250430A05E086
:101360000250420A01E03AD001D0008E0F01326BE8
:1013700000C033FF00500401006F0F01322B0F013A
:101380002751011814E07CEC13F0006E0F01332795
:10139000000E0F013225026E036A040E032202C002
:1013A000E9FF03C0EAFF00C0EFFF322BE8D7000ED1
:1013B0000F013225006E026A040E02220F01331D56
:1013C000036E032A00C0E9FF02C0EAFF03C0EFFF7B
:1013D0000F01322B32CF30FF04018E6B01C027FF8B
:1013E000E4CF03F0E4CF02F0E4CF01F0E4CF00F06B
:1013F0001200D9CFE5FFE1CFD9FF00C0E5FF01C062
:10140000E5FF02C0E5FF03C0E5FF04C0E5FF05C03E
:10141000E5FF06C0E5FF020EDBCF00F0030EDBCFD9
:1014200001F0040EDBCF02F0050EDBCF03F003C0AA
:1014300004F0056A0350D8B453D000C0E9FF01C0DE
:10144000F3FF02505AEC15F0066E430A03E1010E59
:10145000056E038E0406002A02E3014A022A9D9AC1
:10146000AB9894909D989EA8FED7AC80AD6A000082
:101470009EA8FED7AC9003C0ADFF00009EA8FED78B
:10148000055005E0420EAD6E0324056E05D0620ED8
:10149000AD6E620E0324056E04C003F0035015E028
:1014A00000009EA8FED700C0E9FF01C0F3FF025074
:1014B0005AEC15F0046E04C0ADFF04500526030677
:1014C000002A02E3014A022AE9D700009EA8FED7BB
:1014D000051CAD6EAD2A00009EA8FED788EC15F065
:1014E000E4CF06F0E4CF05F0E4CF04F0E4CF03F05E
:1014F000E4CF02F0E4CF01F0E4CF00F0E4CFD9FF75
:101500001200D9CFE5FFE1CFD9FF00C0E5FF01C050
:10151000E5FF02C0E5FF03C0E5FF04C0E5FF05C02D
:10152000E5FF06C0E5FF07C0E5FF020EDBCF00F0D8
:10153000030EDBCF01F0040EDBCF02F0050EDBCF94
:1015400003F027CF28FF0F0126510F01285F2851F4
:10155000046E0404286F03C004F0056A030E042619
:10156000D8B0052A28CF06F0076A0750800FF36E1F
:101570000550800FF35C02E10450065C02E2E8686B
:101580002ED0020E035C02E2E86A29D00306035063
:10159000E56EE6EC0FF0E652046A0350045C14E2D8
:1015A00004500024056EE86A0120066EE86A0220F5
:1015B00005C0E9FF06C0F3FF5AEC15F0042AE56EFA
:1015C000E6EC0FF0E652E9D727CF28FF0F012651AE
:1015D0000F01285F2851006E0004286FE86AE4CFED
:1015E00007F0E4CF06F0E4CF05F0E4CF04F0E4CF59
:1015F00003F0E4CF02F0E4CF01F0E4CF00F0E4CF59
:10160000D9FF1200D9CFE5FFE1CFD9FF00C0E5FF38
:1016100001C0E5FF02C0E5FF03C0E5FF04C0E5FF30
:1016200005C0E5FF06C0E5FF020EDBCF00F0030EAC
:10163000DBCF01F0040EDBCF02F0050EDBCF03F0B1
:10164000D88001AED890046A0436045007E0011C2B
:10165000066E001C056E054A062A04D000C005F07F
:1016600001C006F0D88003AED89007E3031C016EDA
:10167000021C006E004A012A04D002C000F003C020
:1016800001F00150E56E0050E56E0650E56E055024
:10169000E56EA5EC0CF0006EF3CF01F0040EE12630
:1016A00004500AE0011C036E001C026E024A032A69
:1016B00003C0F3FF025003D001C0F3FF0050E4CF9A
:1016C00006F0E4CF05F0E4CF04F0E4CF03F0E4CF7C
:1016D00002F0E4CF01F0E4CF00F0E4CFD9FF120034
:1016E000D9CFE5FFE1CFD9FF00C0E5FF01C0E5FF9D
:1016F00002C0E5FF03C0E5FF04C0E5FF05C0E5FF4C
:10170000020EDBCF00F0030EDBCF01F0040EDBCFC7
:1017100002F0050EDBCF03F087C404F088C405F0A7
:101720000401873F01D0882B0350E56E0450E56E1D
:1017300025EC12F0E652E65287C404F088C405F0A6
:101740000401873F01D0882B0250056EE56E0450DE
:10175000E56E25EC12F0E652E65287C404F088C428
:1017600005F00401873F01D0882B0150E56E04503D
:10177000E56E25EC12F0E652E65287C404F088C408
:1017800005F00401873F01D0882B0050E56E04501E
:10179000E56E25EC12F0E652E652E4CF05F0E4CF18
:1017A00004F0E4CF03F0E4CF02F0E4CF01F0E4CFA3
:1017B00000F0E4CFD9FF1200D9CFE5FFE1CFD9FF88
:1017C00000C0E5FF01C0E5FF02C0E5FF03C0E5FF83
:1017D00004C0E5FF05C0E5FF06C0E5FF020EDBCF54
:1017E00000F0030EDBCF01F0040EDBCF02F00401AA
:1017F0008D5119E1C9EC07F0036EF3CF04F0F4CF7B
:1018000005F0E9CF06F003C0E5FF04C0F4FF05C012
:10181000F6FF06C0F7FF00C0E9FF01C0F3FF02506A
:1018200049EC15F01ED004018D51010A1AE100C0E7
:10183000E9FF01C0F3FF02505CEC13F0006EF3CF40
:1018400001F0F4CF02F0E9CF03F00350E56E02504F
:10185000E56E0150E56E0050E56E70EC0BF0040E85
:10186000E126E4CF06F0E4CF05F0E4CF04F0E4CFC6
:1018700003F0E4CF02F0E4CF01F0E4CF00F0E4CFD6
:10188000D9FF1200D9CFE5FFE1CFD9FF00C0E5FFB6
:1018900001C0E5FF02C0E5FF03C0E5FF04C0E5FFAE
:1018A00005C0E5FF06C0E5FF020EDBCF00F0030E2A
:1018B000DBCF01F0040EDBCF02F0050EDBCF03F02F
:1018C000060EDBCF04F0070EDBCF05F0080EDBCFF2
:1018D00006F0D88003AED89015E306500A0A12E14C
:1018E00004C0E9FF05C0EAFF2D0EEF6E044A052A89
:1018F000031E021E011E006C05E1012A03E1022AFB
:10190000D8B4032A0650E56E0550E56E0450E56E26
:101910000350E56E0250E56E0150E56E0050E56E35
:101920002FEC05F0070EE126E4CF06F0E4CF05F03A
:10193000E4CF04F0E4CF03F0E4CF02F0E4CF01F011
:10194000E4CF00F0E4CFD9FF1200D9CFE5FFE1CF1B
:10195000D9FF00C0E5FF01C0E5FF02C0E5FF03C0FD
:10196000E5FF04C0E5FF05C0E5FF06C0E5FF020E88
:10197000DBCF00F0030EDBCF01F0040EDBCF02F073
:10198000050EDBCF03F0046A056A0350800BE844C0
:10199000066E065011E10250022603360350015C28
:1019A00002E10250005C04E2D8900332023204D01B
:1019B000052A05C004F0E9D70350015C02E102509A
:1019C000005C04E30250005E0350015AD8900332D9
:1019D000023204C005F004060550EEE101C0F3FF39
:1019E0000050E4CF06F0E4CF05F0E4CF04F0E4CFFC
:1019F00003F0E4CF02F0E4CF01F0E4CF00F0E4CF55
:101A0000D9FF1200D9CFE5FFE1CFD9FF00C0E5FF34
:101A100001C0E5FF02C0E5FF03C0E5FF020EDBCF1A
:101A200000F0030EDBCF01F0040EDBCF02F000C0AC
:101A3000E9FF01C0F3FF02505AEC15F0036E0350AA
:101A400029E0C6A610D00350E56E9BEC13F0036EA0
:101A5000E652035002E0FD0E1ED097EC10F0C5AC2C
:101A600014D0FE0E18D09E9600C0E9FF01C0F3FF0F
:101A700002505AEC15F0C96EC6889EA6FED7C7B4B0
:101A800004D0C7B002D0FE0E06D0002AD0E3014A2F
:101A9000022ACDD7E86AE4CF03F0E4CF02F0E4CF26
:101AA00001F0E4CF00F0E4CFD9FF1200D9CFE5FF79
:101AB000E1CFD9FF00C0E5FF01C0E5FF02C0E5FFAF
:101AC00003C0E5FF04C0E5FF05C0E5FF020EDBCF64
:101AD00000F0030EDBCF01F0040EDBCF02F0050EA9
:101AE000DBCF03F0046A03C005F00306055022E0D3
:101AF000C9EC12F0056E05C0E5FF00C0E9FF01C0AA
:101B0000F3FF0250C7EC15F0002A02E3014A022A53
:101B100004C005F0C5A6E7D7A1A602D0E8680BD09F
:101B2000052A05C004F00350F5E03BEC13F0C5B8FE
:101B3000FED7F0D70450E4CF05F0E4CF04F0E4CFB3
:101B400003F0E4CF02F0E4CF01F0E4CF00F0E4CF03
:101B5000D9FF120000C0E5FF01C0E5FF02C0E5FFAC
:101B600003C0E5FF2FCF00F0016A3CC402F0036A16
:101B70000250005E0350015AE56A800EE56E015086
:101B8000E56E0050E56E02EC0BF0006E040EE126EF
:101B900000063CC401F0430EA0EC11F0200EA0ECB6
:101BA00011F0005020E0600E0124026E036A000E66
:101BB000032202C0E9FF03C0EAFFEFCF02F0E56AAB
:101BC0000250E56E000EE56E2B0EE56E280EE56EFA
:101BD0002AEC0FF0050EE126012A0150800A01E1EE
:101BE000016A0006DED7E4CF03F0E4CF02F0E4CFD1
:101BF00001F0E4CF00F01200D8CFE5FFE0CFE5FF21
:101C0000E56EF3CFE5FFF4CFE5FFE9CFE5FFEACFDF
:101C1000E5FFFACFE5FFFBCFE5FF00C0E5FF01C020
:101C2000E5FF0F0124510401326F0F01255104011A
:101C3000336FD650306FD750316FF2A417D024CF06
:101C400000F025CF01F00050010F0F01246F000EAE
:101C50000120256FF29424510401326F0F012551A8
:101C60000401336FD650306FD750316FE4CF01F09D
:101C7000E4CF00F0E4CFFBFFE4CFFAFFE4CFEAFFCC
:101C8000E4CFE9FFE4CFF4FFE4CFF3FFE450E4CF87
:101C9000E0FFE4CFD8FF1000D9CFE5FFE1CFD9FFB7
:101CA00000C0E5FF01C0E5FF02C0E5FF03C0E5FF9E
:101CB00004C0E5FF020EDBCF00F0030EDBCF01F026
:101CC000040EDBCF02F004018D5111E13BEC11F069
:101CD000036EF3CF04F003C0E5FF04C0F4FF00C0BF
:101CE000E9FF01C0F3FF0250A4EC15F016D0040187
:101CF0008D51010A12E100C0E9FF01C0F3FF02505B
:101D0000D3EC14F0006EF3CF01F00150E56E0050FB
:101D1000E56EA9EC0FF0E652E652E4CF04F0E4CF12
:101D200003F0E4CF02F0E4CF01F0E4CF00F0E4CF21
:101D3000D9FF1200E40EF66E2B0EF76E000EF86E51
:101D40000900F550056E0900F550066E04E10567BF
:101D500002D0E7EF0EF00900F550006E0900F550D3
:101D6000016E0900F550026E09000900F550E96E98
:101D70000900F550EA6E090009000900F550036EEC
:101D80000900F550046E09000900F6CF07F0F7CFFF
:101D900008F0F8CF09F000C0F6FF01C0F7FF02C05D
:101DA000F8FF035002E1045007E00900F550EE6E21
:101DB0000306F8E20406F9D707C0F6FF08C0F7FFEC
:101DC00009C0F8FF050601E20606A6EF0EF01200B4
:101DD00000C0E5FF01C0E5FF02C0E5FF4FEC12F0D7
:101DE000006E4FEC12F0016ED00E00260A0E005C61
:101DF00005E30050026EF90E0224006ED00E01269B
:101E00000A0E015C05E30150026EF90E0224016E18
:101E1000080E005C03E2100E015CD8B014D000384C
:101E2000F00B0124006E016A5DEC10F0026E0250AE
:101E300002E0010E016E0150010A05E00050E56E5E
:101E400049EC14F0E652E4CF02F0E4CF01F0E4CF25
:101E500000F01200D9CFE5FFE1CFD9FF00C0E5FFC8
:101E600001C0E5FF02C0E5FF020ED924006E000E9E
:101E7000DA20016E800E026E030E0026000E012293
:101E800002220250E56E0150E56E0050E56E040E30
:101E9000DBCFE5FF030EDBCFE5FF020EDBCFE5FF77
:101EA00004018351E56E8251E56E8151E56E0EECC1
:101EB00000F0006EF3CF01F0090EE12601C0F3FF40
:101EC0000050E4CF02F0E4CF01F0E4CF00F0E4CF23
:101ED000D9FF1200D9CFE5FFE1CFD9FF00C0E5FF60
:101EE00001C0E5FF02C0E5FF03C0E5FF020EDBCF46
:101EF00000F0030EDBCF01F0040EDBCF02F0040193
:101F00008D510DE1A7EC14F0036E03C0E5FF00C096
:101F1000E9FF01C0F3FF0250C7EC15F00FD0040138
:101F20008D51010A0BE100C0E9FF01C0F3FF02502F
:101F30005AEC15F0E56EF0EC12F0E652E4CF03F047
:101F4000E4CF02F0E4CF01F0E4CF00F0E4CFD9FF1A
:101F50001200D9CFE5FFE1CFD9FF00C0E5FF01C0F6
:101F6000E5FF02C0E5FF03C0E5FF020EDBCF00F096
:101F7000030EDBCF01F087C402F088C403F0040134
:101F8000873F01D0882B0150E56E0250E56E25ECAD
:101F900012F0E652E65287C402F088C403F004014E
:101FA000873F01D0882B0050E56E0250E56E25EC8E
:101FB00012F0E652E652E4CF03F0E4CF02F0E4CFB1
:101FC00001F0E4CF00F0E4CFD9FF1200D9CFE5FF54
:101FD000E1CFD9FF00C0E5FF01C0E5FF02C0E5FF8A
:101FE00003C0E5FF04C0E5FF020EDBCF00F026CF03
:101FF00001F0026A014A022A27CF03F0046A015065
:10200000031803E10250041801E001D00ED0000EC5
:102010000F012625016E026A010E022201C0E9FFAE
:1020200002C0EAFF00C0EFFF262BE4CF04F0E4CFAC
:1020300003F0E4CF02F0E4CF01F0E4CF00F0E4CF0E
:10204000D9FF1200D9CFE5FFE1CFD9FF00C0E5FFEE
:1020500001C0E5FF02C0E5FF03C0E5FF020EDBCFD4
:1020600000F0016A3CC402F0036A025000260350EB
:102070000122E56A800EE56E0150E56E0050E56EC6
:1020800002EC0BF0006EF3CF01F0040EE126600EBF
:102090000026000E012200C0E9FF01C0EAFFEFCFD9
:1020A00000F00050E4CF03F0E4CF02F0E4CF01F001
:1020B000E4CF00F0E4CFD9FF120000C0E5FF01C07B
:1020C000E5FF02C0E5FF010E006E4FEC12F0016E5D
:1020D00001C002F0015023E00050E56E7AEC15F0EB
:1020E000016EE652015010E10A0E005C0BE20A0E8E
:1020F000006EE56E7AEC15F0016EE652015004E1D7
:10210000E8680ED0E8680CD00150021802E0E868D8
:1021100007D0002A1B0E005CD8E3E86801D0E86A0B
:10212000E4CF02F0E4CF01F0E4CF00F0120000C0F1
:10213000E5FF01C0E5FF02C0E5FF03C0E5FF04C005
:10214000E5FF05C0E5FFE80E006E030E016EFF0E11
:10215000002601220050011010E0C5CF02F0036AF2
:102160001F0E0216046AC7B4042A056A045002123C
:102170000550031202500310EAE10F012C6B0050CE
:1021800003E1015001E12C2BE4CF05F0E4CF04F092
:10219000E4CF03F0E4CF02F0E4CF01F0E4CF00F0AD
:1021A0001200D9CFE5FFE1CFD9FF00C0E5FF01C0A4
:1021B000E5FF02C0E5FF020EDBCF00F0030EDBCF30
:1021C00001F0BAEC13F00F012C5102E0E86816D0D0
:1021D0000044FE0B026E0150D880E866D890016A78
:1021E00001360150D880E866D890016A0136015066
:1021F00002120250E56E9BEC13F0E652E4CF02F0BF
:10220000E4CF01F0E4CF00F0E4CFD9FF120000C02A
:10221000E5FF01C0E5FF4FEC12F0006E010A17E187
:102220004FEC12F0016EE56ED0EC11F0E652E56A6B
:10223000E56EE56A0150E56E000EE56E2A0EE56E6C
:10224000880EE56E2AEC0FF0070EE1260FD0005045
:10225000020A0CE14FEC12F0006E4FEC12F0E56E4A
:102260000050E56E79EC12F0E652E652E4CF01F050
:10227000E4CF00F0120000C0E5FF01C0E5FF02C09E
:10228000E5FF03C0E5FF87C400F088C401F0040146
:10229000873F01D0882B0050E56E7AEC15F0E652AE
:1022A000036E026A87C400F088C401F00401873F0E
:1022B00001D0882B0050E56E7AEC15F0E652016AE9
:1022C00002120150031203C0F3FF0250E4CF03F0E7
:1022D000E4CF02F0E4CF01F0E4CF00F012000F01F0
:1022E000266B0F01276B0F01286994808B909480D7
:1022F000B06A3F0EAF6EB886AC8AAC84AC8CAC9042
:10230000AB8CAB8E0F01316B04018F6B0F012E6B09
:102310000F012F6B0F01306B000EE56A7AEC15F0A0
:102320000F012A6FE6529F989F9A010E0F01296FA5
:102330000401816B826B2F0E836F88EC15F0120005
:1023400000C0E5FF01C0E5FF02C0E5FF006E000E22
:102350000F012B25016E026A0F0E022201C0E9FF58
:1023600002C0EAFF00C0EFFF220E2B5DD8A02B2B8E
:1023700000500A0A0EE10F012B51E56E800EE56E4A
:102380000F0EE56E000EE56E81EC0AF0040EE126FC
:102390002B6BE4CF02F0E4CF01F0E4CF00F01200A9
:1023A000D9CFE5FFE1CFD9FF00C0E5FF020EDBCFBB
:1023B00000F0E56A0F012351E56ED1EC10F0E65212
:1023C000E6520050E56E9BEC13F0E65210EC16F06E
:1023D000010EE56E2351E56ED1EC10F0E652E652A7
:1023E000C9EC12F0006E10EC16F00050E4CF00F0D3
:1023F000E4CFD9FF12000F0124510401366F0F0101
:1024000025510401376FD650346FD750356F365190
:102410000F01241905E1040137510F0125190CE0C2
:102420000F0124510401366F0F0125510401376F4C
:10243000D650346FD750356F37C4E9FF36C4F4FF38
:1024400035C4F3FF040134511200D9CFE5FFE1CFC9
:10245000D9FF00C0E5FF01C0E5FF020EDBCF00F0B1
:10246000030EDBCF01F0F29EF29C01C0A8FF00C07A
:10247000A9FFA69EA69CA684550EA76EAA0EA76EBF
:10248000A682F28EF28CA694A6A202D00000FCD7FF
:10249000E4CF01F0E4CF00F0E4CFD9FF120000C098
:1024A000E5FF01C0E5FF0F012F5104013A1905E0D6
:1024B0000F012F510F012E1902E1E86A15D02FCF1D
:1024C00000F00F012F2B016A600E0026000E012282
:1024D00000C0E9FF01C0EAFFEFCF00F02F51800AF2
:1024E00002E10F012F6B0050E4CF01F0E4CF00F0C8
:1024F0001200D9CFE5FFE1CFD9FF00C0E5FF01C051
:10250000E5FF020EDBCF00F0030EDBCF01F0E56A42
:102510000F012351E56ED1EC10F0E652E652005067
:10252000E56E9BEC13F0E6520150E56E9BEC13F068
:10253000E65210EC16F0E4CF01F0E4CF00F0E4CF67
:10254000D9FF120000C0E5FF18EC16F00401896BFA
:10255000806B8983006A89B3002A0050010BE8442C
:10256000F46E8051FD0BF410806FD58ED59CD59AFA
:10257000D588D596D594D582D580F28AF184D08E2F
:10258000F28EF28CBA80FF0EBB68BA84E4CF00F002
:10259000120000C0E5FF01C0E5FF02C0E5FF97ECB7
:1025A00010F0C586E80E006E030E016EFF0E0026C9
:1025B00001220050011005E005EC16F0026E0250F9
:1025C000F5E00F012C6B005003E1015001E12C2BD1
:1025D000C950E4CF02F0E4CF01F0E4CF00F01200E4
:1025E000D9CFE5FFE1CFD9FF00C0E5FF01C0E5FF8E
:1025F00002C0E5FF020EDBCF00F087C401F088C403
:1026000002F00401873F01D0882B0050E56E015095
:10261000E56E25EC12F0E652E652E4CF02F0E4CF8C
:1026200001F0E4CF00F0E4CFD9FF1200D8CFE5FFEE
:10263000E0CFE5FFE56EF3CFE5FFF4CFE5FFE9CFAF
:10264000E5FFEACFE5FFFACFE5FFFBCFE5FF0EECB4
:1026500004F0E4CFFBFFE4CFFAFFE4CFEAFFE4CFDE
:10266000E9FFE4CFF4FFE4CFF3FFE450E4CFE0FF71
:10267000E4CFD8FF100000C0E5FF01C0E5FF97ECF4
:1026800010F09E96C59AC588E80E006E030E016E86
:10269000FF0E002601220050011002E09EA6F8D78E
:1026A0000F012C6B005003E1015001E12C2BE4CF12
:1026B00001F0E4CF00F01200E8AE0AD0F3CFEAFF59
:1026C000EE50EECFF3FFEECFF4FFEECFE9FF1200B6
:1026D000E8BC30EF16F0E9CFF6FFF3CFF7FFF86E66
:1026E0000900F5500900F5CFF3FF0900F5CFF4FF1D
:1026F0000900F5CFE9FF120000C0E5FF01C0E5FFCA
:102700000F0126510F01271902E1E86A0FD0000ED0
:102710000F012725006E016A010E012200C0E9FFAA
:1027200001C0EAFFEFCF00F0272B0050E4CF01F00B
:10273000E4CF00F01200D9CFE5FFE1CFD9FF00C010
:10274000E5FF020EDBCF00F0C69E00C0C9FFC6AE9B
:1027500002D0E8680AD097EC10F0C5BC03D00F0196
:102760002C5102E0E86801D0E86AE4CF00F0E4CF41
:10277000D9FF120000C0E5FF01C0E5FF97EC10F0A3
:10278000C580E80E006E030E016EFF0E00260122CA
:102790000050011002E0C5B0F8D70F012C6B0050BB
:1027A00003E1015001E12C2BE4CF01F0E4CF00F074
:1027B0001200F2CFEAFFF29EA69EA69CA684E9CF65
:1027C000A9FFF3CFAAFFE4CFA8FFD2EC15F0F4CF16
:1027D000A8FFD2EC15F0F6CFA8FFD2EC15F0F7CF9A
:1027E000A8FFD2EC15F0A694EABEF28E1200F2CF4A
:1027F000F6FFF29EA69EA69CE9CFA9FFF3CFAAFF03
:10280000A680A850A94AAA2AA680A8CFF3FFA94A61
:10281000AA2AA680A8CFF4FFA94AAA2AA680A8CFF0
:10282000EAFFF6BEF28E1200E8AE08D0F3CFEAFF60
:10283000EE50EECFF3FFEECFF4FF1200E8BC38EF1E
:1028400016F0E9CFF6FFF3CFF7FFF86E0900F55069
:102850000900F5CFF3FF0900F5CFF4FF1200F2CF26
:10286000EAFFF29EA69EA69CA684E9CFA9FFF3CF1D
:10287000AAFFE4CFA8FFD2EC15F0F4CFA8FFD2EC6A
:1028800015F0F6CFA8FFD2EC15F0A694EABEF28EB2
:102890001200D9CFE5FFE1CFD9FF00C0E5FF020E5E
:1028A000DBCF00F000C02AFF0050E56E000EE56AA5
:1028B00025EC12F0E652E652E4CF00F0E4CFD9FF67
:1028C0001200F2CFF6FFF29EA69EA69CE9CFA9FFCA
:1028D000F3CFAAFFA680A850A94AAA2AA680A8CF0B
:1028E000F3FFA94AAA2AA680A8CFF4FFF6BEF28E6B
:1028F000120000C0E5FF01C0E5FF600E0F012F25AB
:10290000006E016A000E012200C0E9FF01C0EAFF6B
:10291000EFCF00F00050E4CF01F0E4CF00F0120060
:10292000D9CFE5FFE1CFD9FF00C0E5FF020EDBCF35
:1029300000F0610E005C05E37B0E005C02E2010E1C
:1029400001D0E86AE4CF00F0E4CFD9FF120000C064
:10295000E5FF01C0E5FF87C400F088C401F0040171
:10296000873F01D0882B0050E56E7AEC15F0E652D7
:10297000E4CF01F0E4CF00F01200D9CFE5FFE1CFC2
:10298000D9FF00C0E5FF020EDBCF00F000C029FF39
:10299000005004E188EC15F09D9A9D98E4CF00F07A
:1029A000E4CFD9FF1200E8AE06D0F3CFEAFFEE5035
:1029B000EECFF3FF1200E8BC2EEF16F0E9CFF6FFE2
:1029C000F3CFF7FFF86E0900F5500900F5CFF3FFDC
:1029D0001200F2CFEAFFF29EA69EA69CA684E9CF43
:1029E000A9FFF3CFAAFFE4CFA8FFD2EC15F0F4CFF4
:1029F000A8FFD2EC15F0A694EABEF28E120012EEF9
:102A0000FFF022EEFFF0F86AA68EA69CE9680E0E93
:102A1000EA6E0068000EED6A0050FDE19AEC0EF0DF
:102A2000F9EC15F0FFD7F2CFF6FFF29EA69EA69C1A
:102A3000E9CFA9FFF3CFAAFFA680A850A94AAA2AE6
:102A4000A680A8CFF3FFF6BEF28E1200F2CFEAFF07
:102A5000F29EA69EA69CA684E9CFA9FFF3CFAAFF6B
:102A6000E4CFA8FFD2EC15F0A694EABEF28E1200D5
:102A70000BEC16F09F0EE56EE56A080EE56EA8EC0D
:102A800006F0030EE126120043522025642025643F
:102A90000A00E8AE0BD0F3CFEAFFE4CFEEFFF4CFAD
:102AA000EEFFF6CFEEFFF7CFEEFF1200E8BC32EFFD
:102AB00016F01200E8AE04D0F3CFEAFFEE50120099
:102AC000E8BC2CEF16F0E9CFF6FFF3CFF7FFF86E76
:102AD0000900F5501200E8AE09D0F3CFEAFFE4CFC9
:102AE000EEFFF4CFEEFFF6CFEEFF1200E8BC3AEFB8
:102AF00016F01200D9CFE5FFE1CFD9FF020EDBCFF0
:102B0000A9FFA69CA69EA680A850E4CFD9FF1200DC
:102B1000ACA2FED79480AE500000AE50AB98AB880C
:102B2000AB869D8A9D98120025642000F2CFF6FFA7
:102B3000F29EA69EA69CE9CFA9FFF3CFAAFFA6808E
:102B4000A850F6BEF28E1200E8AE07D0F3CFEAFF2F
:102B5000E4CFEEFFF4CFEEFF1200E8BC36EF16F044
:102B60001200700ED36E9B8CFF0E9268936894686F
:102B70009668626AF19E120000C0E5FF5DEC10F0FD
:102B8000006E005001E1FF00E4CF00F01200E8AE5B
:102B900005D0F3CFEAFFE4CFEEFF1200E8BC34EF3C
:102BA00016F01200550EA76EAA0EA76EA682A6B248
:102BB000FED7A94AAA2A010E04018D6F1C0E04013A
:102BC000876F886B120097EC10F09E96C58AC588B7
:102BD0009EA6FED7120004018D6B1C0E0401876FA8
:102BE000886B120001000C000000230F00000B0096
:102BF000000038EC15F01BEC16F0FDD7120097EC36
:102C000010F0C582C5B2FED71200C7A002D0010ED7
:102C100001D0E86A1200A2EC12F06FEC11F0120081
:102C200097EC10F0C5841200ACA2FED7AD6E120076
:102C3000B1EC15F0120056EC08F012000F012F5104
:102C4000120004013B5112000F0129511200E8CF7C
:102C50007FFF1200C96E120096EF15F013EF15F00A
:102C6000F7EF13F0D9EF13F026EF15F0E9EF14F0BA
:082C700061EF14F02FEF14F0E6
:020000040030CA
:010006008574
:00000001FF
